:020000040800F2
:2000000020140020D5000008DD000008DF00000800000000000000000000000000000000E3
:20002000000000000000000000000000E10000080000000000000000E3000008252400089B
:20004000E7000008E7000008E7000008E7000008E7000008E7000008E7000008E700000828
:2000600000000000E700000841020008E7000008E7000008E700000800000000E70000088A
:2000800000000000E70000080000000000000000E700000800000000E7000008E7000008A4
:2000A000E7000008E7000008E70000084D2A0008E7000008E7000008000000000000000016
:2000C0000348854600F0AAF80048004791330008201400200448804704480047FEE7FEE759
:2000E000FEE7FEE7FEE7FEE751240008C100000830B50B46014600202022012409E00D46E6
:20010000D5409D4205D31D469540491B2546954040191546521E002DF1DC30BDF0B51FB4B4
:200120000646002082B005464024019100901BE0019922460F46304600F05EF8049A059B04
:20014000801A994110D310461946224600F044F8361A8F410197224601200021009F00F00E
:200160003BF838184D4100902046641E0028DFDC019B00982946324607B0F0BD03460B43FD
:200180009B0703D009E008C9121F08C0042AFAD203E00B780370401C491C521EF9D27047B1
:2001A00003460A780270401C491C002AF9D1184670470321001D401E037812021A43491E46
:2001C000F9D510467047034603220870000A491C521EFAD51846704710B5202A04DB014666
:2001E000203A9140002010BD914020239C1A0346E3401943904010BD10B5202A04DB08467C
:20020000203AD040002110BD0B46D340D0402024A21A91400843194610BD0000064C012552
:20022000064E05E0E36807CC2B430C3C98471034B442F7D3FFF748FF203F0008403F0008A3
:2002400010B500F001F810BD10B5054C2046703000F018FC2046B03000F014FC10BD0000F0
:20026000F80A002010B5046863608368102B036803D099600068C26010BD9A600068C16031
:2002800010BD704710B5044600F030F8228A20462368A16800F002F810BD000070B51546D6
:2002A000104A0446007D127C904218D2E07C012813D10D48002646702360A160258200F01E
:2002C000DDFFE061A068711E6843FFF711FFA161E060E674012003F0C9F8002070BD0420D7
:2002E00070BD0000CC060020300000200C49027D0B7C9A4201D20122C2740020094A097C34
:2003000006E0302343439B18DB7C002B05D0401C8142F6DC04490020487000207047000027
:20032000CC060020EC02002030000020F8B50D46040012D0216818480860216817480860E6
:2003400003CC41602068083C2168886000F096FF0646012D03D0302503E00120F8BDFF25EC
:20036000E13500272068C068002809D000F086FF801BB9413A46281A8A41F3D20320F8BD5B
:2003800020680269E1688A4201D0016101E0044901600020F8BD0000CCCC0000555500007C
:2003A000AAAA0000F8B594461B4E8E461A680121347C1F46002A03D0127DA24200D21446D0
:2003C000152C27DA22463021144D00234A43AB505519AB60EB6068601148C088288201201E
:2003E000E8747046A87460462C75002805D0284620306146FFF7D4FE05E028462030224653
:2004000008A102F0E5FB3D60307CA04201D1401C307400210846F8BDCC060020EC02002040
:20042000300000204576745F2564000030BF704770B50E4622499AB00A680323DB029A432F
:20044000CB14D2180A6001250024002807D118200090C0020E9406950794099408906846DA
:2004600001F0FAF90F200D9021460F94109411940DA801F0CFF8032012901494159412A83C
:2004800001F00EF8002E0CD101F084F97D26F6003146FFF72DFE01F06DFC0A484480858046
:2004A000C680042001F058FC0748064B0474083306A201210848FFF775FF1AB070BD0000BF
:2004C0000070004030000020CC0600204556545F44656C61790000009D2B000810B502480E
:2004E00000F0D2FE10BD0000E0060020F7B5851800238107AE07890FB60F82B01C460029A6
:200500000ED08508AD002D68CB18DB00DD40EBB20425691A02E0039D2B55641CA142FAD8D3
:20052000111B07190025881B009101900FE001CF0399020A4919085509194A70020C8A707B
:20054000000EC8702D1D680601D1FFF7C7FF0198A842ECD80098401B002E0CD03A6808E041
:20056000311ACB001146D940039B401E5B1919556D1C0028F4D1002005B0F0BDF7B58CB037
:200580000E99C4094118CA09C109511A09910021E401051B01910998002802DD8020461B8B
:2005A00002E001990E98461A80222D492046FFF79DFF002803D100F00FFD002802D0012096
:2005C0000FB0F0BD002001210690079408910A90FFF784FF04E023490220401C8842FCD329
:2005E0000AA906A800F094FC0028F4D11C4906E0019A83180D9AD25C2B18CA54401CB04228
:20060000F6D3002516484119CA78405D13068A78497812041A43090211430843671900904C
:2006200004E010480221491C8142FCD339460220009A00F0B3FC0028F3D12D1D802DE1D3F3
:2006400009980025401E0990019880348019019000F09AFC0E99019888429CD30020AFE7B1
:20066000780A002040420F0010B5084A06491160FF232D3393600621D36051600146104653
:20068000FFF754FE10BD000000300040E006002010B5084900224A6107494B684C15234322
:2006A0004B604B68082423434B60C009C001026010BD00006C0000200020024010B5214AC8
:2006C00000219069C305204804D54169022319434161911593699B0505D5436901242343D7
:2006E00043616302194393695B0505D54369082423434361E301194393691B0505D543699B
:200700000424234343616302194393699B0405D543691024234343616302194393699B032C
:2007200004D5446920231C43446119439369DB0305D54369402423434361A00201439161EA
:2007400010BD0000002002406C000020F8B5054600F094FD06460027194C0DE0681C0BD041
:20076000002D07D000F08AFD801BB9413A46281A8A4101D20320F8BDA069C007EED1A06999
:20078000800701D50220A061A069C00511D4A06980050ED4A06940050BD4A069000508D49F
:2007A000A069800405D4A069800302D4A069C00303D5FFF783FF0120F8BD0020F8BD0000AA
:2007C00000200240F8B504460068016849084900016000F053FD002725460646203511E090
:2007E00000F04CFD801BB9417D23DB000022181A8A4107D2E06B20210843E0632F710320DB
:200800006871F8BD20680068C007E9D12F71012068710020F8BD000070B500240246203287
:200820005179022903D00421C16301243CE001680B680E25AB430B6001680B685B085B0064
:200840000B601A4B0168994201D1012121E0174B1433994201D110211BE0144B2833994278
:2008600001D1891515E0114B3C33994201D189140FE00E4B5033994202D10121090408E06E
:200880000A4B6433994202D10121090501E001210906064B083B59600121517100211171A8
:2008A000816B002900D08847204670BD08000240F0B5002821D0014620318C464979022992
:2008C0001BD001680A68520852000A6002680021116002685160026891600268D160684C7B
:2008E000674D674E664F664A0168143428353C365037914203D101231DE00120F0BDA142AA
:2009000001D1102317E0A94202D1FF23013312E0B14202D101231B030DE0B94202D10123EE
:200920001B0408E0564B6433994202D101231B0501E001231B06524908394B60016891429D
:2009400001D102231BE0A14201D1202317E0A94202D101235B0212E0B14202D101235B033D
:200960000DE0B94202D101235B0408E0444B6433994202D101235B0501E001235B0640490A
:2009800008394B600168914201D108231BE0A14201D1802317E0A94202D10123DB0212E037
:2009A000B14202D10123DB030DE0B94202D10123DB0408E0324B6433994202D10123DB0503
:2009C00001E00123DB062E4908394B600168914201D104231BE0A14201D1402317E0A942A4
:2009E00002D101239B0212E0B14202D101239B030DE0B94202D101239B0408E0204B643381
:200A0000994202D101239B0501E001239B061C4908394B601A4903687831934203D18A6A59
:200A20001209120124E0A34202D18A6AF0231EE0AB4203D18A6A0F231B0218E0B34203D102
:200A40008A6A0F231B0312E0BB4203D18A6A0F231B040CE00A4A6432934203D18A6A0F23A5
:200A60001B0504E08B4204D18A6A0F231B069A438A620021C1636046417101710846F0BDB6
:200A800008000240F8B504469D4801689C4A9C4E9B4F0832206813041C363037904201D1D7
:200AA00008221EE0B04201D180221AE0B84202D10122D20215E0924A4432904202D10122DB
:200AC000D2030EE08E4A5832904201D11A4608E08B4A6C32904202D10122D20501E00122EF
:200AE000D20625461140203500293BD00168090738D5016808229143016081492068083100
:200B0000884201D108201EE0B04201D180201AE0B84202D10120C00215E07949443188420F
:200B200002D10120C0030EE075495831884201D1184608E072496C31884202D10120C0050C
:200B400001E00120C0066E494860E06B01210843E0630420687100202871616B002901D0F7
:200B60002046884766480168654A206808321315904201D104221EE0B04201D140221AE0A8
:200B8000B84201D11A4616E05D4A4432904202D1012292030FE05A4A5832904202D10122D4
:200BA000920408E0564A6C32904202D10122920501E001229206114238D00168490735D560
:200BC0000168890603D4026804218A4302604C4920680831884201D104201EE0B04201D1B0
:200BE00040201AE0B84201D1184616E044494431884202D1012080030FE04149583188426C
:200C000002D10120800408E03D496C31884202D10120800501E00120800639494860052037
:200C20006871216B002901D02046884734480168334A206808325315904201D102221EE0CE
:200C4000B04201D120221AE0B84201D11A4616E02B4A4432904202D1012252030FE0284A09
:200C60005832904202D10122520408E0244A6C32904202D10122520501E00122520611420A
:200C80003CD00168890739D50168890603D401680222914301601A4920680831884201D1F0
:200CA00002201EE0B04201D120201AE0B84201D1184616E012494431884202D10120400325
:200CC0000FE00F495831884202D10120400408E00B496C31884202D10120400501E0012064
:200CE000400607494860E06BE0630120687100202871E16A002901D020468847F8BD000046
:200D00000000024070B5002805D0034620335979002902D003E0012070BD00211971022107
:200D20005971046822683749C5680A4081684669294305693543294385692943C5692943B2
:200D4000056A2943114321602F492F4C02687831A24206D18A6A120912018A628A6A406878
:200D600049E0294C1434A24207D18A6AF024A2438A628A6A406800013DE0234C2834A2428F
:200D800008D18A6A0F242402A2438A628A6A4068000230E01C4C3C34A24208D18A6A0F24F2
:200DA0002403A2438A628A6A4068000323E0164C5034A24208D18A6A0F242404A2438A62D6
:200DC0008A6A8088000416E00F4C6434A24208D18A6A0F242405A2438A628A6A808800054B
:200DE00009E08A4209D18A6A0F242406A2438A628A6A0079000602438A6201205871002094
:200E000070BD00000FC0FFFF08000240F8B5044620300579012D1ED0012505710226467132
:200E200020680768AF4307602046FFF71BFA2068016831430160206801680422114301605F
:200E40002068016808221143016020680168294301600020F8BD0220F8BD000070B5074DDF
:200E600004462846FFF772FC002805D10449486120602846FFF76AFC70BD000050C30000D8
:200E80006C0000200348416801221143416000207047000000200240F8B5124D0746287C84
:200EA00014460E46012807D0012028740E48FFF74DFC002802D00CE00220F8BD002169618A
:200EC000022F09D0012F09D0002F09D00648FFF73DFC00212974F8BD3460FAE73480F8E7FF
:200EE0003470F6E76C00002050C3000005484168C90705D00449C1600449C1600020704784
:200F00000120704700200240EFCDAB8905040302F8B51A4E0546307C0F46012807D0012017
:200F200030741748FFF712FC010002D021E00220F8BD0020C04338606C6814E02046FFF720
:200F4000A7FB0F48FFF702FC01460E48426808239A434260426843159A434260002901D038
:200F60003C6006E08034A8686A68C0018018A042E4D8002030740846F8BD00006C0000200F
:200F800050C30000002002400348416802221143416000207047000000200240F8B50C4C91
:200FA0001646207C0F46012808D0012020740948FFF7CCFB0025002802D006E00220F8BD44
:200FC00065613E600348FFF7C1FB2574F8BD00006C00002050C300000948416889070CD558
:200FE0004168C90703D00749C1600749C160074901610749016100207047012070470000B0
:2010000000200240EFCDAB8905040302BFAE9D8C16151413F0B500235DE001249C4022461A
:201020000A4057D006685F000325BD402E43AC460660DD08AD002D182E6AAE465D07EF0EC0
:201040000F25BD40AE4375462E6286686546AE4386604568A5434560C4686546AC43C4608F
:201060009D081F4CAD002D19AF689C07260F0F24B440A4463C4005273F07B84201D100278C
:2010800014E0184FB84201D101270FE0164FB84201D102270AE0154FB84201D1032705E08F
:2010A000134FB84201D1052700E00627B740A74210D1AE686446A643AE600E4C2568954392
:2010C0002560656895436560A5689543A560E5689543E5605B1C0A46DA409ED1F0BD0000D0
:2010E000000001400004005000080050000C0050001C005000040140F8B500230124A2E07F
:2011000027469F403A4070D04D68022D01D0122D14D1DD08AD002D1800952D6A5E07AC4696
:20112000F50E0F26AE46AE406546B543AC460E697546AE4065462E43009D2E624D68012DB4
:2011400005D0022D03D0112D01D0122D16D185680326AC465D00AE46AE406546B543AC46A7
:20116000CE687546AE4065462E43866046680D79BE43ED06ED0F9D403543456006685F00A3
:201180000325BD40AE46AE430D79B446AE07B60FBE4065462E430660C6687546AE438D68FC
:2011A000BD403543C5604D68ED004BD5294D6E6B26436E639E08284DB6007519AC46AD68E4
:2011C0009E07360F0F27B740BD4305273F07B84201D1002715E0214FB84201D1012710E04A
:2011E0001F4FB84202D102270BE02BE01D4FB84201D1032705E01C4FB84201D1052700E00B
:201200000627B7402F436546AF60184D2E684F689643FF0300D516432E606E684F689643CF
:20122000BF0300D516436E60AE684F689643FF0200D51643AE60EE684F689643BF0200D591
:201240001643EE605B1C0A681546DD4000D057E7F8BD0000001002400000014000040050DC
:2012600000080050000C0050001C005000040140002A01D081617047816270470149086821
:201280004968704710000020006802490160002070470000AAAA000004490A684868521C9A
:2012A000002358410A604860704700001000002010B506480168402211430160002000F0D6
:2012C00007F800F019F8002010BD00000020024010B5044607487D21C9000068FEF708FF96
:2012E00000F048FD00222146501E00F02BF8002010BD00001800002010B50C48416B0122A2
:2013000011434163816B02041143816300221146501F00F017F800221146901E00F012F8A3
:2013200001210022881E00F00DF810BD00100240C106C90E012088400149086070470000BF
:2013400000E100E010B500F0DFFF10BDBFF34F8F04490348C860BFF34F8F00BFFDE70000E9
:201360000400FA0500ED00E0F8B54749034601240020E403434D444A4031082B71D00FDCFD
:20138000012B3ED0022B56D0042B1AD1CB680326B60233405AD00127FF02BB4243D058E084
:2013A000102B6BD0202B0CD10B690969032501272D043F0429407E00B94203D199052CE085
:2013C0002046F8BDB14203D19907FAD52F48F8BDA942FCD111688903F9D511680320000564
:2013E000014001200005091A09D0091A05D0814201D12748F8BD2748F8BD2748F8BD274822
:20140000F8BDCB689B079B0F0AD0022B0BD0012B0ED0032BF4D1096989050029D0DBF8BD30
:2014200000F0CEF9F8BD11684907FBD52846F8BD00F0D6F9F8BDCB680C26334006D0082B2F
:20144000F1D0042BF4D00C2BE5D0F8BD00F0A8F9F8BD012292029342EAD0B342DBD0F8BD56
:20146000FFE7C96803231B031940EFD0012464036310A142D7D09942DAD0F0E7916B4902CD
:20148000E4D4ECE70024F400001002408890000020A1070000093D0040420F0080841E007E
:2014A000F8B504460078584D80067BD5564E0027403EB06BC00004D4B06BA9050843B0631F
:2014C000012752480168C90516D40168821511430160FFF7D3FE00900AE0FFF7CFFE009AD6
:2014E0000023821A9941642300209A1A88413BD346480068C005F0D532680321090560680D
:201500000A400140914208D08103890F032904D13168890301D50120F8BD2A6903210904E3
:201520000A4026D00840904223D02078800620D528692A6988430121C9040A432A612A6902
:201540008A432A612861C00513D5FFF797FE00900CE0FFF793FE009A0023801A99412C4BC7
:201560000022181A8A4101D20320F8BD28698005EFD561688803800F032805D13268000544
:20158000824301400A4332602869032261681204114008432861002F04D0B16B0120000765
:2015A0008143B1632078C00705D0E868A168800880000843E8602078800705D5E8680C21B5
:2015C0008843E1680843E8602078400706D5E86803218902884321690843E8602078000724
:2015E00006D5E86803210903884361690843E8602078000606D5E868032189048843A16919
:201600000843E8600020F8BD401002400070004088130000F8B5064659480F460068C00767
:20162000C00FB8420AD25648016849084900394301600068C007C00FB8427BD13078514CFE
:20164000800705D5E068F0218843B1680843E0603078C0075ED07068022817D0032818D0C8
:201660002168012818D08905002963DAE168890889000143E160FFF701FE716805460229B0
:2016800015D0032922D001292FD03FE021688903EAE721688901E7E74907E5E7FFF7EEFD3B
:2016A0000022401B384B9141181A8A412CD3E0680007800F0228F1D12CE0FFF7DFFD002292
:2016C000401B314B9141181A8A411DD3E0680007800F0328F1D11DE0FFF7D0FD0022401B6C
:2016E000294B9141181A8A410ED3E0680007800F0128F1D10EE0FFF7C1FD0022401B224B71
:201700009141181A8A4101D20320F8BDE0680007800FF0D11A480168C907C90FB9420BD95E
:20172000016849084900394301600068C007C00FB84201D00120F8BD3078400706D5E06818
:20174000072109028843F1680843E0603078000707D5E0680721C90288433169C900084368
:20176000E06000F03DF8E168084A0906090F515CC840074908600020FFF7AAFD0020F8BD43
:20178000002002400010024088130000FC3D000818000020014800687047000018000020E1
:2017A000044805490068C968044A4905490F515CC84070471800002000100240153E0008B1
:2017C000044805490068C968044A8904490F515CC84070471800002000100240153E000852
:2017E00010B5184AD1680C20084004280BD0082810D00C2810D050680004410F0120C003FA
:20180000491C884010BD1068C00601D50E4810BD0E4810BD0E4810BD88020E4B000F185CEB
:201820000902D368890F491CDB0301D5084A05E01268D20601D5044A00E0044A5043FEF74E
:2018400057FC10BD0010024000093D000024F40000127A000C3E0008FEB50446007800263F
:20186000C007FE4D002852D0E8680007800F022807D0E8680007800F032809D1E868C00327
:2018800006D52868800342D56068002877D03EE0012062680004824203D129680143296009
:2018A00011E0052301211B0489049A422A6802D10A432A60F1E782432A602A68024000929C
:2018C0002868884328606068002810D0FFF7D6FC074608E0FFF7D2FCC01BB141642200231E
:2018E000101A8B4173D328688003F3D50FE0FFF7C5FC074608E0FFF7C1FCC01BB1416422F0
:201900000023101A8B41EDD328688003F3D42078800749D5E8680007800F012807D0E868A1
:201920000007800F032809D1E868C00306D4286840071BD5E068012821D117E0E06800288E
:201940001ED029680922914301432960FFF796FC074608E0FFF792FCC01BB14102220023E7
:20196000101A8B41BED328684007F3D568681F2109028843216909020843686014E0A6E039
:201980002868400840002860FFF778FC074608E0FFF774FCC01BB14102220023101A8B4198
:2019A000A0D328684007F3D42078C0064FD5E8680007800F0CD0A069002864D02868FF21BD
:2019C000013108432860FFF759FC074649E0FAE02868800502D5A069002878D0206A6968A7
:2019E00007277F033940884210D900F0AFFC0028A2D16868216AB843084368606868217FFC
:201A00000002000A0906084368600FE06968B943014369606868217F0002000A09060843F9
:201A20006860206A00F092FC002885D1206A410B0120C003491C8840E968894A0906090F26
:201A4000515CC840874908600020FFF741FC2FE0FFF714FCC01BB14102220023101A8B4127
:201A60009ED328688005F3D56868072149038843216A084368606868217F0002000A0906E0
:201A80000843686014E02968FF20013081432960FFF7F4FB074608E0FFF7F0FBC01BB14149
:201AA00002220023101A8B41DAD328688005F3D420786D4F00072DD560690028386915D08C
:201AC000012108433861FFF7D9FB00900AE0F9E0FFF7D4FB009A0223801AB1410022181A7F
:201AE0008A4170D338698007F2D513E0400840003861FFF7C3FB009009E0FFF7BFFB009A5E
:201B00000223801AB1410022181A8A415BD338698007F2D4207840076FD500200190A86BF2
:201B2000C00006D4A86B012109070843A863012001904E480168C90515D4016882151143B4
:201B40000160FFF79BFB009009E0FFF797FB009A6423801AB1410022181A8A4133D343483A
:201B60000068C005F1D5FF20A2680130824203D139690143396111E001218902002A07D061
:201B800005231B029A4203D13A690A433A61EFE73A6982433A61386988433861A0680028B7
:201BA00012D0FFF76BFB009009E0FFF767FB009A2F4B801AB1410022181A8A417BD3386968
:201BC0008005F2D511E076E0FFF758FB009009E0FFF754FB009A264B801AB1410022181A80
:201BE0008A4168D338698005F2D40198002804D0A96B012000078143A963616A00295FD02F
:201C0000E8680007800F03285CD0012000060229296805D081432960FFF730FB04464CE0EB
:201C20000120000681432960FFF728FB074608E0FFF724FBC21BB141022300209A1A88413C
:201C400039D328688001F3D4E16AA06AEA680843216BFD231B049A4311430BE00010024075
:201C6000FC3D0008180000204010024000700040881300000843E86028680121090608436F
:201C80002860FFF7FBFA044608E0FFF7F7FA001BB14102220023101A8B410CD3286880017E
:201CA000F3D50DE0FFF7EAFA021BB141022300209A1A884101D20320FEBD28688001F1D43D
:201CC0000020FEBD0120FEBDFFB581B016460F46040005D025466035687A002803D007E01A
:201CE000012005B0F0BD00202872204600F0B0F92420687220680168490849000160606AD4
:201D0000002802D0204600F0CDFB204600F028FD0128E6D0206881680122920311438160F3
:201D2000206881685200914339438160049871050004226808431168064B194001431160EC
:201D400020680168012211430160204600F010FCC7E70000FFFF00FC0422044904280869A0
:201D600002D09043086170471043FBE700E000E070470000094910B5401E884201D90120B8
:201D800010BD074C60610321081F00F0BDFA0020A06107202061002010BD0000FFFFFF00BD
:201DA00000E000E010B5FFF7E3FF10BD704770B5044600680168FF22E13291430160206811
:201DC0008168490849008160206881680025090600290ADA8168802291438160206E0028F7
:201DE00003D08563206EFEF7EDFC2068816849060AD58168402291438160606E002803D054
:201E00008563606EFEF7DEFC204640304582458321680F20086220212046603041728172D9
:201E2000E566002070BD70B5040019D02421204660300646417220680168490849000160D2
:201E40002068002505602068456020688560204600F0FCF8E5667572B5723572002070BD3F
:201E6000012070BD10B502680821116202680421116202680221116200F0F0FDFF2809D06A
:201E8000C92292005043044A00218018192252018018417010BD0000F80A0020F8B502684E
:201EA0000446D06911680607360F07D1830605D58B0603D5204600F014FCF8BD95682023D5
:201EC000002E65D0EE07F60FFF2721370F4037435ED0C70706D0CF0504D501271762E26EEE
:201EE0003A43E266820708D5EA0706D0276802223A62E26E04273A43E266420708D5EA074A
:201F000006D0256804222A62E26E02252A43E266020709D50A461A40324305D023680822F0
:201F20001A62E36E1343E366E26E002AC5D0800604D5880602D5204600F0D3FBE06E0007E9
:201F400003D42068806840061CD5204600F0B1FB20688168490611D5826840218A43826061
:201F6000606E00280AD01D498163606EFEF754FC0028A2D0606E816B8847F8BD2046FFF700
:201F800071FFF8BD2046FFF76DFF0020E066F8BD2646C7026036002F0ADA6D0208D50120EE
:201FA000000510627372B3722046FFF7FFFEF8BD050605D50D0603D5204600F0DFFCF8BDDC
:201FC0004006FCD54806FAD52046146840218C431460737200F082F9F8BD0000D125000844
:201FE00070B5040005D025466035687A002802D006E0012070BD00202872204600F028F8A3
:202000002420687220680168490849000160606A002802D0204600F045FA204600F0A0FB6C
:202020000128E7D0206841680922D20291434160206881682A229143816020680168012295
:2020400011430160204600F093FA70BD70470000F0B5444C0746206B89B0012528432063AA
:20206000206B00222840009003210A20FFF76AF90A20FFF75DF9384600F0F0FC0646FF28D1
:202080006ED0E06A29460843E062E06A28400190E26A02200243E262E26A334D02400192E1
:2020A000002E28D1626B43031A436263E26A0A43E262E16AC907C90F0191E16A0143E16290
:2020C000E16A05900140019100200690079003210420490208900491052004A90007FFF771
:2020E0000BF803212148214A69672867143A2846803002634163C92080004643751900226F
:202100008021AA6768180446EA6706C00260202182604160294670310E460846FEF7F2FD70
:20212000002804D0FF21163111A0FEF7AAF87E661020A761A0630020E0636064A064802109
:20214000E0642164B03520652846FEF7DBFD002804D0FF21233106A0FEF793F83D66A765CC
:2021600009B0F0BD00100240F80A0020300002402E2E5C2E2E5C6C69627261726965735C8A
:202180006472697665725C7372635C756172745F6472697665722E6300000000F8B5054683
:2021A00004466035A87A202841D100290BD0002A09D00123A0681B03984206D12069002811
:2021C00003D1C80701D00120F8BD287A01282ED0012028725820616502530026E6662220EA
:2021E000A872616E1348C862616E13480863616E12484863606E13468663676D21683A461B
:202200002431606EFEF702FE2E7220680168FF220132114301602068816801221143816043
:20222000206881684022114381600020F8BD0220F8BD00002F2600086F260008E5250008DE
:2022400070477047F8B5054604466035687A20283BD100290BD0002A09D00123A0681B03B2
:20226000984206D12069002803D1C80701D00120F8BD287A012828D001202872204640305E
:20228000E164028242820026E66621206872216E0F48C862216E0F480863216E0E48486333
:2022A000206E134686632768E16C3A462832206EFEF7ACFD2168402008622E722068816808
:2022C0008022114381600020F8BD0220F8BD000079260008A9260008E525000810B500F036
:2022E000BDFBFF280AD0C92189004843044940188030016F002901D0406F884710BD00001D
:20230000F80A0020704700008307FF22DB0E9A408907090E994000280BDA0007000F083893
:20232000830808489B001818C36993430B43C3617047830804489B001B1818689043084389
:202340001860704700ED00E000E400E070B517490023CA681206120F18D18A6B154CD50096
:20236000134A02D51268224009E08E6B01252D072E438E6312688E6B2240AE438E63A24214
:2023800004D103218903884200D101230A48016849084900194301600068C007C00F98420F
:2023A00001D0012070BD002070BD0000001002400070004000180000002002400149401893
:2023C000006870470000080810B501F09BF810BDF8B500240120124E0D46087027462146C7
:2023E000304600F06EFF040019D02F70608A401F00B260820028F2DAA07B401E0006000E20
:20240000A07308D0208A60820121204601F033FB01F0FAFAE3E7204601F090F8DFE7F8BD95
:202420002402002010B5FEF737FFFFF7BBFC074C6078002808D0FEF721FF22696369801A88
:20244000994101D301F01CFB10BD00003000002010480168821511430160C1680E4A1140CA
:20246000C16001680D4A11400160816849084900816001680122920491430160C168FD22C6
:2024800012049143C160002101610549C003886070470000001002400C40FF88F6FFF6FEF0
:2024A00000ED00E010B5818CC90707D001684A6801235B049A43836A1A434A60818C8907CA
:2024C00007D501684A6801231B049A43C36A1A434A60818C490707D501684A6801239B049A
:2024E0009A43036B1A434A60818C090707D501684A680123DB039A43436B1A434A60818CD5
:20250000C90607D50268916801231B039943836B19439160818C890607D501688A6801235D
:202520005B039A43C36B1A438A60818C490612D503685A6801210905046C8A4322435A60EF
:20254000026C8A4207D10268516803235B059943436C19435160818C090607D501684A6815
:202560000123DB04806C9A4302434A6010BD0000F8B500260446C666FEF780FE0546206844
:202580000068124F000709D501212B46002249052046009700F025FA00280DD12068006888
:2025A00040070BD501212B46002289052046009700F017FA002801D00320F8BD202060340E
:2025C0006072A07226720020F8BD0000FFFFFF0110B5806A0022014640314A834A82FFF794
:2025E00041FC10BD70B5846A25466035687A0026212808D120688068000604D5522006537A
:20260000204600F065F8A87A222808D120688068400604D55A200653204600F04AF8E06E7A
:2026200010210843E0662046FFF71CFC70BD10B501460968806A0968890615D400225A214A
:202640000A5201680A68FF2301339A430A6001688A68520852008A6001688A6840239A431A
:202660008A6020226A210A54FFF7EAFD10BD10B5806AFFF7E6FD10BD10B501460968806ADF
:20268000096889060DD4002252210A5201688A6880239A438A6000680168402211430160BB
:2026A00010BDFFF71BFE10BD10B5806AFFF72AFE10BD01680A68FF2321339A430A600168D6
:2026C0008A68520852008A60202160308172704701680A68C0239A430A602021603041726E
:2026E000704770B50246403201466031938B8D7A0C460168222D05D0886908221043886111
:20270000022070BD496A01268568360389B2B54202D10569002D0BD01940436D5D1C4565C3
:202720001970518B491E0904090C518307D015E0456D19402980416D891C4165F1E701681D
:202740000A68FF2321339A430A6001688A68520852008A602021A172FFF772FD002070BD53
:20276000FEB50446016880682269E36910436269102700261A4310430A683546754B1A4002
:2027800002430A6020684168032212039143E26811434160704A2168A069914201D0226A90
:2027A00010438A680B231B029A4302438A606B4A21686B4891420CD1C0688007800F06D0C8
:2027C00001283DD0022839D0032820D11EE001271DE0644A91420AD1C0680C2108402BD05D
:2027E00004282DD0082829D00C2810D10EE05A4A91420CD1C1680320800201401CD0101510
:20280000091A1DD0091A19D0814200D108270220FEF7AAFD0190504B514922684039D81367
:2028200000929A4235D1002F0CD0022F0DD0042F12D0082F1CD113E00027E8E70227E6E7F3
:202840000427E4E7FEF7ACFF08E00868C00601D5454805E0454803E0FEF7C2FF002873D0EB
:20286000626851005118814202D81103814201D2012569E0010E06025008002330185941AA
:20288000FDF74CFC03210902394A411A914259D9EEE7E26982422DD13B0000F0ADF9090628
:2028A000080B24192424241F2400019812E0FEF787FF0FE008686168C00602D548082D4A87
:2028C00001E02D4A48088018FDF712FC86B20BE0FEF786FF616840004A08F4E761680122F7
:2028E00048081204EFE70125310909013007400F084327E03B0000F07FF909070A0D061D6D
:20290000060606290600B3E7FEF74AFF14E0FEF757FF11E008686168C00602D54A081248EC
:2029200001E012484A081018FDF7E2FB81B20098C16009E0FEF754FF61684A088018FDF74D
:20294000D7FB80B22168C8602846FEBD61684A08E9E70000F369FFEF004800400038014063
:20296000401002400044004000093D000024F400FFFC0F0000127A000048E8016921095C2D
:20298000212901D00220704702464032518A002912D0012381681B03994202D10169002937
:2029A00015D0C16C4B1CC364006809788162508A401E50820020704701680A6880239A436F
:2029C0000A6000680168402211430160F2E7C16C03680988C905C90D9962C16C891CC1640D
:2029E000E5E7FFB581B017460E4604460A9D20E0681C1ED0002D08D0FEF740FC049B00221B
:202A0000C01A9141281A8A4113D221680868FF22A132904308602068816849084900816004
:202A2000202060346072A07200202072032005B0F0BD2068C0693146814304D00020B842CD
:202A4000D6D00020F3E70120F9E7000010B50248FFF724FA10BD0000F80A0020014609680B
:202A6000024AFF20914200D10020704700380140FEB50024082201A92348FDF737FD019820
:202A800000283ED0214988423BD8002528E00121401B4902884201D2009000E000911A48C4
:202AA0001B4908302818009AFDF720FD1849194EE243009B0FE008785040C0B20024C707A4
:202AC00002D04008704000E04008641C082CF6D3120A4240491C5B1EEDD20098D4432D1858
:202AE0000198A842D3D80298A0420AD10648083000680949084001214907884201D101209A
:202B0000FEBD0020FEBD0000F83F0008FFBE0000F00600202083B8ED0000FE2F10B50E4B7A
:202B20000EA200210F48FDF73DFC002803D091210DA0FDF7A6FB084C241F6068002806D0F4
:202B4000154900230A88FF212D31FDF7A7FB2068002800D0804710BD4C0000204556545F80
:202B600030000000F53D00082E2E5C2E2E5C6C69627261726965735C66756E6374696F6EFC
:202B8000735C5372635C46756E6374696F6E5F5570646174652E630034000020014901208A
:202BA000087070473000002070B50C460546FEF79DF9064828180546FEF750F9224629465B
:202BC0000220FEF769F9FEF75DF970BD000008080FB410B504A9074B02AA039800F028F816
:202BE000044602A9002000F0CBF8204610BC08BC04B01847812D000830B47446641E257891
:202C0000641CAB4200D21D46635D5B00E31830BC184702E008C8121F08C1002AFAD1704759
:202C20007047002001E001C1121F002AFBD17047FFB58DB00446002506E025280AD0109A25
:202C40000F999047641C6D1C20780028F5D1284611B0F0BD00270121484A009700E00743EE
:202C6000641C23780846203B98401042F7D120782E2817D1042007436078641C2A280CD1D3
:202C80000E98641C02C800910E900BE000990A22514330394018641C0090207801463039B8
:202CA0000929F3D920780028D1D0642808D0692806D075281ED0109A0F9990476D1C5BE072
:202CC0000A200E99019001C90E91002802DA40422D2102E0390504D52B216A4611720121BB
:202CE00003E0F90704D02021F7E70BAE0B910DE00021FAE70A200E99019001C90E91F7E711
:202D00000199FDF7F5F93031761E31700028F7D103A8801B20300190780701D5009801E0BC
:202D2000012000900199884201DD401A00E000200027009006E002A8109AC05D0F999047B9
:202D40006D1C7F1C0B988742F5DB04E0109A30200F9990476D1C0099481E00900029F5DCA4
:202D600005E03078109A761C0F9990476D1C0199481E01900029F4DC641C65E709280100FA
:202D80000A68531C0B6010707047FFB5002581B01F4614460E46002A27D01946104600F0CD
:202DA0006BFAB84207D13046316800F015FA3946204600F061FA4001041916D0306801E0E1
:202DC0000546C0690028FBD1002D0CD0EC61202220460199FDF7D2F90020E061012020761C
:202DE000204605B0F0BD3460F1E70020F9E70B1A884200D95B1E136070470000F0B5054644
:202E0000334887B00146083908604860314C022031492070CA6A0243CA62C96A234601403D
:202E2000009108332DA200213048FDF7BBFA002803D02F492FA0FDF724FA3D4F0021386814
:202E40000391049101260190029681B22A783948FEF70EFA01A93748FEF74EF90020FFF72B
:202E6000ADFA012811D0A06800280ED038882A7881B272402F48FEF7FBF92F482670028855
:202E80002B466421A068FDF709FA124B2BA21B1D01212D48FDF786FA002804D0144915A0C2
:202EA0001331FDF7EEF90020FFF788FA01280CD16068002805D0254900230A880321FDF755
:202EC000EDF9FF210020FFF76FFE07B0F0BD0000F808002050000020001002404556545FD5
:202EE000527374526164696F00000000DD3200089F0200002E2E5C2E2E5C6C696272617206
:202F00006965735C66756E6374696F6E735C5372635C46756E6374696F6E735F436F6D6DB7
:202F2000616E647350726F746F636F6C2E6300000C00002000040050340000204556545FE6
:202F400055706461746500006934000836000020F0B587B003A9033105A8FDF734F9002465
:202F600068468E4F04833878002877D0012875D00326022802D003280FD10CE000220094E0
:202F80000194874B87491046029400F035FE00F0DFFA3E7001E000F07FFE7878002802D03C
:202FA0007C7000F09BFC804806C8914256D064239142009319D90838401AFF30893082B27A
:202FC000764806AB0C3000F015FB77496A460968128B8918744A1160FF328932914212D354
:202FE0007149714A083111600DE0501A82B26B4806AB0C3000F0FEFA6B496A460968128B2D
:203000008A1869490A60002828D0052826D163480C300178022901D086701AE000210446F7
:2030200081704078002806D0022839D0042837D0FE280DD152E0E01CFDF7BBF8002807D0AB
:20304000E179002904D00578022D09D0012D07D0A670564A3969F86800F020FA07B0F0BD69
:20306000524A3969F86800F019FA022168460173012141730575022D0BD00420FFF79EF95F
:20308000020C69464A75020A8A75C875042069461AE000214175FA218175F821C175F5E78C
:2030A000424A3969F86800F0F9F902206A46107360780146401C507302290DD00C20FFF7E3
:2030C0007DF9694608750120C8743723374A0499039800F0ADFBC1E70820F0E77868002897
:2030E0000BD0C17C012902D0FDF7CCF805E0304900230A880321FDF7D1F8E01CFDF759F8CF
:2031000000282AD0054608300090FDF752F806462846FDF74EF8864208D1082229462548A1
:20312000FDF72CFA002801D00120A0700098FDF740F8060012D028460C30FDF73AF81D4969
:203140000246B01A0831401829461031FDF716FA002803D00120A07000E0A6702846083050
:20316000FDF727F806462846FDF723F80546A4780E4A3969F86800F091F9002CABD1AE42A0
:2031800002D2002E02D069E7002E03D101210020FFF70AFDFFF7C2FC60E70000500000205F
:2031A000AD390008FD390008F0080020693A000836000020F83F0008034610B51046054AD8
:2031C00005E01C78491E4440105DC9B25B1C0029F7D110BD1D3E000810B5024600680C4644
:2031E00000281ED0002C1CD0A04203D10AE0A14203D00846C1690029F9D1002802D0E1699C
:20320000C16101E0E0691060A01DFCF7D2FF002805D000F007F8A11D0020FCF7D4FF0020C1
:20322000207610BD10B5002823D0124B0022001F196803E0814203D80A4649680029F9D1B7
:20324000002A0AD01368841A9C4204D1006818181060104602E0506000E01860002907D056
:2032600002680B1A934203D10B68D21802604968416010BD640000200246002006E0430122
:203280009B181B7E002B03D0401CC0B28842F6D370470068014603E0027E022A0AD0C0698B
:2032A0000028F9D103E0087E012804D0C9690029F9D10020704708467047002800D0007E3F
:2032C00070470068002905D0C86903E0017E032902D0C0690028F9D17047000010B502782F
:2032E0000A480C46008881B20948FDF7C1FF09480178012904D0022101700120207010BD90
:203300000021017080686421816010BD0C000020000400505000002010B504460820FFF7E3
:203320004DF8C0B24206520E0B491300FFF764FC0A1108080808080806080811802200E07D
:2033400008220A6000212170C00901D00120207010BD8822F5E700000C00002000210A46EC
:203360004B011B18491C1A760C29F9DBFF2181310A5000214B011B18FF338133491C1A7728
:203380000629F7DBFF30FF300230426470470000FDF78EFF00210846FDF74AF80020FFF703
:2033A0000DF8C0B2012811D0FFF762FB01280DD172B60F490F488160BFF34F8F48680E4AE2
:2033C00090605060096881F3088880470A48FFF7A3FF0020FDF748F90748FFF70FFD064833
:2033E000FFF7B6FDFDF722F8FDF778F8F7E700000040000800ED00E000000020F0B50B30BF
:20340000C108C900144F0026144A0FE003688B420BD38B4205D95C1A4318456830C3083BCF
:2034200000E04368136002C004E0021D10680028ECD13046002803D13868002801D0002041
:20344000F0BD064A06481060064A121AD208D20044C001203860D7E7680000206400002002
:20346000240E0020201000207047000070B50446094D01206870FDF701FF002600192A696F
:2034800071416B69801A994105D2FDF7F7FE001971412861696170BD30000020F7B51748CC
:2034A00088B016460746FFF7F4FE040023D0002568468581FE210596017006214170A17857
:2034C00081700121C17008A8817868460171811D0020FCF778FE6846857208498573C57293
:2034E0000C23074AC439FFF750FC21463846FFF773FE00F089FA00200BB0F0BDE8020020BC
:20350000A400002070B504460068002814D0817A002500290DD0801DFCF74BFE002808D005
:20352000FFF780FE21680020891DFCF74CFE20688572256000F068FA70BD000010B50146FC
:203540000248FFF749FE00F05FFA10BD2402002010B50F4B0FA200211148FCF723FF002801
:2035600003D0104910A0FCF78CFE094B1CA21B1D01211E48FCF716FF002804D095218900DD
:2035800009A0FCF77EFE1A48FFF7E8FE10BD0000200000204556545F536572547800000084
:2035A000D1230008510200002E2E5C2E2E5C6C69627261726965735C66756E6374696F6ECD
:2035C000735C5372635C46756E6374696F6E5F53657269616C50726F746F636F6C2E6300B0
:2035E0004556545F5365725278000000C9230008A4000020FFB5054687B001200490884816
:203600000024C06826462746002817D185498872891DFCF7D8FD834900208881109801B2EF
:203620008048018202467E48C260806800286FD07B4B7D4A0C331288FCF730FE68E0784831
:203640000C21C068415E0919891B0B00FFF7D4FA06040C25292D31390899095DFE2901D0E7
:20366000761CB6B201702CE00899095D4170881FFA287DD2072924D9C81FFFF7BFFE68498B
:20368000C9680091891DFCF79EFD002870D0009800994078C01F887213E00899095D81701F
:2036A0000FE00899095DC1700BE00899095D017107E00899095D4171C278012A01D1C17275
:2036C000012757480C21C068415E06910919891B06291BDBC278002A18D14278531E99425A
:2036E0000ADA801DFCF765FD0699089A4018A11B125D891F425409E00699A31B5918891A98
:20370000491C03D108990127095DC172641CA4B20998A04201D9002F91D04148C1688A8986
:203720001219921B8A810A990C80C2680C21515E00296CDD002F71D004468068002801D064
:20374000FCF7D4FDE068C178012932D000220621FFF732FDE6680746B01DFCF72AFDB17ADD
:203760003A46FFF729FD0146E068C27A8A4200E049E04CD181786278914248D02B4A6170EC
:20378000114605270623C031FFF7FFFA06464079687030792870B01DFCF70BFDE91CFCF7BF
:2037A00012FDB07AE8710020A870E06038460BB0F0BD00220521FFF7FFFCE168C97A814291
:2037C00025D11A4F00263F1F31463846FFF779FD06001CD0E0688178B078814214D1002D75
:2037E0000CD03079287070796870E068E91C0079A8700020FCF7E7FC0020E8713046FFF732
:203800009DFE0020049002E004980028DCD104480C30FFF777FE0498C9E7FFE70320C6E711
:203820001C000020840000203400002028020020FFB589B000246846848108A8C07A1D46F9
:2038400017466E4600281AD0F82815D8FFF7D6FDB11DFCF7B8FC06000ED009A80330FCF73F
:20386000A8FC014608A8C27A3046FCF787FC08A8C17A6846817208E001200DB0F0BD002066
:20388000B11DFCF7A0FC68468472FE2105970170817A0F4AC91D417011788170491C1170B0
:2038A000C47008A801796846017108A841796846417103218173C472058245820C23054AA6
:2038C0000549FFF762FA00F09FF80020D5E700001C000020A40000202402002070B5304802
:2038E000FFF7D7FC040018D00C26A65FA07A864223DDE078012812D00321204600F0BBF86A
:2039000000F082F8A07B002815D026484068002811D0C17C012906D00BE0012070BD20461A
:20392000FFF70CFE07E0204900230A880521FCF7B5FC208A6082002070BD86420ED1012116
:20394000204662690B309047002803D1A089401CA081F0E72046FFF7F1FDDEE7801BFF28DA
:2039600001DDFF2500E0C5B2A01DFCF722FC8019E27A2946FFF720FCE072A01DFCF719FC93
:203980000C22A25E29468018626990470028E1D1002DDFDDA0894019A081032070BD00009A
:2039A000240200201C00002034000020F8B5114C0F4660681646104982198A4203D9211AD7
:2039C000FF31893100E03146CDB22A463946FCF7D5FB606840196060B54209D20548721BE8
:2039E00079190830FCF7CAFBA019401B08306060F8BD0000F0080020780A0020014901205F
:203A0000487070475000002010B51648FFF741FC0446FFF752FC012819D1002C17D002219A
:203A2000204600F028F8E078002811D0002205212046FFF7C1FBE0726269204605219047CF
:203A400000B2A081002802D02046FFF777FD10BD002206212046FFF7AFFBE07220460621CE
:203A60006269ECE7240200200A4610B50146002000F02EF910BD002800D0017670470000DC
:203A8000F0B589B000206946049008752F490025ED434870FDF7F2FB00262D4F00904AE0A6
:203AA000002069460875314630204143294802910C18E17C00293DD104AAE0690099FFF72D
:203AC00096F9A0690499401A01D401280CDA0098E061E0681F4900280AD0401EE06000202A
:203AE000C043A06100200490E07C00281CD021E002986268085805A990476846007D002801
:203B000001D00120E074218AA06848430021C943FCF7EEFAA161E060A07C0128E2D1801E41
:203B2000A0610120E074DDE7A0690499401AA84200D20546761C387CB042B1DC681C02D029
:203B40002846FFF793FC09B0F0BD000030000020CC060020EC02002070B5016F4968012253
:203B60005202551A03210902441823890146FF3109318030AB420BD2836F002B06D0228982
:203B80002689AA1A92B27118C06F9847258170BD2389AB42FBD9836F002B06D02589521B89
:203BA000258992B26918C06F98470020208170BD70B50446C92080000D4960434018054622
:203BC000FEF731F9002C0BD10A48416B01229203914341630321052049020007FDF71AFAED
:203BE000686EFCF765FE286EFCF762FE70BD0000F80A002000100240F8B5C924A400164D6E
:203C0000444364192746F037069E4EC73946079A0A60089A00264A60002817D1C3208000E4
:203C20002B180EA200211048FCF7BCFB002804D0FF215B310DA0FCF724FBE12103200902D7
:203C400000022818466101610676C6611920400120184670F8BD0000F80A00204556545FE9
:203C60005258506F6C6C0000593B00082E2E5C2E2E5C6C69627261726965735C6472697629
:203C800065725C7372635C756172745F6472697665722E630000000010B50C4C1921490174
:203CA00061184978002000290ED1032109026118CB694A69096900F017F8FF3401342168B1
:203CC000002901D06068884710BD0000F80A0020C9239B005843034B10B5C018FEF7B2FAB6
:203CE00010BD0000F80A0020FFB50546C9208000324F6843C419032000022618F06881B078
:203D0000002801D0FCF7F2FA2046FEF750F82846FFF74EFF0020308119277F01002D05D1E3
:203D20002649274A0A600122C9190A700299616003992161E0600499A160A061E0610C21F3
:203D400020626161606272B6307E002820460DD000231A461946FDF7B7FF002803D0B921BB
:203D600018A0FCF78EFA002D06D00DE0FEF738F90028F8D0B321F3E7002201211B20FDF7E9
:203D8000E1FA1B20FDF7D4FAE5192878012810D12146FF310122093120465202FEF7FEF909
:203DA000F068002805D0124923460A880A21FCF775FA62B60120687005B0F0BDF80A002036
:203DC000003801402E2E5C2E2E5C6C69627261726965735C6472697665725C7372635C75E0
:203DE0006172745F6472697665722E63000000003400002010B5FDF7A9FA10BD0000000083
:203E0000000000000102030406070809030406080C10182030000000000102030400070EC2
:203E2000091C1B1215383F363124232A2D70777E796C6B6265484F464154535A5DE0E7EEF2
:203E4000E9FCFBF2F5D8DFD6D1C4C3CACD90979E998C8B8285A8AFA6A1B4B3BABDC7C0C9D7
:203E6000CEDBDCD5D2FFF8F1F6E3E4EDEAB7B0B9BEABACA5A28F88818693949D9A27202932
:203E80002E3B3C35321F18111603040D0A5750595E4B4C45426F68616673747D7A898E8704
:203EA0008095929B9CB1B6BFB8ADAAA3A4F9FEF7F0E5E2EBECC1C6CFC8DDDAD3D4696E6772
:203EC0006075727B7C51565F584D4A4344191E171005020B0C21262F283D3A33344E494059
:203EE0004752555C5B7671787F6A6D64633E39303722252C2B0601080F1A1D1413AEA9A0B2
:203F0000A7B2B5BCBB9691989F8A8D8483DED9D0D7C2C5CCCBE6E1E8EFFAFDF4F3000000A8
:203F2000403F0008000000206C000000122C0008AC3F00086C000020B4130000222C00088C
:203F400000000000000000000000000088000000000000000000000080841E0000FF0000B8
:203F6000000000000000000000000000000000000000000000000000000000000000000041
:203F8000000000000000000000000000000000000000000000000000000000000000000021
:0C3FA00000000000000000000000000015
:203FF800D87A0000B7FF7C44D0150020D5400008DD400008DF400008000000000000000073
:204018000000000000000000000000000000000000000000E140000800000000000000005F
:20403800E340000895860008E7400008E7400008E7400008E7400008E7400008914700084F
:20405800B9470008E147000800000000E74000084D470008E740000869420008E740000834
:20407800000000009187000800000000E74000080000000000000000C58600080000000086
:20409800E7400008E7400008E7400008E7400008E740000815900008E7400008E740000812
:2040B80000000000000000000348854600F0BEF80048004729A90008D015002004488047AB
:2040D80004480047FEE7FEE7FEE7FEE7FEE7FEE7C1860008C140000830B50B4601460020E2
:2040F8002022012409E00D46D5409D4205D31D469540491B2546954040191546521E002D0C
:20411800F1DC30BD70B500242546002801DA01244042002901DA01254942FFF7DDFFAC42FA
:2041380000D04042002C00D0494270BDF0B51FB40646002082B005464024019100901BE07F
:20415800019922460F46304600F05EF8049A059B801A994110D310461946224600F044F856
:20417800361A8F410197224601200021009F00F03BF838184D4100902046641E0028DFDCCA
:20419800019B00982946324607B0F0BD03460B439B0703D009E008C9121F08C0042AFAD2CF
:2041B80003E00B780370401C491C521EF9D2704703460A780270401C491C002AF9D118460B
:2041D80070470321001D401E037812021A43491EF9D510467047034603220870000A491CEE
:2041F800521EFAD51846704710B5202A04DB0146203A9140002010BD914020239C1A0346F3
:20421800E3401943904010BD10B5202A04DB0846203AD040002110BD0B46D340D04020241E
:20423800A21A91400843194610BD0000064C0125064E05E0E36807CC2B430C3C98471034BA
:20425800B442F7D3FFF734FF3CBA00085CBA000810B5024801F032FB10BD0000580F0020C0
:20427800F8B5044600688168490725D5816810264907002905DA8168890702D48168314371
:20429800816002F0BBFA0546002711E002F0B6FA401BB9410A230022181A8A4108D2A06DF1
:2042B8003043A065E06D01210843E0650846F8BD206880684007E9D40020F8BD38B50446EC
:2042D800064805490068FFF707FF604300E0401E00900028FBD138BD40420F0008000020B3
:2042F800F8B50446006881688907890F012929D10168C90726D08168052211401026012724
:20431800012913D1816802221143816021680320086002F073FA054610E002F06FFA00220A
:20433800401B91410A23181A8A4107D2A06D3043A065E06D3843E0650120F8BD206880685D
:20435800C007EAD10020F8BDF8B50446006881688907890F012902D10168C90726D1816868
:20437800134A102711400126002912D18168314381600120FFF7A2FF02F040FA054610E0B0
:2043980002F03CFA0022401B91410A23181A8A4107D2A06D3843A065E06D3043E0650120D8
:2043B800F8BD20680068C043C007E9D10020F8BD17000080F8B5044600790F46002806D18C
:2043D80005206188000702F00DFA401CC6B22079012805D16188594802F004FA401CC6B2FD
:0843F8002079022805D161883B
:20440000554802F0FBF9401CC6B22079032805D16188524802F0F2F9401CC6B20025A57439
:20442000E0793042207C16D0002842D101202074617C491C6174A560217F002930D13870B1
:204440006574606900282BD0207CA0746A46A1691070626922E0002822D1E0681430E060F9
:20446000607C002801D101203870FF20E168F530814215D360790128607CA07402D003207E
:20448000B043E0716574A5600120E56038706269002A05D0A07C6B46A16918700098904754
:2044A000E079304205D1207C002852D0022813D014E0207C01284CD1A0681430A06061796C
:2044C000012923D0002944D1FF21F531884240D3607C002828D029E001203870607900288F
:2044E00002D1607C401C60742574E560207F00282FD10120387065746069002829D0207C10
:20450000A0746A46A1691070626920E0144988421FD965740220A5602074FF20A0746269D1
:20452000002A16D0A16910E001206074A0746574A5600120E56038700320B043E07125747C
:204540006269002A05D0A07CA1696B46187000989047F8BD0004005000080050001C0050F6
:204560008813000000207047F0B585B0154604460AA885C80D9E6580AC462171002563713E
:20458000E560A560A07165742777A574A6616261002B01D0002F00D103200523142702934F
:2045A00000900197039400236246234800F080F9002803D0472121A000F0D8FD20790028F3
:2045C00006D105206188000702F018F9401CC6B22079012805D16188244802F00FF9401CD5
:2045E000C6B22079022805D16188214802F006F9401CC6B22079032805D161881D4802F0B9
:20460000FDF8401CC6B2207F002805D06079012802D000280BD007E0A079E071B04202D148
:204620000120207400E02574002005B0F0BD0320B043E071F7E70000CD4300082E2E5C2E87
:204640002E5C6C69627261726965735C66756E6374696F6E735C5372635C46756E63746995
:204660006F6E5F427574746F6E2E63000004005000080050001C005070B50126067001799D
:204680000446002906D105206188000702F0B6F8401CC0B22179012905D161881D4802F073
:2046A000ADF8401CC0B22179022905D161881A4802F0A4F8401CC0B22179032905D16188C0
:2046C000164802F09BF8401CC0B2237F0022002B05D06179012902D000290DD011E0A1797E
:2046E000E171002B04D00D46814203D1267408E00325F9E7227404E003218143E1712274AB
:204700000325618820792B46012200F0B3F9002070BD00000004005000080050001C00505A
:2047200070B504464179807C0025002800D0A5742078012800D125700023618820791A46F2
:2047400000F098F965742574002070BD10B500F001F810BD10B5054C2046703001F0D2FBC4
:204760002046B03001F0CEFB10BD0000980B002010B5046863608368102B036803D0996058
:204780000068C26010BD9A600068C16010BD000070B50748074D047807E028206043401903
:2047A000283800F031F8641EE4B2002CF5D170BDC80200208801002070B50748074D047872
:2047C00007E0282060434019283800F01DF8641EE4B2002CF5D170BDC8020020880100207F
:2047E00070B50748074D047807E0282060434019283800F009F8641EE4B2002CF5D170BDC2
:20480000C80200208801002038B504460020694608701548217D43692268134222D042616C
:20482000207F00281ED0A07E00281BD1E27E207E824217D0226A002A12D0E0766069002809
:2048400008D16946204605F0A2FE68460078217C002805D1054A23461288206A00F0ACFCA0
:20486000002038BD052038BD000401402C00002010B500221146052002F03AF80022114678
:20488000062002F035F800221146072002F030F8052002F023F8062002F020F8072002F09E
:2048A0001DF8024800210170084610BDC8020020FFB58DB004200E460890169F554801218D
:2048C000002E06D0012E0BD0022E0CD0032E28D010E0C26A0A43C262C06AC007C00F08E060
:2048E000C36A022201E0C36A04221343C362C06A10400090012F17D0022F17D0032F17D066
:2049000000200390109804900F98029001200590002E0FD0012E11D0022E12D0032E1BD06E
:2049200013E0C36A8022E0E73B48EAE73B48E8E73B48E6E7052002A9000704E002A9394811
:2049400001E002A9384801F09DFE384800220546FF35413529780FE002A93548F3E728234B
:2049600053439C46C4580F9B9C4204D163461B181B79B34202D0521C9142F0D8914206D15C
:204980002823534300211B182033197106E028215143091820310979002938D1082A36D2E2
:2049A0001146282461430F9B43500C1826712776109860760020E0761999A1600D99E1608D
:2049C0001799216118996161A0762077206219A109A804F08BFB234620331F4609AA002129
:2049E000174800F06DFC002804D0D02115A000F0BDFB0CE02878401C28700020089001205C
:204A000038710246237E30460F9900F033F8089811B0F0BD00100240000021100000111019
:204A200000003110000400500008005088010020001C00504556545F4952512564000000B1
:204A40008FA500082E2E5C2E2E5C6C69627261726965735C66756E6374696F6E735C537297
:204A6000635C46756E6374696F6E5F4952512E6300000000FFB531499E460546042685B099
:204A800000200B7855E0282104464C432C49A446641824273F5D002F4AD02779AF4247D168
:204AA0006746CF5906998F4242D12821484324494018807E0021012803D1002A01D1A176D6
:204AC000E1762277002A13D070462076012808D0022808D0032808D001912046FFF794FE07
:204AE00007E0184802E0184800E018480190F4E70191607E02900698009001200390002D70
:204B000006D0012D08D0022D09D0032D0DD00AE005206946000704E069460D4801E0694667
:204B20000C4801F0AFFD002605E069460A48F8E7401C8342A7DC304609B0F0BDC80200202F
:204B4000880100200000211000001110000031100004005000080050001C0050F0B5002339
:204B60000D4AFF244134A75C12E028245C43A5182426765D002E0AD02D79854207D11459D2
:204B80008C4204D1282043439818007FF0BD5B1C9F42EADC0020F0BD88010020002803D039
:204BA000012803D000207047024870470148083070470000380B00200148007F7047000007
:204BC000780B002010B50C460749012803D0022803D0002005E0486A00E0886A0A21FFF728
:204BE00087FA208010BD0000380B00200148807B70470000580B002010B50648C069411C4D
:204C000005D07D21C900FFF789FAC0B210BD002010BD0000380B002010B50648406C411C34
:204C200005D07D21C900FFF779FAC0B210BD002010BD0000380B0020054A012803D00228CB
:204C400003D0002002E0D06C00E0106D08807047380B00200348007D032801D000207047A9
:204C600001207047780B002005490869002805D0884201D1012070470220704703207047D6
:204C8000380B00200348407B032801D00020704701207047580B0020F8B503F007FC0028B2
:204CA00000D00125042005F0BBFA7320000103F0A7FC554E30777120000103F0A1FC344620
:204CC000403CE061E320C00003F09AFC60624F4803F096FCA0624D48083003F091FCC0B22C
:204CE00027462037C143787389070AD00021C943E161A1614649C20700D16162800700D4DF
:204D0000A1628020A0704048403803F067FB4020A0723D48383803F061FB0020B873206109
:204D2000394B6061103B3BA201213C4800F0C8FA002805D0FF21503139A000F017FA012510
:204D4000314B45A20C3B0121454800F0B9FA002805D0FF21543132A000F008FA01252A4B56
:204D600040A2083B0021414800F0AAFA002805D0FF2158312AA000F0F9F90125224B3CA20D
:204D80001B1F01213C4800F09BFA002805D0FF215C3123A000F0EAF901253920400103F0BB
:204DA0002FFC6064E520C00003F02AFCE0641748103003F025FC20651448183003F020FCF7
:204DC000C0B2C143307589071BD02C4FC00705D1E5203946C000E76404F074F9307D800701
:204DE00005D40A4839461030276504F06BF9074803213175183004F065F90020C04360644B
:204E000020642846F8BD0000780B002014070000F6FF09004556545F7273610035B30008AB
:204E20002E2E5C2E2E5C6C69627261726965735C66756E6374696F6E735C5372635C467575
:204E40006E6374696F6E735F526F6C6C6572536875747465722E63004556545F72736F0063
:204E6000CDB300084556545F7273730029AC00084556545F7273640079B30008D007000085
:204E80000248007B002800D001207047580B002070B50D4609490969002901D0022070BD75
:204EA0000024E44301462246042000F03DF82A462146052000F038F8002070BD380B0020E3
:204EC00010B50D4900228A732031002802D0012008770BE008480A772038C3695B1C00D125
:204EE000C261426C521C01D1044A42647320097F000104F0E7F810BD580B0020905F01007E
:204F00000A224A4310B50146014806F085FC10BD380B00200A4610B50146024806F052FCF2
:204F200010BD0000780B0020F8B504466448064603694036002B0AD0012030767476B17653
:204F4000F276052C7ED0002000F0E8F87AE05C4BDD699D61586C1864531C33D0431C31D023
:204F60007D23DB005A435649564B8A6482420DDDC96C101A48431946FFF7BAF85249484326
:204F80004F49496AFFF7B4F8281A0DE04C49801A096D48431946FFF7ABF84B49484348491D
:204FA000896AFFF7A5F84019002801DA002003E04549884200DD08467D21C900FFF7AEF886
:204FC00041B203E000203E4AC0439064481C0DD03B486A1C0AD07D22D20051430162A942E5
:204FE00000DD0224A94205DA012403E000203449C0430862324DE86BC17C012901D000F0D8
:2050000003F92F48014608312030012C02D0022C06D017E02D616961417BC90705D007E0B3
:205020006D612961417B890702D4017B00291ED0317F002908D02549214B0A887D2109019E
:20504000286B2AE00020F8BD012C02D0022C0BD01EE0407BC0070AD0696AE8698FB2421CB9
:2050600016D04843184910E0407B800705D41749134B0A881649286B0FE0AA6AE86997B274
:20508000411C05D01049081A5043FFF731F887B20E490B4B0A883946286B00F08DF8084961
:2050A0000C4805F01BF9696900204870686903F07BF9296901204870286903F075F9C1E7AC
:2050C000380B0020905F0100A08601002C00002020BF0200C9A9000810B50F4C00202073DC
:2050E00020462030007F002813D0204620380069002805D0012000F011F80420207306E095
:205100000320011F20730A460120FFF70DFF002010BD012010BD0000580B002070B5064677
:2051200005F0CCF80F4C206B00F06EF8606B00F06BF820690025002803D04570206903F082
:2051400033F9002E04D0074840300576203805730549044B0A88FF21F531E06B00F02CF843
:20516000002070BD380B00202C000020704710B5044600F049F8228A20462368A16800F0A6
:205180001BF810BD38B50446C07C0025012810D001F040FB01466A46E06904F0BFF8A1696D
:2051A0000098814205D9228A081A1146FEF7A0FF0546284638BD000070B51546104A04462B
:2051C000007D127C904218D2E07C012813D10D48002646702360A160258201F01BFBE061FB
:2051E000A068711E6843FEF783FFA161E060E674012005F001FD002070BD042070BD0000A8
:205200008C090020280000200C49027D0B7C9A4201D20122C2740020094A097C06E03023FD
:2052200043439B18DB7C002B05D0401C8142F6DC0449002048700020704700008C0900203C
:20524000AC05002028000020F8B50D46040012D021681848086021681748086003CC41603E
:205260002068083C2168886001F0D4FA0646012D03D0302503E00120F8BDFF25E135002776
:205280002068C068002809D001F0C4FA801BB9413A46281A8A41F3D20320F8BD20680269FC
:2052A000E1688A4201D0016101E0044901600020F8BD0000CCCC000055550000AAAA0000AC
:2052C000F8B594461B4E8E461A680121347C1F46002A03D0127DA24200D21446152C27DA73
:2052E00022463021144D00234A43AB505519AB60EB6068601148C08828820120E8747046DF
:20530000A87460462C75002805D0284620306146FEF75AFF05E028462030224608A103F0D3
:20532000E5FE3D60307CA04201D1401C307400210846F8BD8C090020AC050020280000209B
:205340004576745F2564000030BF70471FB5684601F01EF86846007BBB281BD0BB20694686
:2053600008730220009001F0FDF804000AD101F0DBF8040006D1684601F020F8684601F046
:205380001DF8044601F0C6F801F0AAF8002C01D101F0B0F81FBD0000F3B5334999B00A681A
:2053A00000270323DB029A43CB14D2180A6001250A263C4600283FD010210128009603951C
:2053C000049141D00220099040040B90000101270C9003200A940E90684601F013FD0F208B
:2053E0000D900F941094394611940DA801F0E8FB032012901494159412A801F027FB1A9887
:205400001A4F002823D001F09BFC1949FEF770FE01F086FF7D80BE801548F880042001F020
:2054200071FF1448114B0474083313A201211548FFF746FF1BB0F0BD18200090C002069585
:2054400007940E94089000E00E950994C4E701F077FC7D26F6003146FEF74AFE01F060FFAB
:205460007C80BD80FE80D9E70070004028000020102700008C0900204556545F44656C610D
:2054800079000000B990000810B5024801F0C8F910BD0000A009002010B5084A0649116014
:2054A000FF232D3393600621D360516001461046FFF7CAFE10BD000000300040A00900200B
:2054C00070B5104D04460E46284600F069F8002814D10D494861002C10D02004000C0DD0C8
:2054E0000A48002E816802D0214389B202E0E24392B21140CA4312040A438260284600F086
:205500004FF870BD50C30000700100200000F81F10B5214A00219069C305204804D541695F
:20552000022319434161911593699B0505D543690124234343616302194393695B0505D55A
:205540004369082423434361E301194393691B0505D5436904242343436163021943936998
:205560009B0405D543691024234343616302194393699B0304D5446920231C434461194344
:205580009369DB0305D54369402423434361A0020143916110BD00000020024070010020A5
:2055A000F8B5054601F036F906460027194C0DE0681C0BD0002D07D001F02CF9801BB94100
:2055C0003A46281A8A4101D20320F8BDA069C007EED1A069800701D50220A061A069C005AD
:2055E00011D4A06980050ED4A06940050BD4A069000508D4A069800405D4A069800302D477
:20560000A069C00303D5FFF783FF0120F8BD0020F8BD000000200240F8B5054604464035AA
:20562000287D0027012808D001202875206881688907890F01290ED101E00220F8BD01681C
:20564000C90708D0A06D20210843A0650127002028753846F8BDA16DFF2201329143022292
:205660001143A165C1688907890F0091C16889088900C1602068816892071143816001F05A
:20568000C9F8064612E001F0C5F80022801B91410A23181A8A4109D2A06D0221884310219D
:2056A0000843A065002028750120F8BD206880680028E8DB2068C168009A1143C160A06DDF
:2056C00080088000401CA065C1E7000070B50D4D286A69150843286201F09CF80446002660
:2056E0000AE001F097F8001BB14101220023101A8B4101D2012070BD286A4000F1D500201E
:2057000070BD000000000140F8B506460D464036317D01290DD00121317501688A68520728
:2057200009D5816D202211438165002030750120F8BD0220F8BD174B6A68D80547109A426B
:20574000154C8A6A2B6812D05B035B0B1A438A622968490305D5A1680143A1600A20FEF74E
:20576000B9FD2868800312D5A06838430EE05B035B0B9A438A622968490302D5A1688143FA
:20578000A1602868800302D5A068B843A06000203075F8BD011000000027014070B50026DD
:2057A00035461A4800F093F8FF214B314843FF212D31FEF79DFC164A6423518BD28B401AE4
:2057C0005843511AFEF7AAFC124C1E3021694A0089180818C117890F0818801020615428CA
:2057E00005DDA068002801D0804705460126E1682069814201D1002D06D0E0602178002921
:2058000002D0314604F076FC70BD0000580F00206000F81F6000002070B5040043D0A06DE5
:2058200002210843A0652046FEF726FD0026054600283AD0012D32D0206841681F4A1140B9
:2058400041602168D04308602068816801221207914381602068C168194A1140C160206833
:205860000169184A1140016120684169C908C90041612068016A144A1140016220688030FE
:20588000416BC909C901416320688030416BC909C9014163204600F06DF9E665A665403472
:2058A0002675284670BD012070BD2046FEF724FD05460128F3D00120A065BDE760F7FFFF92
:2058C00000023E8302FCFF3F00F000F070470068006C704770B5044600680168490702D540
:2058E0004168490705D40168090733D54168090730D5A16DC90604D4A16D01225202114309
:20590000A165C1680C250905890F00291AD1216A002917D10168090714D581684A07012113
:20592000002A08DB4268AA434260A06D0A0290430843A06506E0A06D20221043A065E06D0B
:205940000843E0652046FFF729FFA069012801D0206805602068016809060DD540680006B3
:205960000AD5A06D012109040843A065204600F0FFF821688020086020680168C90613D536
:205980004168C90610D5616B1025002902D0C168C90707D0E16D02221143E1650560204607
:2059A000FFF794FF2068056070BD000070B5040006D0A06D264600254036002802D006E051
:2059C000012070BDE5653575204600F0E5F8A06DC00603D421688868400705D5A06D1021D0
:2059E0000843A0653575EBE7A06DFF220132904302221043A06588688207920F5A48012A44
:205A000002D10A68D2072BD1032362689B079A4205D05B429A4202D05B009A4209D10A695A
:205A2000920092080A6121680A6963681A430A610CE00A69920092080A6181680F2292049A
:205A40009143816081686268114381602168CA6818239A43CA602168CA68A3681A43CA605F
:205A6000816801225206914381608168228F52061143816020688168C90004D481680122C8
:205A80001207114381602068C168384A1140C1602169E068022923D000210843216A226B9F
:205AA0004903520011430843616B0843A16989030843E169C90308432168CA681043C8601A
:205AC000A06A0146FF39C23905D0E16A08432168CA681043C860606A0121012802D00BE0CF
:205AE0000421DAE7206A002823D0A06D20221043A065E06D0843E065206C012820681FD06B
:205B00000169C90703D0016949084900016120684169C908C900416120684169E26B1143D1
:205B20004161E565A06D80088000401CA065002070BD2068C26801231B041A43C260DBE780
:205B40000269FF239B009A43026120680269636CE66C1A43A36C33431A4302612068026934
:205B60000A430261D3E70000002701401902FEFF7047000010B500680549884207D105481A
:205B8000416B4215914341630C2000F09DFE10BD002401400010024010B500680849884207
:205BA0000CD10848416B421511434163002203210C2000F09DFE0C2000F090FE10BD000049
:205BC000002401400010024070B50446216800208968490732D425464035297D01292DD002
:205BE00001212975E169012904D02046FEF7B8FB002818D1A16D124A1140FF22013211431B
:205C0000A1650021E165297522681C21116063690422082B08D023685D680D435D6021685E
:205C20008B6813438B6070BD21684B6893434B6021684B6818252B434B60F0E7022070BD8E
:205C4000FEF1FFFFF8B504460068016849084900016000F0DFFD002725460646203511E0A4
:205C600000F0D8FD801BB9417D23DB000022181A8A4107D2E06B20210843E0632F7103207A
:205C80006871F8BD20680068C007E9D12F71012068710020F8BD000070B5002402462032B3
:205CA0005179022903D00421C16301243CE001680B680E25AB430B6001680B685B085B0090
:205CC0000B601A4B0168994201D1012121E0174B1433994201D110211BE0144B28339942A4
:205CE00001D1891515E0114B3C33994201D189140FE00E4B5033994202D10121090408E09A
:205D00000A4B6433994202D10121090501E001210906064B083B59600121517100211171D3
:205D2000816B002900D08847204670BD08000240F0B5002821D0014620318C4649790229BD
:205D40001BD001680A68520852000A6002680021116002685160026891600268D160684CA6
:205D6000674D674E664F664A0168143428353C365037914203D101231DE00120F0BDA142D5
:205D800001D1102317E0A94202D1FF23013312E0B14202D101231B030DE0B94202D101231A
:205DA0001B0408E0564B6433994202D101231B0501E001231B06524908394B6001689142C9
:205DC00001D102231BE0A14201D1202317E0A94202D101235B0212E0B14202D101235B0369
:205DE0000DE0B94202D101235B0408E0444B6433994202D101235B0501E001235B06404936
:205E000008394B600168914201D108231BE0A14201D1802317E0A94202D10123DB0212E062
:205E2000B14202D10123DB030DE0B94202D10123DB0408E0324B6433994202D10123DB052E
:205E400001E00123DB062E4908394B600168914201D104231BE0A14201D1402317E0A942CF
:205E600002D101239B0212E0B14202D101239B030DE0B94202D101239B0408E0204B6433AC
:205E8000994202D101239B0501E001239B061C4908394B601A4903687831934203D18A6A85
:205EA0001209120124E0A34202D18A6AF0231EE0AB4203D18A6A0F231B0218E0B34203D12E
:205EC0008A6A0F231B0312E0BB4203D18A6A0F231B040CE00A4A6432934203D18A6A0F23D1
:205EE0001B0504E08B4204D18A6A0F231B069A438A620021C1636046417101710846F0BDE2
:205F000008000240F8B504469D4801689C4A9C4E9B4F0832206813041C363037904201D102
:205F200008221EE0B04201D180221AE0B84202D10122D20215E0924A4432904202D1012206
:205F4000D2030EE08E4A5832904201D11A4608E08B4A6C32904202D10122D20501E001221A
:205F6000D20625461140203500293BD00168090738D501680822914301608149206808312B
:205F8000884201D108201EE0B04201D180201AE0B84202D10120C00215E07949443188423B
:205FA00002D10120C0030EE075495831884201D1184608E072496C31884202D10120C00538
:205FC00001E00120C0066E494860E06B01210843E0630420687100202871616B002901D023
:205FE0002046884766480168654A206808321315904201D104221EE0B04201D140221AE0D4
:20600000B84201D11A4616E05D4A4432904202D1012292030FE05A4A5832904202D10122FF
:20602000920408E0564A6C32904202D10122920501E001229206114238D00168490735D58B
:206040000168890603D4026804218A4302604C4920680831884201D104201EE0B04201D1DB
:2060600040201AE0B84201D1184616E044494431884202D1012080030FE041495831884297
:2060800002D10120800408E03D496C31884202D10120800501E00120800639494860052063
:2060A0006871216B002901D02046884734480168334A206808325315904201D102221EE0FA
:2060C000B04201D120221AE0B84201D11A4616E02B4A4432904202D1012252030FE0284A35
:2060E0005832904202D10122520408E0244A6C32904202D10122520501E001225206114236
:206100003CD00168890739D50168890603D401680222914301601A4920680831884201D11B
:2061200002201EE0B04201D120201AE0B84201D1184616E012494431884202D10120400350
:206140000FE00F495831884202D10120400408E00B496C31884202D10120400501E001208F
:20616000400607494860E06BE0630120687100202871E16A002901D020468847F8BD000071
:206180000000024070B5002805D0034620335979002902D003E0012070BD00211971022133
:2061A0005971046822683749C5680A4081684669294305693543294385692943C5692943DE
:2061C000056A2943114321602F492F4C02687831A24206D18A6A120912018A628A6A4068A4
:2061E00049E0294C1434A24207D18A6AF024A2438A628A6A406800013DE0234C2834A242BB
:2062000008D18A6A0F242402A2438A628A6A4068000230E01C4C3C34A24208D18A6A0F241D
:206220002403A2438A628A6A4068000323E0164C5034A24208D18A6A0F242404A2438A6201
:206240008A6A8088000416E00F4C6434A24208D18A6A0F242405A2438A628A6A8088000576
:2062600009E08A4209D18A6A0F242406A2438A628A6A0079000602438A62012058710020BF
:2062800070BD00000FC0FFFF08000240F8B5044620300579012D1ED001250571022646715E
:2062A00020680768AF4307602046FEF761FA20680168314301602068016804221143016046
:2062C0002068016808221143016020680168294301600020F8BD0220F8BD000070B5074D0B
:2062E00004462846FFF75CF9002805D10449486120602846FFF754F970BD000050C3000036
:20630000700100200348416801221143416000207047000000200240F8B5124D0746287CAA
:2063200014460E46012807D0012028740E48FFF737F9002802D00CE00220F8BD00216961CE
:20634000022F09D0012F09D0002F09D00648FFF727F900212974F8BD3460FAE73480F8E743
:206360003470F6E77001002050C3000005484168C90705D00449C1600449C16000207047AA
:206380000120704700200240EFCDAB89050403020F21016008490A6A8260CA690273CA69B2
:2063A0007023120C1A408273CA691203120F4273C969C90FC173704700200240F8B5444E29
:2063C0000546317C012001290DD00121317429780027C907002908D06968A868FFF770F8FE
:2063E000002872D101E00220F8BD2978394C890717D5297B20682068FF220132104001433C
:20640000C8430004084300903348FFF7C9F8002805D17761009820602F48FFF7C1F8002824
:2064200053D12978490720D5A87B102103460B40202101404022104062689C46274B1A40BE
:2064400063460B4303431343D8430004034322480093FFF7A5F8002805D177610098606086
:206460001D48FFF79DF800282FD12978090716D5687B6168194A613211400843C143090419
:20648000084300901448FFF78BF8002805D17761009860601048FFF783F8002815D12978A6
:2064A000C90612D5E87BC50360684004400C0543E843000405430848FFF772F8002804D137
:2064C000776165600448FFF76BF83774F8BD0000700100200000F81F50C300008FFF0000D1
:2064E000034841680222114341600020704700000020024010B5054841680122920411438E
:2065000041600348FFF74CF810BD00000020024050C30000034841680422114341600020E4
:2065200070470000002002400948416849070CD54168C90703D00749C1600749C160074999
:206540004161074941610020704701207047000000200240EFCDAB8905040302C8D9EAFB12
:20656000272625240948416889070CD54168C90703D00749C1600749C160074901610749EA
:2065800001610020704701207047000000200240EFCDAB8905040302BFAE9D8C16151413A2
:2065A000F0B500235DE001249C4022460A4057D006685F000325BD402E43AC460660DD085C
:2065C000AD002D182E6AAE465D07EF0E0F25BD40AE4375462E6286686546AE438660456852
:2065E000A5434560C4686546AC43C4609D081F4CAD002D19AF689C07260F0F24B440A44621
:206600003C4005273F07B84201D1002714E0184FB84201D101270FE0164FB84201D1022701
:206620000AE0154FB84201D1032705E0134FB84201D1052700E00627B740A74210D1AE68F3
:206640006446A643AE600E4C256895432560656895436560A5689543A560E5689543E56097
:206660005B1C0A46DA409ED1F0BD0000000001400004005000080050000C0050001C005068
:2066800000040140F8B500230124A2E027469F403A4070D04D68022D01D0122D14D1DD087A
:2066A000AD002D1800952D6A5E07AC46F50E0F26AE46AE406546B543AC460E697546AE4096
:2066C00065462E43009D2E624D68012D05D0022D03D0112D01D0122D16D185680326AC467A
:2066E0005D00AE46AE406546B543AC46CE687546AE4065462E43866046680D79BE43ED06BD
:20670000ED0F9D403543456006685F000325BD40AE46AE430D79B446AE07B60FBE40654609
:206720002E430660C6687546AE438D68BD403543C5604D68ED004BD5294D6E6B26436E63CE
:206740009E08284DB6007519AC46AD689E07360F0F27B740BD4305273F07B84201D1002757
:2067600015E0214FB84201D1012710E01F4FB84202D102270BE02BE01D4FB84201D1032714
:2067800005E01C4FB84201D1052700E00627B7402F436546AF60184D2E684F689643FF03F4
:2067A00000D516432E606E684F689643BF0300D516436E60AE684F689643FF0200D5164324
:2067C000AE60EE684F689643BF0200D51643EE605B1C0A681546DD4000D057E7F8BD000064
:2067E00000100240000001400004005000080050000C0050001C005000040140006908409C
:2068000000D001207047002A01D08161704781627047000001490868496870470000002060
:20682000006802490160002070470000AAAA000004490A684868521C002358410A6048606E
:20684000704700000000002010B506480168402211430160002000F007F800F019F800209E
:2068600010BD00000020024010B5044607487D21C9000068FDF73CFC00F052FD00222146C8
:20688000501E00F035F8002010BD00000800002010B50C48416B012211434163816B020486
:2068A0001143816300221146501F00F021F800221146901E00F01CF801210022881E00F0AA
:2068C00017F810BD00100240C106C90E01208840014908607047000080E100E0C106C90EBB
:2068E00001208840014908607047000000E100E010B501F009FC10BDBFF34F8F04490348D5
:20690000C860BFF34F8F00BFFDE700000400FA0500ED00E0F8B54749034601240020E4039A
:20692000434D444A4031082B71D00FDC012B3ED0022B56D0042B1AD1CB680326B60233403B
:206940005AD00127FF02BB4243D058E0102B6BD0202B0CD10B690969032501272D043F0454
:2069600029407E00B94203D199052CE02046F8BDB14203D19907FAD52F48F8BDA942FCD182
