S028000050313739395F666C75696472615F6273725F66775F62746C2D636F6D62696E65642E7333376B
S3150FE100000F4880F308880F48004700004D05E10FC0
S3150FE100104D05E10F4D05E10F4D05E10F4D05E10FE2
S3150FE100204D05E10F4D05E10F6805E10F4D05E10FB7
S3150FE100304D05E10F4D05E10F4D05E10F4D05E10FC2
S3150FE10040004000200105E10F10B5054C237833B9C7
S3150FE10050044B13B10448AFF300800123237010BDA5
S3150FE1006010010020000000007C05E10F08B5034BED
S3150FE100701BB103490348AFF3008008BD0000000040
S3150FE10080140100207C05E10F044B054A9A60D3F871
S3150FE10090882042F47002C3F88820704700ED00E033
S3150FE100A00000E10F094A0A4BD969C90705D512B90B
S3150FE100B06FF002007047013AF6E7002AF8D0012205
S3150FE100C01861DA60D86940F380007047809698002E
S3150FE100D000000E4070B509B9002070BD0E4A00232D
S3150FE100E0082550F8234094610C4CD5600133D6694D
S3150FE100F0F60705D514B96FF00200EEE7013CF6E716
S3150FE10100002CF8D0D469A40702D49942E9D1E3E7E8
S3150FE101106FF00100E1E700BF00000E408096980006
S3150FE101202DE9F8431C4B884641F671311D6C196474
S3150FE101301A49074648684968996841F00101ADB225
S3150FE10140996096084FF00009B14501D3002005E00B
S3150FE1015007EB89042046FFF7A5FF48B10E4B9A68D6
S3150FE1016022F001029A600DB100221A64BDE8F8830C
S3150FE10170C4F30A04C4F50064A408A6EB09039C4280
S3150FE1018028BF1C4621464046FFF7A4FF0028E5D1CC
S3150FE10190A14408EB8408D7E700000E4000300E407B
S3150FE101A0204B41F671311A6C10B519641E494C6832
S3150FE101B04968996841F00101996001211861D96097
S3150FE101C0D9694C0792B209D5996821F00101996075
S3150FE101D00AB100221A644FF0FF301FE00221134CDF
S3150FE101E0D9601946D869C00700D56CB9C8698B685B
S3150FE101F010F0020023F001038B6007D00AB1002350
S3150FE102000B646FF0010009E0013CEBE724B902B1A1
S3150FE102100C646FF0020001E00AB1086410BD1046EC
S3150FE10220FCE700BF00000E4000300E4080969800BC
S3150FE10230FFF776BF08B50A4B1A680A4B1A600A4BE5
S3150FE1024040221A615A685203FCD400F07BF8002869
S3150FE10250FBD040F2022000F0AFF8002008BD00BF4E
S3150FE10260040100200001002000300E4010B5104CB3
S3150FE10270104BA36000F0C0F80F4B5B68B3F5803FFE
S3150FE1028009D040F20923984202D0B0F5007F02D19E
S3150FE1029000F016F850B9094BA3601846016881F3CF
S3150FE102A0088881F3098840688746FEE710BD00BFDD
S3150FE102B000ED00E00000E10F00500E400008E10FF5
S3150FE102C0F8B51C4B1A681069D568836AAB4201D23F
S3150FE102D00020F8BD05F560529A42F9D95B1BC618A5
S3150FE102E0C758154B9F42F3D14FF0FF32F16800F03B
S3150FE102F0EBF8124B98420446EAD1114B1B68A3F176
S3150FE103007E62A2F58432B2F5605F10D21A68BA4204
S3150FE103100DD1B1689A68914209D84FF0FF32D96889
S3150FE10320284600F0D1F8001B18BF0120D1E70120C4
S3150FE10330CFE700BF2800E10F07B0CD5EE320BBDEBC
S3150FE103402808E10FF8B5184B1B68D3E90347BB6AD9
S3150FE103501B1BFD182646EA68A318B3421CD839467B
S3150FE10360204600F07CF8B0B1104B1B68A3F17E621A
S3150FE10370A2F58432B2F5605F14D219680C4A914244
S3150FE1038010D1D9684FF0FF32204600F09DF8094BA6
S3150FE10390C31A58425841F8BD304600F059F806F5F0
S3150FE103A00066D8E70020F6E72800E10F2808E10FFD
S3150FE103B007B0CD5EE320BBDE4FF000534FF20F02E5
S3150FE103C05A800A4A1880136823F4E06343F40073F2
S3150FE103D01360BFF34F8F0649064BCA6802F4E0621A
S3150FE103E01343CB60BFF34F8F00BFFDE700500E40C5
S3150FE103F000ED00E00400FA054FF000534FF20F0154
S3150FE104005A888A4201D1188870473AB91B88012B5D
S3150FE1041040F2022018BF4FF4007070474FF400709E
S3150FE10420704707B503469B0753BF6FEA01414FF686
S3150FE10430FF7343EA01416FEA11410422019120F072
S3150FE1044003000DEB0201FFF7F3FE03B05DF804FBCA
S3150FE1045008B5FFF7A5FEB0FA80F0400908BDF8B57B
S3150FE1046040EA02031446DA0705460E4601D5002097
S3150FE10470F8BD0CB90120FBE7830721D50988FFF702
S3150FE10480D0FF0028F3D1023C032C05F1020506F15A
S3150FE1049002060BD924F003073A4631462846FFF701
S3150FE104A0C7FE0028E3D13E443D44E41B002CE1D0D6
S3150FE104B031882846FFF7B5FFB0FA80F04009D7E754
S3150FE104C0032CE7D8F4E7000010B50B4CD4F8B030A5
S3150FE104D043F04003C4F8B030084B01241C600144DB
S3150FE104E09A605C601A46884201D1D86910BD10F84E
S3150FE104F0014B9461F7E700BF00400E4000C0014099
S3150FE105000B4880470B4880470B490C4A0C4B9A42E4
S3150FE10510BEBF51F8040B42F8040BF8E709490A4A42
S3150FE1052000209142BCBF41F8040BFAE7FFF782FEC8
S3150FE105308900E10F6D02E10F8005E10F0001002057
S3150FE1054010010020100100202C010020FEE700BF62
S3150FE10550F8B500BFF8BC08BC9E467047F8B500BFBA
S3150FE10560F8BC08BC9E467047AD1007B0010000000D
S3150FE1057000030A010008E10F0080000000000000FF
S3150FE10580C0EA2101C0EA21016D00E10F4900E10F47
S3150FE10800007C0020A108E10F9D08E10FF108E10F3F
S3150FE108109D08E10F9D08E10F9D08E10F9D08E10F8E
S3150FE108209D08E10F9D08E10FA432E10F9D08E10F4D
S3150FE108309D08E10FD832E10F9D08E10F9D08E10F09
S3150FE1084010B5054C237833B9044B13B10448AFF314
S3150FE1085000800123237010BD080100200000000075
S3150FE10860D834E10F08B5034B1BB103490348AFF386
S3150FE10870008008BD000000000C010020D834E10F14
S3150FE10880044B054A9A60D3F8882042F47002C3F804
S3150FE108908820704700ED00E00008E10FFEE7000059
S3150FE108A008B5FFF7EDFF00F081F80A4A0A4B0B494D
S3150FE108B08B4206D30A4B0B4A0021934206D300F033
S3150FE108C01BF852F8040F43F8040BF1E743F8041B46
S3150FE108D0F3E700BFD834E10F000100200801002043
S3150FE108E0080100202401002000F0BCBE00F00BBF80
S3150FE108F04FF4017001F082BF244B07B501225A6410
S3150FE109001A6842F480721A6001A800F08DFE9DF814
S3150FE109100530012B03D89DF80430022B09D91C4B66
S3150FE109204FF418721A601B4A5A601B4A5A661B4AE1
S3150FE10930DA661B4A136843F4F8431360194B4022F6
S3150FE109401A615A685203FCD4FFF7CEFF01F04FFF4D
S3150FE1095001F0DDFA30B940F2012001F04FFF4FF41B
S3150FE1096001700AE0104B0193019B002B0BDC40F267
S3150FE1097005439842F3D140F2032001F03FFF0020F7
S3150FE1098003B05DF804FB019B013BECE700000E4071
S3150FE109908C420E409A6F050018010004008432085C
S3150FE109A0A4310E4000300E4000350C0008B5184B4F
S3150FE109B05B685B050AD4012304221268013214D164
S3150FE109C04FF40270BDE8084001F00ABF01F036FFAF
S3150FE109D0A0F2022080B20728EDD8012303FA00F036
S3150FE109E010F0C90F18BF0023E6E783B1002001F02D
S3150FE109F06BFE0028E4D0074A00239360184601688E
S3150FE10A0081F3088881F3098840688746FEE708BDC8
S3150FE10A1000500E4000ED00E00020704710B50B4C82
S3150FE10A20D4F8B03043F04003C4F8B030084B01249A
S3150FE10A301C6001449A605C601A46884201D1D8690C
S3150FE10A4010BD10F8014B9461F7E700BF00400E406F
S3150FE10A5000C00140F8B504461D4616460F4600F0A4
S3150FE10A60E8FEDDE90612204600F0E9FE00236362A7
S3150FE10A7084F838703268C4F839207268C4F83D20BA
S3150FE10A802B0CB26884F845302B0AC4F8412084F860
S3150FE10A90463084F84750F8BD30B585B01D4600F1B4
S3150FE10AA02803CDE90112009300F1240200F1380386
S3150FE10AB0294600F0E2FE05B030BD00002DE9F04118
S3150FE10AC0A2B00F4616469846289C054660B359B321
S3150FE10AD052B34BB344B30121154800F081FC4022D8
S3150FE10AE0002102A802F0CAFB414602A800F016FB5C
S3150FE10AF021460AA812AC00F011FB40220021204644
S3150FE10B0002F0BCFB3946204600F008FB31461AA835
S3150FE10B1000F004FB009402AB20222946054800F0C1
S3150FE10B200DFB22B0BDE8F08140F20160F9E700BFAD
S3150FE10B3000050A0000000F4010B5044601F044F924
S3150FE10B4020460021BDE8104001F068B901F070B907
S3150FE10B50014601F06FB91C2350F8042F0AB9043B83
S3150FE10B60FAD1002BCCBF00200120704730B50568C4
S3150FE10B70046802680368C1E90054C1E90223056804
S3150FE10B80046802680368C1E90454C1E9062330BD6C
S3150FE10B90D1E9022330B5D1E9005405600460026062
S3150FE10BA00360D1E90454D1E90623056004600260CC
S3150FE10BB0036030BD2DE9F04104461D460E469046D1
S3150FE10BC000211C22181D02F059FB01232B6000F0B6
S3150FE10BD045FC4146074604F58070FFF7D9FF3146DC
S3150FE10BE004F5827004F58476FFF7D2FF2946304685
S3150FE10BF0FFF7CEFF384600F035FC0D4F0D4B0E4A91
S3150FE10C000E490F4823656369DB010BD500F026FC1E
S3150FE10C10294604463046FFF7A9FF2046BDE8F041D5
S3150FE10C2000F020BC22656165A065E765EBE700BFD3
S3150FE10C303938010039398401D02484FC1C82FED86D
S3150FE10C408B1C81A02DE9F04F8DB0044698460F46D7
S3150FE10C50154600F003FC04F5827607F140021146D2
S3150FE10C6004F5867B814630460392FFF791FF2946CD
S3150FE10C705846FFF78DFF04F58873184605F12001F5
S3150FE10C800293FFF785FF484600F0ECFB42492165E9
S3150FE10C904249616501254249A165E56500F0DEFB43
S3150FE10CA004F5847907F1200A019039463046FFF7BA
S3150FE10CB06FFF51464846FFF76BFF039A029B1146BA
S3150FE10CC01846FFF765FF019800F0CCFB354B23651E
S3150FE10CD0354B6365A56500F0C1FB04F580730190A3
S3150FE10CE008F1400118460293FFF740FF04A9484671
S3150FE10CF0FFF73CFF019A104600F0B4FB00F0AEFBA4
S3150FE10D00394601905846FFF743FF019A104600F026
S3150FE10D10A9FB264A2265264A62656FF42673A2F578
S3150FE10D20FE221A44A265E56500F098FB5146074697
S3150FE10D303046FFF72DFF384600F094FB1D4A22653A
S3150FE10D401D4A6265A56500F089FB4146074648469F
S3150FE10D50FFF70CFF384600F085FB00F07FFB04A997
S3150FE10D6007463046FFF714FF384600F07BFB134A80
S3150FE10D702265134A6265A56500F070FB029B044686
S3150FE10D8008F120011846FFF7F1FE204600F06AFB55
S3150FE10D900DB0BDE8F08F00BF8AD11C81D91C83D17C
S3150FE10DA01C81E11CD01482CB1481E11C8CE11C81E6
S3150FE10DB01C84D91CE014D8141482E11C84D3148248
S3150FE10DC0D11CE0142DE9F041044690B00F46244EB4
S3150FE10DD00521904600F049FB0023236023636363FB
S3150FE10DE00FCE08AD0FC596E80F0085E80F0008AAEC
S3150FE10DF06B4607F140012046FFF7DCFE00F02EFBC4
S3150FE10E0004F586750646694604F58270FFF7C0FE5E
S3150FE10E1039462846FFF7BCFE07F1200104F5887035
S3150FE10E20FFF7B6FE304600F01DFB0E4B23650E4B6A
S3150FE10E3063650E4BA3650123E36500F00FFB08F134
S3150FE10E402001064604F58070FFF790FE41462846DD
S3150FE10E50FFF78CFE304600F005FB10B0BDE8F081E0
S3150FE10E602433E10F8AD11C81D91C83D11C81E11C6A
S3150FE10E702DE9F04FA5B01D460446CDE9001205A8B0
S3150FE10E801C22002102F0FAF94FF00108202200217D
S3150FE10E90284605F12007CDF8108005F1400A02F04A
S3150FE10EA0EDF920220021384602F0E8F9202200214F
S3150FE10EB0504602F0E3F90521204600F0D6FA002369
S3150FE10EC02360FF26236363637211019806F01F0304
S3150FE10ED050F8222008FA03F3134206F1FF3102D14B
S3150FE10EE00E460029F0D100F0B9FA04F582733946BE
S3150FE10EF0804618460293FFF74BFE404600F0B2FAE2
S3150FE10F007A4B7B4A236562657A4AA26500F0A6FAB7
S3150FE10F1004F5807914A980464846FFF727FE404637
S3150FE10F2000F0A0FA00F09AFA294680464846FFF704
S3150FE10F302FFE404600F096FA6F4A704B22654FF44A
S3150FE10F4086726365A26500F089FA04F586788346B1
S3150FE10F500CA94046FFF70AFE1CA94846FFF706FE15
S3150FE10F60584600F07FFA00F079FA029B0393514657
S3150FE10F7083461846FFF70CFE584600F073FA604BAE
S3150FE10F8023650123636500F069FA04F5847B29463D
S3150FE10F9002905846FFF7FCFD029A104600F062FAFE
S3150FE10FA0584A226502F1D94202F5DE1202F595623F
S3150FE10FB06265A2F586120123A2F2BA42A265E36542
S3150FE10FC000F04CFA1CA902905846FFF7E1FD0CA977
S3150FE10FD04046FFF7DDFD029A104600F043FA4A4A12
S3150FE10FE022654A4A62654A4AA26500F037FA2946FE
S3150FE10FF0029004F58870FFF7B9FD029A104600F0EA
S3150FE1100031FA00F02BFA039B029039461846FFF7A7
S3150FE11010BFFD58465146FFF7BBFD14A94046FFF702
S3150FE11020B7FD029A104600F01DFA3A4B23653A4B8B
S3150FE11030636500F013FA514683464846FFF796FD7E
S3150FE1104039464046FFF792FD584600F00BFA01216B
S3150FE1105006F01F0301FA03F37211019951F82220E9
S3150FE11060134217D02B687BB92846FFF774FD58B1A9
S3150FE110702B6A4BB93846FFF76EFD28B12B6C1BB9BE
S3150FE110805046FFF768FD60B92B46009A2946204680
S3150FE11090FFF7D8FD16F1FF36BFF425AF25B0BDE852
S3150FE110A0F08F009BAC4603F1200E18685968624633
S3150FE110B003C2083373459446F7D1BC4603F1200EBC
S3150FE110C018685968624603C2083373459446F7D1E7
S3150FE110D00DF1100EBEE80F0005F1400CACE80F0064
S3150FE110E09EE80F008CE80F00D4E700BF8AD11C8180
S3150FE110F0821CC00C0C0C0100C00C0C83D91C83D8CC
S3150FE111008AD11C83DA0C81148CE11CD01484E3148C
S3150FE1111082D11C01D81483D11CC00C0110B5202239
S3150FE111200C46002102F0AAF804F12002013812F868
S3150FE11130013D00F8013FA242F9D110BD2DE9F04F73
S3150FE11140BBB089460446002190460AA860229A461A
S3150FE11150449F02F093F86022002122A802F08EF854
S3150FE11160B9F1000F00F01E81BAF1000F00F01A81FC
S3150FE11170002F00F01781B8F1000F40F31381002320
S3150FE111802360236363636368884E43F010036360F0
S3150FE111900C21204600F069F9636823F4406343F4B8
S3150FE111A000636360636823F4407343F40073636021
S3150FE111B00FCE2AAD0FC596E80F0085E80F0000F0B8
S3150FE111C04DF904F5847683463946304604F586753E
S3150FE111D0FFF7DEFC2AA92846FFF7DAFC584600F0AE
S3150FE111E041F90122724B236562656269D20104D42A
S3150FE111F040F202603BB0BDE8F08F391F082251F88B
S3150FE11200040F002800F0C680019300F027F907F1DB
S3150FE11210200B009059463046FFF7BAFC2AA928461B
S3150FE11220FFF7B6FC009A104600F01CF9019B236507
S3150FE11230012363656369DB01DAD507F11C02082334
S3150FE1124052F8041F002900F0A980B8F1200FA8BFBA
S3150FE112504FF020082022002132A802F00FF808F102
S3150FE11260FF30CC4620F003033AA940330B441CF878
S3150FE11270012B00F00301C9008A4053F8601C0A43B1
S3150FE1128043F8602CACEB0903434500F1FF30E9DB92
S3150FE1129000F0E4F832A980463046FFF779FC404684
S3150FE112A000F0E0F8434B236500F0D8F804F58078B9
S3150FE112B0814632A94046FFF759FC484600F0D2F87D
S3150FE112C02AAA02AB59462046FFF774FC00F0C6F88E
S3150FE112D004F58879834602A904F58270FFF758FC75
S3150FE112E032A94846FFF754FC39462846FFF750FC2A
S3150FE112F0584600F0B7F8304B236503F1FA43A3F5EF
S3150FE113000063636500F0AAF832A983464846FFF702
S3150FE113102DFC02A94046FFF729FC584600F0A2F83A
S3150FE113200AAB32AA25492046FFF7A2FD22AB02AA54
S3150FE1133051462046FFF79CFD0AAA11462046FFF7C4
S3150FE1134041FD22AB19460AAA2046FFF77BFC22AAEA
S3150FE1135011462046FFF736FD00F080F80C21804656
S3150FE11360204600F082F822A93046FFF711FC3946F4
S3150FE113702846FFF70DFC404600F074F8104B236545
S3150FE11380104B6365636913F0807F40F2046018BF09
S3150FE1139000202FE7013A7FF432AF29E7013B7FF4D3
S3150FE113A04FAF25E740F2016024E700BF4433E10F79
S3150FE113B03035DA1030D00C0130E11C846433E10FA3
S3150FE113C03035DA1439380100044BD3F84421D2070A
S3150FE113D003D4D3F840211042FBD1704700400E40B1
S3150FE113E0C0F30322013A38B50546092A13D8DFE8D7
S3150FE113F002F023131212051619121C20104C0020AD
S3150FE11400C5F3043508B1FFF7DFFF04F1047405EB0B
S3150FE11410C404A400216038BD00200A4CF0E7012086
S3150FE11420094CEDE71020094CEAE74FF48030084C00
S3150FE11430E6E70020074CE3E70020074CE0E700BFB3
S3150FE11440B0400E40C0400E40E0400E40E8400E4036
S3150FE11450F0400E4050410E4000400E40EFF3108039
S3150FE1146072B6704700B962B670470E2910B5436878
S3150FE114700DD801228A4047F2E004224223F01F03EE
S3150FE1148006D140F61F74224201D01943416010BDC7
S3150FE1149041F01001F9E70000094A0A4BD969C9077A
S3150FE114A005D512B96FF002007047013AF6E7002A47
S3150FE114B0F8D001221861DA60D86940F380007047ED
S3150FE114C08096980000000E4070B509B9002070BDF6
S3150FE114D00E4A0023082550F8234094610C4CD56041
S3150FE114E00133D669F60705D514B96FF00200EEE7B9
S3150FE114F0013CF6E7002CF8D0D469A40702D499424F
S3150FE11500E9D1E3E76FF00100E1E700BF00000E402C
S3150FE11510809698002DE9F8431C4B884641F67131C8
S3150FE115201D6C19641A49074648684968996841F07C
S3150FE115300101ADB2996096084FF00009B14501D3AB
S3150FE11540002005E007EB89042046FFF7A5FF48B128
S3150FE115500E4B9A6822F001029A600DB100221A64CD
S3150FE11560BDE8F883C4F30A04C4F50064A408A6EB46
S3150FE1157009039C4228BF1C4621464046FFF7A4FFBC
S3150FE115800028E5D1A14408EB8408D7E700000E4017
S3150FE1159000300E40204B41F671311A6C10B51964CB
S3150FE115A01E494C684968996841F00101996001212A
S3150FE115B01861D960D9694C0792B209D5996821F0BA
S3150FE115C0010199600AB100221A644FF0FF301FE062
S3150FE115D00221134CD9601946D869C00700D56CB9F9
S3150FE115E0C8698B6810F0020023F001038B6007D006
S3150FE115F00AB100230B646FF0010009E0013CEBE750
S3150FE1160024B902B10C646FF0020001E00AB108647B
S3150FE1161010BD1046FCE700BF00000E4000300E4043
S3150FE1162080969800FFF776BF0B4A536911699B00C5
S3150FE1163003F03C03C1F381110B438370136903F08C
S3150FE116403F0343709369D26903F0F003C2F30312C8
S3150FE1165013430370704700BFD0FF0FE00048704798
S3150FE11660A433E10F00207047024BD86900F0010067
S3150FE11670704700BF00000E4008B5034608469918AB
S3150FE11680B1F5002F04D8194601F0EDFD002008BD94
S3150FE1169040F20240FBE78318B3F5002F10B50ED9E0
S3150FE116A040F2024010BDC45801340AD104339A42C4
S3150FE116B0F9D800F018FF0028F2D00020F2E7002356
S3150FE116C0F5E740F20340EDE738B5C1F30A03044607
S3150FE116D0B3B9C0F30A039BB90D18B5F5002F08D8B6
S3150FE116E0204604F5006400F0F7FEA54204D0002879
S3150FE116F0F6D140F2024038BD0028FAD00020FAE7D1
S3150FE1170040F20440F7E70020704730B505680468FA
S3150FE1171002680368880785B011D0CDE90054CDE999
S3150FE1172002236C460B4604AD224603CAAA42186051
S3150FE117305960144603F10803F6D105B030BDC1E98E
S3150FE117400054C1E90223F8E77FB58B07024615D0AE
S3150FE117500B466D4601F11006186859682C4603C40D
S3150FE117600833B3422546F7D1009B1360019B136003
S3150FE11770029B1360039B136004B070BDD1E9005463
S3150FE11780D1E90203156014601060F4E700F1047308
S3150FE11790102A30B54FEA43131AD101221A60D1E963
S3150FE117A00054D1E90223C0F81051C0F81041C0F836
S3150FE117B01021C0F81031D1E90454D1E90623C0F85C
S3150FE117C01051C0F81041C0F81021C0F8103130BDEA
S3150FE117D000221A60D1E90054D1E90223456244623D
S3150FE117E042624362F3E7F0B58C0789B006460B46D2
S3150FE117F015460FD0082A6C4610D101F1100718686B
S3150FE118005968224603C20833BB421446F7D12A462A
S3150FE1181069463046FFF7BAFF09B0F0BD01F120077F
S3150FE1182018685968224603C20833BB421446F7D1FA
S3150FE11830EDE718B12422002101F020BD704770B504
S3150FE118400E461546044690B189B12422002101F0D6
S3150FE1185015FD802D02D0B5F5807F0BD12046EA0824
S3150FE1186040F8045B314601F0FEFC002070BD6FF0DD
S3150FE118702100FBE76FF02200F8E72DE9F04F8146F3
S3150FE1188085B088469B461646F2B11768B9F1000F47
S3150FE1189000F0B5800F9B002B00F0B180109B002B61
S3150FE118A000F0AD80BBF1000F00F0A9800E9B002B7D
S3150FE118B000F0A580D9F80030802B03D0B3F5807FF7
S3150FE118C040F0A08000240DE01746DFE7A7B10F9B9C
S3150FE118D00E9A1B5DD25D5340109A0137135507F0EF
S3150FE118E00F0701344445F1D3002E00F08E803760A7
S3150FE118F0002005B0BDE8F08F00F08AF84FF44043C1
S3150FE11900476003600546FFF7A9FDD9F80030802B44
S3150FE11910824614BF1022082209F104012846FFF777
S3150FE1192062FF05F18403184659460093FFF70CFF52
S3150FE119305046A8EB040A2AF00F0AFFF793FDA244DB
S3150FE11940032354451AD10F9B03EB040A109B1C4446
S3150FE119500F9B434401930323019A92452DD1FFF740
S3150FE119607DFD594604460098FFF7CFFE2046FFF767
S3150FE1197079FD284600F056F84446B3E74822AA60B7
S3150FE119800522AA602A699107FCD4AB600293FFF79F
S3150FE1199065FD0F9B0190191905F1A000FFF7D4FE24
S3150FE119A0109B05F180001919FFF7AFFE019A10465A
S3150FE119B0FFF758FD1034029BC3E7AFB94822AA607F
S3150FE119C00522AA602A699207FCD4AB600393FFF75D
S3150FE119D045FD0E99029005F18000FFF796FE029AFA
S3150FE119E01046FFF73FFD039B0E991AF8012BC95DD0
S3150FE119F001374A4004F8012B07F00F07ACE76FF008
S3150FE11A00210076E76FF0220073E7304671E70000B9
S3150FE11A10024B034801221A60704700BF0016C84304
S3150FE11A2000000F40094B98420ED003F580639842B0
S3150FE11A3009D10122064B03EBC2035A68054B134446
S3150FE11A409B0000221A6070470022F3E700000F4067
S3150FE11A50D833E10F8005F2102DE9F04F99B0074623
S3150FE11A600E4690461D46FFF7D3FF04462FB1022FD0
S3150FE11A7000F2E5800423036000E007600023636062
S3150FE11A80E364626822F4406262602363636356F83B
S3150FE11A90232012BA4DF823200133082BF7D1FFF794
S3150FE11AA0DDFC009BC4F80431019BC4F80431029BB1
S3150FE11AB0C4F80431039BC4F80431049BC4F8043120
S3150FE11AC0059BC4F80431069BC4F80431079BC4F89F
S3150FE11AD00431FFF7C7FCDFF874A15A4B23650026E3
S3150FE11AE008F00309229B9E4239D1AB0700F08A80A9
S3150FE11AF0FFF7B4FCD4F80061D4F80011D4F8002153
S3150FE11B00D4F80031CDE90061CDE90223D4F80061C3
S3150FE11B10D4F80011D4F80021D4F80031CDE90461ED
S3150FE11B20CDE906232E46FFF79DFC08AF6B461A4615
S3150FE11B3003CABA4230607160134606F10806F6D160
S3150FE11B402046FFF76FFF2B1F1C3553F8042F12BAF0
S3150FE11B50AB421A60F9D1002019B0BDE8F08F08EB5E
S3150FE11B60861BB9F1000F0FD008AA0BF1400CDBF879
S3150FE11B700000DBF80410134603C30BF1080BE34532
S3150FE11B801A46F4D10DF1200BFFF768FCDBE90131C1
S3150FE11B90DBF80C20DBF80070C4F8A471C4F8A431AB
S3150FE11BA0C4F8A411C4F8A421DBE90531DBF81C2044
S3150FE11BB0DBF81070C4F8A471C4F8A431C4F8A41109
S3150FE11BC0C4F8A421DBE90931DBF82C20DBF820701E
S3150FE11BD0C4F8A471C4F8A431C4F8A411C4F8A421BB
S3150FE11BE0DBE90CC1DBE90E23C4F8A4C1C4F8A411E7
S3150FE11BF0C4F8A421C4F8A431FFF734FC0136C4F8C4
S3150FE11C0050A06FE7FFF72AFCD4F80061D4F8001172
S3150FE11C10D4F80021D4F80031C5E90061C5E9022302
S3150FE11C20D4F80061D4F80011D4F80021D4F80031CA
S3150FE11C30C5E90461C5E90623FFF714FC80E702480D
S3150FE11C408AE700BF888AC80180AFFFFF070D8101D0
S3150FE11C502DE9F3470228144680460E461F46DDE975
S3150FE11C600A924ED81CB9002002B0BDE8F08713687E
S3150FE11C703F2B42D8516809B1002F3ED1B8F1010F80
S3150FE11C803DD0224D2249B8F1020F18BF0D4603F0A0
S3150FE11C903F00E318136022BF53680133536090B3DB
S3150FE11CA0C0F1400A544522D331465246484401F029
S3150FE11CB0DAFA012300934A463B4629464046A4EB0E
S3150FE11CC00A04FFF7C9FE3F2C56440DD93D46A30939
S3150FE11CD0009332463B4629464046FFF7BDFE24F0C8
S3150FE11CE03F031E4404F03F04002CBCD000202246E3
S3150FE11CF03146484401F0B7FAB5E73D46C7E7054D2A
S3150FE11D00C5E70548B0E73F2CF1D9E0E72834E10F05
S3150FE11D10E833E10F0834E10F80AFFFFF2DE9F04122
S3150FE11D20012886B004460E4690461D4604D045D39B
S3150FE11D30022841D022483CE01C272A68D3008DF8BF
S3150FE11D400F3053098DF80E30530B8DF80D30530DBF
S3150FE11D508DF80C306B68D90001EB52718DF80B10D1
S3150FE11D6002F03F025909372A8DF80A104FEA53312B
S3150FE11D704FEA535394BFC2F13802C2F178028DF89C
S3150FE11D8009108DF808300F493346CDE90085204615
S3150FE11D90FFF75EFF08220DEB02013346CDE9008521
S3150FE11DA02046FFF755FF3A4631460C9801F05BFAAC
S3150FE11DB0002006B0BDE8F0812027BEE71427BCE777
S3150FE11DC080AFFFFF4834E10F18B16C22002101F01B
S3150FE11DD055BA704707B590F868300190002B00F1BE
S3150FE11DE02803009300F1080314BF01200220FFF737
S3150FE11DF02FFF03B05DF804FB07B590F8682000915B
S3150FE11E00002A034600F1280200F1080114BF012060
S3150FE11E100220FFF783FF03B05DF804FB002399422D
S3150FE11E20D4BF00210121C0E9003380F86810704763
S3150FE11E30FFF7D0BFFFF7E0BF0020704700207047E4
S3150FE11E400120704700207047014B1B6818697047E6
S3150FE11E502808E10F014B1868704700BF2800E10F12
S3150FE11E60014B1868704700BF2808E10F044B054A7C
S3150FE11E701B68196891420CBF18690020704700BFB3
S3150FE11E802800E10FAD1007B00120704710B5E0B0A3
S3150FE11E904FF4BE7201A9002000F05CF940F2012473
S3150FE11EA0002101A800F099F8A042F9D040F20323EE
S3150FE11EB0984203D040F2054060B010BD9DF8043062
S3150FE11EC003F00302022AF5D09A0710D50D4A0299BB
S3150FE11ED01268926891420AD95C9800F06DF9002870
S3150FE11EE0E8D0FFF7C3FF0A9900F034FCE2E7DB071E
S3150FE11EF0E0D504995C9800F083F90028DAD0002048
S3150FE11F00DAE700BF2808E10F4FF488207047FFF7A3
S3150FE11F10BDBF0000004870474A43E00F00487047D5
S3150FE11F206A43E00F004870478642E00F31B10A4B32
S3150FE11F305A68824205D80023C1E9003340F20140D5
S3150FE11F407047013053F830200A6003EBC0030020DD
S3150FE11F505B684B60704700BFC033E10F01221A7017
S3150FE11F607047000070B40D4C0E461146626882420E
S3150FE11F700DD9013004EBC002F518526895420AD823
S3150FE11F8054F830001A46304470BCFFF775BB40F287
S3150FE11F90014070BC704740F20240FAE7C033E10FEF
S3150FE11FA030B5A3B004460D4602AAD0F87411D0F8A5
S3150FE11FB06C018023FFF7D6FF0095802302AA214605
S3150FE11FC004F1280000F0B0FDD4F87431C4F87801BB
S3150FE11FD08033C4F8743123B030BD1FB50023CDE98A
S3150FE11FE00033CDE90213D0F878310446A3B9D0F81E
S3150FE11FF07421D0F870319A420ED26946FFF7D0FFBD
S3150FE12000D4F8780198B141F2070240F201239042E8
S3150FE1201008BF184604B010BDA3785BB1E27840F271
S3150FE12020022040F20323002A18BF1846F2E740F2D6
S3150FE120300120EFE740F20220ECE7000070B586B031
S3150FE1204006AB0D46002103F8111D02931E4B1160DD
S3150FE120500446164628461C22CDE90333059301F0C3
S3150FE120600DF99DF8072062B994F86E30112B08D05F
S3150FE12070D4F878312BB9D4F87411D4F87031994278
S3150FE120801AD32378990744BF636833602378DB0754
S3150FE1209009D504F1080304F1240153F8040B45F8BB
S3150FE120A0040B8B42F9D162B92378002B40F206403B
S3150FE120B018BF002006B070BD02A92046FFF770FFDA
S3150FE120C0CFE70020F6E700BF5D1FE10F70B40D4CBF
S3150FE120D00E461146626882420DD9013004EBC00209
S3150FE120E0F518526895420AD854F830001A4630442A
S3150FE120F070BCFFF7D0BA40F2014070BC704740F2B6
S3150FE121000240FAE7C033E10F074B5A68824207D91B
S3150FE12110013003EBC00253F830005168FFF7D4BA30
S3150FE1212040F20140704700BFC033E10F10B50446DE
S3150FE1213060B14FF480320023C0E90023044B1A78D3
S3150FE121405B680272C360FFF789FA206110BD00BFB9
S3150FE12150C033E10F37B50C4605461146204600F070
S3150FE1216009FB48B969462846FFF7E0FE20B9019B0E
S3150FE12170C4F86C51C4F8703103B030BD38B500F511
S3150FE12180807204460D46202300F1B801283000F095
S3150FE1219091FCD4F878312BB9D4F87421D4F8703195
S3150FE121A09A4203D3A07800B1E07838BD294620469C
S3150FE121B0FFF7F6FEEDE7000030B5E5B00D46044654
S3150FE121C0FFF74EFE8368AB4202D3002065B030BD08
S3150FE121D04FF4BE7205A92046FFF7BCFF0028F4D1E4
S3150FE121E002238DF81530CDE901000390034B0493DB
S3150FE121F001A905A8FFF7C2FFE8E700BF7526E10FC2
S3150FE1220000B5E5B04FF4BE7205A9FFF7A3FF70B9AC
S3150FE1221001238DF81530074B0190CDE9023004907B
S3150FE1222001A905A8FFF7AAFF65B05DF804FB002039
S3150FE12230FAE700BF4926E10F2DE9F0419AB05022A6
S3150FE1224004460D4606A8002101F018F814220021D4
S3150FE1225001A801F013F801A8FFF768FF049B012B12
S3150FE122600ED8002323604FF0FF320123AB4203D395
S3150FE1227000201AB0BDE8F08144F823200133F5E7D9
S3150FE12280AB426BD3FFF740FE059B0C2206A9064630
S3150FE12290DF68FFF7F1F90028EBD1DFF8CC80069B79
S3150FE122A0434516D1089A06A93046FFF7E5F94FF0EF
S3150FE122B0FF32089906A8FEF7B1FB2A4B984233D0B5
S3150FE122C004EB85054FF0FF33A54213D044F8043BE9
S3150FE122D0FAE737440C2206A93846FFF7CDF900286D
S3150FE122E0C7D1069B43450BD004EB85054FF0FF3372
S3150FE122F0A54202D140F20550BBE744F8043BF7E7AC
S3150FE1230006A9089A3846FFF7B7F9059B3046D9680B
S3150FE12310FFF7DAF90028ACD1089A06A93046FFF79C
S3150FE12320BAF90028BED0A4E7089BA3F110029208E0
S3150FE12330AA4228BF2A460023934207D14FF0FF3224
S3150FE12340AB4295D244F823200133F9E706A901EB15
S3150FE123508301C96844F823100133EDE740F20450D5
S3150FE1236087E700BFE320BBDE39528FE1F0B59BB0C3
S3150FE123700D4644220021074609A800F07FFF304AA7
S3150FE123800123CDE9062300215023142201A8089346
S3150FE1239000F074FF01A8FFF7C9FE049BAB424BD3D4
S3150FE123A0012B08D83B680133012B40F2045098BF4B
S3150FE123B000201BB0F0BDFFF7A7FD059BDC68102DD4
S3150FE123C00646044428BF10250023AB4226D14FF021
S3150FE123D0FF32102B2AD14C214FF0FF3206A8FEF720
S3150FE123E01DFB059BC0431990D9682046FFF76CF991
S3150FE123F00028DED1502206A92046FFF74CF9002826
S3150FE12400D7D1059B3046D968FFF75EF90028D0D1C1
S3150FE12410502206A93046FFF73EF9CAE706AA02EBB4
S3150FE12420830257F82310D1600133CEE706A901EBFA
S3150FE1243083010133CA60CCE740F20450B9E700BF2C
S3150FE1244039528FE170B596B014220021064601A8E4
S3150FE1245000F014FF01A8FFF769FE049C012C1ED9B9
S3150FE1246006AD21462846FFF7E7FE20B140F20553B8
S3150FE1247098420DD1002055F820305A1C0AD116ABDF
S3150FE1248003EB8000214640F8406C2846FFF76EFFCC
S3150FE1249016B070BDB34205D001308442EBD140F2A4
S3150FE124A00250F5E740F20350F2E707B503469B0703
S3150FE124B053BF6FEA01414FF6FF7343EA01416FEAFA
S3150FE124C011410422019120F003000DEB0201FFF708
S3150FE124D0A9F803B05DF804FB08B5FFF75BF8B0FAAE
S3150FE124E080F0400908BDF8B540EA02031446DA0761
S3150FE124F005460E4601D50020F8BD0CB90120FBE7D4
S3150FE12500830721D50988FFF7D0FF0028F3D1023CD5
S3150FE12510032C05F1020506F102060BD924F0030798
S3150FE125203A4631462846FFF77DF80028E3D13E4487
S3150FE125303D44E41B002CE1D031882846FFF7B5FF77
S3150FE12540B0FA80F04009D7E7032CE7D8F4E70000AB
S3150FE12550F0B50F4B85B06C46024603F110072646E0
S3150FE1256018685968254603C50833BB422C46F7D18F
S3150FE1257004AB501E13F8011D10F8012F914204D13F
S3150FE12580B342F7D1012005B0F0BD0020FBE700BF54
S3150FE12590C834E10FC0F30A032DE9F04105460F46B2
S3150FE125A016460BB9FFF798FF05F5006424F4FF64AF
S3150FE125B024F0070405EB0608A04506D8324639464E
S3150FE125C02846BDE8F041FFF78EBF2046FFF784FFAF
S3150FE125D004F50064F0E770B59EB0446B0546FFF76E
S3150FE125E03FFC06462046FFF7B3FF48B3237C012B9A
S3150FE125F028D86369012B25D1A4693369A34221D870
S3150FE12600A5421FD8B4F5002F1CD803A8FEF794FAFC
S3150FE12610621B294603A8FEF799FA03A8FEF798FA73
S3150FE12620FFF778FC0546FFF779FC2B46009004F19E
S3150FE126302002214603A8FEF741FAB0FA80F04009DD
S3150FE126401EB070BD0020FBE770B504460E46154679
S3150FE12650FFF706FC0369A3420AD8426963199A4256
S3150FE1266006D32A4631462046BDE87040FFF792BFB2
S3150FE1267070BD00002DE9F041154607468846FFF784
S3150FE12680E9FB104B02689A4219D1FFF7E9FB0646BF
S3150FE12690FFF7ECFBC4196319B3F5002F0FD83FB958
S3150FE126A0FFF7E4FB7369834202D93069FFF714FF41
S3150FE126B02A4641462046BDE8F041FFF76BBFBDE82C
S3150FE126C0F08100BFAD1007B0F8B5D0E9006706F1AC
S3150FE126D060460446456BFFF7C3FBB6F5803F01D96C
S3150FE126E00020F8BD0369BB42FAD8B7F5002FF7D83A
S3150FE126F04033AB4202D8B5F5002F05D9FEF78CF979
S3150FE1270080F00100C0B2ECE7FEF786F920B1204672
S3150FE12710BDE8F840FFF75FBF2846FFF719FFA8B1FD
S3150FE127202B7C012BDCD86B69002BDAD0022BEED197
S3150FE12730AB69C4F1040119444FF0FF322046FEF7AD
S3150FE127406DF9034BC31A58425841CAE70120C8E74E
S3150FE12750E320BBDE08B54FF0FF32FEF75FF9044B1E
S3150FE12760984203D140F2092000F048F8002008BD55
S3150FE12770E320BBDEB1F5BE7F10B5044610D34FF4AF
S3150FE12780BE72002100F07AFD0023637004F58072BA
S3150FE1279004F1B80104F12800BDE8104000F08AB950
S3150FE127A040F2052010BD13B50446009101462830CD
S3150FE127B000F0BAF9C4F8780118B141F2070398426B
S3150FE127C009D1A3784BB1E27840F2032040F202231C
S3150FE127D0002A08BF184602B010BD40F20120FAE701
S3150FE127E04FF000534FF20F0218805A8070474FF0A7
S3150FE127F000534CF23C325A80704700004FF00053C1
S3150FE128004FF20F025A800A4A1880136823F4E063E5
S3150FE1281043F400731360BFF34F8F0649064BCA6843
S3150FE1282002F4E0621343CB60BFF34F8F00BFFDE7C6
S3150FE1283000500E4000ED00E00400FA054FF00053A2
S3150FE128404FF20F015A888A4201D1188870473AB977
S3150FE128501B88012B40F2022018BF4FF4007070471E
S3150FE128604FF40070704770B5D1E90152AA4205D213
S3150FE1287090F840302B449B1A402B10D9002012E0E0
S3150FE128800A6890F84040D65C90F84120224402F065
S3150FE128903F020133013486548B6080F840408B68E8
S3150FE128A09D42EDD8012070BD2DE9F8431746D1E9D8
S3150FE128B00125521B90F840509DF820909DF82480F9
S3150FE128C02A44934204460E4657D9FFF7CCFF002818
S3150FE128D05DD1122384F8463041F20200BDE8F88358
S3150FE128E094F84120A25C7A5594F84120013202F026
S3150FE128F03F0284F8412094F84020013A84F84020C1
S3150FE12900013594F8402012B1AB42E9D11D46D6E923
S3150FE1291001128A4201D2AB4231D8AB42D9D1D4F8B6
S3150FE12920882029463846FEF779F8C4F88800B9F1C8
S3150FE12930000F04D02A463946E06CFEF707F9B8F1E5
S3150FE12940000F08D094F843302BB12B463A4639465F
S3150FE12950A06CFEF7A1F894F8433043B1E36DA26D95
S3150FE129602B449342E36524BF002384F84330636D20
S3150FE129701D44656541F20300B0E70025C1E7316803
S3150FE129808A5C7A55B2680132B2600135BFE7002041
S3150FE12990A4E700007FB50023CDE9003308231546F0
S3150FE129A00DEB03020446FFF77FFF41F20303984263
S3150FE129B0064626D194F8433063B108220DEB0201A6
S3150FE129C0E06CFEF7C3F808230DEB03021146A06C8A
S3150FE129D0FEF762F8039A6A6094F84320029B2B6034
S3150FE129E05AB9094A934208D0084A934205D00822B8
S3150FE129F00DEB0201E06CFEF7A9F86B682365002386
S3150FE12A006365304604B070BDF70A0AF7FC0404FCAF
S3150FE12A102DE9F843044658680D4616461F46002829
S3150FE12A2043D08B0743D1FFF70FFA216E00F1040C68
S3150FE12A3006EB0109CC451DD800F11C02914219D2D2
S3150FE12A408C45634638BF0B46591AA3EB0C009145EB
S3150FE12A5094BFC3EB0909C3EB020905EB0108683023
S3150FE12A604A464146204400F0FEFB4A46FF214046D6
S3150FE12A7000F004FCFFF7FAF9226E031D93420AD325
S3150FE12A80B1180830814206D39B1AEA58C4F8802060
S3150FE12A904FF0FF32EA50D7E900383246206E294629
S3150FE12AA0C047236E1E4426660020BDE8F88341F237
S3150FE12AB00200FAE7F8B504464FF0FF36154603F084
S3150FE12AC02003002280F84620A0F8402080F843201A
S3150FE12AD080F8452080F84420C0E918220F4680F897
S3150FE12AE04230C0F888601822FF21683000F0C6FB3B
S3150FE12AF0C4F88060C4F88460C4E91275FFF7A2F9DF
S3150FE12B0018B117B941F20B00F8BDFFF799F930B1DA
S3150FE12B10002DF7D0E06CFEF70FF80020F4E7002D5B
S3150FE12B20F8D12846F0E700002DE9F04F9BB0CDE94B
S3150FE12B3007230393249EDFF800B400230446894656
S3150FE12B4009939846099A039B9A4257D294F84630CD
S3150FE12B50122BF8D8DFE813F05B00700054009A00EF
S3150FE12B60B8013B003200D5013B00CF013B00CF015D
S3150FE12B70B402520313001D03210349025203002736
S3150FE12B80636D0F2B41D801251023019700950AAAF2
S3150FE12B9007A92046FFF788FE41F2030398427AD14F
S3150FE12BA0D4F848A0FFF7BEF98023CDE900030BAABD
S3150FE12BB02B4602215046FDF74DFFE1E70125D4E90A
S3150FE12BC014329A42C0F01B8184F84650BAE70DF1F0
S3150FE12BD0280AD4E91452AA42099916D2089BAD1ACA
S3150FE12BE094F840205B1A032D134440F2A781032B7F
S3150FE12BF000F2CB8107A92046FFF735FE00204AE018
S3150FE12C000025636D072B40F2C380012311E005AA6E
S3150FE12C1007A92046FFF7BEFE41F2030398423AD1D8
S3150FE12C20069B236500236365059AB84B9A422DD11E
S3150FE12C30022384F8463085E705AA07A92046FFF760
S3150FE12C40A9FE41F20303984225D194F84420059B4E
S3150FE12C5022B1AF4A934219D10C23EAE794F8422005
S3150FE12C60D1074FD594F84320002A40F0CA82A94AEA
S3150FE12C70934241D017D8A84A934207D00ED8A34A18
S3150FE12C80934203D002F1B642934215D1122384F84F
S3150FE12C90463041F201001BB0BDE8F08F9F4A9342E7
S3150FE12CA0F4D09F4AF0E79F4A93421BD00CD85B457D
S3150FE12CB043D09D4A934217D0122384F8463005A894
S3150FE12CC0FFF7BAF8D8B1E4E7984A9342DED0984ACB
S3150FE12CD09342DBD08E4A9342EED1FFF7B1F800284B
S3150FE12CE0BAD0D3E70E23A4E70F2384F84630236D3A
S3150FE12CF0A3650023E36525E7122384F8463041F205
S3150FE12D000800C8E75B4514D000F27F82834A9342FD
S3150FE12D1007D0834A934206D07F4A93420FD10623C7
S3150FE12D2087E7042385E7072383E7092381E70B2356
S3150FE12D307FE794F84330002BA8D1102379E705A854
S3150FE12D40FFF77AF8D0B11123059884F84630C4F825
S3150FE12D508C00FFF773F894F842309A0680467FF5B8
S3150FE12D60F1AE00283FF4EEAE4368002B3FF4EAAE36
S3150FE12D702046984700283FF4E5AE8AE7122384F808
S3150FE12D80463094F84330002BB9D041F2040082E784
S3150FE12D9001230093019508230AAA07A92046FFF705
S3150FE12DA083FD41F2030398427FF475AF0A9B03F06B
S3150FE12DB07F43B3F1407F05D0122384F8463041F2C9
S3150FE12DC0090068E70B9B0493DB070ED594F84230B5
S3150FE12DD043F0010384F84230FFF732F800283FF45D
S3150FE12DE010AF049BDF0504D50BE7FFF72BF800289F
S3150FE12DF0F2D0122384F8463041F20A004BE7CDE9CF
S3150FE12E0000550AAA07A92046FFF74EFD41F2030333
S3150FE12E1098427FF440AF09F1080C0AAF63460DF112
S3150FE12E20400E3A4603CA724518605960174603F1D8
S3150FE12E300803F6D11068186099F8003043F00103E2
S3150FE12E4089F800306046FFF71FF800287FF4B7AE28
S3150FE12E50122384F8463041F20C001CE70123CDE939
S3150FE12E6000330AAA082307A92046FFF71DFD41F201
S3150FE12E70030398427FF40FAF99F8003043F0020352
S3150FE12E8089F800300A9BC9F80430236D083BC9F86D
S3150FE12E9024300B9B0493FEF7DDFF264A036893422A
S3150FE12EA07FF4F7AEFEF7D6FF049BC2689A427FF432
S3150FE12EB0EDAE052384F8463094F8453043F001032F
S3150FE12EC084F8453000236366636D072BC6D939E66F
S3150FE12ED00423CDE900550AAA07A92046FFF7E4FC2A
S3150FE12EE041F2030398427FF4D6AE226D0A9B049317
S3150FE12EF0042A01D923660125636D032BE8D90A2339
S3150FE12F0097E600236366082393E600BFEB17A60354
S3150FE12F10FC0404FCF70909F7F40A0AF4F50909F5C3
S3150FE12F20F60808F6FA0606FAF90707F9FD0303FDAF
S3150FE12F30FE0101FEAD1007B0F70A0AF79D423FF613
S3150FE12F4059AE9D4228BF1D46032D88BF25F00305C7
S3150FE12F500123CDE9003352462B4607A92046FFF759
S3150FE12F60A3FC41F2030398427FF495AE94F8463001
S3150FE12F70082B13D1B7688FB13368606E2A46514675
S3150FE12F80B847636E1D44656623E6402D28BF40258D
S3150FE12F90D7E74FF0FF320AF805200135032DF8D9AF
S3150FE12FA00A2B06D133462A4651462046FFF730FD16
S3150FE12FB00FE6052B7FF40DAE99F8013098077FF5F3
S3150FE12FC008AEF368002B3FF404AE626E042A0AD80A
S3150FE12FD05319062B07D90BAB9B1A1A68C4F8842031
S3150FE12FE04FF0FF321A60F768C6E794F84230990658
S3150FE12FF007D5D4F88C00FEF721FF804600283FF471
S3150FE1300048AE01273FE0002B58D0B8F1000F55D05D
S3150FE13010D8F81030002B51D020469847DDE90853F8
S3150FE13020ED1A94F840302B4498423FF6E3ADD4E9DC
S3150FE130301452AD1A402D28BF40259D4228BF1D468B
S3150FE130402B46CDE900770AAA07A92046FFF72CFC04
S3150FE1305041F2030398427FF41EAE94F842309A068A
S3150FE1306011D5B8F1000F3FF414AED8F808A0BAF1B4
S3150FE13070000F3FF40EAE33462A460AA92046D04743
S3150FE1308000287FF408AED4E9142194F84230914236
S3150FE1309003F02003B7D3002B3FF4B7ADB8F1000F20
S3150FE130A03FF4B3ADD8F80C30002B3FF4AEAD31465B
S3150FE130B02046984700283FF4A8ADECE50120ADE79F
S3150FE130C00023CDE900330AAA042307A92046FFF717
S3150FE130D0EBFB41F2030398427FF4DDADD4F8882090
S3150FE130E0554B9A4205D0122384F8463041F205003A
S3150FE130F0D1E5FEF7A5FE10B9012389F8033099F85A
S3150FE131000330002B3ED094F845309B0707D0F56886
S3150FE131102DB10422336804F184011046A847236ECA
S3150FE1312083B3736873B31AAF4FF0FF3347F8583D64
S3150FE1313004F1800804224146384600F085F840B193
S3150FE13140FEF794FE28B10422D6E900354146104434
S3150FE13150A84704F1680504222946384600F074F8B9
S3150FE1316080B17768FEF770FE3368142204F16C01C3
S3150FE131700830B8477768FEF767FE042233682946B9
S3150FE131801044B847012389F802300D2384F84630FD
S3150FE1319034E5012384F843304BE594F84450002D90
S3150FE131A07FF433AD4023CDE900550AAA07A920469E
S3150FE131B0FFF77AFB41F2030398427FF46CADE06CC3
S3150FE131C0FDF7C6FCE76CFEF7A5FE8246FEF7A6FE07
S3150FE131D05346009012AA0AA93846FDF76FFC38B19B
S3150FE131E0122389F8035041F2060084F8463052E57E
S3150FE131F0012389F8033084F8443006E541F20700EC
S3150FE1320049E55B457FF480AD40E50C4A93423FF4D7
S3150FE132108EAD0B4A93423FF488AD0A4A93427FF44F
S3150FE132208EADFEF70DFE00287FF430AD94F84330F6
S3150FE13230002B3FF411AD29E5E320BBDEFD0303FDD2
S3150FE13240FE0101FEFC0404FC30B50024A24201D1CB
S3150FE13250002007E0035D01340D1915F8015CAB425F
S3150FE13260F4D0581B30BD10B5431E0A44914200D12C
S3150FE1327010BD11F8014B03F8014FF7E7024403467E
S3150FE13280934200D1704703F8011BF9E7F8B500BF88
S3150FE13290F8BC08BC9E467047F8B500BFF8BC08BC41
S3150FE132A09E46704707B0CD5E0100000003000A019C
S3150FE132B0E82C00000000000000000800F10001000A
S3150FE132C0E908E10FED08E10FC926E10F7527E10FD7
S3150FE132D0A727E10F8834E10F13B779FAC925DDB7CF
S3150FE132E0ADF3CFE0F1B614B8010100000200000022
S3150FE132F0E434E10F4000000003000A010000000082
S3150FE1330000000000000000000000000000000000C7
S3150FE133100000000000000000200000000001000096
S3150FE13320050C0000FFFFFFFFFFFFFFFFFFFFFFFFA2
S3150FE133300000000000000000000000000100000096
S3150FE13340FFFFFFFF512563FCC2CAB9F3849E17A79E
S3150FE13350ADFAE6BCFFFFFFFFFFFFFFFF0000000036
S3150FE13360FFFFFFFF96C298D84539A1F4A033EB2DA5
S3150FE13370817D0377F240A463E5E6BCF847422CE191
S3150FE13380F2D1176BF551BF376840B6CBCE5E316BD5
S3150FE133905733CE2B169E0F7C4AEBE78E9B7F1AFE99
S3150FE133A0E242E34F0102030028000000280000007B
S3150FE133B00008000000000800D033E10F0200000012
S3150FE133C0010000000100000000C80000002807000E
S3150FE133D0454652333200000000000F400000000066
S3150FE133E000040F400100000067452301EFCDAB89D3
S3150FE133F098BADCFE10325476C3D2E1F00000000039
S3150FE134000000000000000000C1059ED8367CD507FC
S3150FE134103070DD17F70E5939FFC00B3168581511AA
S3150FE1342064F98FA7BEFA4FA46A09E667BB67AE8553
S3150FE134303C6EF372A54FF53A510E527F9B05688CA0
S3150FE134401F83D9AB5BE0CD198000000000000000BF
S3150FE134500000000000000000000000000000000076
S3150FE134600000000000000000000000000000000066
S3150FE134700000000000000000000000000000000056
S3150FE134800000000000000000000100002D21E10F07
S3150FE134902D1FE10F651FE10FCD20E10F0921E10F8F
S3150FE134A06D23E10F3922E10F4524E10F5521E10F9C
S3150FE134B0DB1FE10F3D20E10F6916E10F7916E10FF1
S3150FE134C09716E10FC916E10FB814B6F1E0CFF3ADD8
S3150FE134D0B7DD25C9FA79B713000000006508E10FDA
S30D0FE134E04108E10FA60BC293AF
S5030328D1
S70500000000FA
