:020000040000fa
:10000000e8ff0320090400005d0400005d04000017
:100010005d0400005d0400005d0400005d0400005c
:100020005d0400005d0400005d0400005d0400004c
:100030005d0400005d0400005d0400005d0400003c
:100040005d0400005d0400005d0400005d0400002c
:1004000006000000000000000e4a106810f0ff0017
:1004100015d00d4b98470b4a106810f0ff000ed016
:100420000a4b012018600a4c20680028fcd00020ec
:100430001060186020680028fcd006480047064875
:1004400000470000081200106305000004e50140a9
:1004500000e401405d04000075040000bff34f8f0d
:10046000024903480860bff34f8ffee70ced00e040
:100470000400fa0500b52e4a2e48801a91b020f0eb
:1004800003000023144683422b4a03d0d158e15085
:100490000433f8e729492a48401a134420f003009e
:1004a0000022824203d000248c500432f9e7254c0c
:1004b0002548001b20f0030000222546824203d07d
:1004c0009958a9500432f9e7204a2149891a21f0a4
:1004d000030100238b4203d00020d0500433f9e7fe
:1004e00000f04ef800f03cf800f060fc00f030ff47
:1004f00000f05cfa08b100f049fb164d0121ac6038
:10050000684600f027fd009801a900f0d1fc20b951
:10051000039b114843f001039847bff34f8fea68ec
:100520000e4b02f4e0621343eb60bff34f8ffee724
:100530000000002000000020c02300000000002078
:100540000801002000040020080400200804002006
:100550005027002000ed00e0642200000400fa05ae
:100560007047704700207047032070470320704792
:100570000320704700207047032070477047000039
:100580004ff080430022c3f80c21c3f81021c3f8b8
:1005900038254ff0805203f54043d2f80414c3f8d5
:1005a0002015d2f80814c3f82415d2f80c14c3f897
:1005b0002815d2f81014c3f82c15d2f81414c3f867
:1005c0003015d2f81814c3f83415d2f81c14c3f837
:1005d0004015d2f82014c3f84415d2f82414c3f8f7
:1005e0004815d2f82814c3f84c15d2f82c14c3f8c7
:1005f0005015d2f83014c3f85415d2f83414c3f897
:100600006015d2f83814c3f86415d2f83c14c3f856
:100610006815d2f84014c3f86c15d2f84424c3f816
:1006200070253f4b1a68082a03d13e4a1268002af7
:100630005cd01b68082b03d13a4b1b68002b59d0a8
:10064000374b1b68082b03d1364b1b68002b56d049
:10065000334b1b68082b03d1324b1b68002b59d03e
:100660004ff08043d3f80024d20744bf6ff001025b
:10067000c3f800244ff01023d3f80022002a03db34
:10068000d3f80432002b2dda274b0122c3f80425be
:10069000d3f80024002afbd04ff010221221c2f818
:1006a0000012d3f80024002afbd04ff010231222ae
:1006b000c3f804221c4bd3f80024002afad00022ed
:1006c000c3f80425d3f80024002afbd0bff34f8fd2
:1006d000164a174bd16801f4e0610b43d360bff3b6
:1006e0004f8ffee7134b144a1a607047134a1449a0
:1006f00011609ee7134bfb22c3f81825a0e7124bad
:1007000012491a68096822f00f0201f00f010a432a
:100710001a609de70e4b4ff400721a60a0e700bf0d
:10072000300100103401001000e0014000ed00e055
:100730000400fa05000400200090d0038c5600400d
:100740004881030000f00040e40e00405802001011
:100750004096024010b500231a464ff0ff31c45caa
:100760008c4218bf00220132042a04d00133102b1e
:1007700003d02146f3e7002010bd012010bd00008a
:1007800008b501f071f8bff34f8f054a054bd168ea
:1007900001f4e0610b43d360bff34f8ffee700bf6e
:1007a00000ed00e00400fa051fb5436a994202d348
:1007b0004ff0ff301ee0c269531c1ad0036b994200
:1007c00004d2013b591a8369585c13e0cb1a0b49d8
:1007d00000208de803000a49013a0868d21a0df199
:1007e0000f01012300f0e1fb0028e1d19df80f008b
:1007f00000e0002005b05df804fb00bfa08601000a
:100800006014002038b5026a836a9a42044602d313
:100810004ff0ff3038bdc36a0f2b11d90c48616906
:10082000102200f0e3fd05460028f1d110232069d5
:100830000749224601f0e0fb6369e562103363611a
:10084000236a01332362e36a5a1ce262e05c38bd2a
:1008500050170020f7b5134b134e054614460022df
:100860008de80c0030682a4623460f4600f00cfc49
:1008700008b1002013e00d4b0090019330680c4943
:100880003a46234600f091fb0028f2d12846084959
:10089000224601f099fcd0f1010038bf002003b0de
:1008a000f0bd00bf20a1070060140020a086010059
:1008b00050170020c369013310b5044616d0036bee
:1008c0008269581c2063d154626b236b93420dd311
:1008d000a069e169fff7beff10b9a36b0133a36301
:1008e000e269636b1344e36100232363636a0133aa
:1008f0006362002010bd0000f0b51e46244b9fb07f
:1009000007460c4618686946154600f0d1fa20b132
:100910006b1c36d14ff480530493049b1d491497ec
:10092000b3f5805f84bf4ff4805304931a4b139345
:100930001a4b1593236819934ff0ff3300221a9333
:10094000049b179218921b921c931d92144b154aec
:1009500016950fa801f0f4f9134a1d9b116819446c
:10096000116080b91b9820b10fa8ff21fff7a2ffeb
:10097000f8e7189ab24208d8169b013306d02260d5
:1009800004e0082002e0052000e006201fb0f0bdd2
:1009900060140020b5080000201400201804002076
:1009a000a907000005080000181400202de9f04fe9
:1009b000544b554a554e1360803391b03360544bbd
:1009c00000220df113001a6000f02afc002840f00c
:1009d00095809df813305a1e012a40f28f80052b16
:1009e00000f08c8009a800f0d9fe002840f0868035
:1009f0000d9b002b40f082800e9c621c7ed1fff785
:100a0000bdfd9df81330032b08bf022002d0042b3c
:100a100002d10320fff7b4fe3e4b3f4f3f4d202154
:100a200019600b9ba3f1300038603d483022026012
:100a30002a603c4a402010603b4a3c48403b1360df
:100a4000102200f0d3fc002858d12d68d7f800a060
:100a5000d6f800900395054609eb451000f054ffc9
:100a6000baf5805fddf80cb094bf00270127564629
:100a70005eb1b6f5805f34bfb0464ff480582c4865
:100a80005946424600f0b2fc58b105a82749102249
:100a900001f09afb002808bf2c4601351c2ddbd144
:100aa00011e0b6eb0806c34402d1022f08bf0327aa
:100ab0000197cdf80080002005a910221c4b01f001
:100ac00015fa0227d4e7631c10d009eb44194846f5
:100ad000fff740fe40b109f11000fff73bfe002890
:100ae00008bf4ff0ff3401e04ff0ff34114b1c60a2
:100af000013408bf04208dd0012000e0002011b097
:100b0000bde8f08f003c0000080400206c140020b9
:100b100018140020641400207014002068140020b1
:100b20000c040020100400201404002050140020a5
:100b3000501700201c14002070b5124e94b00546ca
:100b400001243068039405a900f0b2f9a8b9b5b141
:100b50000a9b0490013d5b421d40049bab424ff059
:100b600001000dd8084b03900093306804a903aa34
:100b7000002300f0e0fa0028efd0002000e020463b
:100b800014b070bd6014002040420f002de9f04ffa
:100b9000734b74481968c3b0102200f027fc00287a
:100ba00040f0db80704b71481968714b6d4a1b68cf
:100bb00003eb4111103100f092fe6e4bd3f8008030
:100bc0006d4b1e68002e44d003a84146102208f148
:100bd000100900f00bfc002837d10f2e37d9049be9
:100be00003f11002964232d3069a002a2fd15f4dac
:100bf00002930fcd18ac0fc40fcd0fc495e80f00b2
:100c000084e80f005d4c0398206024a900f050f99f
:100c1000002835d133a8259f00f0c0fd60bb9df8aa
:100c2000e430f3b1484602a94ff0ff323b46fff7ec
:100c300063fe834670b92368dff840a1013300f0fa
:100c400087803846fff778fff0b9082002e00720d8
:100c500000e030464a4b1b68002b18bf0120fff70d
:100c60008ffd9df8ca30022bdcd1359b203fff1a47
:100c7000299b5a421740d5e74ff0ff332360d1e755
:100c80004ff0ff372760cde718ad0fcd374c0fc4bd
:100c90000fcd0fc495e80f0084e80f00484602a965
:100ca0005a463b46fff728fe0028d3d19df8c930ad
:100cb000002b4dd011a800f071fd139bdaf8000055
:100cc0000990203b0793bdf85030adf820309df8d7
:100cd00052308df822309df853308df823309df836
:100ce00014308df828309df815308df829309df896
:100cf00016308df82a309df817308df82b3033a937
:100d0000029b0b9300f0d4f810bb349b232b1fd90c
:100d10001c4bdaf8000001228de80c000ca910220f
:100d2000142300f042f998b90cab11aa934204d2f3
:100d300013f8012bff2af8d00ae009d107a81021e7
:100d40001422fff787fd18b90d4b1a6801321a609b
:100d5000049b10339844f61a34e743b0bde8f08f93
:100d60000c040020741400201c1400202014002007
:100d70006c140020100400201404002060140020d3
:100d800018140020a0860100074b014603f18002e1
:100d900018469b688b4205d000f110039342f7d1af
:100da0004ff0ff30704700bf003c000010b501f06d
:100db00065f90446fff7d6fb002c18bf204610bd8e
:100dc000e0b51d460f461646fff7deff431c0fd069
:100dd000436872199a420dd8c368016813f0020f74
:100de0000ad1384631442a46bde8e04001f048b90e
:100df0000520e0bd0420e0bd384631442a46fff717
:100e0000b3fbe0bd70b51d460c461646fff7bcffb0
:100e1000431c0fd0436862199a420dd8c36800681a
:100e200013f0020f0ad1204431462a46bde8704033
:100e300001f030b9052070bd042070bd204431465a
:100e40002a46fff793fb70bd73b50e461546fff7b4
:100e50009bff326803681344421c0446019308d088
:100e60004db1c3689b070dd401a8294601f066f96e
:100e700002e0052000e004202268019b9b1a3360f9
:100e800002b070bd01a82946fff772fbf4e708b570
:100e9000fff77aff421c05d0c3689b0704d5fff714
:100ea00069fb08bd002008bdbde8084001f024b979
:100eb000f0b58db00c46fff767ff421c054606d023
:100ec000c3689b0705d501a8fff756fb04e0052082
:100ed00026e001a801f012f9ab6823606b6863603b
:100ee0002b68a360074601ae04f10c030df12c0c36
:100ef000324603ca624518605960164603f108037a
:100f0000f6d110681860eb68c3f3400284f838200b
:100f100003f001029b0884f8392084f83a303846ff
:100f20000db0f0bd30b50023094c04eb0314dab268
:100f3000a468651c09d00d78954288bf40f823400d
:100f400001330132082bd2b2eed10a7030bd00bf9e
:100f5000003c0000f0b599b008238df803304ff045
:100f6000ff33036005460f4601a80df10301fff7ab
:100f7000d9ff00249df80330e6b2b34212d918ab72
:100f800003eb860609a956f85c0cfff791ff38b908
:100f90009df85e30bb4203d156f85c3c2b6002e00a
:100fa0000134e7e7012019b0f0bd2de9f04f91b011
:100fb000894601a9804692469b46fff779ffe8b92a
:100fc0009df868600e9f1b9c0136bc4238bf3c46b2
:100fd000f6b24046494652465b46fff7f1fe0546eb
:100fe00038b94046fff753ffe41b10b1002cf8d18d
:100ff0000625013e16f0ff06ebd1284611b0bde8ec
:10100000f08f000030b589b005460c46fff7bcfef6
:10101000431c33d0c368d90701d401202fe0194bfa
:1010200001228de80c00284603a910221423fff7a3
:10103000bcff20bb039b002befd013f00f00ecd1c3
:10104000059a0132e9d09df81850ff2de5d09df8a2
:101050001910ff29e1d09df81a20ff2addd0203396
:101060002360bdf81030a3809df81230a3719df865
:101070001b30e57121726272a37200e0052009b095
:1010800030bd00bfa08601002de9f04f95b00c46a1
:101090001d4605a99df87830019092460393fff70d
:1010a00007ff0746002842d1ddf848901f9b4b45bb
:1010b00038bf4b460293002d39d0099bddf80c80d8
:1010c000029ec3f1000c04ea0c0c9c442b196345ee
:1010d0008cbfc4eb0c0bab465b46019821465246d5
:1010e000fff790fe034660b901980093fff7cffe2b
:1010f0004e45009b14d3c9eb060610b1002ef3d168
:10110000062308f1ff32b8f1000f01d09046e3e763
:1011100023b95c44da44cbeb0505cce71f4606e077
:1011200000284ff000060cbf33460623e9e7384697
:1011300015b0bde8f08f2de9f04790b0894601a9c0
:10114000804692461e46fff7b3fed0b90e9f189c0c
:101150000136bc4238bf3c46f6b24046494652468c
:10116000fff772fe054638b94046fff790fee41bd4
:1011700010b1002cf8d10625013e16f0ff06ecd187
:10118000284610b0bde8f087044a00231370044ad3
:101190001360044a1360044a1370704780000020f3
:1011a000a0000020000000209c00002030b5174b5c
:1011b00091b0186801a9fff77bfe28bb144a059b74
:1011c0001360144b144c1b78144a02991bb1002075
:1011d0002060116018e0039800f1100300690028f6
:1011e000f5d010f00f00f2d19d680135efd01d7bd6
:1011f000ff2decd05d7bff2de9d09d7bff2de6d050
:101200001b692360cb1a136011b030bda800002009
:10121000980000209400002074000020b0000020fe
:101220002de9f04f3f4e89b033780390002b6ed1fb
:10123000052333703c4b1b78002b6ad13b4bdff806
:1012400004a13b4c0194012700971a68daf80000ca
:1012500004a91023fff7a9fe054600285ad13548f6
:1012600004a9102200f0b0ff08b102234de0dff81e
:10127000d890dff8d88000970194daf80000d8f809
:10128000002049461023fff790fe0546002841d173
:10129000d9f80040284ba4f140029a4201d8210716
:1012a00001d0032331e0d8f800304ff6ff78c4ebcb
:1012b000030b1f4bdaf8000020490022702c34bfca
:1012c000274670278de80c005a463b46fff76dfe17
:1012d00088b9bb44e41b0346184a4046d15c0293dc
:1012e00000f036fb029b0133bb428046f4d3002c56
:1012f000dfd1034601e04ff6ff73114ab9f80480cd
:101300001360434514bf04230623337002e0002515
:1013100000e007253378039a2846137009b0bde82a
:10132000f08f00bf9500002080000020a400002066
:10133000a086010015220000c0ff0f00040000205d
:1013400078000020a8000020840000207c000020fd
:1013500038b51d4c1d4d20460421fff7fbfd30b96b
:101360002368013303d01a4b01221a700ae0164c8d
:1013700002212046fff7eefd40b92368013305d076
:10138000134b1870fff712ff044618b105232b709a
:10139000012416e00f4b104a1b6812680f491a44cb
:1013a000a2f1100008600e49203a0a600d49d31ad4
:1013b0000b60fff7e9fe0c4b04481c602c70fff734
:1013c0002fff204638bd00bfa80000209500002058
:1013d0009400002074000020b0000020a400002031
:1013e0007c000020ac000020780000202de9f347ad
:1013f000324b0c461b783249154606460a68894628
:10140000002b52d12f49097806294ed1203294421f
:101410004dd2121baa424ad3002848d01f2c31d8e3
:101420000093dff8b480284b284fdff8a8a0cdf850
:1014300004a01a68d8f8000039461023fff7b5fd5c
:10144000002837d18de80104214bd8f800001a6834
:1014500007f110011023fff7a8fd58bb4ff0004320
:10146000c4f12008a84528bfa846bb614ff0ff3350
:1014700030463919fb61424600f0b5fe4444c8ebe2
:1014800005054644adb1124b1a68d9f80030203a30
:10149000d21a104b00218de80a000f4b3146186814
:1014a00022442b46fff781fd04e0072002e00420e0
:1014b00000e0284602b0bde8f08700bf80000020b1
:1014c0008400002095000020a400002004000020db
:1014d0007c000020a0860100a8000020f0b51a4d75
:1014e00095b0044605a92868fff7e2fc174b1a7867
:1014f000012a1e4624d0164b0a9a1f68154b1b68fa
:10150000524213400f3703931740039bbb420ed840
:101510000123049304b1a0470f4b0093286803a94b
:1015200004aa0023fff707fe0028eed009e00b4bca
:1015300000241c6001233370fff726fe204600e0e4
:10154000002015b0f0bd00bfa800002095000020cd
:10155000a40000207400002040420f00780000200a
:101560006f2838b504460d4601d8012038bd030761
:10157000fbd1094b1b689842f7d81046fff7aeff26
:101580000028f2d1054b01221a70054b1860054b5b
:101590001c60054b1d7038bdb0000020800000208d
:1015a000a0000020000000209c0000202de9f04f4a
:1015b00015466d4a1c46137885b0064688461bb909
:1015c000fff7e2fd03230ee0684f3a689042ba4607
:1015d00003d0fff7d9fd0426c1e015f0030c05d0b8
:1015e000fff7d2fd052323700426b9e0702df7d84c
:1015f0005f4ad2f800b05845ebd8c0eb0b02aa42c4
:10160000eed319b9fff7c0fd0723ece7012b6bd12f
:10161000584b0293c0f12009a94528bfa9461818c4
:101620004e444a46cdf80cc000f0ddfd1f2e3e6052
:10163000029bddf80cc003d884f800c066468fe03a
:1016400018464d490293102200f0befd029b18b1ce
:10165000fff79afd06237ce01b69484a454fa3f13a
:1016600040019142f4d81907f2d1ba6932f0004230
:10167000eed1f9690131ebd120339b45e8d14ff030
:101680000043bb613e4bdff80cc11b78bb753d4b83
:10169000dff804b11a703c4b0092cdf804c0196811
:1016a000dbf80000cdf80cc03a461023fff7ecfc45
:1016b000ddf80cc0002833d18de80110334bdbf886
:1016c0000000196810373a461023fff7ddfc38bbdd
:1016d00097e80f00dff8b8c08ce80f00224a022319
:1016e0001370c9eb0505c84415b925702e4637e0bf
:1016f00041462a461f4800f076fd244b1968244bca
:101700001b682039c91a234b00228de80c00224b9c
:10171000184a186831442b46fff7b6fc064608b154
:10172000082316e0daf80030114a164f1d441368fa
:1017300038709d42caf8005011d1fff725fd384698
:101740003e70fff76dfd064610b93b78062b03d0bf
:1017500002232370012603e00123237000e026709a
:10176000304605b0bde8f08f80000020a0000020ca
:10177000000000200400002015220000c0ff0f0020
:101780009c00002095000020a40000207c00002088
:101790008400002020a10700a800002030b5164dcd
:1017a000044691b0fff702fd2b682360134b1a68c3
:1017b0002032a2609a88a2819a79a2739a682261e3
:1017c000da68db79e3730e4b62611b7823760d4b8d
:1017d00001a91868fff76cfb10b14ff0ff3307e069
:1017e0000a9b0d9a29681a44069bb1fbf3f35343f5
:1017f000636011b030bd00bfb00000208400002045
:1018000094000020a800002070b5134b88b00df1a3
:101810000f001d68fff704fd0446c8b99df80f309e
:10182000062b15d10d4b9a689ab10fcb08ae06e97d
:101830000f0032460a4b42f8084d0193094b0094c1
:10184000186805f108010423fff71efc044600e0b8
:101850000724204608b070bd7c00002084000020d2
:1018600020a10700a800002070b50f4b1c680f4b8b
:10187000da680132054686b018bf072011d10fcbb8
:1018800006ae06e90f000a4b3246002142f8045d1d
:101890008de80a00074b04f10c0118680423fff7d8
:1018a000f3fb06b070bd00bf7c0000208400002068
:1018b00020a10700a800002010b50f230022cc5c57
:1018c00042ea4402c254ca5c13f1ff334fead21217
:1018d000f5d21ab1c37b83f08703c37310bd30b553
:1018e000034601f1100451f8045b43f8045ba14284
:1018f000f9d1103002f1100352f8041b40f8041b18
:101900009a42f9d130bd000030b50d4c0d4d85b077
:1019100001462a462046fff7e2ff29460a4d6a465d
:101920001023204600f068fb284604f12001fff751
:10193000c3ff06482946fff7bfff05b030bd00bf13
:10194000d400002070220000b4000020c400002059
:1019500040ba83b25940c1f303134b4083ea0333c7
:101960009bb2d8b283ea40107047f0b5036889b0e3
:10197000002500245c530235202dfad1944208da68
:1019800031f9145033f81560013623f8156001342d
:10199000f4e7b3f9004094422ed0002501245e19eb
:1019a000b6f90260d6eb440428d402351e2df6d1d8
:1019b0000025adf8025000ae2e445f190235b7f88d
:1019c00002c077881c2d6744b780f4d1002393426e
:1019d00014da31f813606eb108ad36b205eb460685
:1019e000476836f8205c05f1010c2db226f820ccb2
:1019f00027f815300133eae7002000e0204609b05f
:101a0000f0bd70b5056904460e466369b34210da4d
:101a1000a36820689847002804da04f1180001211f
:101a200000f0f0fb6369c2b29a400833154363616a
:101a3000ebe7012025fa06f29b1b00fa06f6701e62
:101a400022616361284070bd2de9f84f04460a68a1
:101a50000069636900268a4602f102083746b146ea
:101a6000012523b300f00102b8f900c042ea0902df
:101a700008f10201cceb0208b8454fea50000dda3c
:101a8000636920615b1b03f00703d71b63613e445e
:101a9000daf8043033f91600bde8f88f6744013beb
:101aa00066447f004fea420901358846d9e7d5f1ff
:101ab000100b10d0a26820689047002804da04f1c7
:101ac0001800012100f09efbc0b2bbf1080fb4bfab
:101ad0005b460823c5e76ff00900bde8f88f0000fa
:101ae0002de9f84304460f46904639462046fff755
:101af000abff011e49dbff290adc6568002df4d02d
:101b00002068c9b2a8470028efda0120bde8f883b1
:101b1000b1f5807f02d10020bde8f8836ff48073b7
:101b2000cb181c2b34dc204a32f913601f4a2046a4
:101b300032f91310fff765ff414606442046fff7d0
:101b400083ff051e28db1a4b33f91590194b2046ed
:101b500033f91510fff755ff6368814493b9b5f564
:101b6000807fc2d1d7e709f1ff31e3682068984749
:101b7000011e14db94e80900c9b29847002806f159
:101b8000ff36c2db002eeed1e9e70846bde8f88358
:101b90006ff00900bde8f8832846bde8f8836ff0d0
:101ba0000a00bde8f88300bf582300001e23000090
:101bb00080220000bc2200002de9f047adf5a86da1
:101bc00004ab009323ab01930cab0293052114ab40
:101bd00005460393fff715ff052100f2011728467c
:101be000fff70fff042100f101082846fff709ff66
:101bf000b7f58f7f00f1040900f38880b8f11e0f5c
:101c000000f3848000264e45b2ac0ada4b4b2846de
:101c1000032133f916a0fff7f4fe013624f81a0069
:101c2000f1e7122e07dc454b33f91630002224f879
:101c300013200136f5e7684621461322fff795fe8b
:101c4000002866d1064607eb08094e4534da2846d7
:101c50006946fff7f9fe00286cdb0f2803dc721cd5
:101c600024f8160026e010280ad1002e54d0731e46
:101c70002846022134f913a0fff7c3fe03300de01c
:101c80001128284604d10321fff7bbfe033003e0ef
:101c90000721fff7b6fe0b304ff0000a32184a4515
:101ca0003ddc04eb46060023834203d026f813a054
:101cb0000133f9e71646c6e7b4f9003293b3684634
:101cc00021463a46fff751fe002808d02ddb009b45
:101cd000b3f90020b3f9023013449f4225d102a882
:101ce00004eb47014246fff740fe002808d01fdb07
:101cf000029bb3f90020b3f902301344984517d181
:101d00002846694602aafff7ebfe13e06ff00200d7
:101d100010e06ff003000de06ff004000ae06ff0d8
:101d2000050007e06ff0080004e06ff0060001e036
:101d30006ff007000df5a86dbde8f087f8220000f0
:101d4000f0b5adf52f7d0190049307a80023029113
:101d500003920593069300f04ffa002840f0a1800b
:101d6000012101a8fff74dfe0221044601a8fff75b
:101d700048fe00283cd105900690039b01989847a7
:101d8000061e01da022087e0039b01989847051e92
:101d9000f8db039b01989847071ef3db039b019830
:101da00098470028eedb80b2ffb2adb2f6b247ea48
:101db000002746ea0525ff43adb2bfb2bd4214d1ac
:101dc000029b0bb9002067e0002dfbd0039b01981c
:101dd0009847011ed6db029b0198c9b29847013d86
:101de0000028adb2f0da012056e06ff0010053e0b8
:101df00001284cd12e4b1b68002b42d02d4b2e4a74
:101e00001a602e4a5a602e4b2e4a1a602e4a5a6089
:101e100000231eaa082199520233b3f5907ff8d10e
:101e200000231eaa1a4402330921e02ba2f8201134
:101e3000f7d100230233322b05d0aeaa1a44072172
:101e400022f8421cf6e700230233122b05d0aeaa7b
:101e50001a44082122f8121cf6e716481ea94ff46e
:101e60009072fff782fd00231ea905225a52023309
:101e70003c2bf9d11e221248fff777fd0c4b0022b4
:101e80001a6001a80b490e4afff72afe04e0022857
:101e900009d101a8fff790fe38b9002c3ff460afdc
:101ea00003e0022001e04ff0ff300df52f7df0bd83
:101eb000040400208414002094140020f014002056
:101ec0008c14002030170020b4140020bff34f8f73
:101ed000044a054bd16801f4e0610b43d360bff3c2
:101ee0004f8ffee700ed00e00400fa052de9f8430e
:101ef0009df82470089c012f914632d8384d08b9be
:101f0000286202e006682e62406868620020a862cb
:101f1000e86226e0654610f801cb05f801ccc3eb7a
:101f20000008b04505f1010cf4d324b32d4ba3f107
:101f3000100505f1200c53f8048bde68634586ea32
:101f4000080843f8048cf6d1274bc3f80455012543
:101f50001d60d3f80061244d8eb30023c5f8003115
:101f6000034694b3102c34bf26461026a41bdff87a
:101f70007cc01846cee70fb1032fd7d1d6f110069b
:101f80000dd080232b7000230133b34204d04ff0d7
:101f9000000c05f803c0f7e7dff8548001e0dff834
:101fa000548000230e4d5e1958f8035032690433f3
:101fb00082ea050c102bc6f810c0f3d1b6e7d5f8ad
:101fc0000451002dc5d0fff781ff4c4506d0044bce
:101fd000234493f820300b550134f6e7bde8f8832d
:101fe000d4000020e400002000e00040e5000020d4
:101ff000c4000020b4000020f8b5002b33d01a4ce8
:102000000125c4f804052560d4f80061164d2eb9e9
:10201000d5f80451002df7d0fff758ff0024c5f87c
:10202000004104690134046154b9446901344461d4
:1020300034b984690134846114b9c4690134c46158
:10204000102b34bf1d46102500f1200c5b1b002413
:102050001cf804700e5d7e4016550134ac42f7d179
:1020600021442244c9e7f8bd00e00040024bd3f808
:102070000034002bfad0704700e001400020704788
:1020800010b5eff3108472b600f0adf804b962b683
:10209000002010bd2de9f34140ea020414f00304ce
:1020a0000746884616461fd1eff3108572b6114bce
:1020b0000122c3f80425fff7d9ff0194a64208ebdb
:1020c000040307d018680190019b3b51fff7ceff36
:1020d0000434f3e7074b0024c3f80445fff7c6ffb9
:1020e00025b962b6284602e0042000e0204602b08e
:1020f000bde8f08100e00140002070470e4a70b555
:102100000346054602f12806144603ccb442186083
:102110005960224603f10803f6d1206818604ff099
:102120008053002019695a694a432a601a691b6959
:102130006a60ab6070bd00bf94230000f0b58db045
:10214000044601a80d46fff7d9ff039922684b1eec
:1021500013402fd1286800fb01260198864229d818
:1021600099421ed00433981850f8040c0130f7d06f
:10217000eff3108772b6114e0223c6f80435fff74d
:1021800075ff2368c6f80835fff770ff0c4b1a6817
:102190000c4b1a600023c6f80435fff767ff07b938
:1021a00062b62268039b134423602b68013b2b60bb
:1021b000002000e004200db0f0bd00bf00e00140b1
:1021c000fc0f00100401002030b50023934208d01a
:1021d000c55c0133cc1814f8014ca542f6d0281b7d
:1021e00030bd002030bd10b50023934203d0cc5c3d
:1021f000c4540133f9e710bdec46a0e8f05f4ff09e
:1022000000007047b0e8f05fe546080008bf012015
:10221000704700bf00534352319a933082d9eb0a82
:10222000fc3121e33700000021120000ed13000013
:10223000dd14000061150000ad1500009d170000c1
:1022400009180000c10d0000050e0000490e000035
:102250008f0e0000b10e0000250f0000550f00008a
:1022600005100000060000004422000028220000a3
:10227000000000000000000000000000000000005e
:1022800001000200030004000500070009000d0022
:102290001100190021003100410061008100c100de
:1022a0000101810101020103010401060108010c81
:1022b0000110011801200130014001600000000000
:1022c0000000000001000100020002000300030002
:1022d00004000400050005000600060007000700d2
:1022e00008000800090009000a000a000b000b00a2
:1022f0000c000c000d000d00100011001200000079
:1023000008000700090006000a0005000b00040091
:102310000c0003000d0002000e0001000f00000081
:1023200000000000000000000000000000000100ac
:10233000010001000100020002000200020003008f
:10234000030003000300040004000400040005006f
:10235000050005000500000003000400050006005c
:102360000700080009000a000b000d000f00110013
:10237000130017001b001f0023002b0033003b003d
:1023800043005300630073008300a300c300e30015
:10239000020100000000100000100000001000000a
:1023a0000400000000000000000000000000000029
:1023b0003200000002c00000ea7a010002000000c2
:0823c0000090d00301000000b1
:020000040000fa
:103c00000000040000e00b00060110810900000024
:103c1000000000000040000006010010000000004d
:103c20000040000000c00300060100000500000085
:103c300000e00f0000200000060000200c00000043
:020000040000fa
:103c80006b597033733676397924423f4528482b77
:103c900025442a462d4a614e645267556b5870324e
:103ca000396503c6b24ac4333c646d941c7603354f
:103cb0009587f5f9e82bb22b3e3749e850e321f51b
:02000004000eec
:1051400047be19125bf20325990848e3cf9a25f36d
:1051500089bb97f13625b356a18c72732a49651d18
:10516000060100003080010004004400000000003f
:1051700043fe5a7a631538ac8160355cbaaf8f8cc8
:10518000c47ccab8962fb0566defd1923f338fd101
:10519000f53fe6129fbb9464a444bcc19bd2c86493
:1051a00011905cf892fb05bba13a9c39e705b1e18f
:1051b000f759cbabf85ff9b2456144b82b4ff79f75
:1051c0002ddce8ea4061953e59c46a02e525c81b1a
:1051d00097ac889235f16efcf7ad21fb7ff9add22b
:1051e000a7b8a7dbc37ed53ff8f0788d397df5e809
:1051f00089d1b7d52a0de962d7d0f50d08d310ac07
:1052000010131bf005d0a94eed57b966549b6deef7
:10521000ae886170040d3e10dadbe83ba2b1755533
:10522000ad45191257599ccc8637568c827831e798
:1052300061d8b138a4913b4d01740eeb25de835a41
:1052400054516b73ce32807da41b3033289cad0348
:105250007f0e8828a4ed7d85cf8c622deacff08962
:10526000322e4f83b27f93365e38242167d7209544
:10527000875a6e0f0e258c7548aa60c27d984dc066
:10528000cb8160fcf1f2e8ae4232d243095aa66407
:10529000da60e7598678e4400e7ab064cac971577b
:1052a0009d6e5dc0762c6c4db1170930c4790384b6
:1052b000321648c69969e92b002fb0e667e28bd712
:1052c0004c7e2e6f0b8a82dc66dd28aa03cbe0c8f9
:1052d000ec9116e11676ca02900cb7e78ae0e71364
:1052e0004a2de67b7b42d42cb4fcf2bbcc19a762de
:1052f0008d8af4fc268dda8f70cf93ee801fef43fa
:1053000084ff355cdd89f2c391bdff4ccd0f0de20a
:10531000904d9d2ff0f294020f9130d2a988e76151
:1053200009a46b42f15404922d112e46e5db423e56
:1053300043b5dd4debbd755f76243a1a582d56986e
:10534000d71362f8cc39eb667bb5aa8fe23a1641e7
:105350003502ebcc5b8e14be8a757c2c1c40493820
:10536000c5d147220765636c08dc0194796457cc8a
:105370005c23d3efcfd5a0daa8c3a2af0fd1ef340f
:10538000c5d26b544d7c1fbb2fb403550e6253b76f
:105390003d710f276532a8c622a2d96643c8fb61ba
:1053a00058477b02954f94981a6bf8887d30ebe94b
:1053b0007000e8e7b845b3769bdd4375114e14edf8
:1053c0004c493f1e8cbc6c695089c5a2371156c42c
:1053d0002b3cc6eea61f329333fbb8b1c9ac586361
:1053e000ce6cf97aa18ce927a03a09265dda11b6cc
:1053f000e60aeadc9c02a4658b45845f9d8f4d47dd
:10540000d2b741b46bfd23298a95f71bb0fd5ef33b
:10541000e943a73f8de53ddf35dbd4fdcfc5203720
:1054200073625636828e992bc3a7ed188986c82ad7
:10543000a6922a579ca3992fcc64b37e8a1324f199
:105440005547988d1a597684d6876df2f6c4d37471
:1054500042e9ab7303348366c3f63486d64757b844
:10546000299be9df8503274709ae212d27db5e0e47
:105470001f4c1007ba6e8cbd32d7185958ec285201
:10548000431060ff5e98ed93aadfb0d24bd57070e9
:105490003cf01e8ac876b72121466e6185c234a6cb
:1054a000c5a34f01f559ed25f4470cc98ef75e29c8
:1054b000dbd60d6b97f838f72c620709b32551a29c
:1054c000ea7f8c3dc6c9803759c621c95bc5b16921
:1054d00066ec3d342d60e29f9d8283ea532b921a45
:1054e0005ef3482358658c9adb3b9167b40bdb383d
:1054f000d9b2b3e1013682dc7b97eb3326ea0c0aa2
:10550000b8c94f037a4f9cb4985f99edbe1b6a4da2
:1055100034107fc94d315ffaf7c38b27b96d6d84a5
:1055200012cf93246cd5450f1a840779a3a7756d04
:10553000992d7db1d4473c96c33ba8080bcfe0be64
:1055400029af4cd2bc2820b2ba5f90954380072e79
:1055500058c64d57d483e0a49ba45e0a4207e6498f
:10556000e34decfb88da1dbd64be2fba77a7cd45ad
:105570007537ea97c118975c13d3311c43be583d69
:105580008a44aab5f79c397cd25e74e0ac9800fbe3
:10559000f83287a486a447cb4e777ff1e968df0f06
:1055a00020e2402c9a28715f12f4b21e83e88cc965
:1055b0008814ed8565ccd01673847be9b8479f0cc1
:1055c000cebefb1d37dc20b31862493fec38968411
:1055d00088e005c013194f651e51f1d4f9c5d90be8
:1055e000a5757f0179164af78b4b5c39e735bc44ca
:1055f0006130e8a1071fde56baf8ae4f4f1539b239
:1056000090c628ba4c43b2ae2802c2f434a8b615ec
:10561000ccb5029a51265d4bf9d3fc45e0d97320f5
:105620003f1813218335561e0eadb94b08c5808136
:1056300033b433ed2d7f2fc20f5495f7e0984270ad
:105640009881a2bf55a5380f15c0716ca8332735b6
:105650000058172eadb954341aa964b0a326bc7ce7
:10566000bb9234bb2df8053d39c228665ca1b960f8
:105670002a53479da4e6db3c8375ea6d4f1e9ed5f9
:10568000f3cd4658226ba641f131d1759f22aae68f
:10569000ea7fcfe2215d5f3ec1a7784705b4a9cb81
:1056a000d486b4780629f916bfb6f04d1ec848f363
:1056b00015b6f078a068ad7cb4ec45c1089c4ef1fd
:1056c000f7b2bf9dbad7cf282b6c77bd30d8ab25aa
:1056d000a0b707f9ef73d5429e94ad53c24f93a97b
:1056e0009656cc5f4e802fbe33b519f9a939158e69
:1056f000d9f27527a2f9f13091e3237e1181301a96
:10570000b9039bbf742ec6fdee736f7130b38a8ce4
:105710004d4295089c10087133848c077c6ee550cf
:10572000cccea8ac7cd256dd90be030af019690835
:10573000df3dd959e15e2741da04992cd436e27273
:105740005663e140867a889a5a736a3d832ae31445
:105750009eab6bc9c43fd859ec44f097bbdccfd4a7
:1057600012a4d9f64b46ca526624f3e4e5300497f6
:1057700070a7446fa9c19e01abb30d7ba3a108d64e
:1057800013e021c9ded6ec7dd9c1df82b0cde94c72
:10579000da50cf2f7af74c5ca49aa2300de5231291
:1057a000c3bf65571a677082290d2b87f43b6b6066
:1057b00086860ee93ce34d675c9aa8700ec3eb8ebb
:1057c000931045982b90b32f95af2d8ab954c2787a
:1057d000c5a45ec3940fbe96a7ebda332a2182ac30
:1057e0006c5e3c92613f922017b006d8aaf8f7aae7
:1057f0007fd3ad51b4062d73ab38f0f9980cb1627c
:10580000ec84b65117e954ffad850ac14849f19eb1
:10581000aa8cd1d15a4b6ca938241dfd4a879c799a
:10582000b5fe8ebbb707f5bc83d4f79894a04ec3e2
:1058300021ae0b408e9c91392782051781d6ef79d6
:10584000aee1819e7e95971e9912ae967d55e4f944
:1058500094f1c20d97fb45288a07ab5e08bcf46b38
:105860009521877c7bf69e8b16268f88c169fef773
:10587000020b4a4814f822ffcf440cc0f0caa6021b
:10588000ef52e047c8587c04cff16f1086a3429dc9
:1058900077e3f96497d0f5e3509c31a2eb41faed40
:1058a0003a60a243d89a7252ffa249f419e556be53
:1058b00093b6a24bf00ec1ab66fbcecdd3b8d20ae5
:1058c0008be6c80b147f33db4549633baba8bc793f
:1058d000924575257b0194b81af1f2ad79d4577ac7
:1058e000249597e926d6f9832d3795744299340388
:1058f0000f256c9b31bb9af9fb68825e5cf8990eb0
:10590000660503e86c513853a59cb99f2a0ae995ae
:105910005a9c24fa3bbddc1680ed0847ca717ca076
:10592000cbda7ed7fc5418be00d85d668a6330504f
:105930002a300dbe603751c21620a4ac0b13be59dd
:105940003b65d58f217852c286759be7ed768f5fd8
:1059500046ef2e20e54f2c03c74d774975fd3f8854
:105960007f99aae567c13dc7a781cf59e6a9aa38a3
:105970004d387cffb4cf09f1a1e5ac51e62c55b808
:105980008428745d7503ffdaf051be790ae066ea97
:105990005a555f6f2af80bd6d266534afb267ffb17
:1059a000f97e779269f01bb524db95cf25822b3cdd
:1059b00054cfb23b679525d8b21bc851a35d8ddd8e
:1059c000f1fa4b59038ffee54c1f9d1efaca5c6e1f
:1059d000ba0dd41059dcc1432d4f75190fbf7d9bf3
:1059e0002af2cd3b4d579819cceb0a41e6f05a1af2
:1059f000fbfd4142e84680045f39166e254d8868fc
:105a00009beece3a6797c4732298e42b3ef174d78d
:105a1000e2598d636c18b8b2d3680c027f21f29df5
:105a2000415bed8061a595282c811eadcc363e737f
:105a3000923298e3643f7735d7851c47404fea445c
:105a40005514f5c4659695c8328c3558c497e9c786
:105a5000307d7a8d583cb18ad771965f86ecd93308
:105a6000bac5c0aaa074f6d7545090269307713dca
:105a70001067c1b50e4255bd890311972d7c8b9bd4
:105a8000ca1ace05ec9c1f62e9bb72941689cd8cb4
:105a90008c35f8aae24e7591511f93a02f54454cb6
:105aa000c0303b021eb248b041d29b29742b318dcd
:105ab00080d435650fa064d8cc570c56e66f71c9f9
:105ac0005cb56c6b0ad8c0d7f2261ce6e36c55bef9
:105ad00000cc68b655803a4ca1c7229a9414f1358f
:105ae0007dd9b7ea4032276180e930880a847f6631
:105af000dc1940f77184aee85e850d08c91c4ecef6
:105b00008cac3ef8eac1beffcf5bb68f46fd6506a2
:105b1000aa9282b4b1cccd600cbea19a1319230d08
:105b2000f9379e4ca77a469e974f7add40cfce91ab
:105b3000aaa8cd8a2fc87357da7b917fbcffdc936c
:105b40008be7d95f1753693699de72b116be0b9b8e
:105b500006133dff9d89c4b9c4bbc362e882ac454e
:105b60005c61478794357fab918f03c95a09078cd5
:105b7000ad28622f4f05c9dca22e177de9acfb537f
:105b800074bd3dafaf7777a8684b8de2b9c06de7c4
:105b9000e82c9c99ddc1a7840b2d817e123585d41c
:105ba0007f10336b104bff9b053ddf3e878c70db16
:105bb000315589a6a8d84fdd46a947ed06be0c563b
:105bc00041f43d9045be61a92b4a640844c983f65f
:105bd000863d36ebdb1f801a775f6789adf1975002
:105be000312807e56f9df972bffcbfdd429e849aa4
:105bf000b4806e432ba0003fb83a37f3b87b8ca734
:105c000034b3e0725f9de7e9ae62ddbfdd426b67f2
:105c1000b3c15bbca574e77a4543743ec1e7b721c5
:105c2000392cc9c4ec096bb32c1c8f3f3ce159b72c
:105c30000f4af486ca8d163a7b32e44002ba7bfce6
:105c4000f1d45215b1597cc63e3e5e02c969318716
:105c5000b29e68233d0ed29fc57eb83c978460ca31
:105c600098b606e4d6af3694068c02a175dac4c2a3
:105c7000fe9cbd26f7ae9769150b801aa4956a5253
:105c800093f8d457c02a2f31212a7d4e000e653259
:105c9000e4a746aeab5cd64352440b0d56224bb044
:105ca000c097880dab7a6c3899b903e5caa503ddb6
:105cb0004135c43549741533feca2cf55d77152678
:105cc000f689bc374a659fbdc30731c4b8b562eddc
:105cd00035999c9b15612cd1f59a1236cca1ba4608
:105ce0001f5f03e402129f93106cba911bff08fc24
:105cf00072b2001f691b1a2189ccf41d3b7a57b080
:105d00004063c4a1e45000027f5a484d87d414a5d3
:105d100024c2b93d9f4813d3ca593709f92493cafd
:105d2000f6136f5b6b5cf9da060f0a754f486e214c
:105d300056d5148cdb35123869cc0cda719064437b
:105d400057b3ee99dcbe4ddac94b5ed95c2a09ee39
:105d50007b0302cd63e5e270c5a40a42e3a689682d
:105d6000f974e0b6bff04d4067b9d7ba14281f1bcd
:105d700076de583a74ff7f81411e89b660cde3819b
:105d80003c8a6ff8b752b228dbcd4c6f5394e78c46
:105d900060e93bbf4be89ad6ae83e5defe639cd15b
:105da00057f82611cec4f7ec6feea8e82c3fb529c2
:105db00051feae7257626f13d473f6c52d267c5d0b
:105dc000b48a097f048e1ebca88a58ee995e75506d
:105dd000f5eef7b3f77f20123096cd42c37b8628cd
:105de000885fd97282ae33d631c160bb4cf3f432d6
:105df0004200584654b4856bac7ab9a06c2c2fc4c1
:105e000014026d6c654ae8815ff7effbb67e43755f
:105e1000a9be312c4312faf10319784cf216282747
:105e2000bc1ed1a8988a54d8c657cb9a786b12a6b4
:105e30002cf63dfeab1b7a3f1cac7c276c4e5950b8
:105e400056e74fea888f41c1fe76152974dac7ce2e
:105e5000fd792634f530bbbb207108efdc5ba64e24
:105e6000d10618174634f1e7830ecaaaa86e07ae0a
:105e700070dfc20250a2b856f5ddae655893e1322c
:105e800053f7b25546d936dbf3b7abaedfac7c3a4d
:105e9000e68f684e1be0de112fb93b69325d2b980f
:105ea0004fc45c0a9bd7809c85f6bce11135bf4787
:105eb000d42ac79090d0053fa1830eae5d163ae07c
:105ec000b3560392e449508975ccce5fc67fd7bfe5
:105ed00064d28d74e317e491c04a5da61310f78075
:105ee000783169583ff605052ba391a336cad00730
:105ef0006f6a22752b2f79f4511d2a3e661d6a4c5c
:105f00002bd674c08a80cfa8a8ee39f565de3301a0
:105f10003f39a19129b7a68b38c174af3589dcc44c
:105f2000fcc605806489cbd35d1af34042a59b4a29
:105f3000c08656d652d4fb9de881b763e460707585
:105f4000e1dd0b4020149ece1cd62e428f4decbec0
:105f5000071cfa4676c40b21461ffec4aa0143b6ad
:105f60005e222d98b250cee4e9b939f85ed1e8dc72
:105f700099e80ef4cb653251104e791161b59a1241
:105f80002b76f30bca3d7ecb5927320d22e78d6b62
:105f9000ad681caaa62f12e2bf9625d644db5a1183
:105fa000015f7c8d928ea8c5cacf5ff53048adde0b
:105fb000f66fec2940e4a108e951b4a87aae1c3d83
:105fc0003ed6219f8b99728979f192bd446a94ecf7
:105fd0009c02cd546fd21b657475d80ff74b489e49
:105fe000e344de655d68d54d5478394f0cc2037dbe
:105ff000e4dc9e6148fc5209f327a8b89e058a5745
:10600000286b7d79c22a6cf39eb854b6713d3a7004
:106010002105a468618b1d5660200468f4d8b4255e
:1060200072c6074e875ed2425ab41b0e28a36b85f8
:10603000baffd5107b63475926dbb2720ed3dbb4af
:106040000c6ea1b77ddd8165b33acdbd04e0dacb3e
:106050002d6933074cc7355966811a2c66610f8a42
:106060003460237dbdd7bc14a2d184f28951154a76
:10607000e2beff1281e77c4aa1079cb692b38be592
:10608000d6b10c18a471981e26265412698b30685c
:10609000ede343b5e2860ff544f284fe6670b9275e
:1060a0009ded57036c5a9e60016596f25b86891dd3
:1060b000b4eab2f3e5e586cbaa32ae345552b089e4
:1060c0009320eb460fdb3606f2b0ee340a4013c0e5
:1060d0001b4711aefc2682b252c74fef238b10a490
:1060e000f3be2f7c3269e8e756d6ce78154ab21c4b
:1060f000def2aa7c852e038d2394d02b636f268e2f
:10610000119e74e1c420cec9b1bc3b16fb02343de4
:10611000291044aa59f5f69b1156329e9776613c98
:1061200038755ac84700fbcbeb12cac7564d3f58cb
:106130006ef2725e4a97ac75e7af3f3fff8cedb5ec
:106140000bd81ae28ea61413fe8491f732b3cedd7b
:1061500081e6601b62f7a1d953aae6a7e0c656f60e
:10616000f152f7c80460c43b4677601ef26b2755b6
:106170005cc9e5cbcc976c2f92517b31471a90f7d5
:10618000d181e6aec5c944799b5d091a31e69069b3
:10619000a82865a38ec16d37da3e0ff3887ba8204f
:1061a000081958fe5480b876bb7bf35ef1f00a877d
:1061b0005c940c67dc12a0008c04330be723a6d39d
:1061c000d84cd7eb18891220ec1073547656d6dbd6
:1061d0009c14f45503f82c1fdc82a0a9b4af122044
:1061e0001206d25ae632b08a9f6d440e0cedacd244
:1061f0001e7251effbd8594fd643d67061e54983e3
:10620000f060e2bce3f706c1649af335fdf35deca0
:106210009e69706936afa84fe546e776a0e864a1ad
:10622000beb5c3fc962259b2497fb994e7ecea188f
:106230000aa296d08a3ca2c01fe122035af377b18a
:106240008e87361fcc68ceee4a8e1d4e918ddc9324
:106250000c961566ee6a4d3d9541af7a326421c7c2
:10626000b33cf671f4c83240d133fa61af4450d335
:10627000bd2e15fa0bb082d00fb73ea5ffc06af84d
:10628000a136a7fe9950ff51d2051c6502b2b2efac
:10629000c5bb4b25e92bd27d7e8f0604fe5a6d7c53
:1062a00074e87c6f234ab3e4ff3ea1ab9acb55ff61
:1062b0003db650ba982677a41f5f68a073c4407a91
:1062c000cd446a5af9e8abcfb61699d7160968b724
:1062d0001b1a3e66186040a39e170e0a05c5884c1f
:1062e000408b78d185c12d014b456a3a884b925934
:1062f000ad1c12ad944d0fe7f36afc047b1bfc4709
:106300000e4b70436164dc792ecd5d9259dd0ba696
:106310007178e4e10f8e7a926b1af25af8a19c2ef2
:106320000892cdb02a5a0fafb1b1fc3ff1780028e6
:1063300080c1c14beba90695eb0a81bef463d17312
:1063400057c0d731f2b61c7af3437c01cf2a15bb74
:106350009008271350947c7625a189c8c9ba9f5b01
:10636000c1881e1be09767d727bd50bb0da74819f2
:10637000b3febe844e4c8982d0226a0679802136d3
:10638000bc8527a1214b3e7ee259dfb212518bd64c
:10639000e42fcc60b5e10b6199e18d90956d539937
:1063a00088592858c01e332138b1177b5ca350bad6
:1063b00093b7bfa7f5d49deeac6e37103f3a1314d8
:1063c00019b83680638273d7116da88eb013e1912e
:1063d00045e93063ee96aa1a08491b191cf1655667
:1063e000ef6626cfe5e77aa40b21f8e52730e250e7
:1063f000a0976025c5e5cf60c4ed007ae87b18431f
:10640000e8387ecc3179fd771705fd0a261421d6b0
:10641000944852a9abd29226f6ad5bd03a928eb791
:10642000193189a1fbc31c2a63405de845cd6c1a74
:106430003650725709c2c55f38f156f4db46bf9239
:10644000f23c594acb623cf752042bc1a132d80925
:1064500023bb30ad1b636ade4c126f2c8f7041136f
:10646000b825f07f103d858d44922a2709fae1c7af
:10647000c23f4b73b0c69c389582d594bd8248f01c
:1064800010acd551309f6e0edf206a721d1584be90
:10649000b260f402c2388eb84e419dee90f8c1c78a
:1064a000ce5cbbfc0755fc0a935c25f10ed2f0ae26
:1064b0004a6098eda8a842e07003a50c8f0686d527
:1064c00004954e237e805db4a2452d36e2e3fe673f
:1064d00002140e4bb5381f01283ae22db0dd61f9e8
:1064e000140d29c08660584be197fe68b8a1fb8760
:1064f00085aae8ea56274728dd072b6e6a3e8f39c2
:1065000042f36289e90b37e42ae65fd96f0f9f46b1
:10651000f3b3547a86c26ab1538be8c1f8208e9add
:106520005a96127526705aa70dbb3d6450474f49c5
:10653000b138671ac63aee0c94718b94cdcaa22a70
:106540009edb9e278475e9943ce6e25b42ce8f0693
:10655000b78b6f34217088fc9841e1049dc6af1f52
:10656000b5c8262476879c1abe258806b0b053701d
:10657000ee83e9adb2e66c856183965a3f604928a7
:106580006dbd93215ac0f1f38b800be7a03f55bb43
:1065900088c72f8537284b8590b3d95833f063ce01
:1065a000e6af5ba65e8e44f6e5270ef79267a0562f
:1065b0009b737bcebba2493d60e9a1ae2dd74f4d69
:1065c0006f919b3218d25fd57279babf2720f7a599
:1065d0005e9f5a92175960257c74fc9760e61951aa
:1065e000b16faf09e010badc5e6a527c5093a2dc56
:1065f0002f004f9ec71740e1664d6f86d5456a61f3
:106600005ae779ccb04985d14f240e8fcc3455123e
:106610003193c12ae7ccf581041c6dcc4318b4d169
:10662000a586bb06724caf3fa3c85ad62578a28870
:106630001876da4110fb7ab14151af555d4a2fa26d
:10664000e5e966a6a4f18a8a24bc70f8fdf288cd3b
:10665000d1282d8d667b230c40335a0104704c7e6b
:106660009a6154189ffdf89e8314a3bd145d2d7983
:1066700055d583073e79cfa5725c9b521ba812d3d8
:10668000ac7afd5d47774308b00d35530d0ed058f9
:10669000c69f81c0c84b429a9a565b11a82693396f
:1066a000e856d87cb2efea9710fd8abdbb92fe1582
:1066b00046fd606fef722f956d0a2d7aa78731ad79
:1066c000a6219af8d8536979f460d70a65ba2847a1
:1066d0006b489bc52b3cb94b8aca5ec64ea93abad9
:1066e0006480c42d74d88a04f679fee26d22d492b7
:1066f000e81808d8b3e6ee16e912d653413dd76341
:106700006bc90324269684930acaca5bf09b415c3a
:106710000dcc58233e82e915d4446f1f1c24f50a82
:10672000cbf3c8c247f468f09f38b7547fc9437aa7
:10673000a9a353fcdf36889e248427dc01ac736c4c
:106740007edbc63407e71bcb14a6fa4ce5fed86205
:1067500006d6b42aea875a717f3e087e4bce2911ad
:1067600003022e2b3f241bbafb98563503f90c224b
:106770002e6413f131f20469cc60614385a8ecaf5b
:106780004554413c049905b0f2d90421462de5d386
:106790002305187f92faea27304b8d22f6939a4d03
:1067a000eb7fd906afcae1405e89244b02a0853b4e
:1067b00028196f2143c8c8c115fd421f4ceaa19892
:1067c000e45706edafd43ed720f95e4531013cefea
:1067d0000b2ed7b258fdc96e9c41c8ad04b4fd5c08
:1067e00097888e7115b4b3ea8c8bd559af1937ae33
:1067f0000869a97720d0030321c733eab5b29cbc4e
:10680000980e5a9a0ca59af67b7fd811fb929ff3ab
:106810003ac2f56d1ed19d8275f249d570316dfe7b
:1068200025b1281911a3dccb35b6d3fea64acea7d5
:10683000f35927c8921a1131edec0c25c7e555ec38
:10684000ccbd26b00504c4f3df1271e849524137cc
:106850007c9b6aad7d72e31e8c08633109b3d574ed
:10686000c68b471e2b14e71d3697e13f4ae2af3d2a
:1068700043703b73eb750abbb7e5c3845cd6a9dcf8
:10688000fd66e2bcb43d5ecb80e32ec85ff3daa1c7
:10689000e6648957afbb5019a3585be1ba8597b13d
:1068a0004816a558d0e7c98030e3e94c07ca3a2119
:1068b00070c1d414e2eba3f81607097354da82709e
:1068c0001fea85bd6d1603a335319663f579fcfe8d
:1068d0007f6fc74423c4336f0b9b6febb5953cf2be
:1068e000baaf287cc1c04969be59bfd38d138f662a
:1068f0007900c0481a408fedad312f5f7734d58bca
:106900003f51bdb55f4ee04bfa0d9460699fd4e1f5
:1069100040fdbcfb408f2be5aca51dbad2841026f0
:106920006ad2fc364af6d28710ced43055c3d07d19
:10693000c1ab6975027e45602233408795932d7ff8
:106940001262397034c02e5bfcf9c0530b587520ad
:10695000ac5238d055273ccc01d598efe889b8d156
:10696000b886b8a0ab88c20a76b1491f622f6bed1a
:1069700047c3bbce337b151807754082e3d4de31a5
:10698000b445339e50f78a273b16e88b4732a40064
:10699000623ad8cb1313349ad6ea2060ff28094d07
:1069a0000e76da50f50057780578cd948b77c2a330
:1069b000ba4ee176efa327762e9a748d68b57432bd
:1069c000f2d548465f99227cc25e15f367c1bae0f2
:1069d000535ab83c76dd887c3dc23ea7baa3f0632b
:1069e000e63ebe13704b002a905d35594757ca7872
:1069f000c02c57a25756b327fa6986419c4380eab8
:106a000048b330f3b9b81ad17e5fd7bf99c61ef329
:106a10000dfcc4c184a9f9b5f60011df82d63edcb5
:106a2000d5e2c6143e9f5934529ea84d4975f9c20d
:106a3000437a25e5cfba840f7f123ac8548a448638
:106a40008945ba9eecde4e9e1757cbc387f4c4230c
:106a50004412e87af1ca213ed9aaef8537b9b3af1b
:106a60002edfdc646236a4df1ae557a77130d1e966
:106a7000fbb0609aa96c408442e81320a4694a14d0
:106a8000a2b20ded8793b43cde96410da3f449a369
:106a9000153e5ab56f7caac3035171c428e9c7aa31
:106aa000bf1f3dc69e3dc6a35bd0ef5cf1c2a7ae43
:106ab00096ecb5d5677d6cb37af1240f7118967595
:106ac00020a9ec7b3685f3e71ed22e28299ae217ff
:106ad000b613ad5a9ebd80d01b8453942043ca8efa
:106ae0006af008fe4e00d439c11fbb25f49fc04494
:106af0005dd3a1dd8b37866d2e7fdf046bf95702e6
:106b0000a11baad2486c59b4e49e03a028858f48e3
:106b100019849bc8b29e94308a2401aaecb621bd88
:106b200003a29f897e7e7f0d50976031f1032fe293
:106b30008fa7bc8be96fc522d8d307c19c256a50ab
:106b4000a2c53464e40800d3aa558baf724c7663b7
:106b50001b93cb6ecc70e8096bb91c4ccfbe595e51
:106b6000539446f820c2244b86fade622c620ba3b3
:106b70000989be7589ed8bfd80e2656f776a0b6cc4
:106b800049d7b6b60210195761ecc06edc6dd5d886
:106b900077d60f2fc0aeb63900900ccdb477b3f8ce
:106ba00004682e8cd36f6367ac0ffe217e931b2e7f
:106bb0006a462b4569e29cf0f07c7291ed87703a51
:106bc0008b27aa35e0d5ebe95ee3d115a83fe38b2f
:106bd000653e543c950b3960fdb726c7c0fecbce51
:106be000b1dfc2da355d607383d66553033732a9ee
:106bf0008d4241acca11f9af4060e6cc95e791985f
:106c0000c530cf8f7af51e32589a037f7ddda69c62
:106c1000f2ee8427a9db4dd75bf07332cd2993b711
:106c20008601e4daf48b29ad74d77a0625e626636b
:106c30002001c6dfc843a367cb3cbf6422db0b0542
:106c400011d82c6f2c496a6dd166c7472010459327
:106c5000249b7bd0ff53ac99e4c4812044533e7ef7
:106c6000f7949c9ce4da0c6ba4b64f9ba1083ee41d
:106c70008fc72c7a0854fb4c3c5e164905e433de82
:106c8000f95d1e05844bca4786f1d95eefc2b19ffc
:106c9000357ab79ec6ef7448fb11f4a1187bbae6ab
:106ca000a5a696461f75bdba5e9883f541bf93674a
:106cb000819db03a856d963c53b1cb25383ffb5151
:106cc000a4e6e5b73024d0992fc990dfb1a8b1264a
:106cd0005cfb0eb3195457d6ee77997d3d3f0d45b9
:106ce0009ce550ab4f4edd0bf09156847f5b3c9d95
:106cf000fc4749708f7c839bf7962083cd16218caf
:106d0000209e80299735e6bf0d94f5f0aea0308225
:106d1000dd38fa4fb7adfc811ddc33f2389b3a0306
:106d20008e2d732a24712069e8b355b53448f6d105
:106d3000ef73f8970af684a1687fd93c06f62b8694
:106d40000c8fbbad8ae8b466259ca3dedc2bc70a9a
:106d5000b24e406d323aefe33a53a820babe17e67e
:106d6000aef5f50fd894933427036a61fa353dde0a
:106d700056c014f22af9614c49b55e0b3627817270
:106d80001d88f96766e72164f7263cd495e3704acd
:106d90001ebc7287b382f16ca75715f13c227203b7
:106da000580bfa1c1119e5586ba2c9534c5673bd08
:106db00013db683bc388c2908ac8c0aa2d32185919
:106dc000886b8dbdf0d3858301552162651a993793
:106dd0007bbb282a585e3a0ba9efaa4a1cee083260
:106de0001fb286b1d2e513b6d82525d1271c2fa70f
:106df00034cf5ec8c707dca125ab377a1a9a671a69
:106e0000d6fff4a1892affb581b79c287164ff10d1
:106e100092597122f898e90e9dd10d54ca1b1feab0
:106e2000f174273b7e81f525e7a0f9c9ec34c70a48
:106e300033b39f91649a187b6886a1388f233acf29
:106e40005822c3fc17f8b60c6aaf284c92af64f511
:106e50005f6d90c8d43f5ce76c8fc29f7cf3721f5c
:106e6000dad60851ab9d630f263eb699cbea1d6d6d
:106e7000049572575f96b687fce882e8701393f129
:106e80000844bb3f5cbff000948459ae9d01294a81
:106e9000f68b0c757e47ea3947ed4cdb6992fabff9
:106ea00079576e0c291370eeb22da0d78543d14cc3
:106eb00000a3b4ffaa334d9a15fec25b2bbd9e877b
:106ec0006a78641e1f3aaafd1430c5e3a07592ecdf
:106ed00070bf96a36bb9dab9461380bdc5ee765c78
:106ee0009090439414f94c6de499d9b1faad1eaa6f
:106ef000b4e8c4a61e3a331f88a6abb4be37c3f8a5
:106f00005f051d311401950c651d15e43fb4f1bcfe
:106f1000282fb01d61acf3ebe71ab426da09ec6850
:106f2000ab4431cab2f49ec6446e7963a0a8ca6766
:106f3000e14e8943e5c72591aa99bf95f365a5b0b0
:106f40006fb27282fed0bcef9be879cfad0990fda5
:106f500052b015fd0ed833e440d00344df37fd4076
:106f60006e2d98fc7241f2c3da6609b4c63bd8466e
:106f7000c1571ce0e4f6611f7618d241e13fbb76b1
:106f8000deb2a36a6870b9f2693707203e2f83d852
:106f9000eeeabb855e7eb0d808fa4cd18a39e5c4ea
:106fa000349b16cb391ee5db1d65d7917c9bb38adc
:106fb000c27bdd0deba26f80737831a303a3a578ac
:106fc000a57be0207c56224435b03f3202c7bf6328
:106fd000d93cbca0ae2b95b5918ba22213fc1f9679
:106fe00072fa134be2ae2c92d3ae19bb77bf0ede12
:106ff000e8b1347d990317fabf4997a857ca61af22
:107000005b87e61c7480cb19cb4cc49b0e07ab91fd
:107010008227e46576b58170974d413309715ecb67
:107020000e0f255df252862505e983fa0bb83a74f6
:10703000aa4feb4be80be912f55420ef8f5035bb0c
:1070400059513da008f20969e55fa4ec962d04c1f1
:1070500080dbb0cec77aca1d74c72fba39daefa762
:10706000132a4688c5858748a521e60f3a047a8405
:10707000b0724a55083f2cfeb12f969ec19b1266f6
:10708000fa19412f9483cbbfa4b9cff1690975696f
:107090000761c6f0c85e4e30fb9cb7fba07b0613b1
:1070a00023698326b6c34f30eeb6285ce64870d419
:1070b00094d4a3e6a69ce52269587dec0076529311
:1070c00009b2b8d4f310dc78bdc56001940c55be8c
:1070d00051a95fa1a580475da7fd450c54f10d8422
:1070e0004383286e33537f9d3319e57572ab09eaec
:1070f0002e2d4592c73f4d19d800084da09bc43096
:1071000020a7c5c702b31c7ca0297f7ce2edea2d35
:1071100091dd54cf45a32c01b374f03523ab95de3c
:107120007fe6ffe4254d26e51bcf8b3407a707b785
:10713000fcb15199b8b328d800ec389b7c4e20d6ce
:107140002e7b65dc25160601e40b3382f152f61323
:10715000b48b5090cf1d95deb09fa67b665a542a03
:107160009507c07d3897a8b35d596844374ec90a62
:10717000b019d33e85830382dd4c7877a95639f860
:10718000c88018a3e7e4739cb0c6df8f2d39840a4a
:107190000cde11f8d9e657e07c7c8aa48e45c62126
:1071a000cf6ba6da6919c865c7e195c8526959be9f
:1071b000f4830a07bd4b1cf9a6e009e767962dbecc
:1071c000baeb7c92e6f9ee7e370d66b828f72263bb
:1071d0001bc6971f0e990d56092b7ff82c055d0acb
:1071e00067f069237ffa32a1d8e062d43c3ab53423
:1071f00001d8c8234288eac66d0af53cced8e8b566
:107200003855126d4bc6de600b14dae0b1f4c97963
:10721000bd7808a0177d65f14acb778ce8d1d4c042
:10722000bdcbf852f929d198dda7ba2054927c7fc2
:1072300099b348b7569d9c4246759180244e13bc25
:107240000a0591bd5705d8114fa20dbc14222092fa
:10725000af6e2e7fac3f4dca85a870079cb348bd6a
:107260008af894864588a16e5ec276419d7e75b18e
:107270006f79153923e42d9bda142e95948cdecf8b
:1072800051a8caafc49caa622fb55d63c4d678bfab
:1072900095f6198ddee00d16710c322c9bfcb42195
:1072a00076379ff4c7a9d4286f7e5da4295c08f1c6
:1072b0001f275a9be9754f928d404132088fd8f3b2
:1072c000ea574a0c972a17767ef0dfc27f943f2f49
:1072d000733fa2932fa7b266938cdb37288627cf04
:1072e000e343d7455ab9f65fbceb1e61076edf8ded
:1072f000c9099f48d5bdb5d24d56df02cac4283052
:10730000d46a4fb77139c0d2c444c811dfe32ddc51
:10731000bfbdbba872dbf47ec71dba56c33a539bf0
:107320003992b893243d4a123fe1ea18a54023a1bf
:10733000f54c2203d3029cd1929e37edb6a85d1e78
:1073400066b4566937131e6a27c94d886f86a84ae6
:10735000696f824a5e71ff79d186c32ba76aa12b20
:10736000283c729b4a77a7a22ff5a4ee24a5f0ad86
:1073700091b5b9b85b0157641eccd96b6dddd304f0
:1073800028cc7627d18b5af5fa05c6380004df0fd2
:10739000fc7a5b0e957616f67e03a235650588e8c5
:1073a000d9acb1e07cb11499c849cd15ae5c273297
:1073b000af19360184970f0eec69a6d8db2e8e44e8
:1073c0007f83b85b197c2e8bab299bf8a9e3a4cdf6
:1073d0002531359994a272d595d5b9d48d2e23b186
:1073e00008345f30d9ac0ed5aec37f529d6f586d57
:1073f0001152a8ebb6c84ddda7431b1d6f43359254
:10740000ba183951c8832805bb8bb3e6509418f3da
:107410003dbb7509fc2007824bbcebe56eb56006f1
:1074200036d60744be4a9060cb43ac6a021fb1e433
:10743000f93e3822b2277b2a5e590c6efba06ae126
:10744000fd857840ec624c6faf826769b3bdf7177a
:10745000e3c694c5b96380c5859bc9937a35b75394
:107460004ad6dbe02768e6ac53b503222d456c4bca
:10747000c5792d593b4be4817f26d67ce103b2ab25
:107480002b4dbd2667e75028843bbd995bb8a73ece
:10749000ba95a91c7ce7cc9123faca9903c8d7b442
:1074a000f4708174733d67caa4ea2cb2b1b04dddab
:1074b0006110ac058a0070c66136d5c1ff58dee0a8
:1074c00063749d4311cd634743a87a3fb71eeb8e8b
:1074d0000954dcc4f818ac250ea9d3110c5111289d
:1074e00071c5497c63303e1a2d356bcb861e712cdd
:1074f000336210db6ff39b5830e34184e3c9448f60
:10750000e7f0ffab94493e5d3a5dfe7ce0659d147b
:107510008f8724bd21c2178387e3c6061a3b4c819f
:10752000501e3b55883c8223e45bc7e1f7164ce8cc
:107530007e160ff5c719657c8ee152e4948fcc8cd2
:10754000879761eeb00e622805e546818018bd99e7
:10755000c65c552624fa2a7e79240e777f207f5f29
:1075600002026f41a866f76bbbfe8e9490dee26468
:1075700024005d0f669b434afa5973f8b0c4c8579c
:1075800052a5e0d722edbe492becdf067967c0a8f3
:10759000566350bade9a8eb6a793d5ce842abd1014
:1075a000b16720a21736cb4dc302f1e054775e2cb1
:1075b000759e425e6c3d09a975aabc216e3288f3a6
:1075c000962ffd72b2dc4659d7619e637d59c40f78
:1075d0009eff97d0ab55159de37b8fed9634b2900f
:1075e000c2b4d437ae28565df506e06f0f783c691b
:1075f000666bbdc72ced6e6d0b02f676ecfd861e3c
:10760000b0f10b60b946b592f3549d9e0b45d45e24
:10761000fb971cdc4503f17dfe051d932ad8f93e3e
:1076200058dcc02b6f3c8ae676f6f085da2de56be8
:107630007f9797326f3838fd677981ca6f69cb962b
:10764000e65ddc0726e1fe594a647a87f89aa20ec5
:107650003be79cc329bfd46043f8f6ca2375dc78a6
:10766000bc965e11c988db9022ed47ef07f5465db9
:10767000c5486c60ac1972a385a227e208d249a361
:1076800039b4da4e098591837253246b7dd961ff39
:10769000947f47fb2acf663d48fa984b535707d84b
:1076a0007a84f079f76ef43e11985ca540eb1d7674
:1076b000226b83a6546f1e0918b6f137fef70349f3
:1076c0002a361dac6af849bb95963a8ec6bebbcd2c
:1076d0000ae266fdd8bb63e0a7b17e6dc45af954d7
:1076e000b93050c1cbf7a4096e764a5ce66cac8821
:1076f00029d594e8cbeede1b41080be0229ae7a4e3
:1077000006bacc3e39ef9b2319971988c012d4963c
:10771000e0eaf53b440388b7c0e161a7c0ebe8d8d5
:10772000059eaa61e81e380e9f9aa6572a609ed62b
:1077300058c7c6b80838c7d36ad349b2b9f6cdd24c
:10774000e726deadb69191be10ecc18c6e7c7960ff
:107750004839c9f40760aae8949bd66317a9a167c2
:107760008f33fa8acd981465ccbd1aeba66fe6cd9f
:107770009d693e8bed60860150122f661423ce4921
:10778000a14e9126a5e6a736e2e2267ee933ccc1da
:10779000a1ccbfe2d3761ee9873de1750d068d557c
:1077a00045aefa7ac746cd9555cb3c6c0cdf6e42a0
:1077b00039f7ae6a27e8e3d5a7955ab32589114d65
:1077c000c1f07b29fa1c7f2d40391cbe6430d2fced
:1077d000dc3ef0d43671d5d6cdcd869f9697b8498c
:1077e0007e20c5b1a7418d2fd0e49ff794ff9c0167
:1077f00061af13f695d62a161167c5007555aa6fa5
:10780000b768434776de11648728aaa9db9e7a9f72
:10781000fab8a9d04085d4a58d13451d5c80900f82
:10782000a722e4c640d048753c1afd2a3aef7625d7
:10783000114b934f4b8749aaa0ff599b498faae14f
:1078400059aebebcec119962ddc6cf1882fb6783ce
:10785000cb41bcddd20df0bbf9d7debbac6f50a67f
:10786000789b999f9ece934cffcce0ba04f880b1f0
:10787000ccbe0767cd9e12d6e8b4ec241483ebfa95
:10788000037151c590300a7dec11bdccde4ff03351
:10789000a5db1ee73915a5a36e519518859286cbf9
:1078a0006f6a12176d9d12c1fc41d991c0eb425b0a
:1078b000e8c1790d10f783fd0dcc5d86006c790a67
:1078c000c4891bb78b5a3dc83e34f2899f10b9d882
:1078d000cfdf257a84c640997766401aff10dde035
:1078e000f36237170af952a9aed8b85a41b6578889
:1078f000b93e4c38acd685cc3cd1b9b4ebe65ae3b2
:10790000d5db23cdc0c1c97623828ba4fc17ca2343
:10791000fca46111adcbe893f77334fff5d13f823e
:107920005695163e2bc7bc96284e45b3f8bf6cac97
:107930001f81aa3e46722dc82a59e4c9123cda8634
:10794000196b201bced49454bebc6b573282a8e571
:10795000d57cbfc748d8ec18f152c39a18130cd77e
:10796000150fbc09d2a2a617643680a766b9d30347
:10797000788bb75020cfe61e3867f997c03c2ce6cd
:10798000be9fbceb0f5e4daec9b785f7f45ff762e3
:10799000be4894f4eb7b4f859aec9991f08702d521
:1079a000bcb7e6ad89bc906df66a70e898de4ab85f
:1079b0000697d7e6f9b6c403ce4e3e87576edbcbab
:1079c000c116c0a2735019729cda9bf1931a88ea0f
:1079d000dbe3342c6619a884b3701ac7417a8bf3a1
:1079e0004d0f1f5aef7c868664b5e45d9dda411920
:1079f0003795b0da0ddaf6b4ea22cce9403ef51755
:107a0000b3e73ffeab675f571d0647448c599f3273
:107a10000b08438e8b3f81e9b1d29a46b7b3b18a46
:107a2000011662c233653b4990c21d2477eb9a4828
:107a3000b521222e6323b2be0ad974fc09855531c3
:107a400013398a068a2c1e2a63a55ccc9fc48547fd
:107a50007db42b3d91640897bc09c2074d3de4b845
:107a6000b947b0183455e20b6fb93115f8269b9b16
:107a700049380a7db2d3fabf24a6365120cb806a9a
:107a80007e1cae6113ee692edcf5cc2b32f39fa881
:107a90006c36d361d4cdf4e3893fd97caadc97a8b6
:107aa000a1e31511d3591d311a98fee71d53356e08
:107ab000aa58fd1657d52d16c28500aa9282efb29c
:107ac00043d721edb7ffab3cfb3a8e3c821b4b8585
:107ad000d77d844a8e1e02dce096f36c0a8710add7
:107ae0005718a7b7005fe8c904bf29d9ad1ef42213
:107af0005809969312aab4f6f3c65475be747ad890
:107b00002423a32949cdd25906b595d44d53222417
:107b10007febcf93a2203baeadd4e54e551e728acb
:107b2000e7ae3b5852e47264df1526a4aa2eee801d
:107b3000ad8489e5220100c1be25e72bfe4a00c1c4
:107b40001007789c1bfa41077920b74a46b1709715
:107b5000dd596faaae18464521b8522fe8b7ba5d75
:107b600043c3fd3ea0887458343acb910e741893e9
:107b7000c94a3c3574e95a132ceaabea403adf8d26
:107b800046a1c892dc0236fa2512f8590ea6cdebb2
:107b9000e3adad872281f7c992b77fdc6accf6c32b
:107ba000bd6cb794ec3a8b572814beacb104f91ee7
:107bb0005eb2c1f75fa3b5d77729d84fb60da96cd0
:107bc00045cd5d97a1e88ab41b91ed20c225aacfcf
:107bd000c5d0f3c9b70d2bf04d4e4c058c08c4939e
:107be000f94953fc3dbdabd72247ff99eb61a3f4a4
:107bf0009a10ef7cba554882307560e04c97ab859f
:107c000032e47d0c30f82685dd49f8402dee7e9774
:107c10007b65cfb68ac70566839f43770df0b39126
:107c200051ef1161efdc6114431d16b149434b5212
:107c30001fbf6a3aa8b9f4004e09e527306e56e531
:107c4000afb56d828c8f67a425bc8afb1ccac85354
:107c5000715381eaab1a5f96e6eba71eebabf5f525
:107c60005f61e24f39c643d0222deb9575d4ffa05a
:107c7000933e07c74e556bfbe57afc258e76362a78
:107c8000437364e3660c1b7bd82204273950cb3f37
:107c9000423f013f210c6338fbcf5a0e9f6882b3ed
:107ca0003e39459cc911368bddf069e05e7ab14002
:107cb000b193fe39dfed2fdedecbde72b8e5d3f80f
:107cc000c76c43b93db11fbe39ab867b85d8ac7755
:107cd00095a5d6dd828bd520b19fbbba465ab75247
:107ce000075aa322df1ef903c50ab4df9e467f0fa1
:107cf0002a112b4b68d1d397c7fec5634df36a7227
:107d0000f4794af65cb0f178b8dd619522b7786015
:107d100032377814ea8efa26fe970806587f70c923
:107d2000b92a02bec8a02da9021f18ed2b235dcfd2
:107d3000b4b5f7fb35510f850b364f0918bee3a9d3
:107d40006bcbefb91670e7628374a95dc30fc76888
:107d5000ef98727be0f23390cc4148566cd2c7bab0
:107d600058b1c0da848792d8b9fbb08ecf3374a0f3
:107d7000941a07233bd2130c92b97906dae1b8f4ce
:107d80002fea5a0fa60da5d62ef1a14c73496c0609
:107d9000fb53209e95a0c9fa39743f5c46ac4b5cfe
:107da00047e82bebf263ecdc635ef9ea2d5a218b9a
:107db00038af842d190776c91094e1525e087550ca
:107dc000d4eda5821581ce70e65682aa80573c1666
:107dd0008bc333e5ca2c04c78076446d326aa5a1f3
:107de0002d465a8e9dc9fa24ba01722558c1b6167d
:107df0009d8d18b8affefea6aee5f5e0c11d0a39af
:107e0000392ac29aa09de2ed4e4979805af36784df
:107e100096320dd0167451a3505c479e5126061819
:107e2000c1ee94444b8c7b5acbf41cd3fc702e9e39
:107e3000697da76b52fd3f39c6488c3a5def413be7
:107e40000a57bc16e918fe2224e3bffbf84c87df73
:107e50001a7c7671dbc31ec97e30232be476bbd33c
:107e6000df9b0d1341d92fcb968362c363694ea468
:107e7000412434561c9d809245ca596641e8ca7116
:107e800072727ba3343906c382d8a26c46e70457ca
:107e9000ef35c58295fdd1006ce77537784b2346e9
:107ea00016c656f4e54ffc0fe938a6a890b51e2675
:107eb0004416f7037ae0d5ecda42ae8383bd352f62
:107ec000f655ab3554948f6ede9b96bf7fd7a59643
:107ed000c8afff729beb89e8a0ece46ab641ae92b2
:107ee000631ae52105d9e61c35d53bbdc5213b719b
:107ef0002bc3c822d9ef22e92051b9ad9d1d3173a2
:107f00003beac88c088a9123c5439edf9895ae2230
:107f1000bd03af553f9a1b97d0f909bedea2fa4eba
:107f2000d4466ebe9d5f6e197561853a46d4f15197
:107f3000f91827709a7846d8fcf63d2e8bf97739d8
:107f40005048c7d4785cda6fa49bcea31f4c43aed5
:107f50006f7524f5c32d84301a4de90635d4226897
:107f6000414f7573e31d6861c780e22d65bcacf0bd
:107f7000be489b8d1df28f94e86eb4f36a8d1f8707
:107f8000c3f55faf6ee6256053ab20f3d2049dba14
:107f9000e8069a68ebee01be182ef3980e0a67aa5f
:107fa000d694a222ede06bb52060107bed0e613d12
:107fb0006d707f06417e1b8f6cd21f837a40b09b11
:107fc00055186e00244ef675663d2af9249c2c8bbc
:107fd00089284fee34584450f3bf146b5a29baa97c
:107fe00099ce5f92e039db6e0ca17cf9703f2d18c1
:107ff0002b3e78abcb7a6b10ff3b54f0220c39bb95
:108000001849e079b6001fee2f638bca7f7a586358
:10801000bc3b341f3382c06a1cfab5caae9f79c319
:108020000666477100a43a00a28e6b08407486c8a9
:1080300015bec09a08a63ad9ae193a094b93064420
:108040002b450546982bc954f37e9a1d05a20c3b7f
:10805000340f012515fa8440c317310cf68017053b
:10806000cabbaf78877c27462f8fa4150827fbee65
:108070009f8a8a04815fe6085e412f4d8d567532d6
:10808000f4bf3d55e388e5aa1bbd75a40d035ea4ae
:108090006e3bc5e62f63e8fa8082339f75a5ff8c9f
:1080a00027e91605b8cb6e04577d809f3bb84692f2
:1080b00005ddc665d516ae233a88823fc3387320e6
:1080c0001c2c070be9d13ae33489457d3bf953ff7a
:1080d000fec5d0daad4a87c37b6edb54132c7fdf3d
:1080e00066be8918c1921dc642b59b167fd27b130e
:1080f0003dccd0f18b3147e5319111a5952964280c
:108100009f6b9cc5eef7256d535100aeac0f7d24df
:10811000ed8e76a522753f6529040da2d3601cf76c
:10812000484cdb993b98fa8f5d0db844bdad0ace43
:108130005113253288429848552401fd7b7e8716cd
:1081400043211410763a116ceaa9ae9abb96f83620
:10815000f6806e1007e5be98c9bdaeb5a6abd52cae
:10816000af324ef94e091fcefb917203640358b62d
:10817000d89a042338eed3a3831b54efd8294a435b
:108180007966693c35dff325295cae1e9e0eac2b6b
:108190008d0dbaec68b1ac10177b94193726d0411d
:1081a000b62875285de54644756616f643c6df6851
:1081b000783c2b686a300ed4b287cdb5ffe39a982d
:1081c0009b6074f8a0e060d232cd91544dcacabd14
:1081d000b2c535b8fee89387c4ff7a7c65add10996
:1081e0003dafa85b15630810b2efb517b1ab6b7567
:1081f00086e71c5aa263ed4f69778cd1a3c6d7f1ed
:10820000154faf76ed353ebaf6d7559a72d97a3119
:1082100097b89e5ca90401b9fa712c7fc1baf5998f
:108220004a21c66dbcb321974634f01ea65fd146e5
:10823000b00edad35fad4201a136686ab0405e99f4
:108240001666fc2b6cb6a8322cfb24d0022997af03
:108250009d41678dec077dabef11de35ba3b5e6a61
:10826000c9a453ee0a58c320e0ae5ec1f2591823e8
:10827000aab97062da251c6d0251359ee9a424bab0
:10828000a837cf576e969bfbcf51ac128dc7fdb36d
:10829000391ff7131359f92f51b239643c32e79e55
:1082a000443b145a2db37d8f353bbd4555024910d3
:1082b000f1fe841fdc398a60a2ce0af843a3b8e835
:1082c0004d333cb114095771bf3ef1d3872b000bde
:1082d00076efcaae91ca40895dbbd9588cd91608d1
:1082e000728f957d4cdeca6a5b0e32ae9e900ae1bb
:1082f00016439e37732157cb9c9a00488b94d03eef
:108300004976990dc71412761c29d0944bf0aa53c4
:10831000668697df6fb95ecad8ec2383e17c789ad2
:108320003b278ef6081b632b1d4231de32b39405ca
:10833000d8460331c0a94948a6cb7e728d01c1b48d
:1083400071e901a97b3eb1bd4189217a8bcbd3254f
:10835000134540d40e2fc01d8bfd1a2fcf3284f34e
:10836000cdac3ad25119122842d48e8bd7f0d5b960
:108370003230a6de48f893958c82777dfadfb29b87
:10838000d4cb246077a39d0e05558b458d0d45fa02
:1083900010471ad0219249eeca25c42a4dc11211a4
:1083a0009a906afe4cf8c6ab68374fd70a8000cf68
:1083b0000b162bdd19a0a162411e242df60b5bb913
:1083c00088fe6956f6592e45f1965a71a570742e9d
:1083d0007ea3dab161f413e9ce14626dc204a9344c
:1083e00028f311397227209379a4a1615ea0992402
:1083f000bcd17b7038300345300d54ed341914e096
:1084000086e991b5547939043959af1ed8e7981cdb
:108410001fae106d1b0a46be338b738993501946ed
:1084200001331ccb6295bc32d191294f0877a37fd1
:10843000b10e3952b50ecc0efcf57c03920fac9cfc
:1084400090f3b32221497de0ca79cd8cb12a333d26
:10845000cfa13b1c05bd29ea0663834bf38b5b9ed2
:1084600006663cbaa73d4e6e0cfb6ec03bc9137648
:10847000317a8b1a50170c86130d4f51d1bede0284
:10848000f96c9f3de14ef89e8f5cbb2ae22081ade6
:10849000912e735d17f9d10fa2a9a2c76accc2139e
:1084a000d3d82a6ed5813b83b497dd5c9a26f744f6
:1084b0003fe23bddfea852f25727aeec335d4b9d09
:1084c000c5459009961b36cb3007b4f10ab6cb3cb4
:1084d000ac8989f79350f8bc24745933385681b26b
:1084e000d14de8825ebb2c8f0f6326e15c682e6362
:1084f000db5a9efb8b0ee5a6dfc9c5239ff0dd6a24
:10850000a0b55f0afedae7488d93e9534f9034ec4b
:10851000472b2361a0f15d972420212ce68a3df6ac
:1085200075cbbd6ac79d821029b6b14f72d236ade8
:10853000281cfaea3af354046df4d813a65cb1c9c6
:10854000e4d3c7975b16d475127de57512e27bc83c
:10855000b4476c1cf1dccca03a1c2fa1ef2bee0928
:1085600035dd63f99ebdacdbc9645c151781bfdfe7
:10857000264f9da2384b33eab42801c66f899cabc5
:1085800074f86bde9433dbb2b455fb115affc8a606
:108590006e3c58877ab127b2d714a5b08ed19a9481
:1085a000a2628d00fbebd5caaa532f28d1e49642d4
:1085b000365957a74f706409aa0be1040607edf17d
:1085c000e4ca18fcf6a8fda5374a64d2946cde050f
:1085d000c2f5dffb201bca56630163664d87a5fd0c
:1085e000df14946dc155c01a37802758335ad916f5
:1085f0001b7c702bf8a3772b56bb53a0e3bdc4ebb9
:10860000be214153ababaddbc6704d06129a7b90d9
:108610006f018de080ce504d260c07d526807b8dd6
:1086200043e23d33cbead606725298dd19eb7e5316
:1086300084d5747b361b14ecf0981e7c95ec3a8341
:1086400090c80bf5da43f74926174a01c26d15a009
:108650000ba43a44afb526d0b4bd16d7258bb5438d
:108660009d430d9c9045da538a185e7036820bae9e
:1086700061e8c7bcf6448672ec7a65079376600cb5
:10868000014fafd99cf26edcb41fc94c02346ed0de
:10869000a172a0e98b2562cef91e40c72b4e9a002d
:1086a000b60f1b1d240bc325467644eda020a3ec7a
:1086b000095273c4a65703ba8a4019cb57fdb92390
:1086c0008cb62c3af5416bf907efc36211d4d2c5d1
:1086d000f56d8e951d22eebc360887aa984db0a088
:1086e00024376e94e036c9b9ce166c8978f8868a3c
:1086f0000b3bb9c1530139ad9db9ada9a8e4a4267e
:108700006c26e935b672ab753a5b29c51c6898d200
:108710007de284e975b2c7925b957817039a556a32
:10872000208c24571fbf079f072bfd14b90fb328b8
:1087300068c6923b18197b3931a9b44ae588e5250a
:108740000c095191017f1d35f81a4a2992a25867e8
:10875000bd22d87f05f58817d08f152f9c3f46bbcb
:108760006dea6578cb164cd3f495cd0ddfd2fe3a89
:1087700021b9c40f7a617b0d748a7d250135e52d01
:10878000f01dff7ae503363e50b00b3c08a095552e
:108790008e1191ac37eac3494fce7b8ca21c569800
:1087a000fdba7bacd2a79aef9709e02ac98192560d
:1087b0003577d75a9553954fd583caef5d8de1a68e
:1087c00074b04a6e4b76d786abc78f4f33a6bb903b
:1087d000bd9941a886517e76dc9a68cf1c386f4fd0
:1087e000b1f388daac7af767555a0743ac5844427c
:1087f000c0e3351a9249dc220130766c655195c987
:1088000051c054d5b01fd3c12ae439be21dd981d13
:10881000ab25a0ed6b9914d2dbd6af200efb38d37d
:1088200083e20d5c6d122552ec423820fdcbadfd8c
:1088300051813efeb8ad874f28204114dba0c10214
:1088400022f0530a4e7583f53104d54723ee4fab22
:10885000c1a71388c5cb799f9ebd9dcc63f96400e9
:108860005fbf3303969996a3cf52fe2ff9f4e29f90
:10887000b3f4c45663f244ed7a61b2f4ff56f8f5ee
:1088800041d1e2ea9e7bec8d60650a6507ab270368
:108890007f0b91d31bd620f0c8281572b19efa0524
:1088a0005e1b5005ad4d30beda77c5a6217598d751
:1088b0001db5c7a354ca85c476af17aa69c3574864
:1088c0005db084ce548cb3313011680f742f9ed7b5
:1088d0002aaba08c5cd69e7df8b9c5704d2729a126
:1088e000349175c0ce92c8c55c9c71d45b0e697a18
:1088f000ab811fa5cb070f24522ef0da294d4c6215
:108900001b768b0ee2b88c8adf1fb43d5b33b1bda2
:10891000da81e95ce9c9e0e94e9137dab39f645343
:1089200022d9beb20c2a14fef6a714d7a64848dff7
:10893000a0f4419d2a30ceb2c4a27d40aeb766c835
:108940001cf2aa3d12a81fbf0b7346665954dc37b0
:10895000b03abe41bafe4d5f992d4268aa306f5db4
:1089600012e9b0b16c9900e644fa71116527c07d37
:108970006fe5e76a91c8788b34e10a97d1bf11bce3
:10898000e8dc9af52b828eecbcc40a368f9ee0247c
:108990006177a7653beff0d6349f9d8533218545f0
:1089a000c4b91acde1fd7eff59d8556fee7bb56b8a
:1089b0006445a4aaf637805e4642092690db5063e0
:1089c000bb0c1efe211a679bdf826e498417443957
:1089d000bd2bd03434b96aa1f6f5731be8cc39e667
:1089e0009689f974148fb652a67beaccdc24ebf599
:1089f000359f9d8d929aef94ba914e4899ff8c9c29
:108a0000342710c56e8dff9471208d8e8aba6e1832
:108a1000c0ce6cd682f85c9a902fbc71893b72678d
:108a2000721b9303c4967574da8b5b700f3943f134
:108a300070c9b15a7a9bae4f74d26262a49e998d6e
:108a4000581abd8eb2234dfffaa4486ab35abf89a3
:108a5000d723eb8539c371f02d4f884345483f63d9
:108a6000ad2cdcd0971bb7281e63503fe0f38b6f13
:108a700017b46a99f64147a449374e49f5aefa5101
:108a8000d6085fca73fdf2835242e6c4df760fcf89
:108a900054ff54db501d8b971ace9021b31d77d90c
:108aa000342abfcb26ad08d57c27b89e575c7c1fe7
:108ab0001d958061bc3c62e4c6c8fb890fbc9e4921
:108ac0008912e46d0bc598ae500d12d093fed421df
:108ad0003c9b59c4d63bc84fe26eb8b96fe3708671
:108ae0002f6d9299df102d9437697f71b114981c06
:108af0001b7af1dbfa062642716e426177d2e25ba5
:108b00007efb1c0c7454d020d7d80bd44295c624bd
:108b100047046c36d40f6fd66e8e287a43e13367e4
:108b2000ab082622b8c995d035040d4c7b3aceeb64
:108b3000633099a6bda0dd8ecc87efa25c1a1da77d
:108b4000ed1de2e9c14d967ab9b55394ba41cffe15
:108b5000315ea212f875a8f3f3eb44515130714223
:108b60004e7725fe3cea158f5ec8735ce3e047490b
