:10000000000001209544000091440000914400004C
:10001000914400009144000091440000914400008C
:10002000914400009144000091440000914400007C
:10003000914400009144000091440000914400006C
:1000400091440000C99000009144000091440000D8
:10005000118A000035910000D5900000ED9000005D
:10006000CD900000914400009144000091440000B4
:10007000914400009144000091440000914400002C
:10008000914400009144000091440000914400001C
:10009000914400009144000091440000914400000C
:1000A00091440000914400009144000091440000FC
:1000B00039910000D19000003D7A00009144000089
:1000C0007991000091440000055C0000914400001B
:1000D00091440000914400009144000091440000CC
:1000E00091440000914400009144000091440000BC
:1000F00091440000914400009144000010B5054C6B
:10010000237833B9044B13B10448AFF300800123C3
:10011000237010BDB80000200000000004C00000E3
:1001200008B5034B1BB103490348AFF3008008BD7A
:1001300000000000BC00002004C00000154B002B94
:1001400008BF134B9D46A3F5803A00218B460F460E
:100150001348144A121A09F0F8FD0F4B002B00D077
:1001600098470E4B002B00D0984700200021040038
:100170000D000D48002802D00C48AFF3008009F0B4
:10018000B5FD2000290003F017FB09F09BFD00BF1F
:100190000000080000000120000000000000000036
:1001A000B80000204C1D00200000000000000000EE
:1001B00037B50446684680E8060003C8251D85E873
:1001C00005002373069B2361BDF81C30A382002326
:1001D0002360084B1A6812B91C6004E00A461168D3
:1001E0000029FBD114609888013080B2988003B058
:1001F00030BD00BFD406002007B503790193054A3E
:100200000368009306CA02230830FFF7D1FF03B04A
:100210005DF804FBF89F000070B5134C2268A2F152
:100220007E63A3F58433B3F5605FE0B005460E4608
:1002300017D2126BA2F17E63A3F58433B3F5605F2E
:100240000FD2536A69464FF4C0720020984730B904
:1002500023681B6B3246DB6A29466846984760B0C4
:1002600070BD4FF40170FAE72808E10F0F4A10B48F
:100270001468A4F17E62A2F58432B2F5605F0B4689
:100280000FD2246BA4F17E62A2F58432B2F5605FD6
:1002900007D22469064A0146A44600205DF8044BB3
:1002A00060474FF481705DF8044B70472808E10FF8
:1002B0001C07002070B51C4D2A68A2F17E63A3F5CF
:1002C0008433B3F5605FE0B004D34FF4017420468B
:1002D00060B070BD136B002BF7D05B6A4FF4C07237
:1002E00069460020984704460028F0D140F20126D4
:1002F0002A68A2F17E63A3F58433B3F5605FE4D28C
:10030000126BA2F17E63A3F58433B3F5605FDCD298
:10031000936A002168469847B042E9D040F203232F
:10032000984218BF0446D2E72808E10F154B02286F
:10033000D3F8803113D0032814D0012814BFDBB2C6
:10034000C3F307231B0323F47042B1B9BAB90E49B2
:10035000CA6E22F470421343CB6601207047C3F388
:100360000743EFE71B0EEDE70749D1F8E02022F441
:1003700070421343C1F8E030EFE7002AF4D00020C8
:10038000704700BFB081E00F00300E40304B1A6F55
:10039000D96CC90702F0070242D5012A40D91328B7
:1003A00051D9143813288CBF102308232849013B46
:1003B000CA6C180322F47F4240EA03231343CB6440
:1003C000244BCA6C1B88C2F303222833013202EB90
:1003D000820003EB5303B3FBF0F3C86C013B072B24
:1003E00020F0EE6028BF072340F4801040EA03634A
:1003F000CB64194BB3F90030002B10DB28335008C5
:1004000000EB420203EB5303B3FBF2F30A6D072B3D
:1004100028BF072322F0700242EA03130B657047DE
:10042000DB6CD90706D4012A04D809280BD90A386D
:100430000928B8E7064BDB6C13F00103B6D0012A9C
:1004400003D82728AFE70423B0E70023AEE700BFB7
:1004500000300E40EA060020EC06002042EA0323AA
:1004600040F2011293422BD0B3F5817F08D2012BC9
:100470001DD030D3B3F5807F31D0002213461CE06D
:1004800040F20122934222D006D8B3F5007FF4D186
:10049000174BD3F870310DE0B3F5407F23D040F215
:1004A00001329342E9D1124BD3F878310BE0104B73
:1004B000D3F87431C3F30722DBB203600A607047DC
:1004C0000B4BD3F874311A0EC3F30743F5E7084B0F
:1004D000D3F87831EEE7064BD3F86C31EAE7044BFA
:1004E000D3F86C31EFE7024BD3F87031EBE700BF84
:1004F000B081E00F044A1368002BFCD1034B58680D
:10050000C0F30140704700BFC800C64300300E4032
:100510000E4B30B50E4C5B68C9B2002304EBC3022E
:1005200015798D4203D154F8335085420BD20133F3
:10053000052BF3D1032205494B6823F0407343EAAE
:1005400002634B6030BD5279F5E700BF00000E40FA
:10055000E89E000038B5054C41F67133256C2364E4
:10056000FFF7D6FF0DB10023236438BD00000E4015
:100570000C4B984210D90C4B984210D902220123FF
:100580000A490B600A49D1F8003123F0807343EA2D
:100590000263C1F80031704700221346F0E70122E0
:1005A000FBE700BF0048E8010090D0034000C843CB
:1005B00000400E40202A0B681EBF4FF0FF319140D3
:1005C0008B43590801F055315B1A03F033319B0816
:1005D00003F033330B44017803EB13130A4403F0A5
:1005E0000F334FF001314B43A2EB1363037070479D
:1005F00073B502AD002605F8016D0446011D1B22EE
:100600002846FFF7D7FF60689DF80730B3EBD06F3F
:1006100003D120F0784002B070BD28461B2204F1BF
:1006200008018DF80760FFF7C5FFA0689DF8073047
:10063000B3EBD06F01D1C043EBE74FF0FF30EAE7F7
:1006400003684BF29A22B2EB134F10B5044611D156
:100650009BB2012B0ED1FFF7CBFF431C0AD0E06801
:100660004FF6FF72030C93420AD180B2C01A18BF32
:10067000012010BD236801330CBF03200420F8E7DC
:100680000220F6E737B501F10C040546436901A9DC
:1006900001222046984702A9BDF8043041F8083DE0
:1006A0000122AB692046984703B030BD2DE9F043E5
:1006B000054689B09946036908460E46174698478D
:1006C000044600286CD1D9F804304FEA53285FEA79
:1006D000580804F101036BD199F8032099F802300E
:1006E0008DF804801203DB0203F4006302F48052ED
:1006F0001A43B9F800306403C3F30A03134404F443
:1007000060441C442C4B03931B2227F0784302A91E
:1007100001A80293FFF74EFF9DF80420029B08A852
:10072000FF4343EAC26300F81D8D1B2201A927F095
:10073000784704930197FFF73DFF9DF80320019B45
:1007400043EAC2639DF84020059382F0010202F55E
:100750007F4208A9FE3244EA02444FF0FF3341F8D9
:10076000044D06930122AB6906F110009847AB696E
:100770000446012205A906F108009847AB69002844
:1007800018BF0446012204A9301D9847AB69002810
:1007900018BF0446012203A93046984750B91CB13E
:1007A00031462846FFF76EFF204609B0BDE8F083CA
:1007B0001C468CE70446F3E701009AB2036803F095
:1007C0007F03012B03D8406820F07C407047072B43
:1007D0008CBFD81F002070472D4B41F67132196C29
:1007E00070B51A642B4A556852689A6842F0010243
:1007F0009A6001221861DA60DA69520789B2044608
:1008000008D59A6822F001029A6009B100221A64A0
:10081000214811E00222214DDA601A46DE69F6070E
:1008200000D555B9D36913F002030BD0936823F0B8
:100830000103936019B91A4870BD013DEEE700232A
:100840001364F8E73DB9936823F00103936000292E
:10085000F1D01564EFE7956825F00105956001B1C9
:100860001364104B5B6B1B0E0A3303F01F03012252
:1008700002FA03F323F003031844A04201D100203D
:10088000DAE754F8043B0133F7D00748D4E700BF58
:1008900000000E4000300E4021E000F080969800ED
:1008A00024E000F0B081E00F0EE000F010B500236E
:1008B0009A4201D1002010BD50F8234041F8234056
:1008C0000133F5E770470000034B9A6822F00102FC
:1008D0009A6000221A64704700000E40064B5A6866
:1008E0005B68064B41F671321A649A6822F0010285
:1008F0009A600020704700BF00300E4000000E409C
:10090000F0B58E464168002939D0076800243E467C
:1009100057F83450C5F3130C013504F1010401D02C
:10092000E64537D08C4206F10806F1D1396801312D
:1009300028D007F10806002503E057F835100131EB
:1009400021D00135A542B44606F10806F5D1032BA6
:1009500015D007683968C1F30751032912D007F190
:100960000806002405E057F83410C1F307510329A5
:1009700009D00134A542B44606F10806F3D101239B
:100980000372F0BDBC46CEF3130E4EEA0353CCE91E
:100990000032F0BD4EEA0353C6E90032F0BD30B577
:1009A000446800234FF0FF329C4202D100230372BF
:1009B00030BD016801EBC30541F833206A600133A3
:1009C000F2E70000EFF3108272B6034B1A6003687F
:1009D0000846DB68184700BF700F002070B500257F
:1009E00086B004460562E369AB4202D8206A06B0CD
:1009F00070BD666C2068E36B05225B6901A906FB8C
:100A00000500984701A8FFF71BFE01289EBF236A37
:100A1000013323620135E6E7F7B507460E460D467A
:100A20007B6C86EA05045B421C40A5EB060001D006
:100A300003B0F0BDFB6B01225B6901A92846984712
:100A4000019B013301D10435EAE72046F0E7F0B518
:100A5000002587B004462E46E369B34202D82846F3
:100A600007B0F0BD2368676C07FB0637E36B052210
:100A70005B6901A93846984701A8FFF7E1FD012805
:100A800009D807F114012046FFF7C6FF636C143B39
:100A9000834208BF01350136DEE7F0B5046887B050
:100AA000064600250C1B416CB4FBF1F4F369306879
:100AB000776C5A1E954206D3716C306801FB0400B6
:100AC000143007B0F0BD0134B4FBF3F103FB114463
:100AD000F36B05225B6901A907FB0400984701A895
:100AE000FFF7AEFD0128E7D90135DFE72DE9F04F2B
:100AF00014469946C36B89B007460E465B69606829
:100B0000DDF84880012205A99847FB6B01225B694B
:100B100004A930469847059B5A1C06D10020A075B1
:100B20006075A36009B0BDE8F08F0121A175217E39
:100B3000049A04EBC1014FF0000ECE61A1F820E051
:100B4000606802F07F05B042C2F3D31CE9B20CD159
:100B50004FF0FF33C4F800C02175A360237D043B30
:100B6000022B21D80020A075DCE720686045207D9D
:100B700018BF84F816E0884218BF002003F07F03F6
:100B800018BFA075012B8CBF0020012001298CBF4C
:100B90000021012188421CBF0021A175012D00F216
:100BA000D180012BDAD9D0E002F07F02012A0FD8E0
:100BB000FB6B02225B6906A93046984706A8FFF73F
:100BC000FDFD237D032B68D8DFE803F06262040992
:100BD00004A8F4E7227E04EBC202CC211184684A07
:100BE000D35C049D88F80030237E05F07F02012A43
:100BF00004EBC30394BFC5F3C1650025012A83F844
:100C00002250B3F820A000F2A380FB6B02225B69A4
:100C100006A90DF1200B3046984700230BF8113D33
:100C2000202206A95846FFF7C5FC1A2207A9FFF79C
:100C3000C1FC9DF80F30079AB3EB926F0CBF0123F4
:100C4000002363750822637D03B9A375A37D9BB15F
:100C5000BAF1000F15D07B6CB018594286EA000C2F
:100C60001CEA010F1CBF0021A175591E01405B1A2F
:100C70009A4584BF0023A37594F816B0BBF1000F0A
:100C800030D095B9E37D002B75D14FF0000B16E005
:100C9000227E04EBC2021084A1E7227E04EBC20292
:100CA000062B10849BD901239BE794F819B00123EC
:100CB000E375BBF1000F24D19D4228D165762AF05F
:100CC0000300304410441AF0030F7B6C18BF04304B
:100CD0005B4286EA0002134203D031463846FFF7F2
:100CE000DCFEA060A27D12B1236953442361237E00
:100CF000012B0ED801332376B9F1000F0CD1A07D62
:100D000010E7012D37D0032D08BFA376BDE79B4622
:100D1000D5E70023A375F2E7002AF0D0E37D002B8E
:100D2000EDD0BBF1000FEAD1032DE8D0A1684B1C38
:100D3000E5D0CDF80080012322463846FFF7D6FEE5
:100D4000A075DCE7012B3FF609AF0023A37505E78B
:100D500000231B2204A906A88DF81830FFF72AFCEF
:100D60009DF81830049AB3EBD26F0CBF0123002317
:100D70006375042267E7A27D4FF0010BB4E700BF63
:100D8000F29D000013B50C460021217600936168A6
:100D900013462246FFF7AAFE18B1E37D03B1A07EF9
:100DA000A075A07D02B010BDF0B5054687B0002645
:100DB000EC69013CB44203D80C46204607B0F0BDB4
:100DC00001B14C1E6F6C2868EB6B05225B6901A9B1
:100DD00007FB0400984701A8FFF732FC0128ECD973
:100DE00001362146E4E7F0B50446466CE36B006843
:100DF0005B6987B00D46052201A906FB05009847EF
:100E000001A8FFF71DFC012804D801A8FFF7F0FB9B
:100E100007B0F0BD29462046FFF7C6FF676CE36BBD
:100E2000064620685B69052201A907FB0600984772
:100E300001A8FFF7DDFB431CEAD0B54238BF013003
:100E4000E6E74369416C80691439DA1DB2FBF1F2BF
:100E5000013203EBC202043000EB4200DA1CB2FBA9
:100E6000F1F203EBC2030333B3FBF1F3023301FBF3
:100E700003007047094B30B5196C5C6C00222346A7
:100E800042EA0104220C82701A0A210AC2701A0C6A
:100E90001B0E047041700271437130BDB081E00FD0
:100EA000214BD3F8F82102401CD170B4D3F8FC5187
:100EB000D3F8006203F5FC74641BA410022C12D05A
:100EC000032C29D0012C1AD0184A52682A6005F147
:100ED0000C026860C3F8FC21A96033680C333360EE
:100EE00070BC70477047114A1C1D52682A606860C8
:100EF00004221960C3F8FC41326070BC70470B4C8F
:100F00001A4664682C6042F8080B08205960C3F840
:100F1000FC21306070BC7047044C6468A960C5E96E
:100F20000040C3F8FC31E7E7E8160020001000E0BD
:100F3000837DDB0701D5808A7047D0E901239B1AA6
:100F400044BF828A9B1898B270470000044B5A6DC8
:100F500022B95865A3F85810012070470020704747
:100F600074060020D0B50C4CE38C0A20584308F0DE
:100F70000DFC0646A08C0F4608F008FC0022074B2B
:100F800008F06EFC02460B463046394608F092FDEA
:100F900008F078FE2083D0BD740600200000F43FE6
:100FA000084A10B5146840F2E243584303FB01417C
:100FB000536800F5807001EB5001184411605060D7
:100FC00010BD00BF7406002070B500228AB0134621
:100FD000D91003F00704415C2141CC0741BF0AA9A5
:100FE0008918013201F8283C0133252BF0D10E4D30
:100FF0000023D91003F00704415C2141C90707D53C
:10100000E91881F82A300133252BF2D10AB070BDDE
:101010000AAE93FBF2F102FB11313144EC1811F8E6
:10102000286C84F82A60EEE774060020024B986C66
:1010300080B28002704700BFB081E00F0C4B10B54A
:101040000C4CE41A0C4B1C4424F4FF6424F00704F9
:10105000FFF7ECFFA04202D80024204610BD204636
:10106000FFF7EEFA0128F8D904F50064F0E700BFB5
:1010700010000020B80000204FC800007FB50E4BC4
:1010800002466D4603F11006186859682C4603C4E1
:101090000833B3422546F7D1531E04A90F3211F885
:1010A000014D13F8010F844204D19342F7D101207E
:1010B00004B070BD0020FBE7C49D000070B51A4D60
:1010C000286810BB194B1A4CE41A1A4B1C4424F420
:1010D000FF6424F00704FFF7A9FF844214D2666B73
:1010E000A6B1FFF7A3FF864210D2FFF79FFF06F1DC
:1010F000400383420AD83046FFF7C0FF30B1F3699E
:1011000033F0080302D02C60286870BD04F1FC069F
:101110003046FFF7B3FF20B1D4F8183133F008039D
:10112000F1D104F50064D6E734010020100000205E
:10113000B80000204FC80000BFF34F8F0549064B91
:10114000CA6802F4E0621343CB60BFF34F8F00BF65
:10115000FDE700BF00ED00E00400FA050A4B1A6845
:10116000A2F17E63A3F58433B3F5605F09D2126BFD
:10117000A2F17E63A3F58433B3F5605F01D2D36B34
:10118000184740F2011070472808E10F0D4B10B4CA
:101190001C68A4F17E63A3F58433B3F5605F0BD2C2
:1011A000246BA4F17E63A3F58433B3F5605F03D2AF
:1011B000A36B5DF8044B184740F201105DF8044B37
:1011C000704700BF2808E10F064B1A68A2F17E6342
:1011D000A3F58433B3F5605F01D2536A184700204A
:1011E000704700BF2808E10F114B196801F17043E7
:1011F00003F5F813B3F5006F0CD20E4B1B68A3F187
:101200007E62A2F58432B2F5605F03D209680A4AB1
:10121000914203D000230370836070471968074A26
:101220009142F7D1012202709A6842609B69F3E70C
:101230002800E10F2808E10FAD1007B007B0CD5E20
:1012400010B50C4630B90448FFF7CEFF034B2360BE
:101250000423A380002010BD9001002094010020F1
:1012600010B508B3114B1A68918881421CD3998834
:10127000814281BF0121126899809A6099889A6899
:1012800000242AB904B19A604FF6FF71998009E0F1
:10129000884204D00131126889B20124F1E70CB10F
:1012A00098809A60104610BD0022FBE7DC06002003
:1012B00037B50D461446FFF7D3FFD8B10369828ACC
:1012C00063B14FF6FE718A4208D100200090ADF85C
:1012D00004006946984738B103B030BD2B602280C6
:1012E000286848B92080F7E7009B2B60BDF80430E0
:1012F0002380F5E70120EFE70020EDE737B50D4645
:101300001446FFF7ADFF70B1036973B1818A4FF6E0
:10131000FE72914209D10095ADF804406946012062
:10132000984703B030BD0120FBE70E20F9E700002D
:1013300037B50379124A03330446019300F144039D
:10134000009306CA02231430FEF732FF228A01926C
:10135000E268237A009204F12C0094E80600FEF77C
:1013600027FF237AA4F84500054684F84430227903
:10137000216804F1470008F0DDFC284603B030BDC9
:10138000F09F000070B50E4C0E4B04F110020646A3
:101390000D4692E80300183483E803001846FEF770
:1013A0002BFF094B94E8030002221A7283E8030022
:1013B000DE601D821846BDE87040FFF7B9BF00BF70
:1013C000C49D000084160020BC0400202DE9F041DB
:1013D000054616468846FFF7ABFDAB8A181A80B261
:1013E000864228BF064637465FB93EB1D5E901328D
:1013F0009A4202BFAB7D43F00103AB753046BDE8B6
:10140000F081AB8A2C68A8681C44241AA3B2BB42A2
:101410008CBF3C46A4B22246414608F08BFCAB6828
:101420002968AA8A23440A44A0449342A7EB0404EF
:10143000AB60A7B228BFA960D6E770B504461546D1
:101440001E4611B3FFF774FDA38A181A80B2012853
:1014500029D9E37D63B1E368628A1A70120A07D062
:101460002068A18A013301448B4228BF0346F4E778
:1014700000236382A368E360022204F11201204684
:10148000FFF7A4FFE37D0133E3753246294620468A
:10149000FFF79CFF638A03446382E37D13B9238AC9
:1014A0000344238270BD0020FCE72DE9F04116467D
:1014B00005468846FFF73CFD864228BF0646B6B281
:1014C00037464FB92EB1AB7DDA0744BF23F0010395
:1014D000AB753046BDE8F081AB8A2C6869681C4466
:1014E000641AA3B2BB428CBF3C46A4B2224640461B
:1014F00008F020FC6B682968AA8A23440A44A044A7
:101500009342A7EB04046B60A7B228BF6960D8E7D9
:1015100070B51E46038A04461546EBB9C27DDAB1A2
:101520000123013A0B70C27500F110010222FFF78E
:10153000BCFFE37D9BB1228AB24228BF32462946D6
:101540002046FFF7B2FF238A1B1A2382E37D13B9DB
:10155000638A1B1A638270BD00230B70EBE7638AFA
:101560002382E8E770B50E46B0B9FFF7A7FD044641
:10157000FFF7A4FD60B1094D04F1FC0304F59E746E
:10158000186859682A4603C20833A3421546F7D1A2
:10159000034B33600423B380002070BD380100206A
:1015A0005801002038B5202204460D460C30002199
:1015B00008F0CBFB00234FF0FF32C4E90025A375F0
:1015C000A260E3756376A376237638BD2DE9F04FEC
:1015D0000E468BB0044600254FF0FF311046C6F38F
:1015E000130917469A468DF81350FFF7DBFF4E4557
:1015F0006BD1E1682B468B420DD0A26802EBC30091
:1016000052F83320551C0DD0C2F31302914509D175
:1016100041684D1C08D1237C002B58D147480BB0A2
:10162000BDE8F08F0133E6E73846FFF7BBFF0DF169
:101630001303012239462046FFF7A4FB0028EAD015
:101640009DF813308AF800300020E8E72368ED1A8F
:10165000636CB5FBF3F542E04046FFF7A3FF0DF1E5
:101660001303029A41462046FFF78CFB8646D8B109
:10167000B11C03D0D8F80030B34215D1304A9DF8E0
:1016800013308AF8003002F1280B3B469446BCE840
:101690000300DC4518605960624603F10803F5D188
:1016A000DCF800001860F346D8F8081032E0BBF10F
:1016B000000FB3D04E45C7D19AF800307A68314652
:1016C00004F10800FFF71CF9BEE7B31CA3D1E56ADB
:1016D000681CBBD1616A2046FFF766FB0546B31C58
:1016E00018BF0123DFF858800293636A626C03938A
:1016F000236802FB053BE36B05A95B69052258469D
:10170000984705A8FEF79CFF0BF1140301931946B7
:101710004FF0000B4A1C05D0636C019A5B424A40B3
:10172000134299D029462046FFF73EFB039BAB426C
:10173000BDD0BBF1000FBDD10546D6E70BE000F0F0
:10174000901000202DE9F04F4FF0FF33002589461F
:1017500000F108064FF6FF7189B00446C0E909138D
:10176000C362056205633046FFF719F92046FFF7AB
:1017700035F900285ED1D4F824804FF6FF7BD84598
:1017800014BF454600250027E3699F4255D32046F4
:10179000FFF724F9002836D1B84D2046FFF757F956
:1017A0002DE12368E26B606C576903A9052200FBF9
:1017B0000530B84703A8FEF743FF0128074603D0CA
:1017C000C31EDBB2012B15D829462046FFF70BFBC1
:1017D000012F2168676C94F850300093024608BFCF
:1017E0000132434607FB0511E06BFEF75FFF204621
:1017F000FFF7F4F80135E3699D42D2D32046FFF7A5
:10180000EDF80028B7D000254FF6FF73C4E9085360
:101810004FF0FF38C1462F46E3699F4241D3A5EB05
:101820000805012D61D8636A4FF6FF72934271D1AA
:10183000934DB2E704F14008DDE7636CE26B20688A
:10184000D2F814C003A9052203FB0500E04703A852
:10185000FEF7F6FE022812D0D84518D109F1010290
:10186000606C216894F85030009300FB051104F17E
:101870004003E06BFEF71AFF2046FFF7AFF8E3697D
:1018800001350137B5FBF3F203FB12557CE729461E
:101890002046FFF7A8FAB0F1FF3F08BF4846421CB8
:1018A000DEE7636CE26B2068D2F814C003A905225E
:1018B00003FB0700E04703A8FEF7C2FE824603A829
:1018C000FEF796FEBAF1010F0DD84845236A38BFDE
:1018D0006762804503F1010328BF80468542236289
:1018E00038BF05468146013796E74FF6FF736362BE
:1018F0000025E3699D4296D2676C2068E36B052260
:101900005B6903A907FB0500984703A8FEF770FE73
:101910000135EEE7E26B676C2068556903A9052283
:1019200007FB0300A84703A8FEF762FE616C22686C
:10193000636A544D01FB03231433A3624FF0FF335A
:10194000E3622A460DF10B036FF001012046FFF719
:101950003DFE002857D1AB68E362E56A2046294680
:10196000FFF75AF8206320B9E16A2046FFF795F89F
:10197000E06229462046FFF790F80546A36A9D429B
:1019800043D16369656C2046A5F11402DD1CB5FBEB
:10199000F2F503EBC5050335B5FBF2F5FFF757F894
:1019A000AB1C9842814642D2616A2046FFF7FCF99F
:1019B00003358046012604F1400A731E994515D867
:1019C0002368676C07FB0837E36B05225B6903A993
:1019D0003846984703A8FEF70BFE94F85030009362
:1019E000024653463946E06BFEF760FE414620460C
:1019F000FFF7DAF90136B5428046DED1224D28469E
:101A000009B0BDE8F08FA36AA6E729462046FFF794
:101A100003F8236B03442946074623632046FFF758
:101A20003CF80546002FA9D1C4E90B07A6E73046CC
:101A3000FEF7B5FF154DA16AE36A994201D04B1C30
:101A400001D10025A9E62846FFF7ACFD0DF10B03F7
:101A5000012229462046FFF795F930B19DF80B3059
:101A6000D5E900123046FEF74BFFA9684A1CE3D1C6
:101A700069682046FFF711F80146DDE703E000F052
:101A800016E000F06410002013E000F0BC1000200D
:101A90002DE9F74F930001933D4B019A1F6C41F6DE
:101AA00071341C643B4C656864689C6844F00104B4
:101AB000BFB29C604FEA920E8C4600264FF00108A0
:101AC0004FF00809B64501D8002327E0324C00EB5F
:101AD0008605D3F81CA01AF0010F05D014B96FF0D9
:101AE00002031BE0013CF4E7002CF8D01D61C3F8B1
:101AF0000C80DC6914F004040ED1C5F30A05C5F5A9
:101B00000065AD08AEEB060A554528BF5546E5B958
:101B10002E440CEB850CD5E74FF0FF331C4CA56829
:101B200025F00105A5600FB1002525645A1C22D0BF
:101B30002BB31A4820E0BAF1000FD0D0D3F81CA084
:101B40001AF0020F14D1AC42E2D05CF82420DFF886
:101B500048A09A610134C3F80C90D3F81CB01BF074
:101B6000010FE8D0BAF1000FB9D00AF1FF3AF4E75B
:101B70006FF00103D2E70A4803B0BDE8F08F019A85
:101B800008F0EBF80028074808BF0020F4E700BF82
:101B900000000E4000300E408096980024E000F0D7
:101BA00021E000F010E000F02DE9F04385B0884618
:101BB0006946044681E80C000C9EBDF83470FFF7BE
:101BC0004FFB4FF6FE7905460DB1444505D94FF65A
:101BD000FF74204605B0BDE8F0832B7A9DF8042001
:101BE0009A421ED10099686808F0B7F8C8B9002E6B
:101BF000EFD02B69AA8AA3B14A4509D10290ADF86A
:101C00000C0002A9984760B9029BBDF80C2043B1B3
:101C1000974206D13A461946304608F09EF8002809
:101C2000D7D001342D68A4B2CEE70000F0B5354C12
:101C300085B011464FF486701F461646FFF730F9FF
:101C4000236925462BB94FF48370FFF729F905B0B6
:101C5000F0BD002F08BF082E21D16A46022120685E
:101C600002F00CFF636860615B7A23769DF80030B8
:101C7000DA1F53425341627E63F30002029BE36129
:101C8000BDF802306276638304F1180123690220F3
:101C9000984701220021206802F0F8FED7E7002FC4
:101CA00008BFB6F5001F03D1002101209847CEE7F9
:101CB00006F4C0520023134309D04FF480714FF44F
:101CC0008170FFF7EDF8236900210320EEE706F4A9
:101CD00040720023134308D001214FF48170FFF7B5
:101CE000DFF82B690021FF20E0E706F020620023E7
:101CF000134319BF012140F2011031464FF48370A4
:101D0000EDE700BFF01400207FB502238DF80C3002
:101D1000064B5A8B596918680332029201AA02F0E5
:101D2000B1FE019807B05DF804FB00BFF01400207D
:101D300008B500214FF48570FFF7B2F8044B00227C
:101D40001A61186801220321BDE8084002F03CBC7A
:101D5000F014002013B50D4B0D4C1B88ADF804306A
:101D60000128ADF8003004BF02238DF8043001A92A
:101D700008BF0423206808BF8DF8003002F0E0FDA2
:101D80006946206802F0FCFD02B010BDE49D000031
:101D9000F014002037B5124C437A606000220092A4
:101DA000D0E90021206802F0F2FE238CDB050CD57F
:101DB00063680C4D1A7A2978914206D0012A06D020
:101DC000022A08D063681B7A2B7003B030BD2068EC
:101DD00002F0A3FEF6E7206802F0B2FEF2E700BFD1
:101DE000F0140020D10600207FB51A4C1948637A00
:101DF0000133DBB2272B88BF25236372FFF7CAFFAD
:101E0000257B627C144C154920684FF40073023224
:101E100002F014FE6368124A5B7A05F00105284659
:101E2000D65CFFF797FF42F21073002202930092F4
:101E300001238DF80C30314602AB206802F0C8FB5C
:101E400028B1FFF775FFFFF7CFFF04B070BD054B5A
:101E50002361FAE7D4000020F0140020E400002001
:101E6000C59F00002D2A000038B50D4611462C688C
:101E7000A41A2246014407F07FFF2C6038BD000001
:101E80002DE9F84F9146514C514A524E524F33680A
:101E9000A41A524A144424F4FF64C51A24F0070417
:101EA000A54288463D6073D34B4403EB050AFFF718
:101EB000C5F808B9FFF7BAF8824569D8306800EB71
:101EC0000904B4F5806F03D9454B82221A705DE096
:101ED000DFF824B141464A46584407F02BFF414BF6
:101EE0003460D3F800A09846BAF1000F1DD1B4F5C4
:101EF000867F4BD33C4A0BF1FC030BF5867B53F8F2
:101F0000041B42F8041B5B45F9D13748FFF7B6F8CC
:101F100010B9334B8422D9E71022FF21334807F050
:101F200014FF334A05F1FC03136004F00309314840
:101F30002C44A4EB09040440BAF1000F0BD1284053
:101F4000C0F500612144FFF709F9C8F8004048B125
:101F5000234B8522BAE7A24504D2A4EB0A010AF575
:101F60000060F0E7326824493868A2EB0902FFF705
:101F70000DF932683B681749A2EB09020446134485
:101F80001D483B60FFF770FF002CE1D1BDE8F88FE2
:101F90001A4B5B68B3F1827F114B12D21A7841461B
:101FA000C1440020894502D10028EFD08EE711F806
:101FB000016BFF2EF6D00120A54234BF8722832279
:101FC000F0E7A54234BF872283227FE7B8000020D4
:101FD00010000020E8140020240B00204FC800004F
:101FE000210B0020EC140020980F0020E4110020A9
:101FF000A80F002000F8FFFFE81000209C0100203F
:10200000EFF3108072B670470048704700F0490245
:102010000B4A536911699B0003F03C03C1F3811122
:102020000B438370136903F03F0343709369D269D4
:1020300003F0F003C2F3031213430370704700BFB1
:10204000D0FF0FE037B5044601A8FFF7E1FF9DF888
:1020500006300B4A238040F201136380536B1B0E42
:102060000A33012103F01F0301FA03F36360156CC7
:10207000536C002040EA0502C4E9022303B030BDDE
:10208000B081E00F054A064B1B68136F23F007036E
:102090001843044B10671888FEF778B900300E40DB
:1020A0008009C643E8060020EFF3108072B670473F
:1020B00000B962B67047000010B5034CA01DFEF7D2
:1020C00083FF0023236010BD780F002010B5094C5A
:1020D000B4F80710A079FEF763FFA368064AB4F8C6
:1020E0000D10D184C3F30F239384FEF73BFF00232D
:1020F000236010BD780F002074060020034B044AB3
:102100009979117500221A60704700BF780F00207E
:1021100074060020FFF7CCBF08B5C36800209847BD
:10212000024B1868BDE80840FFF7C2BF700F0020DF
:102130002DE9F04FB84F89B03B78039206468946A7
:1021400003F0FF0B002B35D1FEF778FF8246FEF738
:102150006DFFBAF1000F00F01181B04BD3F8008091
:10216000C3F800B0AE4B93F83410A0EB0A051C4640
:1021700000297FD01A68924540F000815A68954244
:1021800040F0FC809968A74A914240F0F780DA68F5
:10219000062A40F0F380596940F26C72914240F097
:1021A000ED80D96BA04A914240F0E880C3F818B0A6
:1021B00001233B709A4D95F83430002B00F0DE80FF
:1021C00046F48028994E012105F13C00FEF7FAFB08
:1021D00006AB324641462846FFF7F8F90446002888
:1021E00040F0D3809DF81830032B00F0CE80022BF6
:1021F00000F0CE803769E86BFFF78EFF002C40F0CF
:10220000BD80039B1B78BB42C0F0B88095F834308A
:102210000293002B00F0B28001218548FEF7D2FB2B
:102220000DF11303814A7E484146FFF7CFF904467A
:1022300098B99DF81330012B40F018813369BB42E7
:10224000C0F00E81D6F804B0DFF8D4A10097009A50
:10225000DAF83C30002A40F09D80714BD86BFFF7D4
:102260005BFF002C40F08A80039B1F70029809B02E
:10227000BDE8F08F482203F11000D3F838B007F022
:1022800064FD40F26C736361664BA3600623E360F8
:1022900004F10800C4F838B0C4E900A5FEF77FFBDC
:1022A000614BE36304F14000FFF7CCFE00286AD1E4
:1022B000626C002A67D06368B3FBF2F3E36194F8C1
:1022C0004330002B5AD0656C002384F85030002D29
:1022D00054D0E369002B51D02268B2FBF5F305FB23
:1022E0001323002B4AD1D4F804A0BAFBF5F305FB65
:1022F00013A3002B42D14A48FEF7A3FD82453DD3EC
:10230000636940F63472CC3B934237D8B5F5007F11
:1023100034D303214648FEF755FBE36BD4E90001B3
:102320001B689847E36B0546DB6802209847D5B9E0
:1023300041463B48FFF706FA3E4B9842054604D11A
:1023400041463748FFF7FEF9054665B9636C3448E6
:10235000A3F11408236A03FB08F8FEF772FD364B5D
:10236000804538BF1D46B5FA85F35B09E06B84F8FC
:102370003430FFF7D1FE002D3FF41AAF039A00234B
:102380001370029372E7002398E700272B4C32E783
:10239000042730E75B69012205A95846984723497D
:1023A000059B0968C3F3D31291425BD103F07F030D
:1023B000012B45D905A8FEF701FA4FF0040806469F
:1023C000009B9E4250D8B208D84447D0EB6B494698
:1023D0005B694046984726F0030306F0030201922A
:1023E00098449944019B6BB1DAF83C3001225B6957
:1023F00006A9404698474846019A06A907F09AFC64
:10240000019B9944009B59469B1B50460093FEF745
:1024100044FB83461BE700BFDC0F0020B003002015
:10242000E00F0020AC0F0020A89F00003810002013
:102430001C10002013E000F002E000F00BE000F0C0
:10244000DAF83C3002225B6906A95846984706A88C
:10245000FEF7B4F94FF008080646B1E70196C1E768
:10246000054CFAE6054CF8E6054CF6E6054C064A3E
:10247000022B08BF1446F0E611E000F022E000F065
:1024800023E000F00BE000F00CE000F02DE9F0415B
:102490000D4F06460D4614460CB9BDE8F081EFF32A
:1024A000108872B623462A4631463846FEF7C5FFE5
:1024B00003464046FFF7FCFD002BEDD0E41AA4B222
:1024C0001D440026E8E700BF540E002013B500238A
:1024D00001F10804ADF80430ADF8060021461A46B3
:1024E000083151F8100C70B90BB1ADF8042004227A
:1024F0000DEB020101200834FFF7C8FF54F8101C4F
:1025000039B902B010BD51F80C3C1A4492B2012303
:10251000E6E734F80C2C0020EDE700007FB500233F
:102520000130CDE90101CDE904336946044B009344
:1025300004200392FFF7CAFF07B05DF804FB00BF59
:102540007E0100200E4A1368A3F17E63A3F5843355
:10255000B3F5605F10B50ED2EFF3108072B6094983
:1025600000240B780C70FFF7A3FD3BB11368BDE8A6
:1025700010401B6A18474FF4817010BD1846FCE7E5
:102580002808E10F740F002001282DE9F34740F0DF
:1025900038818B88012B40F036810B681B7813BB88
:1025A0009B4A9C4C13609C4A13609C4A13609C4A53
:1025B00013609C4A13609C4A13709C4A13609C4AA7
:1025C00013602278022A01D1FFF7BCFF0123237098
:1025D000984B00241C70984B1C70984B1C70204624
:1025E00002B0BDE8F087032B40F0F880934B894E92
:1025F0001C78002C4AD13378002B00F0E3808A4B02
:102600001B78082B7AD1824A136890468BB98C4D7F
:102610002B68A3F17E63A3F58433B3F5605F50D3D9
:102620004FF4017041F20803984200F0CD808024FD
:102630002CE013F003071ABFC7F10407FFB22746C7
:1026400003EB070ABAF5806F00F2C2807D483A4674
:102650001844FF2107F079FB744B6F4AC8F800A0BB
:1026600015681A6815445544DFF8B8A125F4FF65CC
:10267000DAF8000025F00705854299460BD9291A9A
:1026800000F50060FEF76AFD18B185240023337061
:10269000A5E7CAF80050D8F80010D9F80000FDF7F7
:1026A000E5FDD9F80030D8F8002059491344054613
:1026B000DF1B6448C9F80070FFF7D6FB002DA6D0D9
:1026C000E3E7FDF7F7FD0028ACD12A680190A2F1FD
:1026D0007E63A3F58433B3F5605F0BD2126BA2F176
:1026E0007E63A3F58433B3F5605F03D29369012160
:1026F00001A89847504B01221A70C7E7002B65D0FC
:102700004C4B1B78002B92D0494F3B6843B9444B4C
:102710004D4918681022FEF739FD0028B6D0B4E7FD
:1027200013F003021CBFC2F10402D2B203EB020891
:10273000B8F5806F4CD84548FF21184407F005FBD9
:10274000434A444BC7F800809B1A434A1344334A18
:1027500023F4FF63156823F00703AB42914639D891
:10276000A844FEF76BFC08B9FEF760FC804533D83F
:102770003B68DFF8B0801D4425F4FF65D8F8000001
:1027800025F00705854209D9291A00F50060FEF7F2
:10279000E5FC00287FF479AFC8F800503A682B496F
:1027A000D9F80000FEF7F2FCD9F800303A68204969
:1027B000054613442548C9F80030FFF755FB002DA6
:1027C000A5D062E7812461E786245FE784245DE782
:1027D00082245BE7872459E7832457E7042B14D12D
:1027E0001E4C13230221637020462170FEF7AEFBBE
:1027F0001B4A1C4B128905329A801B4A1A60627868
:102800009A710024EBE60D24E9E60624E7E600BF12
:102810001C0B0020220B0020E4160020240B0020BB
:10282000A80F0020EC14002078010020280B0020C5
:10283000E8140020200B002085010020210B00203F
:102840002808E10F1C070020980F0020E810002046
:1028500010000020B80000204FC800008C0F00209E
:1028600074060020780F0020292F00000E4A1368FC
:10287000A3F17E63A3F58433B3F5605F10B50ED288
:10288000EFF3108072B6094B012419781C70FFF722
:102890000FFC39B91368BDE81040DB6918474FF4E5
:1028A000817010BD0020FCE72808E10F740F0020A4
:1028B000134A144C08B5937E43F040039376124BB1
:1028C00000221A70114B1B784FF000556BB1FFF7C7
:1028D000CDFF0F4B2B600123A360236823F4E0633B
:1028E00043F480632360FEF727FC2B600123A36081
:1028F000236823F4E06343F480632360FEF71CFC49
:102900007406002000500E40D006002085010020F3
:1029100002020FF010B5134CA37E5B0621D4FFF723
:1029200007FA2168A38C40F2E24202FB0312226004
:1029300094F84F10A27A25200A4492FBF0F100FB94
:102940001122A27222890132228162680A2101FBCE
:1029500003236360238B5A1E228313B90820FFF7D9
:10296000A7FF10BD740600202DE9FF41294C40F659
:1029700001002189FEF794FAA37E13F0400242D1B0
:1029800043F0010303F0FD0362F38203224AA376BE
:10299000136823B121899288914200D19847A37A84
:1029A0001E4F1F48234493F82A306375FFF7F2F94E
:1029B000D4E900547B681B4A5B7A64082E1B12F82A
:1029C00003800120FFF7C6F96435009600262544F0
:1029D0006A46012441463346386802958DF8046002
:1029E0008DF80C608DF80D408DF80E6001F0F4FD4F
:1029F000224605463146386802F048F835B1FFF7FF
:102A000089FFFFF7B1FF04B0BDE8F081064B3B61E1
:102A1000F9E700BF74060020780F0020F0140020B2
:102A200080060020C59F0000912B000002282DE9A0
:102A3000F0411FD002D8012807D0FEE7032800F09C
:102A40009C80FF2800F09980F7E74D4C237B980786
:102A500007D5FFF76DF9FFF7C7F9237B6FF3410344
:102A60002373237B990701D4DA0764D4BDE8F041CE
:102A7000FFF7BAB94B784C68DB077ED5227802F0B5
:102A80000F07032F59D0052F77D13E498B7B03F0D9
:102A90000103B3EBD21F04F108004CD10622083128
:102AA00007F05BF98046002845D1FFF741F9FFF7B1
:102AB0002BF9354D414606465C22284607F045F97C
:102AC000AB7E2F8343F02003AB76627E237E43EA06
:102AD0000223AB84627F237F43EA0223EB8494F8D2
:102AE0002330C3F3040385F84F3094F82330C3F345
:102AF000421385F8503004F11E001B232B85FEF78E
:102B000063FAD4F80E30E27CEB60A37C2E6043EADB
:102B10000223227D607D43EA02432B61012795F861
:102B20004F30AB722F75E18A3944FEF739FAFFF75F
:102B30001BFF164B1F70BDE8F081124DAB7B03F0FD
:102B40000103B3EBD21F04F10800F4D1062205F112
:102B5000080107F002F90028EDD1094C286894F823
:102B600039204FF40073023204F1380101F066FF9E
:102B7000237B43F002032373DDE7FFF7D9F875E702
:102B8000D4000020F014002074060020D00600209D
:102B900002282DE9F7430F460BD003D8012800F097
:102BA000B281FEE7032800F0B681FF2800F0B38170
:102BB000F7E748784E68BB4D10F0010461D14FF043
:102BC000FF3140F60300FEF76BF92646AB7EB64CAC
:102BD00013F0200F12D0696D6FF34513AB76002907
:102BE00000F09F80237895F85820627043F003032B
:102BF0002370A01C07F09EF800236B65AB48DFF83C
:102C0000D082FEF795F9AA7E2378003018BF012004
:102C100060F34102C2F30011AA7661F38203C2F3AA
:102C2000C00262F3C30360F304132370218840F6EB
:102C30000200FEF735F962789B49D8F800000232AD
:102C40004FF40073D2B201F0F9FEAB7E7C68D90775
:102C500009D56FF30003AB7600236B60FFF754F8E0
:102C60002860FEF77FF94EB1237803F00303022BAF
:102C700000F031816DD8012B00F02C8103B0BDE84C
:102C8000F083318840F60300FEF70AF93378A97E15
:102C900096F80080C3F3001363F38201A976C8F3AA
:102CA000C003C1F300118B4206D108F00303022BCD
:102CB00005D019D8012B31D00026344615E0A146A5
:102CC000767896B17A48848AFEF732F9201A80B273
:102CD000B9F1000F04D0022886BF023880B200206C
:102CE00086428CBF002401242646AB7EC8F38008B0
:102CF000C3F3C002904507D082F0010262F3C30320
:102D0000DBB243F02003AB76002C3FF45FAFAB7E29
:102D100081F0010161F30413AB7657E74FF000092E
:102D2000CEE795F828306148A21C0DF10701FEF7A7
:102D3000EFFBC0B258B19DF80730002B0CBF012249
:102D400002222378607062F30103237056E70122A8
:102D5000F7E7A378022B65D011D8002B4DD0012BBB
:102D600038D0544A127822B1162B7FD0182B00F09D
:102D70008C805148072202704370022127E00C2BFF
:102D800018D0142B56D0082BEBD1B8F8201054F8DB
:102D9000035FC8B205EA0002474801F47F410446D8
:102DA00042EA0105092104F8011B0023C0F8015083
:102DB00063600CE040484FF0FF3203700123437022
:102DC0008270037102220023C27043710621FEF754
:102DD000BDF853E7617A237A384A43EA01239380A6
:102DE0001346374943F8061B54F8031FC2F8061070
:102DF000A2889A80A2799A7140E7627B237B2F494F
:102E000043EA02238B800B462E4A43F8062B54F8E4
:102E1000032FC1F8062062685A6022891A81A27ABB
:102E20009A722BE72A89254B05329A80264A1A6026
:102E3000E278E0E7B4F80530B4F803201E48DB0878
:102E4000934228BF13462B85152300216FF00404FD
:102E50006FF0270203700723817081714470C27084
:102E600003714471C27103720921B0E72279E378DA
:102E70001148134003F00303022B18BF012317224C
:102E80000270437083700321A1E76279A1790B4B33
:102E900042EA01229A800D4A1A60D4F80320C3F84E
:102EA0000620EBE674060020EC180020540E0020EB
:102EB0003C0D00206C0F00208C0F0020780F0020AC
:102EC000B9200000CD200000292F0000FD200000C7
:102ED000F014002000261248818AFEF729F8081A0B
:102EE000A51C80B2647826B1022886BF023880B261
:102EF0000020A3B283423FF6C1AE2A4631460848BD
:102F0000FEF79BFABAE6074B9B7E9A073FF5B6AEF3
:102F10005B073FF5B3AEFFF7FDFCFFF725FDADE620
:102F20003C0D00207406002008B5024B9879FFF78D
:102F3000BFFC00BF780F00202DE9F04F01288BB0B7
:102F400040F048818A88002A00F04681A44D95F817
:102F500000B0BBF1000F00F04181A24B1C789846F5
:102F60005CB9A148067882463EB9A04E3068171871
:102F7000B7F5806F05D982241C7020460BB0BDE8E0
:102F8000F08FDFF888920968484406F0D3FEBBF161
:102F9000020F37603DD0032FEFD9954F3846FEF72B
:102FA00023F93B78D9F80020012B924B62D19A4249
:102FB00062D1BB68DB0368D502232B70FFF756FC98
:102FC0008D4B1A68A2F17E63A3F58433B3F5605F7D
:102FD0000BD2126BA2F17E63A3F58433B3F5605F6D
:102FE00003D2936803A9002098470398834B844A2F
:102FF000186020F4FF6323F007034FF400611360AF
:10300000FEF7ACF888BBFEF759F840BB2B78022BD3
:10301000B3D17C497C4F08783A68336810F0F70FD9
:10302000894640F0AC8075490D681D4403F0030BE0
:103030001544734B0193A5EB0B0525F4FF65186848
:1030400025F00705854223D9291A00F50060FEF70F
:1030500085F8019BD8B1852488F800408DE74FF4AE
:103060000061FEF77BF80028D0D0852388F8003077
:103070001C4682E79A4208D0842388F8003098F8EA
:103080000030002B3FF479AFF0E78623F5E71D60B1
:1030900031683868A1EB0B01FDF7E8F832683B684E
:1030A0005249A2EB0B020546134458483B60FEF719
:1030B000DBFE002DCFD199F80030002B7FF45DAFFF
:1030C0003B687F2B7FF759AF02A903A8FDF7A4F84F
:1030D00010B9039B89F8003099F8003013F0F70F0E
:1030E0003FF44BAF444D3B682968A1F17E62A2F5E5
:1030F0008432B2F5605FAED2096BA1F17E62A2F5B7
:103100008432B2F5605FA6D2D1F80C903F4A00211C
:103110000846C84700289ED13B683360384B3C4F77
:1031200018603C4B7B602A68A2F17E63A3F5843370
:10313000B3F5605F8FD2936A37484FF400719847B8
:10314000002888D129683368A1F17E62A2F5843213
:10315000B2F5605F3BD2CD6A2C4A2F483946A8476A
:103160000546326821492948FEF77EFE40F20323D6
:103170009D421ED040F201239D4226D1FDE61A4415
:103180003A601D4A1168A1F17E62A2F58432B2F55F
:10319000605F12D2CD6A1D4A1D491F48A8470546E7
:1031A000326812491948FEF75FFE40F203239D4240
:1031B00006D101238AF80030DFE640F20225EFE76E
:1031C00040F201239D423FF476AF802444E740F271
:1031D0000225C6E70024D0E60D24CEE68124CCE605
:1031E000220B0020210B0020200B00201C0B0020B4
:1031F0009C010020EB17A6032808E10FE41600202D
:10320000EC14002078010020280B00201C0700206F
:103210002C0B0020811E00003C0B00202DE9F34107
:1032200006460F469046072800F29180DFE800F03E
:1032300004BF2621BA8F8F0E4FF400754FF48074AF
:1032400008230920002F00F0988086E001A8FEF7EF
:10325000DFFE9DF80530012B06D94FF400454FF4F1
:1032600080440E230F20EDE79DF80430022BF4D8A4
:10327000FEE70124022500232046E3E7002979D058
:103280004D4A536A13F0300F64D14C4BDB6B536AD9
:10329000D90705D5536A23F0300343F01003536276
:1032A000042402230320464D434A2B4414669B000A
:1032B0001A68002AFCD0B8F1000F48D00544AD00D0
:1032C0002B68002BFCD0022E41D1002F3FD03A4B6F
:1032D0005A6A12F0010F1A4641D04FF48062C3F8C7
:1032E000A82020225A665A6A12F0300F0CBF4FF401
:1032F00040024FF40002D3F8901032EA0101FAD1F3
:10330000520201D5D3F8A0302B4E01220021022019
:10331000D6F89C70FFF782FFD6F89030726A294B7E
:1033200022F0300242F010027262C7F30A07316BDA
:10333000FA0903320F2A03EA010328BF0F223B4395
:1033400043EA0273336334662B68002BFCD002B06F
:10335000BDE8F0810424022303200027A3E7536A79
:10336000D2F8903003F44003B3F5400FF8D1D2F80F
:10337000A030C9E70825022303200F4A0121156662
:1033800001FA03F3D2F890101942FBD1B8F1000F03
:10339000DDD00123084A03FA00F0D2F8903003424E
:1033A000FBD1D4E720251024042305204AE78025FB
:1033B00040240623072045E700400E4000300E4021
:1033C0008004F21000F8FF0F00F00F00013807280A
:1033D00048D8DFE800F0040F1947232D4735244B68
:1033E000D3F8943003F00703023B052B3CD8214A65
:1033F000D05C70471E4BD3F8803003F00703013BCD
:10340000042B33D81C4AF3E7194BD3F8843003F06C
:103410000703013B042B29D8184AE9E7144BD3F8DA
:10342000883003F00703013B042B1FD8144ADFE761
:103430000F4B1B6F13F0010F14BF092007207047BB
:103440000B4BD3F85C3103F03003202B06D0302B2C
:1034500006D0102B0CBF07200120704704207047B6
:1034600008207047002070470520704701207047F2
:1034700000400E40F99D0000FF9D0000049E0000EA
:10348000FF9D0000FEE70000044B054A9A60D3F858
:10349000882042F47002C3F88820704700ED00E0F5
:1034A000000000000B4BD3F8942002F00702022A20
:1034B00004D001D3042A0AD9074800E00748D3F80A
:1034C0000031C3F304230133B0FBF3F070474FF432
:1034D0000040F4E700400E40C0EA210100F049023C
:1034E00010B50E4CD4F8002108B9FFF7DBFFD4F873
:1034F0000031FFF7D7FF0446FCF7FCFF68B1084B2B
:1035000040221A6119B1074A1368002BFCD12046EA
:103510000021BDE81040FDF71DB810BD00400E4071
:1035200000300E40C800C64308B5FFF7BBFF044B90
:10353000D3F80831C3F308230133B0FBF3F008BD1F
:1035400000400E40FFF7AEBF1128F8B505460C4607
:1035500011D104290FD100216648664EFFF7C0FF44
:1035600005F00F05013D072D66D8DFE805F01306CD
:1035700061655F8665910026F2E75F4D013C0C2C8A
:103580005AD8DFE804F0785A61595968595959579F
:1035900059597100023C0A2C4ED8DFE804F0423F32
:1035A00033394D4D4D4D4D06450003200524012274
:1035B0001146FFF733FE514D4E482F6C41F67133E3
:1035C0002B640021FCF7A4FF0FB100232B641EB174
:1035D0004B4A1368002BFCD14A4B5C67FFF7B2FFE4
:1035E000FCF7C6FFFFF7A0FF0446FCF783FF014688
:1035F0002046FCF7AFFFFEB930460121BDE8F84098
:10360000FFF76EBF4048FCF7B3FF02200446CEE749
:103610003D48FCF7ADFF01240320C8E70120032447
:10362000C5E700200424C2E70724C4E7374DA5E717
:10363000374DA3E704232B60F8BD0122114600207B
:10364000FFF7ECFD0223F6E7012211461046FFF7D3
:10365000E5FD0123EFE7FFF767FFFCF789FF2D4B3F
:1036600001221A600323E6E7012211460720FFF733
:10367000D5FD0523DFE70023DDE7072C04D0092C67
:10368000DAD1204B012201E01E4B00221A67D3E75A
:10369000013C072CD0D801A353F824F0EF360000EA
:1036A0003936000039360000E136000039360000B6
:1036B00039360000D3360000BD3600000322114920
:1036C000D1F85C3123F0300343EA0213C1F85C31D6
:1036D000B2E7012211460420FFF7A0FD0122EEE728
:1036E000012211460220FFF799FD0222E7E700229E
:1036F000E5E700BF00F0490280400E4000000E40A8
:10370000C800C64300400E400148E80188400E4012
:1037100084400E400816C84338B5C0F30323013B6C
:1037200004460D46092B1AD8DFE803F031211A1997
:10373000052427192A2E174B0022C4F3043442B162
:103740001548D0F84411C90703D4D0F840110A42F3
:10375000FBD103F1047304EBC3039B001D6038BD70
:10376000FFF7F0FEFCF704FF00220C4BE5E7002218
:103770000B4BE2E701220B4BDFE710220A4BDCE7A1
:103780004FF48032094BD8E70022094BD5E70022DD
:10379000014BD2E7B0400E4000400E40B8400E4012
:1037A000C0400E40E0400E40E8400E40F0400E4069
:1037B00050410E40000000002DE98048A74B5B6897
:1037C000ADB013F4806F24AF40F000814FF0005390
:1037D00000221A603846FDF707FDFDF76FFC05462D
:1037E000002840F0FC809E4B01225A641A6842F483
:1037F00080721A603846FEF70BFC9DF89130012B61
:1038000003D89DF89030022B09D9964B4FF41872CB
:103810001A60954A5A60954A5A66954ADA66954BF7
:10382000954E02229A639A6B02F00F02022A40F030
:103830003781DA6C22F0405222F0010242F001029C
:10384000DA64D3F8E02042F44072C3F8E020DA6E84
:1038500042F08072DA66894B186800B10420FEF7E6
:1038600011FC874B834DC8221A80864BA0221A80F8
:10387000854B0F2000241880FCF788FD834BAB6537
:10388000CDE91C4424947C60D6F86831C3F3072248
:10389000DBB226921E93EB6CC3F3017A22465346A9
:1038A00039461CA8FCF7DAFDD5F8E030C3F301294E
:1038B00022464B4625A91DA8FCF7D0FDDDF898C08F
:1038C0001E9A1C9D2498DDF87480ACEB02014FF425
:1038D00016735943B1FBF3F32146259CD2184FF4DC
:1038E000167BA0EB050328BF01210BFB03F3B3FB01
:1038F000FBF3ED18A4EB08032CBF4FF0010E4FF0C3
:10390000000E0BFB03F3B3FBFBF318EB03082CBF18
:10391000012300239445C0F0C380002940F0C080FB
:103920004445C0F0BD80002B40F0BA80A842C0F0F2
:10393000B780BEF1000F40F0B3804E4CE36D23F42E
:10394000FE4323F0020343EA0223E3655046FCF7FB
:10395000EDFC002800F0A48001214846FCF7E6FCBD
:10396000002800F09D80636E454538BF4546E72D31
:1039700023F4FF7328BFE72523F0010343EA45033F
:103980006366E36B43F48063E3634AF6E853606B7A
:103990006363214623469A6FD507FCD41B6C3C4ACF
:1039A00013F0030378D0012313608B6FDC07FCD482
:1039B0000B6C23F003030B642E498B6F13F0010390
:1039C000FBD10128136008BF4B6366E04FF0005342
:1039D0001A68022A7FF4FAAE00221A6003E79DF803
:1039E0009030012B32D1446BFEF740FF269B5E07DF
:1039F00015D5FDF763FBFDF7E7FB0446FEF7A2FDD7
:103A0000002C3FF4F0AEFDF759FB0446FDF756FBE2
:103A1000204B986023689D4663689847E3E684B12D
:103A2000FDF704FB84420CD2FDF700FB04F14003D8
:103A3000834206D8636923B12046FDF71FFB0028A7
:103A4000D7D105F1FC00FDF719FBD6E7FC30FDF7F7
:103A500015FB00283FF4C7AED5E700BF00500E406D
:103A600000000E408C420E409A6F050018010004C1
:103A70000084320800300E40B081E00F8009C64358
:103A8000EA060020EC060020E8060020372110B7E7
:103A9000B40AC64300ED00E01360C54B01221A6072
:103AA000C44C1120FFF790FC012200210220FFF7F7
:103AB000B5FB636A23F001036362BF4B00251D6001
:103AC000A36A23F0070343F00603A362BB4BE36240
:103AD000226BBB4B02F07F6213432363B94B6363DA
:103AE00004211120FFF730FDB74BB8481B68636A0B
:103AF000012143F04058FFF7F3FCFCF7FBFC0146C3
:103B0000B248FCF727FDB148FCF732FD012211460F
:103B10000220FFF783FBC4F82480D4F8C83043F0B8
:103B20000103C4F8C830B36AA94E2CAA0424B365B3
:103B300008A902F8984D35200895FEF7F9FA0623F2
:103B40008DF81730089B8DF8164013F4803FA14D77
:103B50000AAC00F05682B36D8DF82830B36D8DF845
:103B60002930B36D8DF82A30B36D8DF82B30B36DDD
:103B70008DF82C30B36D63F03F038DF82D309DF838
:103B80002E3043F001038DF82E306C60924B934A37
:103B90009A6000264FF48071C3E900221E825961A9
:103BA0008F4A904BDFF88C829A60C3E900225961FA
:103BB0002022314638461E8206F0C7F8FC22082330
:103BC0008DF89320884A8DF8913025928DF8A13098
:103BD00040F20172F823ADF89A208DF8A330834AA1
:103BE000834B27924FF00109384629938DF898901E
:103BF00000F066FC7F48804B036031467F4B43609A
:103C000000F0CCFC68A3D3E90023C8F80000CDE99C
:103C100000234FF0FF334FF0FF3200F0B5FE0222D9
:103C20004FF0FF31D8F80000754C00F0B7FE754B2F
:103C30002493394603F50033D8F8000026962593DF
:103C400000F014FD2146D8F80000267000F0D2FEE6
:103C5000464630B12146D8F8000084F8009000F0C4
:103C6000C9FE3068DFF8D0A100F044FF2178B5F933
:103C70000020306800F034FC0146306800F0AAFEF5
:103C80006C68002C40F0D7815046FDF7F3F8B37B09
:103C900064F30003B3735C4B5C4CDFF8A0815C4DB4
:103CA0004FF0200983F80193562283F804930021F2
:103CB00083F8069304F10A0083F8079383F80593C9
:103CC00083F8089383F81D9306F03FF85148524B50
:103CD0004FF49072C4E90003328425234F4A637283
:103CE00001231370237200232CAAC8F800301B2371
:103CF0002B801E2302F89B3D14A93620FEF718FAEC
:103D00002CAA394602F89C9D3920FEF711FA80BB97
:103D1000434B9DF8152018681B7924903B71002AAD
:103D200000F092811B2A28BF1B22531D8DF81430EE
:103D300014A9531C0DF195008DF8933005F0FAFF8E
:103D40001CA8FDF797F8374A9DF814301288FA52EC
:103D50002CA99A1C51FA82F2002102F8201C1C980E
:103D6000BDF8741042F81F0C093322F81B1C8DF8A3
:103D700014302CAA202302F89D3D1CA93A20FEF7FE
:103D8000D7F948B9284B1A889B788DF872300323ED
:103D9000ADF870208DF81330244B254800224FF0E9
:103DA0000209C3E900224BE0081B200A00000000C2
:103DB0009407C64300400E40A004C84320000500FD
:103DC00007450BD047A0020000300E4000F049022A
:103DD0000050084088010020540E00206C0E002086
:103DE000540D00203C0D0020189E00000A9E00008B
:103DF0005C9E0000201500202D1C000014150020E2
:103E0000120000203C00940000E100E0D4000020FB
:103E10007A010020D6BE898E555555006C0F0020C2
:103E2000109F0000209F0000239F0000D406002068
:103E3000A4160020F0140020F8140020AC03002089
:103E4000AD4B036080F80490FCF7D6F9AB48AC4B5F
:103E5000036080F8049010230372FDF769FAA94803
:103E6000A94B0360A94B80F80490C36080F80890C8
:103E7000A0F81090CDE900394B4690E806001430C8
:103E8000FCF796F99DF81510002900F0EE8014A8B3
:103E9000FDF778FA9E489F4B03604FF0100980F8B9
:103EA0000490FCF7A9F99C489C4A9D4B03604FF68F
:103EB000FE7B0823C260A0F810B080F80490037263
:103EC0000393FDF735FA9748974A02600C22027275
:103ED000964AC260A0F810B080F80490FDF728FA66
:103EE0009348944A039B02604FF0020B924A80F879
:103EF0000490C260038280F808B0FDF719FA8F4879
:103F00008F4B03608F4BC36080F8049001230382C2
:103F100080F808B0FDF70CFA8B488C4B03608C4B93
:103F2000C3604FF6FE73038280F8049080F808B0F7
:103F3000FDF7FEF98748884B0360884BC3604FF656
:103F4000FE73038280F8049080F808B0FDF7F0F962
:103F5000834B844A1A604FF6FF729A809DF81420B2
:103F6000202A05D8931D637439467F4805F0E2FE88
:103F70009DF81320202A06D8931D84F839301CA9F7
:103F80007A4805F0D7FEFDF7D3FE237BB27B43F0E2
:103F900001032373237C02F0010203F0F00362F3B8
:103FA00086132374637C0BB906236374704BBAF8D1
:103FB0000410B068C4F81200998094F838300421D5
:103FC00061F3030362F3861384F8383094F83930D0
:103FD00013B9062384F83930664BB068BAF8042068
:103FE000C4F83A009A80FDF7FFFE634C634B1B78E0
:103FF000002B7BD1624A136923F00403136130BFA5
:10400000F4E70DF1170221462C20FEF791F8002865
:104010003FF4BCAD0DF1160207A93C20FEF788F86D
:104020009DF82E3020B19DF81C2062F30003AAE514
:1040300060F30003A7E52068B060A288A3798AF83E
:104040000630AAF8042026E60E238DF814300A2341
:104050008DF893304B4B1A68CDF895205A681B7A2F
:10406000CDF899208DF89D306AE6092145480FE783
:10407000EFF3108672B600231A460DF1190142487B
:10408000FDF746FA3046FEF713F89DF8193013B1E4
:104090000023C8F80030D8F80020EFF3108672B67D
:1040A000C2F501739BB222440DF119013648FDF7A8
:1040B0002FFA03463046FDF7FBFFD8F800001844FE
:1040C0000328C8F8000011D9B4F8009009F10403DE
:1040D00098420BD307D8608804284FF0000755D0CA
:1040E000062800F0C3810023C8F800302648FCF7FA
:1040F0001FFF0028BCD17DE7279F0000140500208A
:104100002A9F0000F00600202D9F0000E69D000081
:10411000C4160020309F00006C0500208925000097
:10412000419F0000C4050020529F0000392F00006D
:104130000C040020639F0000A09E00001C060020CD
:10414000749F0000C49F000064040020859F00004D
:1041500041120000B4030020969F00006515000086
:10416000DC060020D4060020EC0000201401002012
:10417000E60000200E010020A8010020D00600204B
:1041800000ED00E0169F00003C0D002022796F80BA
:1041900009F1FF33082A9BB200F0DF801BD8042A04
:1041A000B74E39D0062A4ED0022A1AD1022B40F03F
:1041B0005981B4F805700022B7F5007F28BF4FF48D
:1041C00000770323114602203370A6F80170FEF732
:1041D000A5F92F8087E7102A00F0F48003D80A2A77
:1041E00070D0062294E0122A00F09B80522AF8D167
:1041F000B4F80500FDF734F800283FF474AF037BF2
:104200005B077FF570AFA9F1030292B29D49B4F844
:104210000500FDF773F866E7042B79D1B4F8057053
:10422000B8B2FDF71DF858B1027A41687780022ACA
:1042300014BF0223012305203070737003205FE058
:104240006F800A2264E0DFF840B2B4F80500B4F8E9
:104250000710CDF840B04FF00203A9F107028DF826
:10426000443092B20BF102030093019210AB0CCBDD
:10427000FDF79AFC4FF6FF7A5045814604D16368FA
:10428000C3F30F236B80DCE7CDE900774FF0020327
:104290008DF83430CDF830B001300CAB0CCB51463A
:1042A00080B2FDF781FC50451CBF00F1FF3080B2A9
:1042B00007233370A6F80190A6F8030000221146E8
:1042C00004201DE0022B40F0CD80B4F80500FCF77F
:1042D000C7FF00283DD0037B990714D52B882CAA53
:1042E000013B22F88C3D10A9B4F80500FCF7E0FF73
:1042F000024648B9624BBDF824200B211970109971
:10430000FEF70CF9EFE602226368C3F30F236B801C
:104310005B4B20796988587001261E7059801A718C
:10432000CCE7B4F80500FCF79BFF90B1037B1A07BC
:1043300011D5A9F1030292B25249B4F80500FCF775
:10434000DDFF02460028DFD14D4B132119700146D5
:10435000D6E70122D8E70322D6E7A9F1050B1FFA19
:104360008BFBBBF1020F02D0BBF1100F7CD1464B8F
:10437000B4F80500B4F8071010930023CDE900331A
:104380008DF844B010AB0CCBFDF70EFC4FF6FF736D
:10439000984206463FF473AF2B882CAA043B22F8C0
:1043A000963D09A9FCF784FF024608B16E80AFE78D
:1043B000334BBDF81A205E8009211970911C597089
:1043C00009993BE7A9F1050B1FFA8BFBBBF1020F23
:1043D00002D0BBF1100F47D10027B4F80500B4F8A4
:1043E0000710DFF8A4A0CDF840A0CDE900775FFA70
:1043F0008BFB8DF844B010AB0CCBFDF7D5FB4FF623
:10440000FF79484506463FF43AAFCDE90077CDF84D
:1044100038A08DF83CB001300EAB0CCB494680B2D1
:10442000FDF7C2FB2B882CAA4845A3F106030746DB
:1044300022F8963D18BF00F1FF3709A9304618BF92
:10444000BFB2FCF735FF02460028AFD10C4BBDF8D8
:104450001A205E8011211970111D59709F800999D1
:1044600005204DE7042253E7024651E7074B10931E
:1044700010A90223CDE912771193FEF727F832E64F
:104480007E010020AF010020B101002010000020BB
:10449000FEE7000008B5FEF7F7FF064B0649074A9E
:1044A0008B4201D3FBF74AFE52F8040F43F8040B8A
:1044B000F6E700BF10000020B80000200CC000008C
:1044C00038B5044600F0A6FA0FCC044D0FC594E8A9
:1044D0000F0085E80F00002038BD00BFEC19002058
:1044E00047F6FF739A4270B552D0022952D82A4B30
:1044F00013F8310001281D464FEAC1010CD10B44CD
:10450000D878013800B220B1596831F910109142C1
:10451000F7DC0130C0B270BD0B4458680028FAD0F7
:10452000B0F90040944204DBB0F902409442B8BFB5
:104530001446294428224978A4F1C80393FBF2F3D6
:104540005B424A1E1BB29342A8BF13464FF47A76D1
:1045500000EBC3050133EA88AD681BB214FB0252BD
:1045600022EAE2728B4202F5FA72B2FBF6F204DA48
:1045700000EBC305AD889542EAD200EBC30333F8E4
:10458000040C904228BF1046002808BF0120C1E754
:10459000FF20C0E70020BEE7EC19002038B5084B2B
:1045A00004460D46186000F03BF82946204600F00E
:1045B00027F8044B021C18BF01221A7038BD00BF37
:1045C0000C1A0020101A00200846114600F03CB8D2
:1045D00000B10C3002F0BCBC00B10C3000F0E2B90C
:1045E0007047431E012B03D9031F5842584170479F
:1045F0000120704708B501F02BFE0128FBD108BD52
:1046000038B504460D46002100F0E2F9294620465F
:1046100002F004FB00280CBF2046002038BD00003B
:1046200010B5044601F0DCFD3CB1054A236C002BBB
:1046300008BF1346034A136010BD636BFFDE00BF63
:10464000E14500001800002010B50C4601F0EAFD1D
:104650001CB1BDE81040FFF7CDBF10BD00B10C305C
:1046600001F060BF00B10C3001F074BF00B10C303C
:1046700002F03CBB836A2DE9F74F0446884613B12C
:10468000C3888B4246D0D4F82490B9F1000F45D0AE
:10469000D9F80830002B41D0D9F80C30002B3DD090
:1046A0000026B24637464FF0180B47F6FF73D9F88D
:1046B0000C20524502D80FBB01202CE0D9F808503D
:1046C0000BFB0A55EA89424513D82A8A424510D382
:1046D000B5F912209A420FD094F864100193A4F116
:1046E0000C00FFF7FDFE019B0646E278B2422F4622
:1046F00004D90AF1010ADAE7FF26F6E704F17003AC
:104700003A464146204601F0D6FFA4F80680A7624B
:1047100084F86D60002003B0BDE8F08F0320FAE755
:104720002DE9F74F4A4D4B4F04468A4690469B462B
:1047300002F024FD2E8802F03FFD009578B10023A1
:104740003B6002F031FDA36A3A6893420CD15BB141
:10475000564509D10025284603B0BDE8F08FB8F1D1
:10476000000FF0D03860EEE701F072FD012804D0B0
:10477000012001F057FDFFF73DFF37480190036826
:10478000D4E90912002B5BD08B4245D13868002850
:1047900042D0904240D1B6EB0A064FF0000918BF54
:1047A00001264D46E07894F86D10814228BF0146FD
:1047B0005A46204601F03EFFBDB9019B626A1A606D
:1047C000A26A3A60B8F1000F03D116B9B9F1000F2F
:1047D000C0D0009BB8F1000F14BF414649462046A7
:1047E000C3F800A001F098FF0546B8F1000F02D110
:1047F000B9F1000FAFD0B5FA85F03321400900F0D0
:1048000061F95946204602F07BF9144BA16A1B68F6
:10481000A4F10C0098479EE71D688DB10868854299
:104820000ED13968126811B1096891420BD05968EC
:10483000204602F059F94FF0010905460026B1E77C
:1048400012680968F4E700264FF001093546A9E728
:10485000141A00201C1A0020181A0020180000202A
:10486000F8B505460E46FDF7CBFB31460746284610
:10487000FFF700FF044630B903460246314628469A
:10488000FFF74EFF04463846FDF712FC2046F8BD00
:10489000F8B50F1C18BF01270D4606461F213846E4
:1048A00000F010F90024284600F09AF938461F213C
:1048B0007562B46200F006F9E86823464FF6FF71AE
:1048C0001827DAB282420BD30C460B4A002313603E
:1048D0000A4A214630461360FFF7C2FF2046F8BD62
:1048E000AC6807FB0242D4898C4202D2002CECD087
:1048F00021460133E5E700BF181A00201C1A0020EA
:10490000C088704738B50A78054610460C46FFF750
:1049100068FE88B149780846FFF763FE60B10A4334
:10492000520709D401F094FC430707D421462846D6
:10493000BDE8384001F03CBE012038BD0220FCE754
:1049400000B10C30FFF7DEBF38B5054608780C46DD
:10495000FFF747FE80B14A781046FFF742FE58B194
:10496000042A09D001F074FC830707D421462846A5
:10497000BDE8384001F02ABE012038BD0220FCE726
:1049800000B10C30FFF7E0BF30B4DDE9024500B103
:104990000C30CDE9024530BC01F0D2BB00B10C3087
:1049A00001F012BD70B504460D46164601F050FCEC
:1049B00001280BD129462046FFF752FF38B932466D
:1049C00029462046BDE8704001F072BC022070BD4F
:1049D00002F0FABB38B5044600200D4600F0FEF8A0
:1049E00034B104F10C002946BDE8384001F041BE65
:1049F0002046F8E738B5044648880D4600F0EEF842
:104A000034B104F10C002946BDE8384001F0EEBD98
:104A10002046F8E700F0E3B838B505460C46FDF748
:104A2000EFFA69692B690C4023432B61FDF740FBCA
:104A300000200CB9002138BD2021FCE700B10C306A
:104A400001F0ABBF00B10C3001F0C1BF07B502AA45
:104A50004FF4007322F8023D0749FFF7F3FFBDF85A
:104A60000630B3F5007F05D1022808BF002003B04F
:104A70005DF804FB0120FAE7201A002008461146E1
:104A800001F0BCBE00B10C3001F072BF38B5154664
:104A900058B100F10C0411B1204601F0AFFF35B15F
:104AA0002046BDE8384001F0F3BF0446F3E738BDC7
:104AB000024B1960024B1860FEE700BF1C0000208B
:104AC0002000002008B528B9034B1960034B186873
:104AD000FFF7EEFF08BD00BF1C0000200C1A0020ED
:104AE00010B5044602F0C0FB20460321BDE810408B
:104AF00001F082BB00B10C30FFF7F2BF10B5437874
:104B0000044643B101F0A4FB012804D12046BDE8CE
:104B1000104002F095BB022010BD00B10C30FFF731
:104B2000EDBF10B54378044643B101F091FB012875
:104B300004D12046BDE8104002F06EBB022010BD3B
:104B400000B10C30FFF7EDBF70B51E464378054647
:104B50001446D3B191FAA1F1080A01F045FDE3072B
:104B600003D5284602F089FB68B1AA20214602F04D
:104B70008BFB9DF81020442082F00102314602F0A8
:104B8000A5FB002070BD5520F0E70220FAE710B425
:104B90009DF8044001940C305DF8044BFFF7D4BF3E
:104BA000431C08D0044AD2F83C311B0C1B0480B2D1
:104BB0000343C2F83C3170470040084010B504463A
:104BC0000846FFF7EDFFA36A33B15B6923B14A1CC6
:104BD00008BF6FF001011960002010BD70477047D9
:104BE000044B5868431C14BFC0F38070012031216E
:104BF000FFF768BFB081E00F38B50D46044600F0FE
:104C0000FBFEAC4042F2107164094C436423B0FBDC
:104C1000F3F0B4FBF0F038BD034B1A6802609B88D8
:104C200083800020704700BF2A0000200B4B5B8868
:104C3000B3F5E16F95BFC8235A23782250229842DA
:104C40008CBF172310230B70054B1B7823B19042A8
:104C500094BF002001207047184670472A000020AA
:104C60002800002037B51E4B1B78032B044634D098
:104C70000DF10701FFF7DAFF1E2C8CBF19491A4905
:104C80009DF807204FF001030B608CBF0124002426
:104C9000164950B1164B4DF601751D60120203F115
:104CA000007342F440421A608A810A7C22F00102B9
:104CB000024322F0020242EA4402D3B20D4A0B74CC
:104CC000127852B923F0040343EA800323F0080367
:104CD0008A89CA8143EAC4030B7403B030BD00BFA4
:104CE0002A0000200841084608410844D81F002136
:104CF00004410844221C00200A4B0B4AD3F8883197
:104D0000DB4303F4FE1343F40053B3FA83F3C3F11C
:104D1000FF2303F57F03F233C3EB4313013B13700F
:104D2000704700BF00400E4032000020044B0028B6
:104D30001B780CBF042000201844C0B2704700BF8D
:104D40003200002030B51F234FF0FF34B0FBF3F3E7
:104D50005D1CC3EB4313AC40C01AE443C0B2E4B2E1
:104D600001301460086030BD2DE9F3411646404A19
:104D7000404C1268404F14403A78012A0546884654
:104D80001AD144EA006488F80000002333607B886D
:104D9000B3F5E16F8CBF5A23C82324F47F549D429E
:104DA00024F008049ABF200A00F47F5043F6C8702C
:104DB000204302B0BDE8F081304A1278904228BF0B
:104DC0001546002B14BF042300232B440B70002D29
:104DD0002FD12B4B33606A46284601A9FFF7B2FF5B
:104DE000009A284B01981B7898F800C044EA823456
:104DF00044F47F5444F0080444EA0064FBB12249BF
:104E00003878224BB2FA82F2C2F11F02022818BF90
:104E10000B46511C17D09B5CD8B2316821F07F4300
:104E20003360BCF1000F10D143F0306343F0040352
:104E3000ACE74FF03063013D3360EDB2CBE7FF20CC
:104E40004FF0FF32E9E7FF20E7E7013203D0421ECF
:104E5000D2B2FD2A06D921F07F4323F0040343F0A8
:104E60007F4393E743F0040343EA00638EE700BF08
:104E7000D81F00213F00C0E02A000020320000209F
:104E80000400000B231C0020B883E00FB083E00F68
:104E9000F7B50446C820FFF7E5FE284B284D1B78E0
:104EA000032B01D0FF2C03D1FF20287003B0F0BDED
:104EB000012B28D1072C204628BF072001284FF0BE
:104EC000000301AA0DF1030138BF0120FFF74CFFD9
:104ED00006461C4B1C4C019AC3F8582126609DF8CD
:104EE00003002870FFF7BEFE019A130203F4E0638B
:104EF00043EA1263154A238112780AB96660638116
:104F00009DF80300D2E78BB9042C11D81F46184630
:104F1000201A01AA0DF10301C0B2FFF725FF4FF4DB
:104F20008003064647B10A4A1360D2E70023EDE743
:104F300001231F460420EBE7064AF5E72A0000207C
:104F40002900002000400840D81F0021221C00201A
:104F5000084108460841084408B500F033FF0D4AEF
:104F600068B1D2F8003123F47F115B0803F4FE131B
:104F70000B43C2F800314FF00073D36108BDD2F883
:104F8000183123F47F115B0803F4FE130B43C2F8BE
:104F90001831F0E7004008407047000008B500F005
:104FA00011FF4FF4001330B1044A1360044B4FF06B
:104FB00000621A6008BD034AF7E700BF00410844D9
:104FC0002040084418410844014B1868704700BF4E
:104FD000241C002070B505460E46C0B201F00F013A
:104FE000FFF70AFEC6F303110446C5F30720FFF7D7
:104FF00003FEC6F303210444C5F30740FFF7FCFD9D
:10500000204470BD434B1B682DE9F047D0F8F450A5
:10501000DFF82081404F414E03F4E073A3F5C072E6
:10502000002D08BF01258146504250413C4A11687D
:10503000A9423C4910D10C7884420DD199F864C042
:1050400098F80040A44507D199F804C03C78A445DD
:1050500002D1B088BDE8F087B3F5C07F1560087055
:1050600054D099F86430022B47D12F4B1B78002B7A
:1050700014BFC82496240F212046FFF7BDFDB5FAC2
:1050800085F3B0FA80F29B1A002BC4BFC3F10F0A5C
:10509000D840264BD8BF4FF00F0A85424FEA044054
:1050A000C3F8BC0003F1806303F1B80340F6FF725C
:1050B00038BF0AF1FF3A1A6003F100734FEA0A2180
:1050C0001960FFF787FFB08000F096FC04FA0AF43D
:1050D0004FF4FA735C4341F66A03B0FBF3F0144BF0
:1050E000B4FBF0F40A2044431C6099F8643088F85B
:1050F000003099F804303B70ABE7012B08D00A4B25
:105100001B78002B14BFF024B424B4E70024B2E7CA
:105110003224B0E718600840300000202A00002048
:1051200024000020201C0020231C002000600840D8
:10513000241C002031000020FF280BD00D4B0E4A0C
:105140001A600304000503F4E02300F0F87018432C
:105150000A4B1860FF290BD0064B40F2F7121A6079
:105160000B0103F4F87301F007011943034B1960B5
:10517000704700BF504108440000F7015041084605
:1051800008B50D4B186800B10C3000F00BFE092873
:1051900010D80A4B01281B5C05D1094B1B78012B49
:1051A00014BF0423442303F00F011809BDE808408D
:1051B000FFF7C2BFFA23F6E70C1A002000A0000098
:1051C0002A00002070B5054600F0E4FB14220021FF
:1051D0003448354C354E04F0B8FD2A78344B022A59
:1051E000D3F888312BD113F4001F37D12B682360FB
:1051F000AB88A380C8202B4DFFF734FDFF232A681E
:1052000033702C4B13402278022A2DD12A4A4FF4B6
:10521000EE41116002F100724FF48A41116043F0D7
:105220008043012142F8041C2B60244B03221A60A6
:10523000FFF7A6FF224B01221A70002013E0012A7B
:1052400002D113F4400FD0E742B91E4A526AD2434A
:1052500002F0010203F480031343C6E70323237023
:10526000FF233370012070BD012A17481749184ADF
:105270004FF0070409D10460062008601549116049
:1052800043F003034FF44041CCE70460052008607D
:10529000C0211160104A43F08043812143F0040390
:1052A0001160C1E7D81F00212A000020290000203A
:1052B00000400E402800C0A0244108445841084442
:1052C000211C0020B081E00F0C4108440C4108462D
:1052D00008410844C1004000084108462DE9F84F44
:1052E0002F4F304B3B6000F087FB4FF4FA734FF4C5
:1052F0007A76DFF8C880B0FBF6F56B434FEA032AF5
:105300004FEA136B1AEB08004FF000094FF000034F
:10531000254A4BEB090103F067FFA0F580730446B3
:10532000BB6218B92B21FFF7CDFB012406FB04F269
:10533000002756084FEA0528B8193B4648F10001F6
:1053400003F052FF194B1960194B4FEA046881466C
:105350008A461860240A25B928462B21FFF7B2FB9C
:1053600001254FF47A73A8FB036703FB04776C08ED
:10537000301947F100012A46002303F035FF0D4B99
:10538000074A19600C4B19F1020618604AF1000730
:10539000B30843EA8773013B1363BDE8F88F00BF8E
:1053A000005008400011010040420F00341C002052
:1053B000301C00202C1C0020281C002020A10700ED
:1053C000044B4FF00052C3F880211A60024B0122B7
:1053D0005A60704700E100E000500840824210B57A
:1053E000A3EB0101A2EB000404D2064B1B6B0133BB
:1053F0001C440139002201F0030342EA040019466B
:1054000010BD00BF00500840054B020113440122AB
:105410001A604FF4807303FA00F0024B586670472D
:1054200000510844005008401030034B0001185848
:1054300000F00100704700BF00500840103001F438
:1054400060010001024B41F003011950704700BF99
:105450000050084038B5FCF727FE094A094B9D6902
:105460001478094A1268E4B20AB19D690134FCF764
:1054700051FE002204F0030342EA0500194638BD3C
:10548000381C002000500840880B0A4308B5222031
:1054900000F0D6F9024B4FF480225A6008BD00BFDD
:1054A000005008400A4B2DE930481C68094B1D6824
:1054B0004443A5FB00BC04EB8174002105FB01CC37
:1054C0001BF100424CF10003E018BDE8308800BF3A
:1054D0002C1C0020281C002008B5FFF7BBFFBDE8EE
:1054E0000840FFF7DFBF10B50446FFF7B3FF844263
:1054F00002D9003041F1FF31002201F0030342EAFA
:1055000004001946BDE81040FFF7CCBF104B11490D
:105510001B68096B2DE9304820F040424FF00044F1
:105520000025E2FB03450C4B1B6803FB02528A4239
:1055300014464FEA907304D901310133541A03F031
:1055400003034FF0000B4BEA04001946BDE8308816
:10555000301C002000500840341C00202DE9F74F7B
:10556000154606468B46FCF74BFD07463046FFF7CF
:105570004BFF022D04D13846FCF79AFD012014E0C0
:10558000FFF768FF81460191FFF78CFF012D04BFF3
:105590000BF1010300EB030BA0EB0B00B0F1804F0C
:1055A00006D23846FCF784FD002003B0BDE8F08F3A
:1055B0004549DFF828C10C6FC96E06F1090224F0D5
:1055C000E00401EA0C0C1002E404120621F0E001F0
:1055D00042F4803240F00100E40CC90484420CBF64
:1055E00004240024C90C944508BF44F002048842F6
:1055F00008BF44F0010414F0010A18BF334A5846AA
:1056000018BFC2F800B0FFF781FF022E08BF304A72
:105610000B4608BFC2F800B08046024601994846D2
:10562000FFF7DCFE2B48C9B2815581B1BAF1000FFA
:1056300003D0294B41F61F721A60A30742BF264BC5
:10564000264A1A60610742BF1F4B00221A671E4B91
:1056500003EB06121121C2F80C8106F110021201AF
:10566000A8EB090899509A69D96DA2EB0909C845B8
:1056700081D84FF48072B24011427FF47CAF815DDB
:1056800009B11A6677E71DB93046FFF7BDFE88E716
:105690001A66BAF1000F08D00F4B114941F61F727C
:1056A00040F201101A6008601A60A20706D50A4B82
:1056B0000B490A4A0B481A6008601A60630742BF28
:1056C000094B01229A6056E7005008403C1D00201B
:1056D000401D0020441D00206C50084400001F1F86
:1056E0006C500846000001010040084038B50446EF
:1056F0001546FFF789FE04F10903054A1B0243F032
:105700000103136720462A46BDE83840FFF726BF4D
:105710000050084038B504461546FFF775FE04F101
:105720000903054A1B0243F00113D36620462A46AB
:10573000BDE83840FFF712BF0050084038B50446B6
:105740001546FFF761FE0948C36E23F0F85323F4B2
:10575000F81304F1090243F4803343EA0263C36699
:105760002A462046BDE83840FFF7F8BE0050084002
:1057700038B50446FFF7B0FE0546FFF7ADFE401B07
:10578000A042FAD338BD00004FF0804310B1024A66
:1057900013607047014AFBE7944008469440084470
:1057A00038B5214B08221A60054601211F48FDF734
:1057B000B3FF1F4B1D701F4B00225A677DB31E4C59
:1057C000636813B300F018F9626800EB5203B3FB8F
:1057D000F2F3013B1B0243F0F8032278022A16D0B1
:1057E000032A18D0012A1DD143F0020307221349CE
:1057F0004FF6FF70086001F1007128460B600D4BF9
:105800005A67FFF7C1FF002038BDF823E5E743F0F2
:1058100001030522EBE743F005030122E7E72A46EF
:10582000F823E4E70022E2E7C8400E4600350A000C
:10583000391C0020000008403C1C00207C0008446B
:10584000044BD3F89430002BBCBF034BC3F880004B
:10585000704700BF00400840000008404FF0006360
:1058600010B1024A13607047014AFBE794400846B2
:105870009440084408B58A0001464FF0045004F0F3
:1058800059FABDE8084000F0FBBB0000C0F300621D
:10589000034B33F8123080B240EA0340704700BF38
:1058A0000AA0000007B501A8FCF7B2FB154B164A89
:1058B000C3F8442148F2E672C3F838214FF4086275
:1058C000C3F83421114AC3F8A020114A4AF63F41D7
:1058D000916002F580424FF0C07191620022C3F8DE
:1058E000FC200C4AC3F89C2003F18063A3F6DC7310
:1058F0007F221A6003F1007323221A6003B05DF85F
:1059000004FB00BF00400840C0E653517A27000F57
:1059100000300840806D630330B50A4B0A480B4CD9
:105920000B491A6842B102EA0005A54204BF5D684E
:10593000156008338B42F4D1064BD3F83C21064B5B
:105940001A6030BD0080E00F0000FFFF000008403B
:10595000B081E00F0040084038000020094B0122D0
:105960001A60094B5A6812F0706FFBD14FF0045265
:10597000DA670122C3F88020044A1A66044B1B68C8
:10598000184700BF0C40084600400840B01F0021E7
:1059900034000020034BFD22C3F8C8200122C3F8C5
:1059A000CC20704700400E4008B5FFF7F3FFFFF72B
:1059B000B3FFFFF777FF0C4B03221A600B4B4FF43A
:1059C000C012C3F8942003F1C063943301221A601B
:1059D00000F050FB064B4FF460721A60054A4FF01E
:1059E00040731360936108BDD860084600400840CA
:1059F0000C400846F840084608B5FDF753FD044B37
:105A0000D3F81031C3F308230133B0FBF3F008BD22
:105A100000400E40F8B5044618B1012521684B1C22
:105A200000D1F8BD0846C1F30746FFF72FFF012E4E
:105A300003460CD9B600A1192246031B9F1852F841
:105A4000040F38608A42F9D104363444E6E7090F7E
:105A5000606808340729E1D8DFE801F00A0408117A
:105A60000C0F1417C04303F1806301E01A68504023
:105A70001860D3E7FFF77CFED0E705FA00F003F1EA
:105A8000C063F5E705FA00F0EDE71A6830EA0202B4
:105A9000FBD1C3E7044B5868C0F303600238012808
:105AA0008CBF0020012070470040084008B5FFF778
:105AB000A3FF064A126D034690B228B1C2F3074213
:105AC000DB085343B3FBF0F008BD00BF00600840A3
:105AD00010B50446FFF7EAFF104BD3F8302112044B
