S0370000626F6F746C6F616465722D73746F726167652D696E7465726E616C2D73696E676C652D3531326B2D636F6D62696E65642E73333799
S3150FE100000F4880F308880F4800470000ED05E10F20
S3150FE10010ED05E10FED05E10FED05E10FED05E10F62
S3150FE10020ED05E10FED05E10F0806E10FED05E10F36
S3150FE10030ED05E10FED05E10FED05E10FED05E10F42
S3150FE1004000400020A105E10F10B5054C237833B927
S3150FE10050044B13B10448AFF300800123237010BDA5
S3150FE1006010010020000000001C06E10F08B5034B4C
S3150FE100701BB103490348AFF3008008BD0000000040
S3150FE10080140100201C06E10F044B054A9A60D3F8D0
S3150FE10090882042F47002C3F88820704700ED00E033
S3150FE100A00000E10F094A0A4BD969C90705D512B90B
S3150FE100B06FF002007047013AF6E7002AF8D0012205
S3150FE100C01861DA60D86940F380007047809698002E
S3150FE100D000000E4070B509B9002070BDC2B9244BBE
S3150FE100E0082550F822409C61224CDD600132DE6921
S3150FE100F0F60705D514B96FF00200EEE7013CF6E716
S3150FE10100002CF8D0DC69A60720D49142E9D1E3E7C8
S3150FE10110EFF3108572B6164B00221026DC69240721
S3150FE1012017D550F822409C6101329142DE60F5D13C
S3150FE1013005B962B60E4A0F4B1146D069C40711D500
S3150FE1014073B96FF00200CB699B07C6D56FF001005B
S3150FE10150C3E7DC6904F01904102C08BFDC60DDE7A6
S3150FE10160013BEAE7002B0CBF6FF002000020EAE744
S3150FE1017000000E40809698002DE9F04799461D4BF9
S3150FE101800E4641F671311D6C19641B49804648686C
S3150FE101904968996841F00101ADB2996097084FF04E
S3150FE101A0000ABA4501D3002005E008EB8A04204690
S3150FE101B0FFF778FF48B10F4B9A6822F001029A6078
S3150FE101C00DB100221A64BDE8F087C4F30A04C4F541
S3150FE101D00064A408A7EB0A039C4228BF1C464A46C3
S3150FE101E021463046FFF776FF0028E4D1A24406EB1D
S3150FE101F08406D6E700000E4000300E40204B41F654
S3150FE1020071311A6C10B519641E494C6849689968C1
S3150FE1021041F00101996001211861D960D9694C0753
S3150FE1022092B209D5996821F0010199600AB10022CC
S3150FE102301A644FF0FF301FE00221134CD9601946C3
S3150FE10240D869C00700D56CB9C8698B6810F0020090
S3150FE1025023F001038B6007D00AB100230B646FF023
S3150FE10260010009E0013CEBE724B902B10C646FF040
S3150FE10270020001E00AB1086410BD1046FCE700BFB9
S3150FE1028000000E4000300E40809698000023FFF7E5
S3150FE1029073BF000008B50A4B1A680A4B1A600A4B7E
S3150FE102A040221A615A685203FCD400F079F800280B
S3150FE102B0FBD040F2022000F0ADF8002008BD00BFF0
S3150FE102C0040100200001002000300E4010B50F4C54
S3150FE102D00F4BA36000F0BEF80E4B5B68B3F5803FA2
S3150FE102E009D040F20923984202D0B0F5007F02D13E
S3150FE102F000F014F848B9084BA3601A6882F308882E
S3150FE1030082F309885B689847FEE710BD00ED00E0D0
S3150FE103100000E10F00500E400008E10FF8B51C4B4D
S3150FE103201A681069D568836AAB4201D20020F8BD1D
S3150FE1033005F560529A42F9D95B1BC618C758154B9A
S3150FE103409F42F3D14FF0FF32F16800F00DF9124BF6
S3150FE1035098420446EAD1114B1B68A3F17E62A2F5DE
S3150FE103608432B2F5605F10D21A68BA420DD1B16824
S3150FE103709A68914209D84FF0FF32D968284600F0C2
S3150FE10380F3F8001B18BF0120D1E70120CFE700BF2B
S3150FE103902800E10F07B0CD5EE320BBDE2808E10FB1
S3150FE103A0F8B5184B1B68D3E90347BB6A1B1BFD184E
S3150FE103B02646EA68A318B3421CD83946204600F010
S3150FE103C09BF8B0B1104B1B68A3F17E62A2F58432A4
S3150FE103D0B2F5605F14D219680C4A914210D1D9680F
S3150FE103E04FF0FF32204600F0BFF8094BC31A5842CF
S3150FE103F05841F8BD304600F074F806F50066D8E7C7
S3150FE104000020F6E72800E10F2808E10F07B0CD5EDF
S3150FE10410E320BBDE4FF000534FF20F025A800A4A38
S3150FE104201880136823F4E06343F480631360BFF32A
S3150FE104304F8F0649064BCA6802F4E0621343CB605D
S3150FE10440BFF34F8F00BFFDE700500E4000ED00E018
S3150FE104500400FA054FF000534FF20F015A888A4212
S3150FE1046001D1188870473AB91B88012B40F2022057
S3150FE1047018BF4FF4007070474FF4007070470000DB
S3150FE10480044B41F671321A649A6822F001029A60BE
S3150FE10490704700BF00000E40034B9A6822F001023D
S3150FE104A09A6000221A64704700000E4007B50346B2
S3150FE104B09B0753BF6FEA01414FF6FF7343EA0141D1
S3150FE104C06FEA1141019120F00300FFF7D9FF0422F2
S3150FE104D00DEB0201FFF7DAFEFFF7DEFF03B05DF882
S3150FE104E004FB08B5FFF7CCFFFFF788FEFFF7D4FF54
S3150FE104F0B0FA80F0400908BDF8B540EA02031446A8
S3150FE10500DA0705460E4601D50020F8BD0CB90120E4
S3150FE10510FBE7830725D50988FFF7C8FF0028F3D145
S3150FE10520023C032C05F1020506F102060FD924F070
S3150FE105300307FFF7A5FF3A4631462846FFF7A6FE22
S3150FE10540FFF7AAFF0028DFD13E443D44E41B002C10
S3150FE10550DDD031882846FFF7A9FFB0FA80F04009D0
S3150FE10560D3E7032CE3D8F4E710B50B4CD4F8B0304E
S3150FE1057043F04003C4F8B030084B01241C6001443A
S3150FE105809A605C601A46884201D1D86910BD10F8AD
S3150FE10590014B9461F7E700BF00400E4000C00140F8
S3150FE105A00B4880470B4880470B490C4A0C4B9A4244
S3150FE105B0BEBF51F8040B42F8040BF8E709490A4AA2
S3150FE105C000209142BCBF41F8040BFAE7FFF762FE48
S3150FE105D08900E10FCD02E10F2006E10F00010020B6
S3150FE105E010010020100100202C010020FEE700BFC2
S3150FE105F0F8B500BFF8BC08BC9E467047F8B500BF1A
S3150FE10600F8BC08BC9E467047AD1007B0010000006C
S3150FE10610000408010008E10F00800000000000005F
S3150FE10620C0EA2101C0EA21016D00E10F4900E10FA6
S3150FE10800007C0020A108E10F9D08E10FF108E10F3F
S3150FE108109D08E10F9D08E10F9D08E10F9D08E10F8E
S3150FE108209D08E10F9D08E10FC032E10F9D08E10F31
S3150FE108309D08E10F8032E10F9D08E10F9D08E10F61
S3150FE1084010B5054C237833B9044B13B10448AFF314
S3150FE1085000800123237010BD080100200000000075
S3150FE10860B434E10F08B5034B1BB103490348AFF3AA
S3150FE10870008008BD000000000C010020B434E10F38
S3150FE10880044B054A9A60D3F8882042F47002C3F804
S3150FE108908820704700ED00E00008E10FFEE7000059
S3150FE108A008B5FFF7EDFF00F05DF80A4A0A4B0B4971
S3150FE108B08B4206D30A4B0B4A0021934206D300F033
S3150FE108C01BF852F8040F43F8040BF1E743F8041B46
S3150FE108D0F3E700BFB434E10F000100200801002067
S3150FE108E0080100202401002000F096BE00F0E5BECD
S3150FE108F04FF4017002F060BC184B07B501225A6440
S3150FE109001A6842F480721A6003F5405340221A6165
S3150FE109105A685203FCD4FFF7E7FF02F046FC01F0F9
S3150FE10920C6FA30B940F2012002F046FC4FF40170ED
S3150FE109300AE00B4B0193019B002B0BDC40F20543C5
S3150FE109409842F3D140F2032002F036FC002003B0C7
S3150FE109505DF804FB019B013BECE700BF00000E4095
S3150FE1096000350C0008B5184B5B685B050AD401230B
S3150FE1097004221268013214D14FF40270BDE8084027
S3150FE1098002F00CBC02F038FCA0F2022080B207287C
S3150FE10990EDD8012303FA00F010F0C90F18BF0023B9
S3150FE109A0E6E783B1002002F06DFB0028E4D0074AA9
S3150FE109B0002393601846016881F3088881F309885B
S3150FE109C040688746FEE708BD00500E4000ED00E0A7
S3150FE109D00020704710B50B4CD4F8B03043F040030C
S3150FE109E0C4F8B030084B01241C6001449A605C6086
S3150FE109F01A46884201D1D86910BD10F8014B9461AE
S3150FE10A00F7E700BF00400E4000C00140F8B50446CD
S3150FE10A101D4616460F4600F0E6FEDDE906122046B4
S3150FE10A2000F0E7FE0023636284F838703268C4F899
S3150FE10A3039207268C4F83D202B0CB26884F8453032
S3150FE10A402B0AC4F8412084F8463084F84750F8BDA4
S3150FE10A5030B585B01D4600F12803CDE901120093AB
S3150FE10A6000F1240200F13803294600F0E0FE05B05B
S3150FE10A7030BD0000F0B50F46A3B016461D4604463D
S3150FE10A8020B319B312B30121124800F06DFC4022D5
S3150FE10A90002102A802F0DFFB294602A800F010FBB5
S3150FE10AA012AD28990AA800F00BFB3946284600F04B
S3150FE10AB007FB31461AA800F003FB009502AB202293
S3150FE10AC02146054800F00CFB23B0F0BD40F2016072
S3150FE10AD0FAE700BF00050A0000000F4010B5044613
S3150FE10AE001F04CF920460021BDE8104001F071B943
S3150FE10AF001F079B9014601F078B91C2350F8042FBA
S3150FE10B000AB9043BFAD1002BCCBF00200120704774
S3150FE10B1030B50568046802680368C1E90054C1E9A4
S3150FE10B2002230568046802680368C1E90454C1E950
S3150FE10B30062330BDD1E9022330B5D1E90054056072
S3150FE10B40046002600360D1E90454D1E9062305602C
S3150FE10B5004600260036030BD2DE9F04104461D4695
S3150FE10B600E46904600211C22181D02F074FB01234C
S3150FE10B702B6000F037FC4146074604F58070FFF71E
S3150FE10B80D9FF314604F5827004F58476FFF7D2FF7B
S3150FE10B9029463046FFF7CEFF384600F027FC0D4FCA
S3150FE10BA00D4B0E4A0E490F4823656369DB010BD5E1
S3150FE10BB000F018FC294604463046FFF7A9FF204608
S3150FE10BC0BDE8F04100F012BC22656165A065E765FD
S3150FE10BD0EBE700BF3938010039398401D02484FCB1
S3150FE10BE01C82FED88B1C81A02DE9F04F8DB00446F7
S3150FE10BF098460F46154600F0F5FB04F5827607F1A8
S3150FE10C004002114604F5867B814630460392FFF793
S3150FE10C1091FF29465846FFF78DFF04F5887318466D
S3150FE10C2005F120010293FFF785FF484600F0DEFB51
S3150FE10C30424921654249616501254249A165E5655B
S3150FE10C4000F0D0FB04F5847907F1200A01903946CB
S3150FE10C503046FFF76FFF51464846FFF76BFF039AA2
S3150FE10C60029B11461846FFF765FF019800F0BEFBA0
S3150FE10C70354B2365354B6365A56500F0B3FB04F58D
S3150FE10C808073019008F1400118460293FFF740FF88
S3150FE10C9004A94846FFF73CFF019A104600F0A6FB70
S3150FE10CA000F0A0FB394601905846FFF743FF019A42
S3150FE10CB0104600F09BFB264A2265264A62656FF4D1
S3150FE10CC02673A2F5FE221A44A265E56500F08AFBBA
S3150FE10CD0514607463046FFF72DFF384600F086FBB3
S3150FE10CE01D4A22651D4A6265A56500F07BFB4146FB
S3150FE10CF007464846FFF70CFF384600F077FB00F052
S3150FE10D0071FB04A907463046FFF714FF384600F09A
S3150FE10D106DFB134A2265134A6265A56500F062FB16
S3150FE10D20029B044608F120011846FFF7F1FE204623
S3150FE10D3000F05CFB0DB0BDE8F08F00BF8AD11C81DE
S3150FE10D40D91C83D11C81E11CD01482CB1481E11C07
S3150FE10D508CE11C811C84D91CE014D8141482E11C8B
S3150FE10D6084D31482D11CE0142DE9F041044690B0EE
S3150FE10D700F46244E0521904600F03BFB00232360EE
S3150FE10D80236363630FCE08AD0FC596E80F0085E8C1
S3150FE10D900F0008AA6B4607F140012046FFF7DCFE7C
S3150FE10DA000F020FB04F586750646694604F5827068
S3150FE10DB0FFF7C0FE39462846FFF7BCFE07F12001D3
S3150FE10DC004F58870FFF7B6FE304600F00FFB0E4BC9
S3150FE10DD023650E4B63650E4BA3650123E36500F0B7
S3150FE10DE001FB08F12001064604F58070FFF790FE3E
S3150FE10DF041462846FFF78CFE304600F0F7FA10B071
S3150FE10E00BDE8F0810033E10F8AD11C81D91C83D172
S3150FE10E101C81E11C2DE9F04FA5B01D460446CDE935
S3150FE10E20001205A81C22002102F015FA4FF0010865
S3150FE10E3020220021284605F12007CDF8108005F183
S3150FE10E40400A02F008FA20220021384602F003FA9E
S3150FE10E5020220021504602F0FEF90521204600F03E
S3150FE10E60C8FA00232360FF26236363637211019897
S3150FE10E7006F01F0350F8222008FA03F3134206F196
S3150FE10E80FF3102D10E460029F0D100F0ABFA04F59D
S3150FE10E9082733946804618460293FFF74BFE40466A
S3150FE10EA000F0A4FA7A4B7B4A236562657A4AA2651A
S3150FE10EB000F098FA04F5807914A980464846FFF7C1
S3150FE10EC027FE404600F092FA00F08CFA294680465A
S3150FE10ED04846FFF72FFE404600F088FA6F4A704BFF
S3150FE10EE022654FF486726365A26500F07BFA04F51D
S3150FE10EF0867883460CA94046FFF70AFE1CA94846A9
S3150FE10F00FFF706FE584600F071FA00F06BFA029B06
S3150FE10F100393514683461846FFF70CFE584600F0F9
S3150FE10F2065FA604B23650123636500F05BFA04F50F
S3150FE10F30847B294602905846FFF7FCFD029A10463C
S3150FE10F4000F054FA584A226502F1D94202F5DE124F
S3150FE10F5002F595626265A2F586120123A2F2BA4203
S3150FE10F60A265E36500F03EFA1CA902905846FFF729
S3150FE10F70E1FD0CA94046FFF7DDFD029A104600F0B0
S3150FE10F8035FA4A4A22654A4A62654A4AA26500F03B
S3150FE10F9029FA2946029004F58870FFF7B9FD029AFE
S3150FE10FA0104600F023FA00F01DFA039B0290394632
S3150FE10FB01846FFF7BFFD58465146FFF7BBFD14A98B
S3150FE10FC04046FFF7B7FD029A104600F00FFA3A4B8B
S3150FE10FD023653A4B636500F005FA51468346484669
S3150FE10FE0FFF796FD39464046FFF792FD584600F06A
S3150FE10FF0FDF9012106F01F0301FA03F372110199BD
S3150FE1100051F82220134217D02B687BB92846FFF7F8
S3150FE1101074FD58B12B6A4BB93846FFF76EFD28B10F
S3150FE110202B6C1BB95046FFF768FD60B92B46009A4A
S3150FE1103029462046FFF7D8FD16F1FF36BFF425AF57
S3150FE1104025B0BDE8F08F009BAC4603F1200E186882
S3150FE110505968624603C2083373459446F7D1BC46D5
S3150FE1106003F1200E18685968624603C208337345C7
S3150FE110709446F7D10DF1100EBEE80F0005F1400CC5
S3150FE11080ACE80F009EE80F008CE80F00D4E700BF35
S3150FE110908AD11C81821CC00C0C0C0100C00C0C8384
S3150FE110A0D91C83D88AD11C83DA0C81148CE11CD02C
S3150FE110B01484E31482D11C01D81483D11CC00C0112
S3150FE110C010B520220C46002102F0C5F804F12002EA
S3150FE110D0013812F8013D00F8013FA242F9D110BDE6
S3150FE110E02DE9F04FBBB0044690469A46449F894698
S3150FE110F0002900F01B81002B00F01881002F00F072
S3150FE111001581002A40F312810023036003634363D1
S3150FE111104368884E43F0100343600C2100F069F9F0
S3150FE11120636823F4406343F400636360636823F405
S3150FE11130407343F4007363600FCE2AAD0FC596E893
S3150FE111400F0085E80F0000F04DF904F5847683462C
S3150FE111503946304604F58675FFF7ECFC2AA9284691
S3150FE11160FFF7E8FC584600F041F90122724B23657F
S3150FE1117062656269D20104D440F202603BB0BDE818
S3150FE11180F08F391F082251F8040F002800F0C680AE
S3150FE11190019300F027F907F1200B009059463046ED
S3150FE111A0FFF7C8FC2AA92846FFF7C4FC009A1046A8
S3150FE111B000F01CF9019B2365012363656369DB017C
S3150FE111C0DAD507F11C02082352F8041F002900F0B3
S3150FE111D0A980B8F1200FA8BF4FF0200820220021E7
S3150FE111E032A802F038F808F1FF30CC4620F00303BD
S3150FE111F03AA940330B441CF8012B00F00301C90057
S3150FE112008A4053F8601C0A4343F8602CACEB0903A0
S3150FE11210434500F1FF30E9DB00F0E4F832A98046FF
S3150FE112203046FFF787FC404600F0E0F8434B236575
S3150FE1123000F0D8F804F58078814632A94046FFF7E9
S3150FE1124067FC484600F0D2F82AAA02AB5946204677
S3150FE11250FFF782FC00F0C6F804F58879834602A908
S3150FE1126004F58270FFF766FC32A94846FFF762FC88
S3150FE1127039462846FFF75EFC584600F0B7F8304B83
S3150FE11280236503F1FA43A3F50063636500F0AAF85A
S3150FE1129032A983464846FFF73BFC02A94046FFF7D2
S3150FE112A037FC584600F0A2F80AAB32AA2549204688
S3150FE112B0FFF7B0FD22AB02AA51462046FFF7AAFD82
S3150FE112C00AAA11462046FFF74FFD22AB19460AAA95
S3150FE112D02046FFF789FC22AA11462046FFF744FD77
S3150FE112E000F080F80C218046204600F082F822A912
S3150FE112F03046FFF71FFC39462846FFF71BFC4046F1
S3150FE1130000F074F8104B2365104B6365636913F0B6
S3150FE11310807F40F2046018BF00202FE7013A7FF487
S3150FE1132032AF29E7013B7FF44FAF25E740F201608A
S3150FE1133024E700BF2033E10F3035DA1030D00C014E
S3150FE1134030E11C844033E10F3035DA1439380100CE
S3150FE11350044BD3F84421D20703D4D3F840211042EA
S3150FE11360FBD1704700400E40C0F30322013A38B576
S3150FE113700546092A13D8DFE802F0231312120516E0
S3150FE1138019121C20104C0020C5F3043508B1FFF7E4
S3150FE11390DFFF04F1047405EBC404A400216038BD3A
S3150FE113A000200A4CF0E70120094CEDE71020094C2B
S3150FE113B0EAE74FF48030084CE6E70020074CE3E715
S3150FE113C00020074CE0E700BFB0400E40C0400E40A2
S3150FE113D0E0400E40E8400E40F0400E4050410E40D6
S3150FE113E000400E40EFF3108072B6704700B962B657
S3150FE113F070470E2910B543680DD801228A4047F28E
S3150FE11400E004224223F01F0306D140F61F74224265
S3150FE1141001D01943416010BD41F01001F9E7000019
S3150FE11420094A0A4BD969C90705D512B96FF0020006
S3150FE114307047013AF6E7002AF8D001221861DA601F
S3150FE11440D86940F3800070478096980000000E40FF
S3150FE1145070B509B9002070BDC2B9244B082550F803
S3150FE1146022409C61224CDD600132DE69F60705D52B
S3150FE1147014B96FF00200EEE7013CF6E7002CF8D065
S3150FE11480DC69A60720D49142E9D1E3E7EFF31085B2
S3150FE1149072B6164B00221026DC69240717D550F8D1
S3150FE114A022409C6101329142DE60F5D105B962B607
S3150FE114B00E4A0F4B1146D069C40711D573B96FF0B8
S3150FE114C00200CB699B07C6D56FF00100C3E7DC6964
S3150FE114D004F01904102C08BFDC60DDE7013BEAE7F5
S3150FE114E0002B0CBF6FF002000020EAE700000E4070
S3150FE114F0809698002DE9F04799461D4B0E4641F629
S3150FE1150071311D6C19641B498046486849689968B1
S3150FE1151041F00101ADB2996097084FF0000ABA4563
S3150FE1152001D3002005E008EB8A042046FFF778FF98
S3150FE1153048B10F4B9A6822F001029A600DB1002271
S3150FE115401A64BDE8F087C4F30A04C4F50064A4087D
S3150FE11550A7EB0A039C4228BF1C464A462146304662
S3150FE11560FFF776FF0028E4D1A24406EB8406D6E71F
S3150FE1157000000E4000300E40204B41F671311A6CDF
S3150FE1158010B519641E494C684968996841F0010123
S3150FE11590996001211861D960D9694C0792B209D5D1
S3150FE115A0996821F0010199600AB100221A644FF09E
S3150FE115B0FF301FE00221134CD9601946D869C007E5
S3150FE115C000D56CB9C8698B6810F0020023F00103EE
S3150FE115D08B6007D00AB100230B646FF0010009E0BD
S3150FE115E0013CEBE724B902B10C646FF0020001E0B4
S3150FE115F00AB1086410BD1046FCE700BF00000E40BB
S3150FE1160000300E40809698000023FFF773BF00006D
S3150FE11610004870478033E10F00207047024BD869CD
S3150FE1162000F00100704700BF00000E4008B5034609
S3150FE1163008469918B1F5002F04D8194601F000FEB6
S3150FE11640002008BD40F20240FBE78318B3F5002FF7
S3150FE1165010B50ED940F2024010BDC45801340AD17B
S3150FE1166004339A42F9D801F01DFC0028F2D000208C
S3150FE11670F2E70023F5E740F20340EDE738B5C1F3B2
S3150FE116800A030446B3B9C0F30A039BB90D18B5F5BE
S3150FE11690002F08D8204604F5006401F0F8FBA542B7
S3150FE116A004D00028F6D140F2024038BD0028FAD026
S3150FE116B00020FAE740F20440F7E70020704730B523
S3150FE116C00568046802680368880785B011D0CDE91B
S3150FE116D00054CDE902236C460B4604AD224603CAFC
S3150FE116E0AA4218605960144603F10803F6D105B012
S3150FE116F030BDC1E90054C1E90223F8E77FB58B0795
S3150FE11700024615D00B466D4601F110061868596869
S3150FE117102C4603C40833B3422546F7D1009B136029
S3150FE11720019B1360029B1360039B136004B070BDB2
S3150FE11730D1E90054D1E90203156014601060F4E7B2
S3150FE1174000F10473102A30B54FEA43131AD101227F
S3150FE117501A60D1E90054D1E90223C0F81051C0F85B
S3150FE117601041C0F81021C0F81031D1E90454D1E984
S3150FE117700623C0F81051C0F81041C0F81021C0F887
S3150FE11780103130BD00221A60D1E90054D1E90223AC
S3150FE117904562446242624362F3E7F0B58C0789B072
S3150FE117A006460B4615460FD0082A6C4610D101F1B5
S3150FE117B0100718685968224603C20833BB4214461C
S3150FE117C0F7D12A4669463046FFF7BAFF09B0F0BDB1
S3150FE117D001F1200718685968224603C20833BB4254
S3150FE117E01446F7D1EDE718B12422002101F033BDFC
S3150FE117F0704770B50E461546044690B189B124225D
S3150FE11800002101F028FD802D02D0B5F5807F0BD1A7
S3150FE118102046EA0840F8045B314601F011FD00204D
S3150FE1182070BD6FF02100FBE76FF02200F8E72DE9BD
S3150FE11830F04F814685B088469B461646F2B117684A
S3150FE11840B9F1000F00F0B5800F9B002B00F0B180CE
S3150FE11850109B002B00F0AD80BBF1000F00F0A980CB
S3150FE118600E9B002B00F0A580D9F80030802B03D01A
S3150FE11870B3F5807F40F0A08000240DE01746DFE747
S3150FE11880A7B10F9B0E9A1B5DD25D5340109A01379C
S3150FE11890135507F00F0701344445F1D3002E00F03D
S3150FE118A08E803760002005B0BDE8F08F00F08AF832
S3150FE118B04FF44043476003600546FFF793FDD9F8C0
S3150FE118C00030802B824614BF1022082209F1040151
S3150FE118D02846FFF762FF05F1840318465946009340
S3150FE118E0FFF70CFF5046A8EB040A2AF00F0AFFF7A1
S3150FE118F07DFDA244032354451AD10F9B03EB040A42
S3150FE11900109B1C440F9B434401930323019A924579
S3150FE119102DD1FFF767FD594604460098FFF7CFFE35
S3150FE119202046FFF763FD284600F056F84446B3E735
S3150FE119304822AA600522AA602A699107FCD4AB6006
S3150FE119400293FFF74FFD0F9B0190191905F1A000C7
S3150FE11950FFF7D4FE109B05F180001919FFF7AFFED3
S3150FE11960019A1046FFF742FD1034029BC3E7AFB968
S3150FE119704822AA600522AA602A699207FCD4AB60C5
S3150FE119800393FFF72FFD0E99029005F18000FFF704
S3150FE1199096FE029A1046FFF729FD039B0E991AF858
S3150FE119A0012BC95D01374A4004F8012B07F00F07F8
S3150FE119B0ACE76FF0210076E76FF0220073E7304670
S3150FE119C071E70000024B034801221A60704700BF1E
S3150FE119D00016C84300000F40094B98420ED003F59D
S3150FE119E08063984209D10122064B03EBC2035A6881
S3150FE119F0054B13449B0000221A6070470022F3E760
S3150FE11A0000000F40B433E10F8005F2102DE9F04FDE
S3150FE11A1099B007460E4690461D46FFF7D3FF04469B
S3150FE11A202FB1022F00F2E5800423036000E0076087
S3150FE11A3000236360E364626822F4406262602363B9
S3150FE11A40636356F8232012BA4DF823200133082B8E
S3150FE11A50F7D1FFF7C7FC009BC4F80431019BC4F82B
S3150FE11A600431029BC4F80431039BC4F80431049B8F
S3150FE11A70C4F80431059BC4F80431069BC4F804315C
S3150FE11A80079BC4F80431FFF7B1FCDFF874A15A4B99
S3150FE11A902365002608F00309229B9E4239D1AB0745
S3150FE11AA000F08A80FFF79EFCD4F80061D4F80011AC
S3150FE11AB0D4F80021D4F80031CDE90061CDE9022354
S3150FE11AC0D4F80061D4F80011D4F80021D4F800312C
S3150FE11AD0CDE90461CDE906232E46FFF787FC08AF72
S3150FE11AE06B461A4603CABA4230607160134606F175
S3150FE11AF00806F6D12046FFF76FFF2B1F1C3553F86B
S3150FE11B00042F12BAAB421A60F9D1002019B0BDE821
S3150FE11B10F08F08EB861BB9F1000F0FD008AA0BF176
S3150FE11B20400CDBF80000DBF80410134603C30BF19E
S3150FE11B30080BE3451A46F4D10DF1200BFFF752FCE2
S3150FE11B40DBE90131DBF80C20DBF80070C4F8A47196
S3150FE11B50C4F8A431C4F8A411C4F8A421DBE9053112
S3150FE11B60DBF81C20DBF81070C4F8A471C4F8A431BB
S3150FE11B70C4F8A411C4F8A421DBE90931DBF82C2060
S3150FE11B80DBF82070C4F8A471C4F8A431C4F8A41129
S3150FE11B90C4F8A421DBE90CC1DBE90E23C4F8A4C127
S3150FE11BA0C4F8A411C4F8A421C4F8A431FFF71EFCAC
S3150FE11BB00136C4F850A06FE7FFF714FCD4F80061C3
S3150FE11BC0D4F80011D4F80021D4F80031C5E9006149
S3150FE11BD0C5E90223D4F80061D4F80011D4F8002145
S3150FE11BE0D4F80031C5E90461C5E90623FFF7FEFB29
S3150FE11BF080E702488AE700BF888AC80180AFFFFF06
S3150FE11C00070D81012DE9F3470228144680460E465A
S3150FE11C101F46DDE90A924ED81CB9002002B0BDE895
S3150FE11C20F08713683F2B42D8516809B1002F3ED197
S3150FE11C30B8F1010F3DD0224D2249B8F1020F18BF7D
S3150FE11C400D4603F03F00E318136022BF53680133DB
S3150FE11C50536090B3C0F1400A544522D33146524600
S3150FE11C60484401F0EDFA012300934A463B462946E3
S3150FE11C704046A4EB0A04FFF7C9FE3F2C56440DD9A3
S3150FE11C803D46A309009332463B4629464046FFF7B8
S3150FE11C90BDFE24F03F031E4404F03F04002CBCD0EC
S3150FE11CA0002022463146484401F0CAFAB5E73D46DF
S3150FE11CB0C7E7054DC5E70548B0E73F2CF1D9E0E7A2
S3150FE11CC00434E10FC433E10FE433E10F80AFFFFFDB
S3150FE11CD02DE9F041012886B004460E4690461D4691
S3150FE11CE004D045D3022841D022483CE01C272A687C
S3150FE11CF0D3008DF80F3053098DF80E30530B8DF855
S3150FE11D000D30530D8DF80C306B68D90001EB527124
S3150FE11D108DF80B1002F03F025909372A8DF80A1098
S3150FE11D204FEA53314FEA535394BFC2F13802C2F12E
S3150FE11D3078028DF809108DF808300F493346CDE951
S3150FE11D4000852046FFF75EFF08220DEB02013346C1
S3150FE11D50CDE900852046FFF755FF3A4631460C9807
S3150FE11D6001F06EFA002006B0BDE8F0812027BEE74C
S3150FE11D701427BCE780AFFFFF2434E10F18B16C22C3
S3150FE11D80002101F068BA704707B5034690F868007D
S3150FE11D90002803F12000019003F12800009014BF01
S3150FE11DA001200220FFF72EFF03B05DF804FB07B514
S3150FE11DB090F868300091002B00F1280200F1200322
S3150FE11DC0014614BF01200220FFF782FF03B05DF841
S3150FE11DD004FB00239942D4BF00210121C0E9083356
S3150FE11DE080F868107047FFF7CFBFFFF7E0BF00201D
S3150FE11DF070470020704700207047002070470000B1
S3150FE11E00014B1B68186970472808E10F044B054A17
S3150FE11E101B68196891420CBF18690020704700BF13
S3150FE11E202800E10FAD1007B00120704710B5E0B003
S3150FE11E304FF4BE7201A9002000F05CF940F20124D3
S3150FE11E40002101A800F099F8A042F9D040F203234E
S3150FE11E50984203D040F2054060B010BD9DF80430C2
S3150FE11E6003F00302022AF5D09A0710D50D4A02991B
S3150FE11E701268926891420AD95C9800F06DF90028D0
S3150FE11E80E8D0FFF7C3FF0A9901F042F9E2E7DB0772
S3150FE11E90E0D504995C9800F083F90028DAD00020A8
S3150FE11EA0DAE700BF2808E10F4FF488207047FFF704
S3150FE11EB0BDBF0000004870474A43E00F0048704736
S3150FE11EC06A43E00F004870478642E00F31B10A4B93
S3150FE11ED05A68824205D80023C1E9003340F2014036
S3150FE11EE07047013053F830200A6003EBC00300203E
S3150FE11EF05B684B60704700BF9C33E10F01221A709C
S3150FE11F007047000070B40D4C0E461146626882426E
S3150FE11F100DD9013004EBC002F518526895420AD883
S3150FE11F2054F830001A46304470BCFFF77FBB40F2DD
S3150FE11F30014070BC704740F20240FAE79C33E10F73
S3150FE11F4030B5A3B004460D4602AAD0F87411D0F805
S3150FE11F506C018023FFF7D6FF0095802302AA214665
S3150FE11F6004F1280000F0D2FBD4F87431C4F87801FB
S3150FE11F708033C4F8743123B030BD1FB50023CDE9EA
S3150FE11F800033CDE90213D0F878310446A3B9D0F87E
S3150FE11F907421D0F870319A420ED26946FFF7D0FF1D
S3150FE11FA0D4F8780198B141F2070240F20123904249
S3150FE11FB008BF184604B010BDA3785BB1E27840F2D2
S3150FE11FC0022040F20323002A18BF1846F2E740F237
S3150FE11FD00120EFE740F20220ECE7000070B586B092
S3150FE11FE006AB0D46002103F8111D02931E4B11603E
S3150FE11FF00446164628461C22CDE90333059301F024
S3150FE120002AF99DF8072062B994F86E30112B08D0A2
S3150FE12010D4F878312BB9D4F87411D4F870319942D8
S3150FE120201AD32378990744BF636833602378DB07B4
S3150FE1203009D504F1080304F1240153F8040B45F81B
S3150FE12040040B8B42F9D162B92378002B40F206409B
S3150FE1205018BF002006B070BD02A92046FFF770FF3A
S3150FE12060CFE70020F6E700BFFD1EE10F70B40D4C80
S3150FE120700E461146626882420DD9013004EBC00269
S3150FE12080F518526895420AD854F830001A4630448A
S3150FE1209070BCFFF7DABA40F2014070BC704740F20C
S3150FE120A00240FAE79C33E10F074B5A68824207D9A0
S3150FE120B0013003EBC00253F830005168FFF7DEBA87
S3150FE120C040F20140704700BF9C33E10F10B5044663
S3150FE120D060B14FF480320023C0E90023044B1A7834
S3150FE120E05B680272C360FFF793FA206110BD00BF10
S3150FE120F09C33E10F37B50C4605461146204601F0F4
S3150FE1210017F848B969462846FFF7E0FE20B9019B63
S3150FE12110C4F86C51C4F8703103B030BD38B500F571
S3150FE12120807204460D46202300F1B801283000F0F5
S3150FE12130B3FAD4F878312BB9D4F87421D4F87031D5
S3150FE121409A4203D3A07800B1E07838BD29462046FC
S3150FE12150FFF7F6FEEDE700000F4B00B51B689B6836
S3150FE121608B42E5B003D3002065B05DF804FB4FF475
S3150FE12170BE7205A9FFF7BEFF0028F4D102238DF841
S3150FE121801530CDE901000390044B049301A905A88D
S3150FE12190FFF7C4FFE8E700BF2808E10F3130E10F91
S3150FE121A000B5E5B04FF4BE7205A9FFF7A3FF70B90D
S3150FE121B001238DF81530074B0190CDE902300490DC
S3150FE121C001A905A8FFF7AAFF65B05DF804FB00209A
S3150FE121D0FAE700BF0D30E10F2DE9F0419AB0502239
S3150FE121E004460D4606A8002101F035F81422002118
S3150FE121F001A801F030F801A8FFF768FF049B012B56
S3150FE122000ED8002323604FF0FF320123AB4203D3F5
S3150FE1221000201AB0BDE8F08144F823200133F5E739
S3150FE12220AB426BD3FFF740FE059B0C2206A9064690
S3150FE12230DF68FFF7FBF90028EBD1DFF8CC80069BCF
S3150FE12240434516D1089A06A93046FFF7EFF94FF045
S3150FE12250FF32089906A8FEF7BDFB2A4B984233D009
S3150FE1226004EB85054FF0FF33A54213D044F8043B49
S3150FE12270FAE737440C2206A93846FFF7D7F90028C3
S3150FE12280C7D1069B43450BD004EB85054FF0FF33D2
S3150FE12290A54202D140F20550BBE744F8043BF7E70C
S3150FE122A006A9089A3846FFF7C1F9059B3046D96862
S3150FE122B0FFF7E4F90028ACD1089A06A93046FFF7F3
S3150FE122C0C4F90028BED0A4E7089BA3F11002920837
S3150FE122D0AA4228BF2A460023934207D14FF0FF3285
S3150FE122E0AB4295D244F823200133F9E706A901EB76
S3150FE122F08301C96844F823100133EDE740F2045036
S3150FE1230087E700BFE320BBDE39528FE1F0B59BB023
S3150FE123100D4644220021074609A800F09CFF304AEA
S3150FE123200123CDE9062300215023142201A80893A6
S3150FE1233000F091FF01A8FFF7C9FE049BAB424BD317
S3150FE12340012B08D83B680133012B40F2045098BFAB
S3150FE1235000201BB0F0BDFFF7A7FD059BDC68102D34
S3150FE123600646044428BF10250023AB4226D14FF081
S3150FE12370FF32102B2AD14C214FF0FF3206A8FEF780
S3150FE1238029FB059BC0431990D9682046FFF776F9DB
S3150FE123900028DED1502206A92046FFF756F900287C
S3150FE123A0D7D1059B3046D968FFF768F90028D0D118
S3150FE123B0502206A93046FFF748F9CAE706AA02EB0B
S3150FE123C0830257F82310D1600133CEE706A901EB5B
S3150FE123D083010133CA60CCE740F20450B9E700BF8D
S3150FE123E039528FE170B596B014220021064601A845
S3150FE123F000F031FF01A8FFF769FE049C012C1ED9FD
S3150FE1240006AD21462846FFF7E7FE20B140F2055318
S3150FE1241098420DD1002055F820305A1C0AD116AB3F
S3150FE1242003EB8000214640F8406C2846FFF76EFF2C
S3150FE1243016B070BDB34205D001308442EBD140F204
S3150FE124400250F5E740F20350F2E770B5D1E90152D8
S3150FE12450AA4205D290F840302B449B1A402B10D953
S3150FE12460002012E00A6890F84040D65C90F84120CF
S3150FE12470224402F03F020133013486548B6080F827
S3150FE1248040408B689D42EDD8012070BD2DE9F843A0
S3150FE124901746D1E90125521B90F840509DF820903F
S3150FE124A09DF824802A44934204460E4657D9FFF7F6
S3150FE124B0CCFF00285DD1122384F8463041F20200A9
S3150FE124C0BDE8F88394F84120A25C7A5594F841204F
S3150FE124D0013202F03F0284F8412094F84020013A9C
S3150FE124E084F84020013594F8402012B1AB42E9D18E
S3150FE124F01D46D6E901128A4201D2AB4231D8AB422F
S3150FE12500D9D1D4F8882029463846FEF763FAC4F8BC
S3150FE125108800B9F1000F04D02A463946E06CFEF780
S3150FE12520E7FAB8F1000F08D094F843302BB12B46F8
S3150FE125303A463946A06CFEF78BFA94F8433043B12D
S3150FE12540E36DA26D2B449342E36524BF002384F828
S3150FE125504330636D1D44656541F20300B0E7002525
S3150FE12560C1E731688A5C7A55B2680132B2600135EA
S3150FE12570BFE70020A4E700007FB50023CDE90033D4
S3150FE12580082315460DEB03020446FFF77FFF41F2E1
S3150FE1259003039842064626D194F8433063B10822E5
S3150FE125A00DEB0201E06CFEF7A3FA08230DEB030234
S3150FE125B01146A06CFEF74CFA039A6A6094F8432031
S3150FE125C0029B2B605AB9094A934208D0084A9342B3
S3150FE125D005D008220DEB0201E06CFEF789FA6B6874
S3150FE125E0236500236365304604B070BDF70A0AF729
S3150FE125F0FC0404FC2DE9F843044658680D461646DB
S3150FE126001F46002843D08B0743D1FFF7F9FB216E15
S3150FE1261000F1040C06EB0109CC451DD800F11C02B3
S3150FE12620914219D28C45634638BF0B46591AA3EB33
S3150FE126300C00914594BFC3EB0909C3EB020905EB06
S3150FE12640010868304A464146204400F0F9FD4A4602
S3150FE12650FF21404600F0FFFDFFF7D8FB226E031D79
S3150FE1266093420AD3B1180830814206D39B1AEA582E
S3150FE12670C4F880204FF0FF32EA50D7E900383246EE
S3150FE12680206E2946C047236E1E4426660020BDE80C
S3150FE12690F88341F20200FAE7F8B504464FF0FF3648
S3150FE126A0154603F02003002280F84620A0F84020CB
S3150FE126B080F8432080F8452080F84420C0E91822AD
S3150FE126C00F4680F84230C0F888601822FF21683043
S3150FE126D000F0C1FDC4F88060C4F88460C4E91275E6
S3150FE126E0FFF78BFB18B117B941F20B00F8BDFFF7F6
S3150FE126F082FB30B1002DF7D0E06CFEF7EFF9002049
S3150FE12700F4E7002DF8D12846F0E700002DE9F04F68
S3150FE1271099B09B46CDE90523229E002304468946BF
S3150FE1272007939846079A5A4557D294F84630122B93
S3150FE12730F9D8DFE813F05B00700054009A00B60198
S3150FE127403B003200ED013B00CD013B00CD01B30271
S3150FE12750510313001C032003480251030027636D45
S3150FE127600F2B41D8012510230197009508AA05A93A
S3150FE127702046FFF78BFE41F2030398427AD1D4F854
S3150FE1278048A0FFF79FFB8023CDE9000309AA2B465B
S3150FE1279002215046FEF73AF9E1E70125D4E9143271
S3150FE127A09A42C0F01D8184F84650BBE70DF1200A2D
S3150FE127B0D4E91452AA42079916D2069BAD1A94F898
S3150FE127C040205B1A032D134440F2A681032B00F23E
S3150FE127D0CA8105A92046FFF738FE00204AE0002509
S3150FE127E0636D072B40F2C580012311E003AA05A90A
S3150FE127F02046FFF7C1FE41F2030398423AD1049B0B
S3150FE12800236500236365039AB44B9A422DD10223C4
S3150FE1281084F8463086E703AA05A92046FFF7ACFE02
S3150FE1282041F20303984225D194F84420039B22B148
S3150FE12830AB4A934219D10C23EAE794F84220D10728
S3150FE1284050D594F84320002A40F0C982A54A934215
S3150FE1285042D017D8A44A934207D00ED89F4A934243
S3150FE1286003D002F1B642934216D1122384F84630D1
S3150FE1287041F2010019B0BDE8F08F9C4A9342F4D0C2
S3150FE128809B4AF0E79B4A93421CD00DD89A4A934252
S3150FE1289044D09A4A934217D0122384F8463003A8BC
S3150FE128A0FFF7A5FAD8B1E3E7954A9342DDD0954A0A
S3150FE128B09342DAD08A4A9342EED1FFF79CFA002887
S3150FE128C0B9D0D2E70E23A3E70F2384F84630236D61
S3150FE128D0A3650023E36525E7122384F8463041F229
S3150FE128E00800C7E7844A934214D000F27D827F4AFB
S3150FE128F0934207D07E4A934206D07B4A93420FD149
S3150FE12900062385E7042383E7072381E709237FE787
S3150FE129100B237DE794F84330002BA6D1102377E7FD
S3150FE1292003A8FFF764FAD0B11123039884F8463070
S3150FE12930C4F88C00FFF75DFA94F842309A068046A8
S3150FE129407FF5F0AE00283FF4EDAE4368002B3FF480
S3150FE12950E9AE2046984700283FF4E4AE88E7122314
S3150FE1296084F8463094F84330002BB8D041F2040096
S3150FE1297080E7012300930195082308AA05A92046BC
S3150FE12980FFF784FD41F2030398427FF473AF089B8F
S3150FE1299003F07F43B3F1407F05D0122384F846302D
S3150FE129A041F2090066E7099B0293DB070ED594F81E
S3150FE129B0423043F0010384F84230FFF71CFA002856
S3150FE129C03FF40EAF029BDF0504D509E7FFF715FAD2
S3150FE129D00028F2D0122384F8463041F20A0049E783
S3150FE129E0CDE9005508AA05A92046FFF74FFD41F2AB
S3150FE129F0030398427FF43EAF09F1080C08AF634633
S3150FE12A000DF1380E3A4603CA7245186059601746FA
S3150FE12A1003F10803F6D11068186099F8003043F016
S3150FE12A20010389F800306046FFF7FEF900287FF4CD
S3150FE12A30B5AE122384F8463041F20C001AE70123B2
S3150FE12A40CDE9003308AA082305A92046FFF71EFDA5
S3150FE12A5041F2030398427FF40DAF99F800302A4A09
S3150FE12A602A4843F0020389F800301268089BC9F837
S3150FE12A700430236D1168083BC9F824308142099B64
S3150FE12A80029303D1D2689A427FF4EFAE052384F81D
S3150FE12A90463094F8453043F0010384F8453000237E
S3150FE12AA06366636D072BCAD93CE60423CDE900556E
S3150FE12AB008AA05A92046FFF7E9FC41F2030398426C
S3150FE12AC07FF4D8AE226D089B0293042A01D92366BF
S3150FE12AD00125636D032BE8D90A2399E6EB17A603C4
S3150FE12AE0FC0404FCF70909F7F40A0AF4F50909F5F8
S3150FE12AF0F60808F6FA0606FAF70A0AF7F90707F9E2
S3150FE12B00FD0303FDFE0101FE2800E10FAD1007B045
S3150FE12B100023636608237BE69D423FF65AAE9D424C
S3150FE12B2028BF1D46032D88BF25F003050123CDE9F7
S3150FE12B30003352462B4605A92046FFF7A7FC41F283
S3150FE12B40030398427FF496AE94F84630082B13D1DF
S3150FE12B50B7688FB13368606E2A465146B847636EE0
S3150FE12B601D44656624E6402D28BF4025D7E74FF083
S3150FE12B70FF320AF805200135032DF8D90A2B06D1C4
S3150FE12B8033462A4651462046FFF734FD10E6052B1C
S3150FE12B907FF40EAE99F8013098077FF509AEF36829
S3150FE12BA0002B3FF405AE626E042A0AD85319062BA1
S3150FE12BB007D909AB9B1A1A68C4F884204FF0FF3284
S3150FE12BC01A60F768C6E794F84230990607D5D4F844
S3150FE12BD08C00FFF70EF9804600283FF449AE012736
S3150FE12BE03FE0002B58D0B8F1000F55D0D8F8103090
S3150FE12BF0002B51D020469847DDE90653ED1A94F89C
S3150FE12C0040302B4498423FF6E4ADD4E91452AD1A65
S3150FE12C10402D28BF40259D4228BF1D462B46CDE9B5
S3150FE12C20007708AA05A92046FFF730FC41F2030316
S3150FE12C3098427FF41FAE94F842309A0611D5B8F157
S3150FE12C40000F3FF415AED8F808A0BAF1000F3FF424
S3150FE12C500FAE33462A4608A92046D04700287FF40F
S3150FE12C6009AED4E9142194F84230914203F02003DE
S3150FE12C70B7D3002B3FF4B8ADB8F1000F3FF4B4ADC5
S3150FE12C80D8F80C30002B3FF4AFAD314620469847CC
S3150FE12C9000283FF4A9ADEDE50120ADE70023CDE92D
S3150FE12CA0003308AA042305A92046FFF7EFFB41F2FB
S3150FE12CB0030398427FF4DEADD4F88820564B9A424F
S3150FE12CC005D0122384F8463041F20500D2E5FFF72D
S3150FE12CD092F810B9012389F8033099F80330002BE4
S3150FE12CE03ED094F845309B0707D0F5682DB1042205
S3150FE12CF0336804F184011046A847236E83B37368E2
S3150FE12D0073B318AF4FF0FF3347F8583D04F180081E
S3150FE12D1004224146384600F084FA40B1FFF776F8CF
S3150FE12D2028B10422D6E9003541461044A84704F1FB
S3150FE12D30680504222946384600F073FA80B17768B0
S3150FE12D40FFF75EF83368142204F16C010830B847D7
S3150FE12D507768FFF755F80422336829461044B847D8
S3150FE12D60012389F802300D2384F8463035E5012336
S3150FE12D7084F843304CE594F84450002D7FF434AD9C
S3150FE12D804023CDE9005508AA05A92046FFF77EFBAA
S3150FE12D9041F2030398427FF46DADE06CFDF7AAFEB5
S3150FE12DA0E76CFFF787F88246FFF788F853460090FE
S3150FE12DB010AA08A93846FDF75DFE38B1122389F846
S3150FE12DC0035041F2060084F8463053E5012389F8B2
S3150FE12DD0033084F8443007E541F207004AE50F4A2C
S3150FE12DE093427FF482AD40E50D4A93423FF490ADB5
S3150FE12DF00C4A93423FF48AAD0B4A93427FF490AD6E
S3150FE12E00FEF7F9FF00287FF430AD94F84330002B3D
S3150FE12E103FF411AD29E500BFE320BBDEF70A0AF760
S3150FE12E20FD0303FDFE0101FEFC0404FC044B41F628
S3150FE12E3071321A649A6822F001029A60704700BFF4
S3150FE12E4000000E40034B9A6822F001029A600022BD
S3150FE12E501A64704700000E4007B503469B0753BF40
S3150FE12E606FEA01414FF6FF7343EA01416FEA114100
S3150FE12E70019120F00300FFF7D9FF04220DEB0201C8
S3150FE12E80FEF7C2FBFFF7DEFF03B05DF804FB08B503
S3150FE12E90FFF7CCFFFEF770FBFFF7D4FFB0FA80F038
S3150FE12EA0400908BDF8B540EA02031446DA070546BC
S3150FE12EB00E4601D50020F8BD0CB90120FBE78307CB
S3150FE12EC025D50988FFF7C8FF0028F3D1023C032C6B
S3150FE12ED005F1020506F102060FD924F00307FFF704
S3150FE12EE0A5FF3A4631462846FEF78EFBFFF7AAFFC6
S3150FE12EF00028DFD13E443D44E41B002CDDD0318870
S3150FE12F002846FFF7A9FFB0FA80F04009D3E7032C73
S3150FE12F10E3D8F4E7F0B50F4B85B06C46024603F103
S3150FE12F201007264618685968254603C50833BB427C
S3150FE12F302C46F7D104AB501E13F8011D10F8012FE3
S3150FE12F40914204D1B342F7D1012005B0F0BD002083
S3150FE12F50FBE700BFA434E10FC0F30A032DE9F0410B
S3150FE12F6005460F4616460BB9FFF791FF05F50064C7
S3150FE12F7024F4FF6424F0070405EB0608A04506D800
S3150FE12F80324639462846BDE8F041FFF78BBF20466A
S3150FE12F90FFF77DFF04F50064F0E7000030B5446B01
S3150FE12FA09FB005462046FFF7B5FF18B16369012BC0
S3150FE12FB027D1A469144B1B681B69A34221D8A542EB
S3150FE12FC01FD8B4F5002F1CD803A8FDF787FD621BA8
S3150FE12FD0294603A8FDF78CFD03A8FDF78BFDFEF748
S3150FE12FE069FF0546FEF76AFF2B46009004F12002C2
S3150FE12FF0214603A8FDF73EFDB0FA80F040091FB068
S3150FE1300030BD0020FBE700BF2808E10F70B4074C85
S3150FE13010246826698642034606D8646913449C42AE
S3150FE1302002D370BCFFF798BF70BC70472808E10F59
S3150FE13030F8B5114B1B6815461A68104B9A420646AE
S3150FE130400F4618D1FEF7E2FE84196319B3F5002F87
S3150FE1305011D84EB9FEF7DAFE094B1B685A6982425F
S3150FE1306002D91869FFF713FF2A4639462046BDE80C
S3150FE13070F840FFF771BFF8BD2800E10FAD1007B0BB
S3150FE130802808E10F38B5036803F16043B3F5803FD4
S3150FE13090044634D81C4B42681B681B6993422ED8F1
S3150FE130A0B2F5002F2BD8456B4033AB4202D8B5F5BD
S3150FE130B0002F05D9FDF78CFC80F00100C0B238BDB9
S3150FE130C0FDF786FC20B12046BDE83840FFF766BF25
S3150FE130D02846FFF71FFFA0B16B69002BEFD0022B3C
S3150FE130E0F1D1AB69C4F1040119444FF0FF32204627
S3150FE130F0FDF770FC054BC31A58425841DFE7002034
S3150FE13100DDE70120DBE700BF2808E10FE320BBDEA7
S3150FE1311008B54FF0FF32FDF75DFC044B984203D142
S3150FE1312040F2092000F048F8002008BDE320BBDE9D
S3150FE13130B1F5BE7F10B5044610D34FF4BE72002130
S3150FE1314000F089F80023637004F5807204F1B80189
S3150FE1315004F12800BDE81040FFF79EBA40F20520C2
S3150FE1316010BD13B50446009101462830FFF7CEFA9C
S3150FE13170C4F8780118B141F20703984209D1A3784F
S3150FE131804BB1E27840F2032040F20223002A08BF56
S3150FE13190184602B010BD40F20120FAE74FF0005396
S3150FE131A04FF20F0218805A8070474FF000534CF2DE
S3150FE131B03C325A80704700004FF000534FF20F0236
S3150FE131C05A800A4A1880136823F4E06343F4806354
S3150FE131D01360BFF34F8F0649064BCA6802F4E062EC
S3150FE131E01343CB60BFF34F8F00BFFDE700500E4097
S3150FE131F000ED00E00400FA054FF000534FF20F0126
S3150FE132005A888A4201D1188870473AB91B88012B2F
S3150FE1321040F2022018BF4FF4007070474FF4007070
S3150FE13220704730B50024A24201D1002007E0035DCB
S3150FE1323001340D1915F8015CAB42F4D0581B30BDC2
S3150FE1324010B5431E0A44914200D110BD11F8014B4E
S3150FE1325003F8014FF7E702440346934200D1704763
S3150FE1326003F8011BF9E70000F8B500BFF8BC08BC8D
S3150FE132709E467047F8B500BFF8BC08BC9E4670473E
S3150FE1328013B779FAC925DDB7ADF3CFE0F1B614B8C7
S3150FE132900101000000000000C02C0000400000000A
S3150FE132A0040008010000000000000000000000001B
S3150FE132B00000000000000000000000000000000018
S3150FE132C007B0CD5E0100000004000801C42C000028
S3150FE132D00000000000000800F0000100E908E10F1E
S3150FE132E0ED08E10F8530E10F3131E10F6331E10F88
S3150FE132F06434E10F2000000000010000050C00001E
S3150FE13300FFFFFFFFFFFFFFFFFFFFFFFF00000000D3
S3150FE13310000000000000000001000000FFFFFFFFBA
S3150FE13320512563FCC2CAB9F3849E17A7ADFAE6BC71
S3150FE13330FFFFFFFFFFFFFFFF00000000FFFFFFFFA3
S3150FE1334096C298D84539A1F4A033EB2D817D037749
S3150FE13350F240A463E5E6BCF847422CE1F2D1176BE4
S3150FE13360F551BF376840B6CBCE5E316B5733CE2BB7
S3150FE13370169E0F7C4AEBE78E9B7F1AFEE242E34FE6
S3150FE1338001020300280000002800000000080000E9
S3150FE1339000000800AC33E10F02000000010000005D
S3150FE133A00100000000C8000000280700454652331F
S3150FE133B03200000000000F400000000000040F4043
S3150FE133C00100000067452301EFCDAB8998BADCFE1A
S3150FE133D010325476C3D2E1F0000000000000000085
S3150FE133E000000000C1059ED8367CD5073070DD1789
S3150FE133F0F70E5939FFC00B316858151164F98FA7CC
S3150FE13400BEFA4FA46A09E667BB67AE853C6EF372F7
S3150FE13410A54FF53A510E527F9B05688C1F83D9ABA9
S3150FE134205BE0CD1980000000000000000000000005
S3150FE134300000000000000000000000000000000096
S3150FE134400000000000000000000000000000000086
S3150FE134500000000000000000000000000000000076
S3150FE134600000000000010000CD20E10FCD1EE10FAD
S3150FE13470051FE10F6D20E10FA920E10F0D23E10FEC
S3150FE13480D921E10FE523E10FF520E10F7B1FE10FD5
S3150FE13490DD1FE10F1D16E10F2D16E10F4B16E10FA3
S3150FE134A07D16E10FB814B6F1E0CFF3ADB7DD25C95F
S3150FE134B0FA79B713000000006508E10F4108E10F43
S503032FCA
S70500000000FA
