:10400000D88F0020C3B10500113E020045AB05006A
:10401000A70A0A010042000004180FACA067A7011C
:104020000000000000000000000000000000000090
:1040300000000000B0F705000000000000000000D4
:104040000000000000000000FFFFFFFFFFFFFFFF78
:10405000FFFFFFFF00A006000000000000E00800D6
:10406000FFFFFFFFFFFFFFFF8000000000000000D8
:104070000000000000000000000000000000000040
:104080000000000000000000445E0120445E0120AA
:10409000D88F00201E400600DCB10500D88D00201E
:0C40A000C419002000E00800000000002F
:10420000D88F0020C3B10500113E020045AB050068
:104210003DAB050049AB05004DAB050000000000BB
:10422000000000000000000000000000BF5B000074
:1042300051AB0500DF45000083B205000F7200009E
:1042400059AB050059AB050059AB050059AB05004A
:1042500059AB0500A9D20200C9BE010059AB050047
:1042600059AB050059AB0500C9FB0200A1CD040004
:10427000BBCD04001DCD020059AB050059AB0500B4
:1042800059AB050059AB050059AB0500579A000022
:1042900059AB05002F1A050059AB050059AB0500B5
:1042A00059AB0500E11C0500D11C050059AB050008
:1042B00059AB050059AB050059AB05005FFB040085
:1042C00013FB040011FB0400BDF504005DFB0400BA
:1042D00015FB040019FB040017FB04009B9D000064
:1042E00091FB040059AB050059AB05005DA7000028
:1042F00059AB050059AB050059AB05001FAF0000D5
:1043000059AB050059AB050059AB050059AB050089
:1043100059AB050059AB050059AB050059AB050079
:1043200059AB050059AB050059AB050059AB050069
:1043300059AB0500102510B5494A494C4A4B1B683A
:10434000234207D103408B420DD0521EF6D16FF0AD
:10435000020010BD4548034202D06FF0010C201648
:104360004FF0FF3010BD002010BD70B5404D6860AB
:10437000E8680E46410702D518200870BD56F804BB
:104380000B141F02E008101D241FA86044B108216F
:104390000820FFF7CFFF0100F4D00421296070BD91
:1043A000042028600021211612C4162304D10C1009
:1043B00005BDE87040BCE77054301341F671312AF6
:1043C0004C01222A4BE568E1621A606060022626F1
:1043D00030300B2D0CFFF7ABFF05F001050100039A
:1043E00036201CFFF7A3FF0121204A11600DB10008
:1043F00021E16270BD2DE9F843184F3D68894614EC
:10440000464A200A80462D0C39620122164B0020B4
:104410003A100B1A6009E0324649464046FFF79FC2
:104420007E501F0DD1B044B144A41B4CB108F5001F
:1044300056760B7603A6EB0806B442ECD22646EA83
:10444000E70121095C10133962BDE8F283000080A6
:10445000969800060001001C000340020812100894
:10446000130C1004000120034000000080B5002060
:1044700000F0BBF800214948017000F021FABDE8C6
:10448000014000F0C0B870B5044616460D463046EF
:1044900000F0B0F8002020703046A847BDE870401A
:1044A00000F0B1B801223E493E48ECE701223E4906
:1044B0003E48E8E780B5012000F024FC3C4800F0CD
:1044C000B5FB3C49087001BD80B500F02FFC012808
:1044D00005D038480078BDE8024000F092BB01BD2D
:1044E000F0B5002400E0641C334D2E88E3B2B342E3
:1044F0000ED2E7B20C256F43304B3B441E78864208
:1045000001BF5D888D421E799642ECD11846F0BD00
:104510000020F0BD80B519B900F0F4FA002002BD0A
:10452000B1F1004F02D200F0F7FAF7E7022002BD26
:10453000B1F5000F3CBF0902FFF7ECBF0220704746
:1045400070B505461E46FFF7CBFF04000ED0284687
:1045500000F024FF50B1A0683146FFF7DBFF28B917
:1045600004990598A0716171002070BD022070BD92
:104570001CB5049C009313460194012205E01CB570
:10458000049C0093134601940022FFF7D9FF16BD47
:1045900080B500230093FFF7F2FF02BDB89C002016
:1045A00047CA0400A89C0020F5D80200B09C002057
:1045B00040B30500774F0120289700201C91002070
:1045C00080B5FFF78DFF20B18068002101700020C9
:1045D00002BD022002BD0122F2E70022F0E770478F
:1045E0000C480D4908600020704700B170207047EA
:1045F0000020704780B500F013F8FF2801D1A320F8
:1046000002BD002002BD00207047704700BF034874
:1046100000787047803B06001CA10020109D002000
:1046200080B500F0C9FEFF2818BF002002BD0021A0
:1046300001707047FFF76EBFFFF77ABF80B501F0DA
:1046400070F9DFF81C1401EB001002BD0020DFF848
:10465000141408701022DFF81014DFF8040401F0BD
:104660004FBA80B5FFF7EAFFC17A09B10122C272E1
:10467000DFF8F81300F021F9DFF8F403BDE8024099
:10468000FFF7D5BF1FB50446FFF7D8FF10B9DFF815
:10469000E4131DE0C17A01B3902C03D0912C1AD001
:1046A000BC2C1AD1042904BF0121C172684601F053
:1046B00028FB10B1DFF8C0130AE0BDF80000810745
:1046C00004D400F035F8DFF8B41301E0DFF8B013DC
:1046D00000F0F3F81FBDFFF7C4FF1FBD80B5FFF763
:1046E000ADFF10B9DFF89C130FE00121C17202F099
:1046F000C1F9022818BF032808D100F019F80020DA
:10470000DFF860130870DFF880130CE001BD80B59E
:10471000FFF794FF10B9DFF86C1304E00021C172B9
:10472000BDE801409DE70120BDE8044002F043BA26
:104730001CB5FFF783FF044602F0EEFAC0B1E07A41
:10474000012815D11022DFF82013204601F0D8F9F6
:1047500069460DF1020002F051FD28B1BDF80200DA
:10476000E080BDF80010A1800220E07200F001F8A6
:1047700013BD7CB5FFF762FF044602F05FFDA18820
:104780000023DFF80853DEB235F8262091421AD212
:104790005B1CDEB2072EF6D30F2210408142E38865
:1047A000019138BF401AC41800902246B849012030
:1047B00002F001FA4FF47A704443AD482146BDE857
:1047C0007C40FFF737BF05EB86025288E5E738B536
:1047D000FFF734FF04460020A072207AAD49FF287D
:1047E0001CBF401C2072227A00F094F8207A022824
:1047F00033DD0322A84900F08DF8002002F05BFDB4
:1048000000F01CF948BBFFF719FF0546A34900F06B
:1048100054F803F0EBFA040015D1684602F020FDCD
:10482000BDF8020040F00200ADF80200684602F058
:1048300032FDA1229A49002003F096FE040005D122
:104840000420E87231BD974900F037F822469649B6
:1048500000F060F803F0B7FA31BDFFF78AFF31BD11
:1048600010B50446FFF7EAFEC17A022924D1227866
:10487000032A08D1A1684A681378437202F0A7FCA2
:10488000BDE8104049E0052A10D1002141730172B2
:1048900002F0B6FC20B102F09AFCBDE8104068E7D7
:1048A000824900F00AF8BDE8104030E7804900F086
:1048B00031F8BDE810408AE710BD012002F07BB955
:1048C0001CB5FFF7BBFE04466948FFF7B0FEA07AAF
:1048D000B0B9E07A022802D0032814D013BD75497C
:1048E000FFF7EBFF74480090012325224FF6FF717C
:1048F000002004F031FD60B10246704900F00AF872
:10490000BDE8134063E76E49FFF7D7FFBDE81340EA
:1049100003E013BD012002F04EB93EB5FFF78EFE55
:1049200068490A68044602A80260FFF76FFE054660
:10493000042002A901900091634B00222521002050
:1049400004F0F8FF617A284605F06CF805F067F886
:10495000C18841F02001C1800021002005F038F815
:1049600048B903200121E072A17241F28831404828
:10497000FFF760FE37BD627A03465449012002F01A
:104980001AF9FFF724FF03200021E072A172FFF75C
:10499000F0FE37BDF8B50546FFF750FE4C490A68F2
:1049A0000446D088002804BFE07A032845D10023BC
:1049B0000026A372237302206A1CE918D75C0A78C8
:1049C0001B1DDBB202EB07228F7892B2390014D1A3
:1049D000711C32B9EA5C3C265B1C72430E46E280D5
:1049E00009E0012A1FD16A1CD65CEF5C9B1C07EB17
:1049F00006270E46A780DBB202E0217B01B12773B8
:104A0000401ED9D1F0B2022810D1207A20B102F094
:104A1000DEFB012002F04FFC002003212072E17236
:104A2000BDE8F140A5E62B49FFF774FFF2B22A4931
:104A3000FFF770FFBDE8F140C9E6F1BD80B5274939
:104A4000FFF73BFF012107480170002002BD054828
:104A5000007870470020FFE70249087070470000A7
:104A6000C4A10020C05D0120E4C40500FCC0050015
:104A7000B89C002028C1050058C1050080C1050070
:104A800090C10500B4C10500DCC10500F4C40500F7
:104A900000C2050044C205009CC2050060C40500B8
:104AA00000F8FF0780C40500A0C40500C8C20500C7
:104AB00004C305007CC305006148000044C3050031
:104AC00090C30500A0C30500823B0600A4C30500F7
:104AD000A0A10020ECC3050024C40500C4C4050047
:104AE00038B54478456804F0ADFF0C214C43874944
:104AF000874B0A59521B9A4238BF0D51BDE83240CC
:104B000004F0A6BF10B500F079F8606004202070B2
:104B10002046BDE81040E3E738B504460D4604F0F2
:104B2000CDFF2D186560012020702046BDE8324081
:104B3000D6E710B50446207860B1042806D004F00A
:104B4000BDFF6168724B421A9A4201D2002010BD2B
:104B5000081A10BD4FF0FF3010BD70B500F04EF8D0
:104B6000054604F06FFF0646606800226FF00041C2
:104B700000F007F8451925603046BDE8704004F0A4
:104B800067BFF8B505460E46144604F097FF024687
:104B900000239CB1FF20207010E0087860B1042849
:104BA00011D048685A4F111AB9420CD3801AB0423A
:104BB00002D2064604B123705B1C0835296800291F
:104BC000EBD13046F2BD04B123700020F2BD38B500
:104BD00000F014F805460DE0017851B1042904D025
:104BE00041684B4A691A914203D2042303706168F9
:104BF0008847083420680028EED131BD044604F00F
:104C00005DBF10B5FFF7FAFF0C2254433F4A404BFB
:104C10001159401A984207D214446068FFF7D7FF31
:104C20002046BDE8104098E710BD000070B504466E
:104C3000384E394A70781378984204D35FF0F00107
:104C400036A004F0A1FF75780C20304A2B46434370
:104C5000691C7170D11801264C600E7200E045701D
:104C600054F8080B0028FAD10846FFF776FF2846CB
:104C700070BD0000F8B50C244FF0FF316043009187
:104C8000224D05F1080100220A54224B93F800003E
:104C900068B305F075F820B940F229111FA004F09F
:104CA00073FF04F00BFF024600261A4BDFF860C0CA
:104CB0005978F0B2884211D260432958571A674593
:104CC00015D305F10807385C891A80B979B10098C5
:104CD000814288BF01460091761CE9E7684605F0ED
:104CE00014F910B9684604F00CFF0120F2BD05F07C
:104CF00045F90020F2BD0C214843044B0122184421
:104D00000272704703490870704700001C47012079
:104D100001000080754F0120163D06006576656E26
:104D2000742D636F6E74726F6C2E6300024800788E
:104D30007047014908707047B65D01207FB5DFF804
:104D4000B8291368DFF8B409008803A90B60DFF8FD
:104D5000B019ADF806000988DFF8A8090568DFF882
:104D6000A8090088ADF804100222ADF80200DFF8AF
:104D70009C0902AC002102702560ADF80010DFF83C
:104D8000900903AEDFF8402A0DF1060402EB011290
:104D9000655C02AC157036F81130538034F8113070
:104DA00001AC9380655C0DF1020395715C5C00EBD6
:104DB000C40595601DF801400125491C1473557305
:104DC0000229DFDB7FBDDFF8440900787047DFF898
:104DD000F81901EB0010407B00F0010070474128FA
:104DE00018BF422801D10120704700207047432896
:104DF00018BF442801D10120704700207047F8B542
:104E000015461E46069A079B044600F062FA60B1FA
:104E1000042100F055FC070007D02046FFF7EAFB0D
:104E2000324629462046B84794E0F1BD2DE9FC47BB
:104E30001400814688461F461CBF0A9D002D1FD0C6
:104E4000F7B128780C9B0107618820794CBF40227C
:104E5000802200F03EFA98B1082100F031FC824631
:104E600070B120790B9EFFF7C5FB009501963B467C
:104E7000224641464846D047BDE8F347FFF7C3BB4B
:104E8000BDE8F387F8B5069C16461A460546234644
:104E900000F01FFAD0B121000BD1022100F010FC6C
:104EA000040013D02846FFF7A5FB31462846A0474B
:104EB0000BE0102100F004FC070007D02846FFF7A4
:104EC00099FB224631462846B84743E0F1BD2DE91B
:104ED000F843089C90461A460646234600F0F9F926
:104EE00008B9862016E000259CB9202100F0E8FBD7
:104EF000814670B10B9F0A9C099D3046FFF77AFBF3
:104F0000009723462A4641463046C8470546FFF7E4
:104F10007AFB2846BDE8F283F8B504462078A568F8
:104F20000026FFF767FB11E0F1B214222868514315
:104F300047183988207802F0FAF80121384600F045
:104F4000BFFB01001CBF20788847761C2979F0B28E
:104F50008842E9D3BDE8F140FFF755BB38B50024DE
:104F6000DFF8A8570AE0DFF86008210600EB1150CF
:104F7000427BD10748BFFFF7CFFF641C2978E0B21E
:104F80008842F0D331BD5CB585B00A9C00268DF80F
:104F90000800ADF80A108DF80C30ADF80E2001961F
:104FA000ADF8104000960023002201A902A800F0ED
:104FB00083F8019807B050BD7CB5069D1C469678D5
:104FC0002B0008BFD378412E18BF422E06D0432EA7
:104FD00009D19A1E92B205F0D3FA16E05A1ED2B247
:104FE00005F0B4FA11E0442EF3D034B92C0004D00B
:104FF000D278954201D2892076BD00291A4602D185
:1050000000F0C5FD01E000F07BFD002076BD10B58D
:10501000002301E0001D5B1C9CB28C4204D204887A
:105020009442F7D1408810BD002010BDDFF89C17D6
:10503000401A0C2290FBF2F20A21DFF8940710E0EC
:105040000288B2F57C4FA8BF00F002B80846EDE731
:10505000DFF88017401A142290FBF2F20021DFF8EB
:10506000780792B2D3E710B50C4601886288914266
:105070000DD1037B2279134209D0B1F57C4F04DBBB
:10508000FFF7E6FF2189884201D1012010BD0020F1
:1050900010BD10B514460A88E3889A420AD10288E6
:1050A000B2F57C4F04DAFFF7CBFF2189884201D1AA
:1050B000012010BD002010BD2DE9F74F82B004463D
:1050C00098460025002703E0C88845197F1CFFB2D9
:1050D000DFF838160A78974280F0AC80DFF8E806EF
:1050E00000EB07102378027881689A42ECD1009196
:1050F000407BC107EAD5002603E0B9F80A0045194C
:10510000761C0099F0B20A799042DFD20A68F1B2B7
:1051100014204843214602EB00094846FFF7A3FF4D
:105120000028EAD04FF0000B09E09AF804000BF1D8
:10513000010B10F0300F04BF9AF803004519B9F8BD
:1051400008101FFA8BF08842DAD21FFA8BF20C217A
:10515000D9F804004A4300EB020A22465146484669
:10516000FFF797FF0028E0D003982746544600B188
:1051700004602079810611D5DFF85006002105E092
:105180000279930644BFC27851180C30A042F7D37D
:10519000DFF8480689B200EB010B04E0DFF84016A7
:1051A000ADB201EB050B0E9E049D3046E6B12146E3
:1051B0004846FFF745FF0246238879883878AA4693
:1051C00001F0B3FFF8B12079C1062AD5002E21469F
:1051D00048461AD0FFF734FF00950346798838789F
:1051E000224601F0B3FF26E02DB321464846FFF7E3
:1051F00027FF0246238879883878DA46AB4601F0E3
:1052000092FF0028DFD17E2015E0FFF719FFE1783B
:1052100000950346019179883878224601F094FF81
:1052200009E0CDF800803346224651465846FFF744
:10523000C3FE00E0862005B0BDE8F08F2DE9F843FD
:10524000044688461646994600252179E8B28842E8
:1052500021D2EAB2142320685A438718388840457F
:1052600017D131000AD0802E03D1397B0A0605D42C
:105270000FE0402E0DD1397B4A060AD5B0F57C4FA0
:105280000CDB3846FFF7E4FE484518BF5FEA09002B
:1052900004D06D1CD9E70020BDE8F2833846FBE757
:1052A000134680B507E0134680B5402204E013465C
:1052B00080B5802200E0002200F00BF800B1012050
:1052C00002BD80B500234022F6E780B5002380228E
:1052D000F2E770B50C4615461E4600F06DF8FF2843
:1052E00001D1002070BD2146DFF8DC4404EB001042
:1052F00033462A468068BDE870409FE770B50C468B
:1053000015461E46002100F02FF8022800DAEAE7D1
:10531000002070BD1346402201E00022FAE72DE98B
:10532000F84F82468B46904699460026FFF7D1FFFC
:1053300008B9FF2016E00027DFF88C44DFF8CC53D3
:105340002978F8B288420CD20001205C504508D080
:105350004B4642465946FFF7D1FF00B1761C7F1CF1
:10536000EEE7F0B2BDE8F28F70B50022DFF85834F6
:10537000DFF898532E78D4B2B4420BD224011D5DCD
:10538000854205D10D0007D01C44647BE50703D49A
:10539000521CEDE7FF2070BDD0B270BD80B500217A
:1053A000FFF7E2FFFF2801D1002002BD00F031F835
:1053B000407B00F0010002BD0121D5E7DFF80814B1
:1053C0000001085C7047F8B50C46FFF7F5FF014691
:1053D0000020FF291FBFDFF8F02302EB01118968CD
:1053E000002915D0002214270D79D3B2AB420ED27A
:1053F000D6B20B687E43451C33441B7B260001D18B
:105400001B0600E05E0648BF2846521CECE7C0B20F
:10541000F2BDDFF8B41301EB00107047F8B50C468D
:105420001546FFF7C9FF01460022FF291DD00023C2
:105430004FF0140C01E0521C5B1CDFF88C0300EBF6
:105440000116DFB2B0680679B7420ED200680CFBD5
:1054500007F73844067B15B1760602D4ECE7370629
:10546000EAD5D6B2A642E6D1F2BD0020F2BD0021B7
:1054700009E010B50446012100F005F82046BDE81A
:10548000104005F03AB92DE9F14F88B0894600F097
:1054900048FA9E490A780023069005928DF8043058
:1054A000DFF824A30AE00AEB0010017B0698814292
:1054B00014D09DF80400401C8DF804009DF80400F1
:1054C0000599884258DA9DF82020FF2AEBD0104633
:1054D000FFF772FF8DF80400FF2854D0002756E034
:1054E0000328ACBFD6F808B006F1080B01200090E5
:1054F00000235A46002102A8FFF7DEFD5FEA0900FB
:1055000007D0BDF80A201AF808103346584600F0B4
:1055100091F8641C2989A0B2884237D2A2B20C212A
:1055200068684A4386183379D906F2D41AF80820F5
:105530008DF808202988ADF80A10307941062846F0
:105540004CBF802140218DF80C103188ADF80E1031
:105550003146FFF775FDADF810003179F0784A0754
:10556000BED5D6F808B00328C0DBDBF800B0BDE735
:105570009DF82000FF289CD0B9F1000F04BF9DF8D2
:10558000200000F01EF809B0BDE8F08F7F1C9DF8E8
:105590000400F9B24FEA00180AF1080050F80800B8
:1055A00002799142E4D20168FBB214204343CD1842
:1055B0002A8940F22D118A42A8BF05F0F5F800248F
:1055C000A8E73EB5044600F0ACF905460120FFF718
:1055D00027F8012C03D0FF2C08BFA84225D10123B6
:1055E0007F22222101A805F0E3F91020009001ABF1
:1055F000002200F01BF801237F22232101A805F0DF
:10560000D7F93020009001AB44F2030200F00EF80D
:1056100001237F22242101A805F0CAF9302000903F
:1056200001AB1022072100F002F837BD062101204E
:1056300005F08DBAF8B504461D4628790E46174682
:1056400083073CD501220021684600F0A0FA04B986
:105650006C46012E33D1062F1FD1288860B9284609
:10566000FFF7E4FC40B92879410605D4012322461E
:105670007F21222005F0CDF9288844F203018842D9
:105680001DD12846FFF7D2FCC8B92879410616D4A7
:10569000012322467F2123200FE0072F04BF288803
:1056A00010280CD12846FFF7C1FC40B928794106E3
:1056B00005D4012322467F21242005F0AAF9F1BD5B
:1056C00030B5047B012200230C4205D1002030BDFF
:1056D000144218BF5B1C5200D5B28D42F8D300694A
:1056E000DBB250F8230030BD3E49401A8003020C63
:1056F00000213D48FFF78BBCF4B50500AE14060051
:10570000B2140600F8B50500B6140600CB5A012005
:10571000E8BD05002DE9FE4F002700284FF00108E5
:10572000487D06D008B9022407E0012804D10124ED
:1057300003E008B9082400E004240E980C9DB94643
:105740000D9EDDF83CB08A46ADF800200193ADF81F
:1057500030508DF83800234800EB89052988BDF8C2
:105760000000814224D1E978214221D0A9789DF816
:10577000380081421CD3E9789AF80F00CA0608D590
:10578000B0B12846FFF7B0FFBAF81010814201D03F
:105790000EE068B9BB4513D0BDF8300087420FDA80
:1057A000A9780198C15532887F1CBFB2521C328043
:1057B00009F10109B9F1370FCDDB4046BDE8FE8F95
:1057C0004FF00008F9E70000109D002030B90500F7
:1057D000FCBD0500E4BC0500F8BD0500E89D002007
:1057E000309D002050B805002CB9050038B5784828
:1057F0000068784C482220606060002100F0C7F902
:10580000754A107821680022087020684FF6FF71F1
:105810004180027323685A7320680B221423827319
:105820002268D37320684FF6FE730382418201F031
:1058300005FD2168087601F001FD2168487601F038
:10584000FDFC2168654B8876654802782168CA7638
:10585000644920680A6840F8282F1D78057162485D
:1058600001682268116331BD10B505F05DFD594C2A
:105870006168897B884203D0084605F05FFC50B917
:1058800005F056FD616891F90F10884205D0084671
:1058900005F05DFD08B1012010BD6068008A06F0CA
:1058A000A0F96068408A06F0B0F96068017B0129C0
:1058B0000CBF0120002006F083F9002010BD10B5B8
:1058C0004A4C0020207007F0B1F920B92046BDE80D
:1058D0001040FFF717B970E080B5002000F015F810
:1058E00028B1002000F005F808B1002002BDFF201B
:1058F00002BD38480168487B02281CBF1128432894
:1059000001D1012070470020704732480168087BB0
:1059100001281CBF0228032801D101207047002064
:105920007047002070470020704731490870704769
:105930007047002070470120704770470020704773
:1059400000207047704770470020704780B50020E6
:10595000FFF7CFFF20B10020FFF7D7FF00B10120F4
:1059600002BD80B50020FFF7C4FF08B1002002BDD2
:10597000FF2002BD80B50020FFF7BBFF30B1154806
:1059800001680A7B032A01DA002002BDFF2002BD64
:1059900010B5040000F0058040F27D1151A004F024
:1059A000F3F81349087808B9702010BD0849482059
:1059B0000A684443074B10195860BDE8104053E78C
:1059C00004484168088A704702484168488A70471D
:1059D000DC93002070470120C5970020B797002076
:1059E000C6970020E0930020E49300206047012048
:1059F000CF9700207047002070470020704706F0C6
:105A0000D2BE7047002818BF07F050B9704701F0A8
:105A100085BB01F06FBA82B08DF80010DDE900237C
:105A200002B011461A4607F038BA33B585B00546BC
:105A30008DF8042000F0B4FF0446284600F0C0FFB3
:105A40007CB10028BDF818000FD101F078F8FF28CC
:105A50008DF8000004BF00218DF80010CDF808D0AB
:105A600016E0A8B106A8029012E001F068F8FF283D
:105A70008DF8000003AA04BF00218DF800109DF8E6
:105A80000000BDF8181002928DF80C00ADF80E1051
:105A9000DDE901010A460146284607F0FEF907B094
:105AA00030BD000073B582B00446154600F078FFA3
:105AB0000646204600F084FF2EB120B903A98DF8D8
:105AC0000050019105E04FF4057100BF05A004F0FE
:105AD0005BF8DDE900010A460146204607F0DDF9E2
:105AE0007FBD0000656D6265722D6D756C74692DEA
:105AF0006E6574776F726B2D737475622E63000020
:105B000070B5814224D210441144401E491E10E059
:105B100011F80139121F00F8013911F8014900F894
:105B2000014911F8015900F8015911F8016900F80B
:105B3000016993B2042BEBDA93B2002B1EBF11F86C
:105B4000013900F80139521EF6D170BD00F00DF890
:105B500093B2042BFADA93B2002B1EBF11F8013B6B
:105B600000F8013B521EF6D170BD11F8013B121F27
:105B700000F8013B11F8014B00F8014B11F8015BF3
:105B800000F8015B11F8016B00F8016B704713001E
:105B900003D00A46194607F017BA704710B50346F6
:105BA00000E0521E90B218B100F003F8F9D0001BCB
:105BB00010BD13F8010B11F8014BA0427047FEE72E
:105BC0007CB5DFF8405C296804462688487B08B12C
:105BD000702076BDB00504D504F1120000F048FE37
:105BE000F0B906F08600862801D1B72076BD00F016
:105BF00032FE286816F4045F466120D0B0040BD54D
:105C0000A01C07F0EDF9010055D12868416921F485
:105C1000005141F480714161A01C00F029FE08B1DF
:105C2000B22076BD07F015FA20B92868416941F421
:105C3000803141612868416941F020014161286853
:105C4000416941F400414161480647F2FF104CBFF1
:105C500004F123020022A31C07F072FA684600F048
:105C600045F828684169C804BDF8001004D541F022
:105C70002001ADF800100CE04FF6DF700140ADF8E8
:105C8000001007F077FDFFF76CFEFF2808BF07F054
:105C90007DFFBDF8000000F00FF828684169880515
:105CA00006D594F82210012204F1120000F09DFBA9
:105CB00029680020486276BD10B5044640F2727132
:105CC00021400023002209044FF07F6007F038FADA
:105CD00023462F22B4A1032008F013FAE00703D5CE
:105CE0000021302007F064FA002010BDDFF8141BFB
:105CF0000A6840F27271536901EA13410180002081
:105D0000704738B50446DFF8FC5A2868407B022803
:105D100018BF032801D0932032BD0A22002120465B
:105D2000FFF735FF2868406900F0FF01820648BF91
:105D300041F01001218080075CBFA01C07F098FA99
:105D4000002032BD38B504460D4607F022FD08B9E3
:105D5000952032BDDFF8AC1A0968C87E88B1486961
:105D6000010401D4A82032BD5DB110F0420F08BF7C
:105D7000002C04D000F44070B0F5407F01D0B72073
:105D800032BD002032BD00002DE9F04F8DB08046BD
:105D9000894604A8242108F0B7F9404608F0FFFA24
:105DA0000146404608F0D9FE8DF80500404609F04E
:105DB0009EF882469AF80100002604AD81079DF8FE
:105DC0000500DFF8407A48BF01268106404648BFFB
:105DD00046F0020608F08DFB8DF80400DFF87C0B1E
:105DE00001689DF804309DF8042011F80800414630
:105DF000C31AD8B22428A8BF232300200090DBB206
:105E000004A808F0B0FD68789DF81040009039684B
:105E1000C87E88B100F077FD002814BF4FF4D07021
:105E20004FF4F070E040C00706D5B10704D4082C49
:105E300009D10098042805D109F0B0F9002818BF4D
:105E4000052C03D0ADE0052CF6D0AAE09DF8042087
:105E50000DF10503414605200AF02DFE0028F4D07F
:105E6000641F4FF6FF7B0B2CEFD8DFE804F006171A
:105E700031484E9A9A9A9A536F75009805280CDC0F
:105E80000AF102000AF022FE0446404609F056F8E4
:105E9000334604AA214600F054FB82E00AF0E4FFF6
:105EA0000028FAD13968C87E00287AD0B00702D419
:105EB0004969880175D40DF119000AF007FE024600
:105EC0009DF81B000DF1110349460BF093F868E0B3
:105ED0000822DFF88C1A0DF11100FFF75FFE20B9E0
:105EE000022249460BF0ECFB5BE00DF111000CF0D7
:105EF00027F8584555D000210BF02AFD51E03246D5
:105F000004A948460BF0DDF94BE06978012000F068
:105F10002CFA46E0F00744D50DF111000CF010F812
:105F20008146584507D10DF111000CF0DAF9814690
:105F3000584504D135E00CF073FD0BF02BFF9DF8B4
:105F400004204146484600F031F82AE0324604A9D0
:105F500048460CF0F5FE24E03868417B022908BF72
:105F6000B9F1000F1DD102A807F082F9C8B10021D4
:105F7000DFF8F0291170687800280CBF4FF0650831
:105F80004FF0640807F0B1FB032806D10021002080
:105F900007F0D8FA002007F0ABFB414602A8FFF754
:105FA00036FD0DB0BDE8F08F425700002DE9F047F7
:105FB00002F10905DFF8A429136888B00C461E5DBC
:105FC00082460020761BF1B208F0B2FC8146FF2821
:105FD0003ED001200090002352460821484608F098
:105FE00035F98046FF2830D0E9B2204608F064FA3F
:105FF000074601A81C2108F087F8002000903B46C6
:10600000EAB2214601A808F0AEFC3A4601A9404692
:1060100008F01BFDB0B9F61BF1B2484608F096FB3C
:1060200050467D190CF0FCFC00F092F9F6B2009697
:10603000EBB222460021484608F075FE5146404624
:1060400009F083FA404608F0F0FB484608F0EDFB03
:1060500008B0BDE8F0872DE9F54F894685B01C46AC
:106060000021104608F079FD0746E508082F05F0E5
:1060700001054FF000084FF0080B4FF0020A18BF5F
:10608000052F03D0062F18BF102F01D166080DE091
:10609000DFF8D4180A68D07E58B100F034FC00282C
:1060A00014BF4FF4D0764FF4F076FE4006F00106B0
:1060B00000E000269DF81800FF286AD0E007BDF830
:1060C000142048BF4FF4027BC82000909DF81800B0
:1060D0000023594608F0BAF88346FF2859D025B165
:1060E00049460BF087FA002850D0BDF814004FF64F
:1060F000F8718842ACBF09200120102F8DF80400F0
:1061000018BF0F2F05D19DF8040040F040008DF816
:106110000400DFF854080068817E4A1C82768DF8FE
:1061200005103EB19DF804004FF00F0A40F020002A
:106130008DF80400524601A9584608F086FC28BB99
:10614000C6B10021052F0BD1584608F0A3FB012151
:10615000622708F002FDC740F8074CBF1021182144
:10616000002D584619BF02234A464123002207F05A
:10617000F7FE58B9600705D5BDF81410584609F068
:10618000E4F902E0584609F016F88046584608F04F
:106190004CFB404607B0BDE8F08F38B504460846D2
:1061A00008F021FF05460AF05FFE2B462246014615
:1061B00001B00120BDE830400AF01CBFFEB51C460E
:1061C000DFF8A4371E680025377DBB0701D5002006
:1061D000FEBD019200900B4606220FF2AC7100202A
:1061E00008F011FD0646FF280CD0002C324614BFE3
:1061F0000323012300210020FFF72DFF0546304631
:1062000008F013FB2846FEBD2DE9F04104460D467B
:1062100090460026002707F01DF918B1012300F071
:1062200016F8064607F016F938B100F06CFB40B1DD
:1062300000F083F94A69900103D4002300F007F8C5
:1062400007463E43304618BF0120BDE8F081424674
:1062500029462046B2E72DE9F84F1F46032F804616
:106260008EB00CBF01250025100000928A4618BF91
:10627000019205D102A806F0FBFF40B102A80190EF
:106280002321002008F054FB8146FF2801D1002083
:106290005BE0199C08F054FA0646052030707770D0
:1062A000E10607D511220021B01CFFF770FC06F1B2
:1062B000130B18E018991022B01CFFF721FC622084
:1062C000F84006F1120BC1070DD504A909A800F08A
:1062D000B2FAA106584600F1010B4CBF9DF8201000
:1062E0009DF834100170002D58460BF1080714BFBB
:1062F000009951460822FFF703FC2DB1A00900F0D8
:10630000010007F8010B09E0012101980091BA1B77
:106310000823D2B2494608F026FB0837BF1BF9B262
:10632000484608F013FA600704D540460CF078FBA5
:1063300000F00EF823464A4651464046FFF78BFED2
:106340000446484608F071FA20460FB0BDE8F08FC9
:10635000FF2809D0DFF814160A684BF6FF7132F8EF
:1063600010300B4022F81030704738B58AB0044620
:106370000D4600F09DF8684600F07AFA60B99DF885
:1063800010009DF824100A1AD2B2812A04DB2CB125
:10639000A94201D0A84201D0002024E0112302220A
:1063A00005A900F06DF89DF810100122684600F074
:1063B0001CF806F02DFD01214FF400700BF021FCBC
:1063C00007F0D2F9DFF8A815884228BF07F0D2F904
:1063D000FFF7B3FA00F0B1F891F820000AF053FB90
:1063E000FFF7B1FA01200BB030BDF0B58FB0054614
:1063F0000E461746112200216846FFF7C8FB01240C
:106400008DF810602DB9102200216846FFF7BFFB00
:1064100004E0102229466846FFF772FB1122002192
:106420000AA8FFF7B4FB1122002105A8FFF7AFFB74
:1064300005A90AA800F0FFF93800694614BF0AA8A8
:1064400005A81122FFF7AAFB00B9002487B1DFF8E5
:10645000B4534CB11123062200F011F82868417B97
:10646000432908BF06F022FC286880F8206004E079
:106470001CB11123022200F002F80FB0F0BD6946F2
:10648000002001F023BC70B58AB004460D461646C4
:1064900000F00EF8002E204614BF05AE6E46102206
:1064A0003146FFF72DFB307C287000200AB070BD0C
:1064B000694605A8BFE138B504468AB003208DF8C7
:1064C00000000AF0D1FC58B100F091FA40B101A8E7
:1064D00006F0CEFE20B100F030F80A7D900701D51D
:1064E000702028E00F2104228DF80C108DF80D206B
:1064F0000822DFF86C140DF10E00FFF701FB0DF11F
:1065000016030122694620460CF042FD1A2103A819
:1065100008F00EFA0446FF280CD00123224601A9F8
:106520000020FFF798FD0546204608F07EF90DB1E2
:10653000002000E018200BB030BDDFF82C0401680B
:1065400070472DE9F74F86B000211F46ADF80C10BB
:1065500003A8FFF7CBFB0898622400F1010919F8A2
:10656000011BCC4014F00104029105D0BDF80C00D1
:10657000810701D5B8075AD5029800218DF800107F
:10658000032888468A460CBF4FF0010B8B460AF061
:106590006BFC00284BD008F001FE08B9380046D04B
:1065A00009F110000190484600F062F9054634B147
:1065B0000198401C019010F8011D8DF80010019801
:1065C000904EBBF1000F049012D100F108087CB38B
:1065D0003068017D88072BD5FF220821404600F056
:1065E0007DFA28BB002342460021022006F0A8FDC8
:1065F0000AF03AFCBDF81C10884209D1BBF1000F2B
:1066000008D104980822DFF85813FFF7C7FA0028CA
:1066100040F0CB800298012860D0032853D0042892
:1066200005D106F017FF002818BF032F0FD0E4E0B4
:10663000404606F052FE0028DAD13068417B4329FB
:1066400004BF02980128F2D14FF0010AD0E7002DD3
:10665000EDD14B4642462021DFF8180306F070FDCD
:1066600031680020DFF8FC2248621078A8B1484663
:10667000FFF721FF07F039F802280ED1012007F0BB
:1066800031F8032007F034F810224946BA48FFF7E2
:1066900037FA0121012006F055FF3068417B0229BD
:1066A0000BD103214046FFF7B2F907F01EF800288E
:1066B00002D1002106F046FF9FE04129FCD140694C
:1066C0004105F9D56EE0032FF6D10898817E01B11E
:1066D00001214A4612300CF094FC8EE0306807F03D
:1066E0000207417B022904D106F0B4FE08B1002F55
:1066F000F3D03068417B41290BD03DB908F04EFD05
:106700009DF8001002464846FFF76FFE08F046FD70
:10671000002872D006F09EFE58B1306841690A0523
:1067200002D4407B432804D11FB9AC2001F09CFB6C
:1067300063E03068017D880704D4BDF8181000209C
:106740000CF0B1FD3068417B112913D1406941053E
:1067500010D5002006F089FE00284ED101F098FBEC
:10676000AE2001F081FB0021002006F0EBFE01F0DD
:106770007FFB42E00FB100F08DF8BAF1000F11D0AD
:106780004FF08051002006F013FD06F062FC18B9AE
:106790004FF4803106F00CFD31680020486240461D
:1067A00006F099FD01F09BFB27E094B1BDF81C00B9
:1067B0004FF6F87188420CDB04980022082100F0A3
:1067C0008DF930B19DF8001000224846FFF70DFE0C
:1067D00013E004980AF0D4FA4FF6FF7290420CD0FE
:1067E000002D029BCDF8009014BF152104210191CA
:1067F0000499DBB24246FFF72EFD09B0BDE8F08FE9
:106800005D4858E67047012010B58AB00446FFF78E
:106810004FFE9DF824108C4205D105A80CF0E2FF34
:1068200001200AB010BD9DF81000844208BF6846E0
:10683000F4D00020F5E710B50C46014611230622DE
:10684000012001F043FA2146112302220120BDE874
:10685000104001F03BBA80B5002200210020FFF774
:10686000C4FD00214FF6FF70BDE8044006F0A0BC57
:106870000022102100F032B93B490A68D07E00287E
:1068800000D1704780B500F005F83548BDE80240FA
:1068900006F01FBD344801680A7D12F0300F03D0A6
:1068A0002021302006F084BC704729490968C87E41
:1068B000002800D1704780B5087B032818BF042842
:1068C00020D000200DF031F998B1027912F0300F8C
:1068D00018D12A490978A9B1012908BF102103D08C
:1068E00002290CBF2021002102F0CF020A430271CD
:1068F00001BD0BF02EFD28B100210020BDE80440B1
:106900000CF0D1BC01BD80B50AF0AEFA0028FFF74B
:1069100014FE48690CBF8008000D00F0010002BDA4
:1069200080B588B004A806F08FFC684618A1102234
:106930000DF04AFA1022694604A8FFF72FF9401E0D
:106940008041C00F09B000BD0D48007870470000BD
:10695000704701200B48008870470000A493002076
:10696000D44701202A5E012070470120B8930020FF
:106970000100008030000100E8480120C497002099
:10698000D697002076970020313832310000000081
:106990005A6967426565416C6C69616E636530393F
:1069A00020B500216DA2CBB2D35C834205D0491C37
:1069B000CDB2082DF7D3002020BD012020BD00005E
:1069C00020B5002167A2CBB2D35C834205D0491C1D
:1069D000CDB2082DF7D3002020BD012020BD5C489A
:1069E0000168488870475A480168081D7047584830
:1069F0000168C87E704738B5554C2168554D02284E
:106A00004873554915D12068027B042A1CBF0846EB
:106A1000FEF778F82068007B03281EBF042828466C
:106A2000FEF770F820684169C80054BF9024BC2468
:106A300010E00020087028700DF0DFF92068007B5E
:106A4000032818BF042802D10DF0E7F901E00BF08C
:106A5000A7FB912420460DF0E1F950B923461322FB
:106A60003AA1032007F04DFB2046BDE83240FEF777
:106A7000D0BF31BD36480168487B00F00F00704739
:106A8000334801684A7B02F00F02022A01D101203B
:106A900070470020704738B504462D4DFFF7F0FFD2
:106AA00028B92868417B032901D0932032BD0AF020
:106AB000E3F920812868C17BA1722868817B204688
:106AC000E17202F0BFFB0020207304F1140104F115
:106AD00010000DF0EFFCE081002032BD10B5002366
:106AE00000E05B1CDCB28C4205D210F8014B9442F2
:106AF000F7D0002010BD012010BD08210DF04EBEC2
:106B000013480168487B01281CBF3128332801D174
:106B1000012070470020704710B5044604F017FCB0
:106B2000010002D10A490A68D47310BD08480168FF
:106B300091F90F00704706480168887B7047044848
:106B400001688A7B500918BF01207047424200004B
:106B500070470120C0510120645001200001020350
:106B600004051D200203040508090A0B4FF6FF72F5
:106B70000146904208D0000A01D000207047164814
:106B8000027811EA020000D001207047F8B50446EF
:106B90000D4616461F46FFF7E9FF58B13A46314603
:106BA00021200DF079FF1DB10C4921200DF06CFF63
:106BB0000B480480F1BD0CB480B50A4602AB01213C
:106BC00004E00CB480B50A4602AB0021FFF7DEFFFB
:106BD00001BC5DF80CFB00008D97002050BE050045
:106BE000765D012010B503F0C9F9012300224FF4AE
:106BF000E13121200DF056FF0EF041FA04460EF06F
:106C0000B1FA02462346DFF870140120FFF7D3FFE4
:106C10000EF03FFA04460EF0A9FA02462346DFF8CA
:106C20005C140120FFF7C7FF40F2A1740EF09AFA3E
:106C3000C440E0070CD5DFF8484420780EF0A4FAF1
:106C400020780EF042FB2078BDE810400EF0FCBB2F
:106C500010BD38B500220021684600F086FA08B160
:106C6000009832BD09F07EFF60B10346DFF81424BE
:106C7000DFF814140120FFF79EFFC221DFF80C0497
:106C800002F082FFFDF7ACFC0EF056FCFEF756F862
:106C900003F01FFD02210A200EF090FF0EF050FFBE
:106CA0000EF0EFFF41F25E00DFF8E41308804FF4CE
:106CB000FA70DFF8E0231080DFF8DC3318804FF43F
:106CC000004004F07FF9DFF8D443DFF8D45301E04B
:106CD000FDF79BFC03F068FD09F098FFFEF726F82E
:106CE000012818BF03F000FD0DF040FFFDF7ECFB9D
:106CF000212100200EF0E6FF0028E9D02A46214697
:106D00004FF6FF70FFF75DFFE2E7DFF898130988A1
:106D100010237F220FF045BB0AF0A6B80AF0ACB8EA
:106D2000FFF7A8BEFFF707BF10F092B838B584B0E0
:106D300002A810F0CEF988B900246946E0B210F03C
:106D400064FA082202A96846FEF728FFC0B1641C55
:106D5000E0B20A28F1DBFF2005B030BD10F0B1F938
:106D600005464FF6FF708542F5D00024E0B210F0E2
:106D700065FAA84204D0641CE0B20A28F6DBEAE710
:106D8000E0B2E9E77FB50546FDF732FC0AF06CF8A2
:106D900040B16888B0F5006F04D1681D00F0EAF9D1
:106DA000044614E0284600F025FAF8B9002400262D
:106DB0006946F0B210F078FC002804BF9DF800008E
:106DC000002809D0761CF1B21229F1DB8C24FDF7E2
:106DD0001AFC204604B070BD2946F0B210F070FCD9
:106DE0000028F4D07528F1D18B24F0E78D24EEE74C
:106DF00010B50446FDF7FCFB204600F0F9F928B970
:106E0000204610F0AAFC18B9002405E08D2403E008
:106E100075280CBF8B248824FDF7F5FB204610BD98
:106E20007CB5FF2504468DF80050694600F090F9C6
:106E300010B19DF8000076BDFEF775FD9A4901EB93
:106E400004131E7B864207D12046FDF7C0FF18B110
:106E50002046FEF7B3FA0546284676BD70B50446CF
:106E60000D4600F077F9F8B92046FEF7A5FA064678
:106E7000FF2E07D0FEF757FD8B4901EB06110A7B69
:106E8000824201D0002070BD488828808A886A80AC
:106E90008879012128712046FEF795FA6871002152
:106EA0002046FEF790FAA871012070BD2DE9F0414F
:106EB00005460E469046FEF77FFA07464FF6FF74EA
:106EC000FF2F14D0FEF72FFD774901EB0712137B3C
:106ED00083420CD1300008BF012202D0012E06D11E
:106EE000002241462846FEF799FA00B10488204660
:106EF000BDE8F08110B50446FDF77AFB20460EF0A0
:106F0000E6FDBDE81040FDF77EBB38B50C46FF2816
:106F100004D066490B681D5CAA4201D2002032BD34
:106F20000023009301462B460022204607F01BFD5C
:106F3000284632BD70B598B004460D461646FDF79A
:106F400057FB522203A93046FFF7DFFF060011D09E
:106F50000DF1090010F0AEF802A810F0ADF803A88A
:106F60009DF908309DF80920019000962946204699
:106F70000EF0EDFCFDF747FB18B070BD2DE9F843AE
:106F800098B00646894690461F46209DFDF730FB87
:106F90004046294610F084FDA0B9522203A9384684
:106FA000FFF7B3FF04000DD02946304611F04BF82F
:106FB000029703A8019000942B464246494630466A
:106FC0000EF014FDFDF71FFB19B0BDE8F0830000C3
:106FD000FEB5054608980E461446194607F0A8FC6B
:106FE0000746FF2801D11820FEBD0998062D07701D
:106FF0000A980B9A2CD8DFE805F00404040B12223F
:107000001B003B462246314628460FF0D2FB1DE0CE
:107010003B460C220C2120460FF0BEFC16E0E17A24
:10702000019200903B460A4620460FF07FFC0DE09F
:107030003B460C22214630460FF01BFC06E0019730
:10704000E17A2346009131460FF033FC044600E01C
:107050000224384607F0E9FB2046FEBD0822144909
:10706000FEF74EBD02F0D7B80020704712207047DF
:10707000062070470AF07FBF3CB5050054B50500F7
:107080008C97002088B5050074B5050090B5050003
:107090006A9700206E97002070970020A0B5050029
:1070A000A4B50500A63B0600109D0020A493002077
:1070B000D44701201CB50446FDF79AFA0DF10100F2
:1070C0000FF0F8FF68460FF0F7FF9DF900209DF8DC
:1070D0000110204611F06DF8FDF795FA13BD38B593
:1070E00000F010F82946204611F06EF806E038B599
:1070F00000F008F82946204611F052F8BDE831406A
:10710000FDF781BA04460D46FDF772BA38B5FFF7B0
:10711000F9FF2946204600F075F8EFE703F00BBBB6
:107120007047012070470120704701207047704769
:1071300000207047002070470020704700207047F3
:1071400000207047002070470120704701207047E1
:1071500000207047002070470020704700207047D3
:107160007047704700207047704700207047704795
:107170000020704784207047704770477047002098
:107180007047704701207047704700207047704774
:107190007047012070470020704700F04FB80A2068
:1071A0007047034801680878012808BF022070472B
:1071B0001CA100207047002070474FF6FE7201218D
:1071C000C2818181016100220270012070477047F5
:1071D0007047002070470020704700207047002053
:1071E000704700207047002070477047B5207047F7
:1071F000002070470020704770477047002070479C
:107200000120704770470020704770477047FEE7C5
:1072100001468AB20AB94BF6EF61000C0E4A1180A2
:1072200008BF4FF6CE200D490880704702461088EF
:10723000030448BF484041001180704710B56221E7
:107240000548FFF7F3FF044641F20B010348FFF73F
:10725000EDFF604010BD0000669700206897002099
:10726000DFF8E81910B5B1F90010DFF8E429538808
:1072700039B192F900400912A142B8BF43F040036E
:1072800002DB4FF6BF710B405380137803705188B7
:107290004180002010BD38B50446DFF8B45994F998
:1072A000000095F90010884218BF00F010F86088BF
:1072B0006880002032BDDFF898194A88002812BF84
:1072C00042F010024FF6EF7002404A80704780B5DE
:1072D000DFF87C1908708DF8000001230D22694643
:1072E000002000F0F3FC01BD80B5DFF8780907F05D
:1072F0009FFDDFF8740900210170017101BDF8B52F
:1073000008B90220F2BDDFF86049217809B9702080
:10731000F2BD0021DFF8545900912E68DFF844795E
:107320003D7814230022715D07F01DFB0020A07042
:10733000F2BDF8B508B90220F2BDDFF82C399C780F
:10734000DFF820190022641C9C700978FF290DD0F9
:10735000DFF818592D686E5C3146D7B25FFA84FCAD
:10736000674507D0695C521CB142F6D1601E987027
:107370000120F2BD002400941423002207F0F3FA48
:107380000020F2BDDFF8E00800787047262801DB16
:1073900002207047DFF8D01848700020704780B591
:1073A00001230D226946012000F090FC9DF80000A9
:1073B000DFF89C18087001BD2DE9F04107460E4624
:1073C000904607F034FE044600F0C1F902BFDFF832
:1073D000A058287900282DD1204610F02BFF48B363
:1073E00042463146384610F01FFF18B3FFF726FF1C
:1073F000DFF86C1891F90010012202FA01F1C1EBDB
:10740000011189B290FBF1F701FB17070020FEF78D
:107410008FFA7F1C012E07D10120287008222146F7
:1074200005F10C00FEF76CFBB9B2281DBDE8F04178
:10743000FDF772BBBDE8F0812DE9F84F98B0044626
:1074400008A8102106F060FE03A8142106F05CFED7
:1074500002AB052210A9204610F0FAFE00250646D0
:10746000022E18D0204607F06BF900F0A5F98046EF
:1074700007F10C0009F02AFBADF8140007F10E002B
:1074800009F024FBADF8160005AB092221460820BF
:1074900009F011FB002800F05381DFF8D8070168DC
:1074A0009DF81300012E0B5D01936BD140F001009C
:1074B0008DF8130000270621794310A8461832885A
:1074C000022A5BD1F178204600F03DF91B2855D106
:1074D000F1782046C91C00F037F919284ED1F1780F
:1074E0002046091D00F030F94A2847D14FF0050920
:1074F000F17820464944491C00F026F9F1784FEA1A
:10750000002A2046494400F01FF9504480B200F0A0
:107510003F0A93281CD1F07800210091484400F1E3
:10752000020B0F235FFA8BF2214608A807F01BFA23
:107530000BF10F01C9B2204607F0C2FB05460BF163
:107540001100C1B2204607F0BBFBADF816000DE0FC
:1075500041280BD1F1782046494400F0F4F8DFF8D7
:1075600018170A78801A4D388DF81100D1443179F6
:1075700009F102095FFA89F08842B9D37F1C042F10
:107580000DDC98E700F0FE008DF8130007F1100005
:1075900009F09CFA054608A9204600F0DEF89DF89F
:1075A0001300E90B00F0FD0040EA41008DF81300E4
:1075B0000521204607F08BFC8DF80C000DF10D0025
:1075C0000FF078FD0DF10E000FF076FD08ACA078FD
:1075D00008220DF12301C0F3C3008DF80F0006A8A7
:1075E000FEF78EFA01982328ACBFA07B00208DF80F
:1075F0001000A07800F003008DF8120008A800F039
:1076000018FB9DF8131001F0FB0141EA80018DF891
:10761000131000F09CF813D109F02EFCBDF81410E3
:1076200081420DD10CA801F00DFE0198232805DB45
:10763000082206A90CA8FEF7B1FA08B10DF06CF803
:10764000B8F5004F11BFB8F5624F25F4404540F63C
:10765000FF70854274D10199232971DB0022082132
:1076600006A8FFF73BFA00286AD1DFF81066707BA6
:10767000DFF80C5610B9FFF743FA20B92878012833
:1076800018BF05285CD10127377308A8019003A90A
:1076900084B000F09EF90FBC00F093F830B103A95C
:1076A00084B000F096F90FBC00F0DBF828780128D0
:1076B00046D16078BDF81430272200F00F00019009
:1076C0009DF813000FF2D851400800F0010000901F
:1076D000032006F016FDDFF8AC050178BDF81400B4
:1076E00008228DF83210ADF830009DF8130006A97D
:1076F000400800F001008DF83300607800F00F00C2
:107700008DF83C009DF810008DF83D000DA8FEF7A7
:10771000F7F9FEF712F9DFF8700504685CB19DF81F
:107720001200BDF816309DF90E209DF80D10009046
:107730000CA8A04702E00CA8FFF7BCFCFEF703F979
:1077400019B0BDE8F08F891CC9B207F006BADFF89E
:107750003C0501684A7B022A7047F8B504460D468D
:1077600006F0EEFF00F028F800F44040B0F5404F7E
:107770000CBF06260026B819C07C4100400801F065
:107780000E0100F0380040183618DFF8E8040168F0
:107790001436F7B20B5D9F420CDA9B1BD8B20F2850
:1077A000F2B22146A8BF0F2300200090DBB228468A
:1077B00007F0D9F8F0B2F2BD074607F1090009F069
:1077C00085B90FB41CB5DFF8B444082207A9201D01
:1077D000FEF7E4F960B100220821201DFFF77EF9D1
:1077E00000B36088BDF81810884218BF002819D16E
:1077F0009DF81700810707D4DFF890040268507BDA
:10780000312818BF33280DD10998DFF880341C685F
:107810004278237802F00F018B420BD0012B05D167
:10782000022907D0002016BC5DF814FB022B08BF0C
:107830000129F7D10178002904BF1209022AF1D1E8
:1078400000F0F7F958B9207B0228EBD06088BDF82A
:107850001A108842E6D100F035FB0028E2D0012062
:10786000E1E70FB42DE9F84F8CB000258DF81850E2
:1078700007A8142106F048FCDFF8EC4320784FF00D
:10788000FF08C346DFF8DC6300286DD03078DFF8EE
:10789000DC73FF2842D0396811F80090CA46009581
:1078A00014230022514607A807F05DF8142207A907
:1078B00016A8FEF773F900281BD09DF858009DF814
:1078C0001C10884202BFBDF86000BDF82410884239
:1078D00011D108220AA919A8FEF760F958B900F0D9
:1078E00073F807A984B000F074F80FBC00F0F1F849
:1078F000002864D0D346386810F80AA0CA45CED113
:107900005846FF2808D006F090FF5946304607F049
:1079100067FA21784A1E2270207828B33078FF2831
:1079200022D03968C1469DF81850085C82468046CE
:1079300000F090F9514607A807F015F800F044F858
:1079400007A984B000F045F80FBC00F0C2F818B1E8
:10795000290004BFD1460125396811F80AA0C245A3
:10796000E6D10500C84603D120786178884213D259
:10797000142116A806F0DCFF0146FF280CD02DB11B
:107980005FFA88F2304607F05EFA02E0304607F010
:10799000FCF92078401C207060782178884206D25B
:1079A0003178304607F01CFA2078411E2170227889
:1079B000012A04D1DFF8D812201DFDF7ADF80DB073
:1079C000BDE8F00F5DF814FB16A901A814220CF015
:1079D000FBB9684614220CF0F7B92DE9FF41DFF836
:1079E000AC128046DFF86802448800208DF8000061
:1079F000086804F00105260602780DF10300760EF2
:107A000042F020028DF8012001F01CFC0322FF212E
:107A10000DF10B00FEF7BBF80CF05FFD8DF80E00CA
:107A2000DFF870020078DFF870120A78DFF86C3245
:107A30001978C00040F00400C0B22706240606F002
:107A400001067F0F240F8A4207F0010704F00104AA
:107A500038BF40F080002E4306D02F4218BF40F0C0
:107A600001000CB140F002008DF802000F226946BF
:107A7000404606F0EAFF401E8041C00F04B0BDE85A
:107A8000F08110B50020FDF754FFFDF75BFFDFF834
:107A9000E04100202071DFF8F4110868427B022ADF
:107AA0000DD1007B032818BF042808D0207810B11E
:107AB00010F0E4FD01E010F07BFD00202070BDE837
:107AC0001040FDF740BF0020DFF89C110871FFF760
:107AD0000BBC0FB45E4880B5408886B0C1070AD59C
:107AE0000DA9FFF772FF08A984B0FFF772FF0FBC62
:107AF00000F062F81AE080070AD50DA9FFF765FFCC
:107B000008A984B0FFF765FF0FBC00F024F80DE072
:107B100055490878E8B19DF824009DF83810814255
:107B200007D0081AC0B2812813DB002007B05DF827
:107B300014FB9DF936009DF92210814209DB884231
:107B4000F3D19DF821009DF8351088428041C00F87
:107B5000ECE70120EAE70FB44349087838B39DF910
:107B6000060041109DF91A0018BF0121C9B240104A
:107B700018BF0120C2B2914218BFC0B21AD19DF8FD
:107B800004009DF818100A1AD2B2812A0FDB814234
:107B90000FD19DF916009DF90210814207DB884242
:107BA00007D19DF801009DF81510884201D20120EF
:107BB00000E0002004B070470FB42B49087800287B
:107BC00035D032490868027B022A20D0407B9DF8DC
:107BD0001B10012806D101F00601062904D000205F
:107BE00004B070474807FAD5194909789DF916205D
:107BF0001E3148B290429DF9022049B2B4BF012023
:107C000000209142B4BF012100218842E8D19DF9B2
:107C10001A009DF90610814209DB8842DFD19DF8E8
:107C200018109DF80400091AC9B28129D7DA012079
:107C3000D6E716490A688078137B022B0CBF00F048
:107C4000040000F0800000B101207047AE47012021
:107C500000960020002000901423002270470000AE
:107C6000DD970020DC97002064490120B0930020BC
:107C700070490120A4930020C94F012084470120AE
:107C8000DE970020CA4F0120A8490120704701203B
:107C900020BF0200315E0120265E0120C797002030
:107CA000425742420000000010B50446FDF746FE70
:107CB00048B100BF5DA100E0891D087918B10A88AC
:107CC000A242F9D14C88204610BD00002DE9FC41AC
:107CD00006460C4690461F46FDF730FE05465248C4
:107CE0000178FF2928D04078A84225D1002200BF82
:107CF0004EA301E012189B1D1879E8B1B3F800C03B
:107D0000C445F7D1701E8041C00F00901B79D2B2DC
:107D1000204606F028FE0DE02246E9B2404602F079
:107D200078FEFDF70AFE404608F0BEFEBDE8F341CE
:107D3000FDF709BEBDE8F3814046FFF7B5FF804679
:107D400028003B4618BF6D1E002EE5D0EAB2414622
:107D5000204602B0BDE8F04102F02ABE2DE9F8430A
:107D600088B081460026FDF7E9FD07002FA518BF62
:107D70007F1E287920B32888FFF796FF80465FEAA8
:107D800009002C7908BF002006D02346FAB24146EC
:107D900001A802F00DFE012000902348017823463F
:107DA000F2B201A806F0DFFD5FEA090005D1234623
:107DB00001AAF9B2404602F02CFEA619AD1DD8E783
:107DC00009B0BDE8F08310B5174C2078FF2801D129
:107DD000702010BD0020FFF7C1FF207806F025FDC0
:107DE000FF2020706070002010BD000010B50E4C08
:107DF000607800210DA2FF2803D0702010BD091863
:107E0000921D10790028FAD1C9B206F091FD2070B8
:107E1000FF2807D0FDF792FD60700120FFF79EFF5D
:107E2000002010BD182010BDD297002007000F00C1
:107E30001000080011001A0006000E0011000200D8
:107E400010001100040014000400010001000400EF
:107E50000900120008000A0013000A000B001500B8
:107E60000200000000000000DFF8001BC87370472C
:107E700010B5DFF8FC4A2068427B112A04D0B021FB
:107E8000DFF8F00A01F080FE20684121417310BD47
:107E900080B50220FDF74DFDFDF754FD00F012FA0C
:107EA000DFF8C80A137B042B03D1017C491D017440
:107EB00004E04FF47A711830FCF72EFEBDE8014063
:107EC000FDF741BDDFF8A80A0168487B33281CBFD5
:107ED0004328532801D101207047002070472DE925
:107EE000FF4110F0DDFC07F059F900284FD0DFF812
:107EF0007C4A00202076DFF8800A01790C3001F0FE
:107F000093F8607D18B1FFF7EFF90020607500214C
:107F1000217300F042F811F005F910F013FD00256F
:107F2000DFF8588ADFF8486ADFF8CC7B3978E8B2A6
:107F300088422CD2FDF706FD30684FF6FF7241886B
:107F4000914218BF012007D100220821001DFEF731
:107F5000C5FD401E8041C00F94F8281001F00101BA
:107F6000014210D0306808224188ADF8081000F0B6
:107F700010F80A230A2201F09DF802230B22414641
:107F80000020FFF7A3FEFDF7DEFC6D1CCEE7BDE889
:107F9000FF81011D6846FDF7B3BD10B5DFF8D009BC
:107FA0000068017B032918BF042906D141884FF6D8
:107FB000FF72914208BF032008D0FEF710FD04466F
:107FC000FEF711FD21460FF0DEFA0220FEF713FD49
:107FD0000CF068FA00F0F6FEBDE8104011F0CDB8E4
:107FE00038B5DFF88849E07300F0B7FA487B03281A
:107FF00018BF00281ED0332818BF432814D101F021
:10800000D5F82868017B032918BF042906D103216C
:108010004173E07BBDE83240FDF7FBBCE07BFDF740
:10802000F8FCBDE83140B8E721204873BDE8314095
:1080300009F096BB31BD10B500F044F90020DFF81F
:108040002C4950734FF6FE7008F012FF4FF6FF7088
:1080500008F016FF01F0AAF8E07BBDE81040FDF73C
:10806000D8BC00007FB50446E07A1522DFF800593D
:10807000029094F90A100320019123892FA1009303
:10808000234606F03EF82968487B70B9208901F044
:1080900004F90AD0DFF8642A10780B2805D1FDF71F
:1080A00053FC10B9FDF752FC10B1702004B070BD44
:1080B0002868017D880708D508F0D6FE4FF6FE72C5
:1080C000904203D111F037FA00E00020214600F081
:1080D0005DFF06000DD12868017D88074CBF022096
:1080E000012000F029FF00210120FDF72BFE0600F2
:1080F00001D03046DAE7DFF8081A087808B10AF04C
:108100002FF8002208212046FEF7E8FC30B10421B8
:1081100020460CF043FB08B1A520C7E7DFF8E409CF
:1081200001780020DFF8E029E081217462612046B7
:1081300000F063F90646FDF7C2FBDAE742387057F4
:108140004242000070B506463346182201F030F86E
:10815000DFF81808002180F82010DFF814281368D1
:108160007025197B032918BF042911D0002531007F
:1081700008BF05750CD0FF2E02D10121017507E063
:108180000122B4000275641C21022030FCF7C4FCFB
:1081900000F018FE284670BD0020DFF8D01781F8E7
:1081A0002000CFE72DE9F0410E4600F0D6F98046D9
:1081B0001446487B1F4600284BD1200049D0042C90
:1081C00047DCDFF8380901780B2942D1FDF7BCFB09
:1081D00000283ED1FDF7BAFB08B1042C39DB387B0F
:1081E000032816D14FF6FE718E4214D1012C08BF20
:1081F000002610D0022C2CD108F036FE4FF6FC7170
:10820000884202DA08F030FE01E011F094F90646E7
:1082100001E0012C1DD0B8F1000F0CD0387B0328F1
:1082200020460CBF01210021012C18BF0020FDF7C2
:1082300089FD01002BD13946304600F0A7FE010030
:1082400025D1FDF77BFBFDF760FB20B1FDF77EFB41
:1082500008B170201BE02868407B332818BF5328E2
:1082600003D00020DFF804178873204600F064FE76
:1082700000214FF6FF7000F0F6FFDFF88418087851
:1082800020B1FDF763FB08B909F06AFF0020BDE8E3
:10829000F08138B50446DFF8D45608222146281D5F
:1082A000FDF72EFC207B0328A8BF0020287028782B
:1082B0009421E973002800F005F80CBF012031205B
:1082C000507331BDDFF8A8160A68704710B51C4618
:1082D000FFF768FF01002BD1207B0328204602D145
:1082E000BDE8104089E0FFF7D4FFDFF880060021E9
:1082F0008181DFF87C4620684FF00103817B4809CB
:1083000005D1DFF8300C027803FA01F108E001F042
:108310001F0140F0180003FA01F1052241EAC06193
:10832000052011F09CFA010002D02268002151734F
:1083300010BDF8B586B006460C4617461D46082205
:1083400004F10C01FFF726FE21898DF80A70002246
:10835000ADF8081021788DF80C206B468DF80B10C5
:1083600032464FF6FE710120FFF71CFF01000AD1D3
:108370006846FFF78EFF204600F007F8010004BFB3
:10838000DFF8E8154D7507B0F0BD38B50446DFF8E5
:10839000E0552868007B032818BF042806D1E0793F
:1083A000C10744BF94F905000BF036FD2178286819
:1083B0008173FDF784FA2968DFF8CC0B0A7B2189E9
:1083C000825C608910F035FA040004D09420FFF735
:1083D00007FE204632BDDFF894459420E07302206A
:1083E000FDF7A6FA00F004F803202074002032BD47
:1083F000C82104F11800FCF78FBB10B50446002219
:108400000821FEF76BFB08B1012010BD08F02CFD20
:1084100000224FF6FF7100F0E4FD217C204600F0C1
:1084200003FE6269E189207C0CF06CF8DFF84005FE
:1084300001680A7B012A08BFFEF71EFAFFF7ADFDAF
:10844000002010BD7CB500F088F80446487B002869
:1084500002BFDFF8A81608780B2801D0702076BD7F
:10846000FEF79DFFDFF804652CB10222214606F1DC
:108470002800FDF745FB684600F0CDFE08B19320CB
:1084800076BD9DF80030142200F092FE00F018FE38
:10849000010061D19DF8000000F04EFD2868007BCE
:1084A000012818BF022807D0032818BF042838D194
:1084B000002000F0F6FEA0B300F019FE2868007B53
:1084C000032814BF042811F002FEFFF766FD012007
:1084D00011F01CFE01003FD12868007B032818BF63
:1084E00004280ED196F828108A0708D50522DFF84F
:1084F0001816012000F038F801002CD076BD0328B2
:1085000001D0042827D1DFF8744402230B2221462E
:108510000120FFF7DBFB207841071CD510F00AFB98
:1085200019E02968132000224873727328684FF0FD
:108530000102817B480908BF02FA01F107D001F06E
:108540001F0140F0180002FA01F141EAC061052262
:10855000072011F084F9002076BDDFF81454296853
:108560007047FF2200E000002DE9FC418046DFF863
:10857000000400680D461646017B012940D0477B68
:10858000022F07D0032F3BD15FEA080102D1007D03
:10859000810735D43320FEF72EFA10F081F915F05B
:1085A000784F294612BF0522DFF888090278052096
:1085B00011F055F90446A8B9DFF8B07338730120FB
:1085C000FEF7E4FE08F058FC78805FEA080014BF6C
:1085D000022001203870381D00F034FE002078732E
:1085E000BE7302E03846FEF706FA5FEA080031463D
:1085F000284602D008F064FA03E008F060FA00E0D0
:1086000070240194009543465FF02C0203A10320DF
:1086100005F077FD2046BDE8F68100004242444265
:108620000000000038B5044606F08AF805462046EA
:1086300006F053FC2C18204608F048FA4FF6FF517C
:1086400001402046BDE8344008F047BAFEB5054673
:1086500008F00AFC0646C64C2068007B032818BFB9
:10866000042806D1E879C10744BF95F905000BF04D
:10867000D3FB287821688873FDF721F968890021E8
:1086800000F0F1FDFEF73CFA60B1300003D04FF688
:10869000F8718E4206DB10F04EFF216806464A88CC
:1086A0009042F8D0304608F0E3FB288908F0E8FB58
:1086B00006208DF808002068DFF8CC18027B8B5C60
:1086C000002101918DF8093000914088022302AA0F
:1086D000012105F046FE0646FF2804D11820FFF7C9
:1086E0007FFC1820FEBD2068A04D4188304606F072
:1086F00035FC287802281CBF3046FFF793FF00F0B6
:1087000063F80746304606F090F8CFB19420E8733E
:108710000220FDF70DF92068017B042908D1C8214A
:1087200005F11800FCF7F8F9032028740020FEBDBD
:108730004FF4167105F11800FCF7EEF90020F4E78C
:108740009420FFF74DFC0120FEBD78B587B00C46A4
:1087500016461D4630B920460AF062F903A909F011
:108760000AFC03A80C99019007238DF809600120E9
:108770008DF80830360A8DF80B1000908DF80A60DD
:10878000042302AA0121204605F0EBFD0646FF283E
:1087900018D0214606F0E2FB15B93046FFF742FF3C
:1087A0000D9808B930460DE0204609F01FFC18B1BD
:1087B000304611F0B7FC01E000F006F8304606F054
:1087C00034F8FF2008B070BD00220021304611F0BF
:1087D000EABF2DE9F34F824685B09DF81800144694
:1087E0001D4603A905F0F8FD0027002C4FF6FF7980
:1087F000B84614BF4FF0010BBB460026BBF1000F7B
:1088000007D008B10DF10C086678760806F001066D
:1088100004E09DF8180006F00AFC804600F001FC18
:10882000087B03281CBF0428B8F1000F00F09B80D0
:108830009DF818006D1CE9B206F08FF90546400856
:1088400000F001008DF80900280600F0EAFB8DF821
:1088500008A058BF45F080054A7B022A04D1434A4C
:10886000107D50EA0A0101D1022729E0404608F0B4
:1088700087FAADF800009DF81800032106F027FBE9
:10888000814608B94FF0010930000CBF4FF0050ACE
:108890004FF0010ABBF1000F03D0201D08F016F9BC
:1088A00001E0BDF800000146CDF8009053462A468D
:1088B000404609F07BFA00F0F0FC814608BF012732
:1088C000DCB19DF8080018B9484600F0E6FC02D17A
:1088D000201D08F0FBF80121019101460097334665
:1088E0004A464046FFF731FF9DF8090050B94FF660
:1088F000FF71404609F07BFE04E03A464946404697
:108900000FF070FF7FBB9DF8090028B14146484633
:1089100009F091FE09F0DEFE30001EBF48464FF61A
:10892000FF7188420DD00AF07BF8FF2809D0DFF8EC
:10893000D0190A684BF6FF7132F810300B4022F85C
:10894000103084B108F090FA0EB1002405E09DF8D3
:108950000810002914BF03240124014643464A4657
:10896000204608F047FB07B0BDE8F08F84470120A0
:10897000704701203C930000BC4701204249012080
:108980002DE9FF4780460C46914602A9204605F096
:1089900023FD054601AA00201060204606F0A7FA34
:1089A0000746DFF860A95FEA080107D0002D14BF71
:1089B00002AE002605F005FD054604E0204606F05F
:1089C00036FB064655460020009004234A462146C1
:1089D00001A805F0C8FF0DF1050008F077F8814601
:1089E0005FEA08009DF8074018BF002D06D0082256
:1089F00051462846FDF7D2F8002879D11CB94FF628
:108A0000F871894520DAFFF7A8FDC87E10B17878A3
:108A1000820713D55FEA080010D0487B022808BF00
:108A2000002C0BD1484608F023FA10F07BFB992369
:108A300000F0BDFB9920FCF7ECFF59E0FEF760F871
:108A4000002818BF002C03D09420FFF7C9FA4FE08C
:108A5000FEF756F800284BD0304609F055FCFF28A9
:108A600018BF5FEA080104D128683146408809F040
:108A7000E2FD09F02FFE28683246DFF88C48418875
:108A8000484600F0AEFADFF8840890F902100902B7
:108A900061852868417B012916BF312911214321B5
:108AA00041730220FCF744FFDFF864080168FFF718
:108AB000A0FC11F00CFB002020742968C87E20B9AE
:108AC00004F11800FCF71EF810E0B8F1000F05D013
:108AD0007878820702D5FFF702FA07E0087B0428BE
:108AE00004D10521FFF785FC09202074AD21E17335
:108AF000FCF7E5FEBDE8FF87B6970020DE97002073
:108B0000D0970020225E012000F8FF072DE9F04FEA
:108B10008DB0814606F0EBF9074606F033FA019076
:108B2000484606F084FA824602AB052205A948466B
:108B30000FF08EFB8046022823D0484606F0CDF980
:108B400001999DF80820DFF8CC6708188518681C83
:108B50008DF80000E9B24846EC1C05F0FEFF4FF628
:108B6000FF7B01280ED0022813D0042800F0CB8010
:108B700006281CD0072876D0082829D07C2800F0A9
:108B80008980E0E0EBB2002249460020FFF721FE99
:108B9000D9E03068417B012902BFDFF86C271078EB
:108BA000002803D1EAB24946FFF7EAFECBE050467F
:108BB00009F0C6F9014658451CBF50460FF0DEFDCE
:108BC0003068417B022902D1504607F06AFFBAE0C3
:108BD0009DF800104846AD1D06F072F80746E1B258
:108BE000484606F06DF80446E9B2484606F068F8D3
:108BF00005465845EBD011F06AFA3068417B1329DD
:108C000008D100F074FA484606F011FA01462046F1
:108C100009F011FD3068407B022818BF13281CD1D1
:108C2000284608F025F9384608F02AF900210020E6
:108C300000F0FAF95146204600F015FBDFF8CC06AB
:108C4000C078DFF8D4160F28B4BF401C0F2008707E
:108C500000F0B8F83068417B132974D123224273A5
:108C600010F0C0FE6FE001980121384405F060FE6D
:108C70000446002300222146012007F01CFF0028A3
:108C800020465ED005F0D1FD05AA41464846FEF7D4
:108C900093FB58E09DF800104846AD1C05F05DFFC1
:108CA0000746E9B2484605F058FF652F08BF6D2812
:108CB00049D1DFF868160A68E0B212F80970B842C4
:108CC00041D20822514603A8FCF71AFF6B46002246
:108CD000E1B2484605F020FAA8BB9DF80000FF2845
:108CE00031D0DFF83C4601202070FCF726FE9DF8CD
:108CF000001003A807F0CAFEFCF725FE0020207034
:108D00009DF800001DE0484606F0AFF904460FF25A
:108D10003C60008800210191ADF80A000091022317
:108D20000DF10A020121204605F01BFB0546FF2834
:108D300009D0214606F012F90021284603F044FC30
:108D4000284605F072FD0DB0BDE8F08F38B5022061
:108D5000FCF7EFFDFCF7F6FDDFF8AC4500202076D0
:108D6000DFF8B05506F01AFA28B12968C87E10B9A4
:108D7000FFF7B5F820E006F011FA10B9FDF7C0FED4
:108D800048B1207C38B1FFF733FB207C411E2174B1
:108D900003F009FD10E02868417B132909D0FDF795
:108DA000AFFE30B92868407B11281CBF43284128FA
:108DB00002D1E07BFFF714F9F4E10020DFF8481559
:108DC0000874704710B5FCF7D5FDDFF83C45FF2867
:108DD00003D0207D10B1012000E000200FF0D6FB71
:108DE00000206080201D08220021BDE81040FCF713
:108DF000CEBE2DE9F84389460546DFF80C45012132
:108E0000DFF8088584B0174661734046FEF777FAAD
:108E10000BF06CF900281ED1012D01D028001BD1C8
:108E200000974B46262296A1032005F06AF9FCF72D
:108E300084FDDFF8F00404683CB1012D08BF10F098
:108E40007DFF39464846A04703E039464846FEF7CD
:108E500046F9FCF778FD5FE0DFF8B8643068407BE6
:108E600023280DD1FDF7BBFD0446FDF7BCFD2146CF
:108E70000EF089FB0220FDF7BEFD0FF063FD4BE015
:108E8000002F49D121281CBF0428532802D108F003
:108E900067FC41E0FDF734FEF0B1FEF773FA28B944
:108EA000207B00280CBFAB2094202AE002F003FDB9
:108EB0004046FEF724FA28B140F2CC610FF27C4024
:108EC00000F062FE20780028404602D1FFF75DFAEC
:108ED00022E0FFF7BBFB1FE03068417B132916D16E
:108EE00000F0ECF8BDF8000007F0CAFF00F0FFF852
:108EF0003068017B032918BF042905D13321417350
:108F00009620FFF76DF807E0FFF747F804E0042D1F
:108F100004BF484611F0A5FE4FF4006008F08BFE38
:108F200010B911F0A0FC08B103F082FB05B0BDE858
:108F3000F0830000D197002038B50446DFF8D45301
:108F40002868017BA14203D004732046FCF75AFD38
:108F50000AF0D5FF40B11CB900200AF0CCFF0EE0AA
:108F600001200AF0C8FF00E01CB12868017B042939
:108F700005D1FCF7B1FCFF2808BF012000D000207C
:108F8000BDE8324003F03CBE3C22010038B5054646
:108F90000C46E07A02F01BFAFF2801D18A2032BD8C
:108FA00094F90A00FDF7B8FD08B18B2032BDDFF857
:108FB0006403E17A02689173A17A0068C17328465C
:108FC00007F056FF4FF6FE7085420CBF4FF6FF705C
:108FD000208907F055FF2089DFF82C1348800020F6
:108FE00032BD38B50C46154607F042FF10F072FA54
:108FF0002946204600F037F9FEF7C4F938B1DFF80A
:109000000C03C0780F28ACBF0F20401C06E000F016
:1090100008F80A7B012A0CBF00200120BE49087015
:1090200031BDBC48016870477FB504460D4600F06D
:1090300045F8B84E94B1134A002128460BF062FA65
:109040003068082201788DF80410007B21468DF8E5
:10905000050002A8FCF754FD04F0ADF83068817BF0
:109060008DF80310C17B8DF8021007F005FFADF8F5
:10907000000007F0F9FEADF8060000F019F87FBD1A
:109080004242420000F8FF071FB5044600F016F800
:109090001CB100208DF8050007E007F0E5FEADF8F3
:1090A000060007F0E9FEADF8000000F001F81FBD72
:1090B0001023072269460020FEF708BE68463FE0FD
:1090C00080B58AB0FFF7FAFFBDF8000004A9ADF83B
:1090D00018009DF803008DF81B009DF802008DF824
:1090E0001A00BDF80600FFF751FF0BB000BD70B5C8
:1090F00086B0012000F0D5F80FF25421D1E9002309
:109100004FF6FF7504002E46CDE9002305D08148B7
:10911000006846880822FEF73CFF04F057F802A8D2
:1091200000F00EF8002CBDF80E000EBF00226A46BB
:1091300035462946FFF755FF12F099F806B070BD85
:109140000146102307220120FEF7C0BD38B50820D4
:10915000FCF7EFFB0546FCF7F5FB6E4C7248017817
:1091600022689173FCF7ECFBA84208BFFCF77CFB7C
:1091700000210020FFF758FF2068007B032818BF5C
:10918000042802D10AF049FE01E009F009F89B2306
:1091900000F00DF89B20FCF73CFC2068002120F833
:1091A000441F4180BDE83140FCF7CDBBE37B132277
:1091B00052A1032004F0A5BF10B5044602F007F940
:1091C000FF2801D18A2010BDFFF72BFF487B022822
:1091D00018BF032801D0702010BD53480470082028
:1091E000FCF7A6FB514801780B2901D03D2010BDAA
:1091F0004F4803F0A0F908B9A12010BD002010BD10
:109200004A490A780B2A01D03D20704741490A6833
:109210009073FCF729BB1FB504466846FFF790FF23
:109220009DF8050040B1042806DCFFF74BF89DF8D7
:10923000041013788B4201D0932001E020700020AD
:1092400004B010BD1FB504466846FFF779FF082239
:1092500002A92046FCF754FC1FBD2E490A68354878
:10926000137BC05C704710B52A4C2368588011B935
:109270000822181DB9E50822181DFCF741FC2168D9
:109280004FF6FF724888904204D0091DBDE8104097
:1092900007F019BC10BDBDF808004FF6FF718842F9
:1092A00070471FB50446184890F82810C80707D51E
:1092B00000F016F8FFF7EFFF02D000F00CF808B14D
:1092C000002006E024B1BDF808006946FFF7CBFF97
:1092D000012004B010BD0822FF216846FDF7FEBB47
:1092E0000A230A2269460120FEF7F0BC12480078E2
:1092F000704711480021017101707047424200001F
:10930000B8930020D447012084470120BC470120A6
:109310001494002070470120315E0120A4930020A6
:1093200078470120AC490120235E0120DE97002010
:109330004D9100003C220100B04701206173736F22
:1093400063696174696F6E2E630000000460000041
:10935000FFFFFFFFFFFFFFFF2DE9FC4105460E4623
:109360001746984600F0FCF9040008BF70201DD095
:109370004FF6FC718D4204DB4FF6FD70854218BF3D
:10938000054643463A463146284612F045F9064618
:1093900012F06EF9310018BF304607D1089A0090DC
:1093A00006232946204600F03EF80020BDE8F6815D
:1093B000F8B505460E46174600F0D2F9040001D173
:1093C0007020F2BD4FF48A523146284612F05CF903
:1093D000064612F04DF9310001D03046F2BD009042
:1093E00004233A4616E0F8B500F01AF8040001D15B
:1093F0007020F2BD40230022002128460FF060FEBD
:10940000074610F019F8390001D03846F2BD009037
:10941000012332462946204600F005F80020F2BD1F
:1094200005460E469CE138B54FF6FC750124A9426D
:1094300004700499B8BF43F400430381C37A4260C7
:109440008172DFF87C23082102EBC300FBF7F4F8FC
:109450000420BDE83240FDF763BE7FB5040035D07F
:10946000207BFBF7C2F800212170E27ADFF850037D
:1094700000EBC200FBF7DBF8FCF753FA01460022D1
:10948000DFF8403303EB01151606360DA85D30B941
:10949000521CD5B2042DF5D30420FDF7ADFE616852
:1094A00091B122891004C2F30E02ADF802204CBF24
:1094B000022300238DF800304FF6FF720023ADF831
:1094C0000420029368468847FBF79DF87FBD10B5DE
:1094D00004460020207000F02DF90020B84901EB6F
:1094E000C002944207D0401CC0B20428F7DB002021
:1094F000BDE81040B1E7B34901EB0010F8E738B51B
:1095000004460D466168284688472089010402D434
:109510002878042805D1002161602046BDE832404A
:109520009BE731BD2DE9F0419CB003468879CC79A9
:109530000D3A00EB0420ADF81C00087A4C7A00EBE1
:1095400004200C24ADF81E0048798DF82000C87A5C
:109550008DF80C0001EB4000057B02EBD27040104F
:109560008DF81450B2EB400243D1002009AED7B2BF
:1095700006EB470604969DF80C8006E00028F5D01F
:1095800009AF07EB46060696A8464FF0000C0DE023
:109590000F1911F804E07F78A41C521C0EEB072E63
:1095A00009AFE4B227F816E00CF1010C5FFA8CF772
:1095B000D6B24745ECDB08B9641CE4B2401C022873
:1095C000DCDB1889020403AA4CBF032001208DF8BC
:1095D00000008878C97800EB0120ADF804001989F3
:1095E00002921846C1F30E01ADF802106946FFF76A
:1095F00086FF01201CB0BDE8F081F0B585B00F46B4
:1096000015461E46FCF78DF90146287800F0BEF895
:1096100004001CBF2178002916D03888002801BF1B
:109620007988228942F4004291420DD1687800285D
:109630007BD14FF40042891A012935D9091F04D082
:10964000491E4FD0491E06D071E0324629462046B9
:10965000FFF768FF6CE0042E67DDAA78E978701FD9
:1096600083B202EB0122297999425ED16D1D8DF8FA
:1096700000000195238903F4004021B100280CBFAC
:109680000120032003E0002814BF052006208DF8E8
:109690000800C3F30E03ADF80A30ADF80C20CDF886
:1096A00010D002A920463EE00B2E3EDD0822A91C68
:1096B00003A8FCF725FA208901044CBF03200420ED
:1096C0008DF80000A87AE97A00EB0120ADF80400DB
:1096D00021892046C1F30E01ADF8021003A90291C1
:1096E000694620E0042E20DDA878E97800EB01200F
:1096F000ADF80C002879401DC0B2B04215D12189C7
:10970000CDF810D00804C1F30E01ADF80A104CBF1B
:10971000032201228DF808206A1D01922979204632
:109720008DF8001002A9FFF7EAFE012000E00020FA
:1097300005B0F0BD24490878002800D0704720B556
:109740000025204A02EB0012D072401C15731570E0
:109750005560158195720428F3DB0120087020BD47
:1097600038B5FFF7E7FF0024FCF7DBF8154901EBFC
:1097700004150001285C20B1641C042CF4DB0020DB
:1097800032BDFCF7CEF805EB001032BDF8B504464B
:109790000D46FFF7CFFF00210A4A02EB05100B012F
:1097A000C618B77AA74201D1C05C20B9491C042968
:1097B000F3DB0020F2BDD01800EB0510F2BD000075
:1097C00020A1002040A10020B95D01202DE9F24F29
:1097D000022940F39580190005D0BDF80010052935
:1097E000F7DB42F00402824601268AF800201800C6
:1097F00005D08AF801301B0A8AF8023003260A9C39
:1098000000F08DFD0AF80600761CB0B20AF80040A0
:10981000761C4FF0000BDDF8309007E0BAB24146FD
:109820005044FCF76DF9BE190BF1010B0B985FFA70
:109830008BF1405C002865D000250024A0467328E9
:1098400034DC4C2859F8048B1CBF5328622811D1F2
:1098500059F8047B4C2806D1BDB24FF6FF70854203
:1098600036D0022434E0532832D1FDB2FF2D2FD060
:1098700001242DE06C2804D1404612F010F8871C1A
:1098800026E0732804D1404612F004F8471C1FE07C
:10989000A0F130010A2938BFA0F1300718D3A0F198
:1098A000410107292CD2A0F1370711E000277528C4
:1098B00008BF01240AD0762808BF022406D07828E1
:1098C00008BF032402D077281AD1042459F8045B76
:1098D000BDF80010B2B2B8B28218A218914205DAEF
:1098E0000EE00AF80050761C2D0A641EE1B2B0B2F8
:1098F0000029F6D1B9B2002996D0B8F1000F8DD168
:10990000002000E0B0B2BDE8F28F10B5494C2060F5
:109910004948018049490A60494A136010BD7FB532
:109920000C46089909AD009302951346019100F089
:1099300017F808E07FB50C4608A90092029100F0E4
:109940000FF801930023FFF741FF3C490A683C4BA5
:10995000108019684FF48A524C80CA8004B070BDE0
:109960000246354D334E29883068704738B5034676
:10997000324C30482568026831482988006801B0B7
:10998000BDE830400BF076BF0020EFE77FB500F078
:1099900037F80BF0C6FE04B070BD0023F6E710B533
:1099A0002448264B02681C68254800682188BDE8C9
:1099B00010400BF0CFBE7CB501921E4A14681F4DBB
:1099C0002E6800941E4C338822680BF027FF76BD6A
:1099D0000022F0E738B500F003F80BF0F4FE32BDDA
:1099E0000091164C134925680B6815492A880968A7
:1099F00070477FB500F004F80BF0FAFE04B070BDBC
:109A00000E4C0091256802930A4901920B680C4E96
:109A10002A88316870470023EBE70021DAE708481D
:109A200000687047064A13681871106841717047E2
:109A30000000000034990020F2470120949B002090
:109A4000149C0020EFF31180302181F311887047BE
:109A500080F311887047FEE77FB500F011F818B960
:109A600000F015F811F051FF04B070BD7FB500F0A3
:109A700007F818B900F00BF811F063FF04B070BDDF
:109A80000446084615461E4602A912F023B8089956
:109A9000099833460091029901902A462046704762
:109AA00080B500F00DF880B202BD80B500F008F876
:109AB000FA21B0FBF1F080B202BD000000BF00004F
:109AC000E0B511F0EDFF6A4612F036F818B1472103
:109AD00028A000F059F8DDE9000103B000BD000046
:109AE00080B512F074F911F0E5FE20B15FF052017B
:109AF00020A000F049F8002002BD012010490870A4
:109B00007047FEB504462168002501B91CE000F04D
:109B10000CF808B100F002F8012019E00195009559
:109B2000216800233A46301D96E7054E3570054FF3
:109B30000023019500933A46301D97E7000000008E
:109B4000F8480120FB9A000000F018FA0020FEBD42
:109B500012F098FA307840B92146301D11F05CFFC0
:109B60002068852511F0CBFF01E0002030702060D7
:109B70002846FEBD73797374656D2D74696D6572C9
:109B80002E63000042DE704738B504460D4600F0F3
:109B90000BFE12F08BFA2946204612F08CFA2B4667
:109BA00022466D4901200AF0D1FF29462046BDE832
:109BB0003440E7E769482DE9F8430168684E4FF4FF
:109BC0002068B165026A6749F2650B6833664968C7
:109BD0007166426AB266816AF166C26A3267016B77
:109BE0007167806B96F83810B06748074CBF346CCB
:109BF000F46B12F07FFADFF870E100228442014634
:109C00003265A14624BFAEF12007A742716506F177
:109C10009002564BDFF858C118D3A0697064E4690C
:109C2000B464B56DC5F30805062D13D1604511D395
