:100000000010002015020000110200001102000083
:100010001102000011020000110200001102000094
:100020001102000011020000110200001102000084
:100030001102000074BB0000110200001102000058
:100040001102000011020000110200001102000064
:100050001102000011020000110200001102000054
:100060001102000011020000110200001102000044
:100070001102000011020000110200001102000034
:100080001102000011020000110200001102000024
:100090001102000011020000110200001102000014
:1000A0001102000011020000110200001102000004
:1000B00011020000110200001102000011020000F4
:1000C00011020000110200001102000011020000E4
:1000D00011020000110200001102000011020000D4
:1000E00011020000110200001102000011020000C4
:1000F00011020000110200001102000011020000B4
:1001000011020000110200001102000011020000A3
:100110001102000011020000110200001102000093
:100120001102000011020000110200001102000083
:100130001102000010B5054C237833B9044B13B1FC
:10014000044800E000BF0123237010BD1C120020F2
:10015000000000004CBC000008B5034B1BB1034974
:10016000034800E000BF08BD00000000201200208E
:100170004CBC0000A3F5803A704700BF174B002B22
:1001800008BF134B9D46FFF7F5FF00218B460F4636
:100190001348144A121A00F02EFC0E4B002B00D00C
:1001A00098470D4B002B00D09847002000210400F9
:1001B0000D000D48002802D00C4800E000BF00F000
:1001C000E9FB2000290000F051FB00F0CFFB00BF4D
:1001D00000000800000000000000000000100020E7
:1001E0001C120020B81C00200000000000000000CD
:1001F00005490A681318054883428CBF4FF0FF3247
:100200000B601046704700BF0010002000800120E6
:10021000FEE7000008B500F013F8064B064A074950
:100220008B4201D3FFF7AAFF52F8040B43F8040BEB
:10023000F6E700BF0010002054BC00001C12002094
:10024000044B054A9A60D3F8882042F47002C3F840
:100250008820704700ED00E000000000EFF3108000
:1002600072B6704700B962B67047000041F671324D
:10027000034BDA63012203F50053DA60704700BFD5
:100280000000034041F671320121044BDA6303F5AB
:100290000052D1600022DA63704700BF00000340C3
:1002A000836813B9816070475B685A68012AFBD183
:1002B00059607047C369032B9FBF00EB8302013372
:1002C000D160C3617047C369042B15D84FF09842C1
:1002D000116CC902FCD504339B0013650168103B07
:1002E000116041680C30116050F8041C0344116027
:1002F0004FF09842984200D1704750F8041B1160AB
:10030000F8E7000010B50446FFF7A8FF024B1C6099
:10031000FFF7A8FF002010BD3812002010B5FFF72E
:100320009DFF034B1C68FFF79DFF204610BD00BFDB
:100330003812002007B530B9CDE90012FFF7EEFF03
:10034000DDE9001230B1436823B1006803B05DF805
:1003500004EB1847232003B05DF804FB30B51C46BE
:1003600085B058B9CDE90012FFF7D8FFDDE90012DA
:1003700004B903AC20B9232005B030BD03B903ACE8
:100380008568002DF7D023460068A847F4E70020D1
:100390007047FEE74FF4005300204B607047012088
:1003A00070470020704707B5002001AB0190FFF7B0
:1003B000D5FF0198002808BF4FF0FF3003B05DF86B
:1003C00004FB10B514460020FFF7B4FF204610BD13
:1003D00010B500201C4600F0ABF9002820600CBFCF
:1003E0001B20002010BD08B5002000F0DFF9002818
:1003F0000CBF2F20002008BD07B500F023FA022310
:10040000009300231A461946184600F0E9F90348FC
:10041000FFF778FF002003B05DF804FB0410002014
:100420000020704700207047B0F5802F24D010D8EE
:10043000B0F5003F22D006D828B3B0F5803F14BFF6
:10044000012048207047B0F5403F14BF01202C2008
:100450007047B0F5302F13D008D8B0F5E02F11D089
:10046000B0F5202F14BF012010207047B0F57F0F8A
:1004700014BF0120062070474B2070472A20704788
:10048000112070472120704708B570B1FFF71BFF9E
:100490004FF098435A6CD202FCD5586D10F470207E
:1004A00004D0BDE80840FFF7BFBF212008BD08B554
:1004B00028B12022002100F09EFA002008BD212052
:1004C000FCE708B1FFF7F3BF2120704710B50446E1
:1004D00068B161B10023074A8360C0E90023C361AA
:1004E000FFF7E8FE2046BDE81040FFF7CDBF212012
:1004F00010BD00BF0000024310B5044668B161B1F1
:100500000023074A8360C0E90023C361FFF7D2FEDE
:100510002046BDE81040FFF7B7BF212010BD00BF47
:100520000000034370B50E461546044686B0D0B1B0
:10053000C9B1C2B100230D4A8360C0E90023C36181
:1005400001AB039301230493094B03A90593FFF720
:10055000A7FE2046FFF798FF18B9019B3360029B66
:100560002B6006B070BD2120FBE700BF00000443F4
:10057000080000201FB5044698B191B100230A4A33
:100580008360C0E90023C361012301910293074BFB
:1005900001A90393FFF784FE2046FFF775FF04B01F
:1005A00010BD2120FBE700BF00000843040000202D
:1005B0000369C26893429CBF80681B18013B981A6C
:1005C00070472DE9F843D0E902940546A9EB0408E9
:1005D0004068904520440F46144404D900F0FEF9C9
:1005E000EC60BDE8F8834246A4EB090400F0F6F99C
:1005F0002246686807EB0801F0E72DE9F843064654
:10060000894617464FF00008C5683469B368A542AB
:1006100028BFE418013C621B5C1BBC4228BF3C465F
:10062000944228BF1446706849462844224600F088
:10063000D5F9B3682544AB4208BF00253F1BA04451
:10064000A144F560E1D14046BDE8F883032310B52D
:100650000F4C4FF48062C4E904330E4B0E49E36142
:100660000023A16121660D49E01DC4E919120C495E
:10067000A3626362E3622367E3666367226200F05A
:10068000DBF92046074900F0D7F92023A37110BDFC
:1006900000140020A818002078190000A8140020D9
:1006A00081190000851900002DE9F84FDFF87C80E2
:1006B000824698F80030894616460BB9FFF7C6FF08
:1006C000182707FB0A873D6FD7F86CB05D452BD91B
:1006D000BC6E796E641BB44228BF34464846294438
:1006E000224600F07BF9BB6E2544AB4208BF0025D3
:1006F000A144361BABEB0502964228BF164656B105
:10070000182303FB0A83596E32462944484600F0F9
:1007100065F93444354424B1182000FB0A88C8F830
:1007200070502046BDE8F88F0024E3E70014002055
:1007300010B50B46EFF311844FF0200181F31188BF
:100740001946FFF7B1FF84F3118810BD70B5182466
:1007500000FB0445144B16461D4404FB0033DC6AC1
:10076000012C0ED0022C18D0E4B92846FFF720FF48
:10077000864204D832462846FFF723FF34462046F7
:1007800070BD2846FFF714FF8642344628BF044652
:1007900028462246FFF715FFF1E72846BDE87040DE
:1007A000FFF72BBF0024EAE70014002037B50B4BFE
:1007B0000C461B782BB9CDE90002FFF747FFDDE9B6
:1007C0000002EFF311854FF0200181F311882146DB
:1007D000FFF7BCFF85F3118803B030BD0014002083
:1007E0002DE9F041164C1E462378054688461746EB
:1007F0000BB9FFF72BFF2369AB421DD9EFF3118C27
:100800004FF0200181F3118865B1182005FB00032A
:10081000E21844F803800023576000FB054216628B
:1008200093625362182000FB0544069BE3628CF33D
:1008300011880020BDE8F0814FF0FF30FAE700BFDB
:1008400000140020FFF702BF4FF4005382B0019361
:10085000019B5A1E0192002BFAD1034A136923F01F
:100860000403136130BFF9E700ED00E070B54FF00D
:10087000FF348CB02022002104A800F0BCF80194C1
:10088000FFF7BAFDFFF7CCFD04A8FFF710FE03AA9F
:1008900002A904A8CDE90244FFF744FEDDE90212F3
:1008A000274800F0B1F801A904A8FFF763FE0199F9
:1008B000244800F0A9F8019B23F07F4323F0FF03B5
:1008C00023B9214800F0A0F8FFF7BEFF1F4D2048D4
:1008D000EC68214600F098F8019B24F07F4423F057
:1008E0007F43A34201D31B48ECE71B4E33681B68D0
:1008F000013301D01948E5E704A8FFF7D8FD2946E0
:1009000004A8FFF7E3FD04460146154800F07CF813
:1009100084B9FFF7ABFC04221249306801F024F8D7
:10092000FFF7B0FC294604A8FFF7E6FD01460E4894
:1009300000F06AF804A8FFF7C4FDFFF773FDC3E7F2
:1009400031BA000070BA000088BA00008C190000AB
:10095000CBBA0000EBBA00001010002016BB00005C
:100960003BBB00006CBB000053BB000008B5074B4D
:10097000044613B1002100E000BF054B1868836AEC
:1009800003B198472046FFF704FD00BF00000000B8
:10099000B4BB000070B50D4D00260D4C641BA410B7
:1009A000A64209D10B4D00260B4C00F0D1FF641B71
:1009B000A410A64205D170BD55F8043B01369847F6
:1009C000EEE755F8043B01369847F2E71412002091
:1009D0001412002014120020181200200A44431E92
:1009E000914200D1704710B511F8014B914203F8C4
:1009F000014FF9D110BD02440346934200D1704724
:100A000003F8011BF9E700000FB40A4B13B51C688B
:100A100024B1A36913B9204600F06EF805AB049A1F
:100A2000A1682046019300F0C5F902B0BDE810406E
:100A300004B0704714100020034611F8012B03F88E
:100A4000012B002AF9D17047002310B504468360BA
:100A5000818119464366C28108228361C0E900335F
:100A6000C0E904335C30FFF7C6FF054B24626362C4
:100A7000044BA362044BE362044B236310BD00BF2D
:100A80006113000083130000BB130000DF1300009C
:100A9000014900F0AFB800BFB516000070B568227C
:100AA0004D1E0E46554305F1740100F0E5F804466D
:100AB00040B1002105F16802C0E900160C30A060C9
:100AC000FFF799FF204670BD014800F0B3B800BFA2
:100AD000A91C0020014800F0AEB800BFA91C0020EE
:100AE000014800F0A7B800BFAA1C0020014800F090
:100AF000A2B800BFAA1C002010B50446FFF7F0FF03
:100B0000A3691BB1BDE81040FFF7F0BFC4E9123381
:100B100023652046124B134A1B68A262A34204BFFE
:100B20000123A36100F020F86060204600F01CF86B
:100B3000A060204600F018F800220421E060606800
:100B4000FFF782FF01220921A068FFF77DFF022243
:100B50001221E068FFF778FF0123A361D2E700BF0D
:100B6000B4BB0000910A0000F8B50746FFF7ACFFE0
:100B70001E4B1E68B36913B93046FFF7BDFF4836F8
:100B8000D6E90134013B03D533680BB33668F7E788
:100B9000B4F90C50D5B9164B04F158006566E36002
:100BA00000F047F8FFF796FF0822294604F15C00A1
:100BB0002560A561C4E90155C4E90455FFF71BFF91
:100BC000C4E90D55C4E912552046F8BD6834D9E78B
:100BD00004213846FFF762FF044630600028D5D173
:100BE000FFF778FF0C233B60EEE700BFB4BB0000CB
:100BF0000100FFFF2DE9F8430646884600F148044E
:100C00000027D4E90195B9F1010905D52468002C24
:100C1000F7D13846BDE8F883AB89012B07D9B5F980
:100C20000E30013303D029463046C04707436835AC
:100C3000E9E770477047704770B50E4E0C460546A1
:100C4000316811B900F07CFB30602146284600F085
:100C500077FB431C0AD0C41C24F00304A04207D035
:100C6000211A284600F06CFB013001D14FF0FF340F
:100C7000204670BDB01C00202DE9F041CD1C074678
:100C800025F0030508350C2D38BF0C25002D01DBA0
:100C9000A94205D90C2300263B603046BDE8F0810F
:100CA0002E4E00F0C9FD33681C4634BB2946384639
:100CB000FFF7C2FF431C04464DD134682646002E80
:100CC00040D123683146384604EB030800F038FB76
:100CD00080453AD12168033538466D1A25F0030561
:100CE00008350C2D38BF0C252946FFF7A5FF01302C
:100CF0002BD023682B4423600EE02268521B1ED4A5
:100D00000B2A16D96119A342256018BF5960636880
:100D100008BF316062514B6004F10B06384600F0A9
:100D200091FD231D26F00706F21AB6D09B1BA35097
:100D3000B3E76268A3420CBF32605A60ECE7234617
:100D40006468B2E734467668B9E70C2338463B60FE
:100D500000F078FDA1E72560DEE700BFAC1C0020B5
:100D60009368013B002B936010B408DA9469A342A6
:100D700001DB0A2903D15DF8044B00F035BB136891
:100D8000581C1060084619705DF8044B7047F8B5A0
:100D900006460F461446D518AC4201D1002007E0A4
:100DA0003A4614F8011B3046FFF7DAFF431CF3D133
:100DB000F8BD00002DE9F04F0D469DB01446984651
:100DC000064618B183690BB9FFF796FE894B9D4221
:100DD0001BD175686B6ED90705D4AB899A0502D40F
:100DE000A86DFFF727FFAB891B0701D52B69EBB96E
:100DF0002946304600F05CFBC0B16B6EDC070ED5B7
:100E00004FF0FF301DB0BDE8F08F7B4B9D4201D10C
:100E1000B568DFE7794B9D4208BFF568DAE7AB8933
:100E20009805EDD4A86DFFF706FFE9E70023CDF89C
:100E30000C804FF00109DFF8C881099320238DF859
:100E4000293030238DF82A3023469A4613F8012B97
:100E50000AB1252AF9D1BAEB040B0BD05B46224626
:100E600029463046FFF793FF013000F0AA80099A27
:100E70005A4409929AF80030002B00F0A280002317
:100E80004FF0FF320AF1010A049307938DF85330B3
:100E90001A93CDE9052354460522594814F8011B3D
:100EA00000F0BCFC049AD8B9D10644BF20238DF8C9
:100EB0005330130744BF2B238DF853309AF800307A
:100EC0002A2B15D0079A544600204FF00A0C2146D1
:100ED00011F8013B303B092B4ED9B0B1079214E019
:100EE000A0EB0803A24609FA03F313430493D2E7E5
:100EF000039B191D1B68002B0391BBBF5B4242F093
:100F0000020207930793B8BF049223782E2B0CD1CB
:100F100063782A2B35D1039B02341A1D1B68002BE2
:100F20000392B8BF4FF0FF330593DFF8E4A003222C
:100F30002178504600F072FC40B14023A0EB0A003B
:100F4000013403FA00F0049B0343049314F8011BDB
:100F500006222C488DF8281000F060FC00283FD0B5
:100F6000294B1BBB039B073323F007030833039371
:100F7000099B3B44099367E70CFB02320C460120B6
:100F8000A5E7002301344FF00A0C194605932046CB
:100F900010F8012B303A092A03D9002BC5D005914E
:100FA000C3E70CFB012104460123F0E703AB2A460B
:100FB00004A930460093154B00E000BF0746781C9B
:100FC000D6D16B6ED90705D4AB899A0502D4A86D2A
:100FD000FFF731FEAB895B063FF512AF099811E7C9
:100FE00003AB2A4604A930460093084B00F082F870
:100FF000E4E700BFD8BB0000F8BB0000B8BB0000AE
:1010000018BC000022BC0000000000008F0D000092
:101010001EBC00002DE9F047164699468A6807462F
:101020000B690C46DDF820809342B8BF134633604D
:1010300091F843200AB1013333602368990642BF17
:10104000336802333360256815F0060506D104F1D4
:10105000190AE36832689B1AAB4229DC94F84320F2
:10106000131E226818BF012392062ED404F14302F6
:1010700049463846C047013021D023681A3454F815
:101080000E5C03F0060332680026042B54F8123C71
:1010900008BFAD1A54F80A2C14BF002525EAE575DF
:1010A0009342C4BF9B1AED18B5421AD1002008E044
:1010B0000123524649463846C047013003D14FF01C
:1010C000FF30BDE8F0870135C3E7E1185A1C302036
:1010D0000233224481F8430094F8451082F843100B
:1010E000C4E70123224649463846C0470130E6D0CE
:1010F0000136D9E72DE9FF470F7E914680460C4621
:10110000782F9A460C9D01F1430207D8622F0AD826
:10111000002F00F0D880582F00F0A38004F1420582
:1011200084F842703AE0A7F16303152BF6D801A1C9
:1011300051F823F08D110000A11100001D110000D5
:101140001D1100001D1100001D110000A111000063
:101150001D1100001D1100001D1100001D110000D7
:10116000AD120000D11100008F1200001D1100000F
:101170001D110000CF1200001D110000D111000050
:101180001D1100001D110000971200002B681A1D90
:101190001B682A6004F1420584F842300123A3E071
:1011A00020682968060601F104030AD50E682B6041
:1011B000002E03DA2D23764284F843305E480A235A
:1011C00019E00E6810F0400F2B6018BF36B2EFE741
:1011D0002B682068191D2960010601D51E6802E0F0
:1011E0004606FBD51E886F2F53480CBF08230A23E1
:1011F000002184F843106568002DA560A2BF216816
:1012000021F0040121600EB9002D4DD01546B6FB2A
:10121000F3F103FB1167C75D05F8017D37460E4604
:10122000BB42F4D9082B0BD12368DE0708D523690C
:1012300061689942DEBF302305F8013C05F1FF35B6
:10124000521B22614B4603AA21464046CDF800A01E
:10125000FFF7E0FE01304CD14FF0FF3004B0BDE8A5
:10126000F087354881F845702968236851F8046B88
:1012700029601D0614D5DF0744BF43F02003236017
:101280001EB9236823F0200323601023B0E72368EE
:1012900043F0200323607823284884F84530E3E7AF
:1012A000590648BFB6B2E6E71546BBE72B68266885
:1012B000181D6169286035061B6801D5196002E0B8
:1012C0007006FBD51980002315462361BAE72B6809
:1012D00000211A1D2A601D686268284600F09EFAE7
:1012E00008B1401B606063682361002384F84330C9
:1012F000A8E723692A4649464046D0470130ABD08B
:1013000023689B0713D4E068039B9842B8BF184634
:10131000A4E70123324649464046D04701309BD0DE
:101320000135E36803995B1AAB42F2DCEBE7002579
:1013300004F11906F5E700BF29BC00003ABC000023
:1013400038B50023054D044608462B60FEF750FFD4
:10135000431C02D12B6803B1236038BDB41C0020AC
:1013600010B50C46B1F90E1000F0BEFA0028ABBF64
:10137000636DA3891B1823F48053ACBF6365A381FD
:1013800010BD2DE9F0411F468B8905460C46DB0553
:10139000164605D502230022B1F90E1000F0C6F959
:1013A000A3893246B4F90E10284623F48053A38152
:1013B0003B46BDE8F04100F069B810B50C46B1F904
:1013C0000E1000F0B3F9431CA38915BF606523F428
:1013D000805343F48053A38118BFA38110BDB1F99A
:1013E0000E1000F0D3B80000F8B50E4614460546BE
:1013F00018B183690BB9FFF77FFB214B9C422BD1BE
:101400006C68A369A360A3891A072FD523696BB3FE
:101410002369F6B220683746C01A6369834204DC48
:101420002146284600F046F930BBA3680130013B55
:10143000A36023685A1C22601E706369834204D033
:10144000A389DB0706D50A2E04D12146284600F0E1
:1014500031F988B93846F8BD0A4B9C4201D1AC68D5
:10146000CFE7094B9C4208BFEC68CAE721462846F3
:1014700000F01EF80028CBD04FF0FF37EAE700BF9E
:10148000D8BB0000F8BB0000B8BB000038B504466C
:10149000064D0846114600222A601A46FEF791FFC3
:1014A000431C02D12B6803B1236038BDB41C00205B
:1014B000324B70B51D6806460C4625B1AB6913B9B1
:1014C0002846FFF719FB2E4B9C420FD16C68A3896D
:1014D000B4F90C2019072CD4DD0611D4092333608C
:1014E00042F040034FF0FF30A3813EE0254B9C4289
:1014F00001D1AC68EBE7244B9C4208BFEC68E6E7FF
:10150000580712D5616B41B104F14403994202D0EE
:10151000304600F09DF900236363A38923F0240380
:10152000A3810023636023692360A38943F0080338
:10153000A38123694BB9A38903F42073B3F5007F1A
:1015400003D02146304600F029F9A089B4F90C20D7
:1015500010F001030AD00023A36063695B42A3611A
:10156000236943B910F08000BAD170BD810758BF1C
:101570006369A360F4E70020F7E700BF14100020C0
:10158000D8BB0000F8BB0000B8BB000038B5002392
:10159000054D044608462B60FEF7F9FE431C02D1B8
:1015A0002B6803B1236038BDB41C00208A892DE963
:1015B000F041054610070C4658D44B68002B05DC5B
:1015C0000B6C002B02DC0020BDE8F081E66A002EE7
:1015D000F9D0002312F480522F682B6032D0606D56
:1015E000A3895A0705D56368C01A636B0BB1236CD6
:1015F000C01A00230246E66A2846216AB047431C07
:10160000A38906D129681D292CD8294ACA40D607A2
:1016100028D50022D90462602269226004D5421CC8
:1016200001D12B6803B96065616B2F600029CAD0B6
:1016300004F14403994202D0284600F009F9002041
:101640006063C1E7216A01232846B047411CC7D126
:101650002B68002BC4D01D2B01D0162B01D12F607D
:10166000B1E7A38943F04003A381ADE70F69002FE1
:10167000A9D093070E680F600CBF4B690023A6EB3F
:1016800007088B60B8F1000F9DDD43463A46216A9A
:101690002846A66AB047002806DCA3894FF0FF3031
:1016A00043F04003A3818FE70744A8EB0008E9E774
:1016B0000100402038B50B6905460C4613B90025DA
:1016C000284638BD18B183690BB9FFF715FA144BDA
:1016D0009C421BD16C68B4F90C30002BEFD0626EC9
:1016E000D00704D4990502D4A06DFFF7A3FA2846C9
:1016F0002146FFF75BFF636E0546DA07E0D4A38956
:101700009B05DDD4A06DFFF796FAD9E7054B9C4207
:1017100001D1AC68DFE7044B9C4208BFEC68DAE714
:10172000D8BB0000F8BB0000B8BB000038B50446C9
:10173000064D0846114600222A601A46FEF731FE81
:10174000431C02D12B6803B1236038BDB41C0020B8
:1017500070B50E46B1F90E1096B0144600291D461C
:1017600008DAB6F90C3000222A601A0610D44FF4B9
:1017700080630EE06A4600F0C9F80028F1DB019AA8
:1017800002F47042A2F500535A425A412A60EEE731
:1017900040230020236016B070BD00008B8973B514
:1017A0009D0706460C4607D504F1470323602361D5
:1017B0000123636102B070BD01AB6A46FFF7C8FF49
:1017C000009905463046FFF757FA48B9B4F90C308E
:1017D0009A05EFD423F0030343F00203A381E3E768
:1017E0000D4BB362A389206043F080032061A38185
:1017F000009B6361019B5BB1B4F90E10304600F0B1
:1018000097F828B1A38923F0030343F00103A381D0
:10181000A0890543A581CDE7910A0000C9B2024421
:1018200010B59042034601D1002303E01C7801303B
:101830008C42F6D1184610BD0148FFF7FBB900BF36
:10184000A81C00200148FFF7F6B900BFA81C002023
:1018500037B5002943D051F8043C0C1F0190002BF0
:10186000B8BFE418FFF7E8FF1E4A0198136833B9C0
:101870006360146003B0BDE83040FFF7E3BFA342EC
:1018800008D9256861198B4201BF19685B6849193D
:101890002160EDE71A465B680BB1A342FAD91168E3
:1018A0005518A5420BD12468214454181160A34255
:1018B000E0D11C685B68214453601160DAE702D90B
:1018C0000C230360D6E7256861198B4202BF1968B3
:1018D0005B684919636008BF21605460CAE703B0C0
:1018E00030BD00BFAC1C002038B50446064D08468C
:1018F000114600222A601A46FEF755FD431C02D10C
:101900002B6803B1236038BDB41C002038B5002318
:10191000064D0446084611462B60FEF73BFD431C6E
:1019200002D12B6803B1236038BD00BFB41C002076
:1019300038B50023054D044608462B60FEF72FFD01
:10194000431C02D12B6803B1236038BDB41C0020B6
:10195000F8B500BFF8BC08BC9E467047F8B500BF9C
:10196000F8BC08BC9E46704701B40248844601BCDE
:10197000604700BFA51100205465726D696E616CEF
:10198000005254540053454747455200EB17A65E9A
:101990009DA0000000A000000D0201000101000058
:1019A0008E34AF4AAEFC27C3ACA7AD73052D9A2B7E
:1019B00033E5E5F9BA8AD0109481C6574B038648BF
:1019C0006145AB63AC9E54F94DCB13B97BCDC55C7F
:1019D0006116A3E362D60F131BD4F816AD48E65D7B
:1019E0006A95E41FEE64FF7AC6277E5FD99FCF5FBA
:1019F0000022C34A069E84D76678BD6335223786A7
:101A0000EFB1DF2CD86ECF952DD081DB5BB8320BD8
:101A1000D8C9E7DBAC8042099DEEA36848DB3DCA2C
:101A2000FA6B98775BFBC20ED9046EADBA4BEA39FC
:101A300009DD1DC3332C93AB00A0953CAF0D1E0DEB
:101A4000D63BF06B13D7EFBE64D2E8B43A3C62F4F5
:101A50002D9267466A1F576EEF7044442B68D1BBC6
:101A60008BAFDA1185080BA6C7500DA1A6A13FF8D0
:101A7000C1BDDE37BF803636B7D1E2B3557E0974BB
:101A8000D4611C3C373152AE62498C36BAFC07280F
:101A9000021E1303F92176E925998EF47C2C226E1F
:101AA0004DEDA158F86724D6839139AA6261FFD61B
:101AB000348A211DCE1535FF972EDED98504C58BBE
:101AC0003FBB78331785763DA0798B8EF582015622
:101AD00087A40C4A804621AFCCF03B500754E4E287
:101AE00065DA056AFF89C805D89434CE18EF3688C0
:101AF00075BE79002C8C66B15F19D4C3086C9CB498
:101B000095CB4ABA726D886C5B8F0072D20BEEDA9D
:101B1000A3BD4965F335A49E61D33891CAB6268F1B
:101B2000EFEDFA5EC32F50CDD04025A8F19AFFB15A
:101B300004DDC4665A973D91CD2F65BD4CA187C188
:101B400056F60F5156234F9A53F0460CE207E65DC6
:101B5000CD5D73D27D0178044973E9DF5A39E1AE76
:101B6000592D367A790266B4942BA1EA9D38A4A344
:101B7000F2974340EEB6245518CF45E360EFA9B184
:101B8000DFB28A39BA698802628EEAB8898E0EA3FA
:101B90009AAEF66B3D82E6BA7FAABED7C536CC4771
:101BA0006998C78BCB57FD4F08D0DF57110EFF2424
:101BB0007E686835DFF15CBB964ECFD7188793A758
:101BC00036CD8C60E48DF5FA9AD093D8B83C563275
:101BD00026B2F17E1F002C9ED64DBCAEFA6AA87EBE
:101BE0001C157728289BF750EBABED8D5AE71EFDAF
:101BF000B9ECB2DB235FDD92BA4914591CEF1C1C0F
:101C00001613083464EAABFECC928C2A4F06A4CD9E
:101C100082C90333AF2720A5C0B8C7E57DD6D93325
:101C20005DF3DCC6FCD21B2175057DAE6CBAC8A382
:101C3000DFFCEC4E40538CDBB026D589F4E54A97A7
:101C4000D89C60EF4834B457FB1DC4DB5CEAF15EFE
:101C50000FB25FC3788C5065B6C28AC5A10E7B7681
:101C600068CC7812B28CA4847256C9E725850F32ED
:101C7000498D1C56882A0B9DDBD65E81E6B9362835
:101C8000CFEE96D1B1F8DE0AA2B5D7052B4A48EAC5
:101C900002CF8A81EA29F278475609141F78633205
:101CA000D3C988C62693167C442867BCB839C45B60
:101CB000182D9208091F1ACC58FC6FCA9A8EDA0F99
:101CC000F84DD8F4E62DC22E7D3159F118B1940D9E
:101CD0006D56B40C48BE96851294E7052A7C4BA736
:101CE0000FE794A911A3FAE4C7A1EE4F9C6D1F5E04
:101CF000B8E92790465A9AA94AAC917E03B342911B
:101D00008875F197AF4CCC22BC812D51F913342446
:101D10003DED5E9BC4454A5796D7D1AFBA420F6F8F
:101D20002BCDFFFA158403EB7FF736749FDF255E1A
:101D3000A58A7E374C352AC55986194073A360E9B8
:101D40008A1B9FDB50D66073FEE3147B9CFCD2D5CC
:101D50004EBA969A0A60E18A247B61FC41904B0658
:101D6000249F68EBC44794BE8DB4198A29A23756C4
:101D700088BCE23240C4470879E761E696D2011B8D
:101D80004580B1EB68600AE99092F9815FB4371F32
:101D9000B3C07DC04CFCFD5633BE430DB0F0C44310
:101DA0008C9DE8738D7A4E6231D8C930683175DE0A
:101DB000A6FA716B429B951A76434C35D3BCAA0C9C
:101DC0001AE73CB07636D3752CBAD76CF3370AE0F5
:101DD00081EA4AA891C2347920D18EE46520382F57
:101DE000CDB5BEC4F87840261ECF437E27526D6C19
:101DF0000BF3EC245549FF4C8860297A148D072D8C
:101E0000E0FF885F0DE50839AAAC92933B8245B0AC
:101E1000A0140407919281EA49FAEB06CF9441A4F9
:101E200051F117A1213BB2900D60D15787F81FC91E
:101E30004BFC1F71B8B45D059077C144752133B672
:101E4000D74025BCC99A00596614D1EECE4320660E
:101E5000309C98665B05214E2AD137F1844B809ED9
:101E60005C6321EBF8A51A7432B34C8A5085862E38
:101E7000FD9CBC3A2813ED1F8171E15A9B1D00D8CF
:101E8000A81EC8B0CB8E6B67BADB70E3E943482568
:101E9000431F9EA59B090B822F42EFD0B920278AB2
:101EA0006CA3CBDB44BC5F0E4EA16638B93AB6C614
:101EB0004DC8A46310ACBD6ABE8EC643B5F208C857
:101EC0004FFB7C560C0A11935DB5FF9563C9E5671E
:101ED00083FD10A4B7C492C85A0CD2205731A4FD78
:101EE0003E8A679716D6730882387A629B0B68160B
:101EF0002C4F16A9A5A4102E1499B3806E49BF7754
:101F0000D64D4B385367DB444335BF4B881F9C6429
:101F1000E6835F37880D37DC1AC3D792F865B98D31
:101F2000DE13BD9F8BFB32E86ACD1190CF75314E29
:101F30006F071F3BFDE0EB7F911F493BA0B1271AC4
:101F40004849FF9175FF9DFF4DD2E60D924E25D376
:101F5000A1033FA1F9BBD8267B842BF304A6B8F0DC
:101F6000BD34C433268F9F877B79E99D42A160B73A
:101F70009685B853002CF94706A3366AA9294681ED
:101F80002FAF60B64F80841224F82BE564D377F826
:101F9000B07088D7EE905F71CA8D06AD8D249076B3
:101FA0009277D06CEDD7D63D87D1E4B0755FBAFE9D
:101FB000E9660DEC96B345C6BEF125B081C5EE4885
:101FC0002EBD867970F9D9EEEB95EF1E1BEA6A9665
:101FD00063ED1D2E09965AC4B79DE7D4941AA50245
:101FE000519C6D907546B8BDA0416E784157D77C25
:101FF0008D7C563A53F1A88725DB78E79AC9FC68AF
:102000009E8C4439884434D8EC5413E1CC40DBB284
:1020100022F45CAB01AD7BADC025D84A985EB229F5
:1020200089F5D14BB52EB50B43B457459D33ECE242
:102030008E260D0B36DBB8293C627D0FCA605DA58C
:1020400040F5AA18CD00193F271A14BC1B4E63CACD
:10205000CC8B2FA1054315CE238541086621F3C102
:1020600030EBC4C2E1B6C2EF8453F5534DCBB5A3F8
:102070007B8FC11A2F670DD056A2F7E1D82F18A178
:10208000EF5FD224766A77282F95EAF19897EB9143
:10209000B1E187583F0AEEF2C2A03621424BE56219
:1020A000E4695F97854C2E1CC9B57E8740FBB2EF73
:1020B00083598C20DB2011947159DD86A8EB49CC23
:1020C0004793A572F46ADF465CCC7DAEFE14ED3317
:1020D000BF525F681E770271C2DD107EFDD481237E
:1020E00085024EADF9581DBA0E55A46AA20CD25203
:1020F0003C6FBC7A3D22EF1E2C797DB5F93B293D22
:1021000089B97BCDD3C6CE8F341A8F3B6ABD9D6E05
:102110005992CE14C6D863C142BDFE0BECFAB1058C
:102120008F1E64EE82D868240B12A15395E0E54718
:10213000C81C5C5B8A44A858E1A18FFDC2628A2B4F
:102140007FECA8148C5127E5C9410B22A08DF9F230
:1021500025D0755EB6F88BF681E7D8135A20D93EA4
:102160003A80719760BBD8B834DAF0FE77C5AE8D8F
:10217000280F5F6C661A7E3EF37E24DA85D79D5D5C
:10218000D49C7658CFF8F017505D9410BE75373355
:10219000211C863BF9D134FC98F059C4C7A7D978E3
:1021A0005E7C4F545AF161E1B47B329A9AAF5D1F65
:1021B0006277570B5830CCD7C39DA31DF229866494
:1021C000F0C966204E62940EB4144F25B712A0C613
:1021D000AE856AC5975638B96F41A3AB69A0232B6A
:1021E000E5DE8BBD068542C4D40ECD513ACC685293
:1021F00075EA1D4E4016562AC030BFA5D38C230C5D
:102200006DD2B52FD0E65F254C9276998DBB19BC67
:10221000AE13C07BC3A81F089BADE51D630B83C035
:102220005C941A67DDF2C2F71C43C7764093424ABA
:102230001D44B557A1F8D35AF032E58347D8C847B3
:10224000D7C1D43295F690C8A08CF49749B8B7227C
:1022500076A21E0DF4960CE2B07DB42C1725368BB9
:10226000F6000E14C11533F46920C17A43779FB08C
:10227000F5012CD0A913021098E870AB2530067335
:10228000BA6FF32172DF66E6839268625205708A44
:10229000CD9275FAE8AA4C2BF58F056C6617AE3017
:1022A0001EFC91217905F542488BA84A7F100CCD80
:1022B00020024F403DEC4E7D17E14671E4543674E8
:1022C0007E13720926D2E0646FEF64D6D78161E88D
:1022D000DB61850E13F8FA8001E85085A00D1B3CE8
:1022E00059CE50D0BDCBE6F3B2F05096EBBD2CA644
:1022F000CF90103BEB9A6CC80F332AB68CE1A94FF4
:10230000444FE151CED77A601C468119DA82683E8B
:10231000F44462B9E6A4949F246BB5DF739292CA29
:102320008FA2EF5E28F814832A473949C5F9390B83
:102330008AFDF39999513BE55D8F852EC81B8AB2C2
:10234000BC971EE3149079BF6CE47ABE409B18CD15
:1023500024A391359C3BFCEEDB04E020C28E12B23C
:102360002A03402437D6A39F34288C354190AACE27
:1023700080FDD874DADB6C612C054B1FD329ABE6EA
:10238000F8E7B1C26ED8780922FF4CD48225CDCCB3
:10239000FB46BA998F8531A2A5021D329FF667DBF5
:1023A0001DC7E9941261DF7D25FE47950A0690F668
:1023B000FD486A49C95CB432D816C31DA9E73C760A
:1023C00095885D54F76FA7B56E9CC376CC4F5D962C
:1023D000422ED48EA118AB2F16B4D72B94D0A68141
:1023E00066336E703ACF238EA10CF5B0CCB6DC12FA
:1023F0003ED56F0C980970CAE46B968F79C1A035F1
:10240000717E0B95C313B1343A33FF0D5E754FF6F1
:10241000514C75E03CB84FD5243A12F175E3E6D43F
:10242000015EFC13E9365ED0A8CC0A91E238566A08
:102430001762A0ADD8D903443DE6CB50E72F4C0F2F
:102440008C9DBA321127F50460E0D1170C96D58F18
:102450002BF2AD86241FAF6A303FFD9AE26E1FB8A3
:10246000E61AC85629BA37628851088F791B37D6C1
:10247000CDDC635D118A56A594809F5AA6AF466253
:10248000F77C60A5FBA15EEB76CC25C3BE76898682
:102490009EE390581B6CBACCC2EBC1E2DFE8A948BE
:1024A000BECECECC8A64BBA4E8969E89715D25F72A
:1024B000488B0734DDA386EB84914B2259EB11A89E
:1024C000FF0F810340F0D7AC27576472435519437F
:1024D000EFE84FF332F59AB1D69090FF5D8D12C9B7
:1024E0002BB5C09D5714AC49E1D0E73D8349B1F20B
:1024F000F89F6676F1AAB212DF2F970D98A3C9F361
:10250000DD2572BC3694C1235052C6BE60FEBCBEEF
:102510005E7EABE5476862A9C0A13A0BC8D0409483
:1025200043E06B5FD27CB8791C92B90999E57CB124
:10253000FFF345BFB9F51891FF140D9308C8440681
:1025400099BE702FC5AD42373F02C109ACA082656C
:10255000C59A477DE128D378A7D563FEFA44DE4DBE
:102560008A414FBAE155286CB5516CD60605A9E7EA
:102570008746C24673DA959A5885A01D86B5976836
:10258000AE9D4A8B64D43B1DE5CA59AC79F5A68D46
:102590003628C75C825625A06B97CEEF9C5175F705
:1025A0008C914AEF629F8F4FB75022595CBE400B0F
:1025B00053459AE69CF31844AEF60ABC9339CC0016
:1025C000449743BA62B9B7179F815E88D1682EB726
:1025D0000FD0861A9171CBE6292B970CAF33633855
:1025E000A5FB96F2A5E0314EA2EB4273F93028EC40
:1025F000289068342D426F851760438775A4C35AAD
:1026000073CB7878E5EFDC14C33772DF4B5A59B9D6
:10261000BDF958C9E8AC7C0F36B1EC1D379CCA97A0
:102620006D6C28DF15AA244C59E80D70AE3397C89D
:10263000AF6A227E67D023FBE176FC4FAD81476C09
:1026400013F646B4F99BC123C796D761D3FD3C521C
:1026500070383945C7BC0410F5AFDBE222031629F8
:10266000141BBC4059A6FFF1D2F7B34B3A74AD45E9
:10267000F31E9A509AA58B7DB4CEF96D9CC57F85CB
:10268000F421631A1BB8D6BD5951F9A97EB744C5C8
:10269000B4E0E24BF0BA5081948817F20D90D5F572
:1026A000DA73DE9077E48C801147B479C5DF2DB6FC
:1026B000308D1B649134388067B32D725D6A4FD9B9
:1026C000327E9636EAD24882AC5864AFA3919A9A89
:1026D000D8ADA4071777C3B6E9D45459D359D81A3B
:1026E0004DA620CBC2FD8334FD4D6B50704ABFA672
:1026F000AF813B0972434BF503039E0788A7C49A39
:10270000589FD29B8962D938B27CE389B74409DDEE
:10271000640C32F608941A6C2FAA9E48AD2A361D16
:10272000C92B71EF4A4B166A25611EEF5447890188
:1027300086719A212498189E3BE9DD24FDEC4657CA
:1027400029668697E978B0A037F743D16A25FDCA94
:10275000BDC3A560AC4CDE3EF4D683274119E20030
:10276000935092F8361F3FA930B97ADAE0F50BB1F1
:102770004F3D021E6F08FCADD116289D66DA2EF281
:102780001BF8F604D861B23BE67CCE0AD33056B6CD
:102790002EDA0A7548CA400A7BCC924B487BFED69B
:1027A000625A30EE0CC64CC84972254FF499C0EA03
:1027B00028565809442AF52049CB1B337D3822B4CA
:1027C0001AE141AD77E30C26092FA36BFA142D14FF
:1027D00092669EBDFB278F1CB96B89812A65EAFB37
:1027E0000A2DDA335C971927A6F2A2AB8B12273990
:1027F00023FA3CF906B235F66EDE21851AC8539EDF
:102800002485F4F18E0B4866E45F0D393D8FAC638F
:10281000F0CAED2B938C8B81EE66A995D10638F02A
:1028200066AA63A17312E817A25808CA9F0A7F46D6
:10283000B4040561AC09B83FDA57585815D5375C70
:10284000D8E5290B6D8866DB8698C1B8304D76DDFA
:10285000BB1DC0084C16C05AC45B1E916FE13FA857
:102860002E29830A5C0A0474DDAB4CF19789497DFB
:1028700047C4395630C758558FCB5216EFAC9E53CC
:10288000F24CF7223CF5EE9880AFB8CC3690B52BE1
:1028900042B770B8668392193DA2BC421907FEB4D4
:1028A0009F0AAD4ABCCF9724AB541DF25EA8B63D3B
:1028B00031DB8B323983EC53819B0DCA63DD2D3FB5
:1028C0000F027F7A19B3B9DA0E265F3B05324EFD4F
:1028D000B16094AA061EE503FFA0874A76E4F0D211
:1028E000AA56AF23DE617EF429C78171DEA6175E8A
:1028F000201B83CEA0FEED3FD0BB818BC8BE63C939
:10290000733B5802E85F3E7D292497D655DB43157B
:10291000E56224EF6FFD7F292EE849812631FE67AD
:10292000F76D3122E17F133AAE329FFDD028D2FFFE
:102930007982004C712A81C9B0CACE8631D995609E
:1029400063DCA795164AF61F0742E3B4A5176A761B
:102950001CFE765407B9480962D857ADB148F82231
:102960009D0B5CDEBF0FFB09DAB2EDEE36A8B83F77
:10297000E07652954356276C56FA388F3732A04985
:102980001DA91E8B8E00563666639E958DC2B1873B
:10299000BC012DB31A1F85485CA35A4E925C5507A3
:1029A0003ADC09EA909763A79B0D6172A4CEF1F11E
:1029B000861C3B27CEFE779C4AFBE7397DA65B5DF4
:1029C000509D462B5FD469CD5FA29B948E3FD07102
:1029D00001CE5CB5411584FBB573687D5AB1AB522D
:1029E000B347A6586FB67250802FB0D654D91D3E4B
:1029F0009D83E3C232502F94950F28232A366E6AA6
:102A0000A4DA4DB20FBEF7E54FCB249BA62E795327
:102A1000B12B2D4D4F054AE5B009D6B1BDD329E103
:102A2000C199AD0B67FADA6857D22E08AA8E8F9D2E
:102A300092B7600CE9C831743D289E0D98D79FE687
:102A4000A5D0BC326AA495F304C552429674B44A28
:102A5000864F53FF0BFC59E82E40398AE022BB9D7C
:102A60008A21AECFF066EC72EA2DF8034D61F6E9EB
:102A70002B69A3422C6FCADF4E12D01A51FB599812
:102A8000FB49A55B60CFF7712391F3981CCDCC3D3A
:102A90002E569B7B1AA4BFD615F48F81215559263B
:102AA000CFD348D2CB71B2244991CD9C19B37E9B30
:102AB000204A47FCDDCB7D7141466D353E7B681673
:102AC000EBE785CE1586A57DBB1C1C8432B1AEA27A
:102AD000DCA87BED95CEAEF070A457E21E2BD8E3B8
:102AE0001C2F0893D25F9E8F41C6FEA7064D31234F
:102AF000B672765E65568863E369AC12926BA9473D
:102B0000584DB393ECBD4076D5D6A7D3A37355A546
:102B10009B583494F5AB47AB4584F9FE1DB2F8AE33
:102B2000CF406C84070F85D04FAD156BC221E352A7
:102B30009BD77B657888D5D20168622BA0BD0766DC
:102B4000615678EEAFB8E3601D443DE6F0145D9049
:102B5000AC6B7B51D0F74EECBA807F093F7CD97DBE
:102B6000718DF2D0C8BC9195013D1FE6F5F37363FA
:102B70008756FEE1FE89B410E51155316CB896A870
:102B8000453E92CDB06E5CAE189F4F47BE4FEAB83F
:102B90003899B63CEB7FF215141C64FC4D796A87BA
:102BA000E39F1B026B569BB31EE39BC6F608146D96
:102BB000713CD94FDCB567329446E47194F2AEBEF5
:102BC00004CF08D032D751B746DFD39C39AEF3A239
:102BD0009AC85FD79E78B20C6B873AA2A26AF82C8B
:102BE0001DE7535DE387FCCB74AF53AF2F9C6BAAFB
:102BF0005123B52D8DE2CE021F0EF7A8F6BA732130
:102C0000FC7BBE647828CED75E2AB0854060C6F5CE
:102C100017B0A9D51304219C85921CEA835C975CAC
:102C20006F5A7145B3CC86D71147E17BA2912AC96F
:102C3000FC15F686F7BBDFBBC96366ECB0F08BB55D
:102C4000408AFB56425994B3746EF326320E1E0C22
:102C5000C52033187B59A027A88E52176B782E24D5
:102C6000829BDD44B95ACB4EE8ED9694597ECF3F16
:102C70001C5C0BD9313755BC2D049B08F9D4A9B77E
:102C800071262D50FAB4D5D84ED9DC3A546F7E183F
:102C90005E88C3D354DCAF4C985936FDE4DB531542
:102CA000D40275FDA560318672C2C00EC868D6DC3C
:102CB000F670A0E595175C2C0E295C445C0EABD732
:102CC0004F75C5E5004EC9BDE0B12964DD66688772
:102CD000C5D1D9EB6649CF94D92313C9D6BC12BA52
:102CE0009B554C204ED6A320B966F946D73938A358
:102CF000273C9F052CA66BE40B47D75CDEA188F22E
:102D0000D00EAB8A67E6FD9A35D02B2CC4387B2DCC
:102D1000CD64352153424A90EA390F3F3979E8AA08
:102D20000F175D00D250B500C9318799D617E94C0D
:102D30009C2C726EDE96DEFB9AE3768BC389DF36BF
:102D4000513A3729FB5E1E764A835D4D78C66BC0CB
:102D5000ED89C35D578183B540704F2151EC17B3A6
:102D60007D7E05290D048E0D111F872F40D12A4528
:102D70008BCA9D8DBD66618A8217A17B8ABE33A3F3
:102D800094FDFBD14E022BCDCAD680EA002DD8ABE4
:102D9000F3FE9526C7474F52C11713C3E95D2B5B5E
:102DA00094230DC87B2286DA351FAC09D0927C4A69
:102DB000262185D9BECE7C4623F9EA07F262B40506
:102DC000E79A987FAEC7D6D6B0D11D25247DAB80BB
:102DD0002856A96110A03928AC92190E845D717A29
:102DE000719620F2E0429DBB2D637621FE572F0A9B
:102DF000C2D7C51AE4FD6D851418CBD3661B59A044
:102E0000821AA9A0028E637EFCC4F3335ECFEB6FFF
:102E1000F82AF5CF04BE8775829AA78960C22BFA7B
:102E200039AC451EA8A31B5CCA675C7CAA83CDC9CC
:102E3000B11109023B995E93FAD246D80FC33F7F86
:102E40002C2E3176CE8D24B5ABD8BEC12B40FC5391
:102E5000AA8F0783F542190CB5E7CA00015C6F8998
:102E6000871B6B35DB50814CE4993FDF6458B630EB
:102E70007CB2EFC94838DF286B66293F1A83C7A6A2
:102E80000E2FFDC0535EE57E02B29CECF5F694E693
:102E90003EA0E2C2E76CFC11809A5E7724112C7D83
:102EA000173547B3F4E66074E32E501588C0FBAEC7
:102EB00045F2474720C95784774E08CFAB190AC05F
:102EC00098B5F2264454E27D1F9C9A324ED0D0042D
:102ED000A483258A84C82BF3A12BBF9586818C6699
:102EE000C9BD5BA08CBABDD4BC9B28538E6E17E4C1
:102EF00008C399B26D7D99A07C29BF194209147D40
:102F00004FFF99AA77807A4C8963AB5C6DF5962D5B
:102F1000BB5EF9713BDFBD2AD6C52F02929EFCB184
:102F200095C7146021F1D8AC694EE164E76B97E571
:102F3000CA5755CD156F1AAE83DC78C572732B0254
:102F40004ACD5457E017E893A263B4C70924D82C9C
:102F50004477A9D72594452AD9A29E2CF07FB5A302
:102F6000A0D600EF9FF3A83959F25A1F434716FC29
:102F7000BBD4FE3594220FB891C66DCB98AFAD4946
:102F800028BE5C4D72C4C4FCD540421C357827FD78
:102F900049F18754E87B9C78DEAD8FAB520865E839
:102FA000D571598C5017C086EA08930FA658436410
:102FB0006B23C711D13C43C8CA1222FCBF4211BBCC
:102FC0009D6317400DA5A3D541ECA110A95E6D7EB0
:102FD000112713F266936F56DDE75C0A7804C64A40
:102FE000D0B2816AD2E7D38255BF845AA413735FEB
:102FF000D9312C227DE393030CE1340CA30F10C5CF
:103000005C90F55D4C53C544FE1CC93F86CF1CB88F
:10301000741775CB76805A999633F8F351F5F0957D
:103020005791C5AD6E21F0C64787B76D704089AA2C
:1030300062F99E043B9BAEA130B08F4926C273411A
:103040004ABFAA181525CEA4C2A6589CE43872B56A
:103050002D74F04FDB815ABB14AFB3BFD68CE32E77
:10306000714FA8C52E561C36EA722042F3C1264D78
:10307000F8C02ACE147AA01B4A32DE9ACB03FCEEAB
:103080008636DC2C06CD653A6E131AD63280F509E9
:10309000C6013CBCB41DC9D1AA650C7B5D97A1409B
:1030A00069118124248E66BEA3C060E2BF19EE8C34
:1030B000F8AA4909455AD24D177E822C2D066BC6B7
:1030C00034034E5AFA082425F9599BF72E3068FE2E
:1030D00075B2BA3600E9F069CA1E1A4159C2934E58
:1030E000DB97E968ACE0C4F03C9DC691F11864DC64
:1030F000994D2426FE377E7B8844A2924CA43D2322
:103100009AEDFA83533EA41461AEB739F9C26BC687
:103110005851432A19DCA6F8ABCDE9FBD4748BA334
:103120006CC3D710203B06B61F7703173468BC4723
:1031300031A87DE30B4FE6067258730A9A46F8F8F9
:10314000CCC327F23BFA1C180971E16A03499EFBC4
:103150009DE651833FAFA487CB47360242809670ED
:1031600063071F0DEB03B4454A428D109B96B71FB2
:103170006A8C4BB0D87B23261AEBB56D3C4A481CB1
:1031800009B4EA3719EE590FB7F06FCA770D79FE17
:10319000820375778DBCF20B82553C2488EF1604B0
:1031A00028CC25F05A37F1A8B8C94CBE9DFD412F57
:1031B0001A6E396157BDA182C91B63698F3F443BB9
:1031C0002B6DB2F88F2E50DAA6A3E19E4AF00C26A2
:1031D000896FDBC523736E256A47FAD750D7E7ADF1
:1031E0004B8FACE32887238024F83DD8434B21271D
:1031F0000D1B76D61955CCC8D9A86B5A5A0201B8FE
:10320000C132222BDB7290493A0DCE8DBE9AC08519
:10321000668ACAF6CDD8DA609DF0DE7387F85A4D1B
:1032200051640D4626D0EE0825D556F9CCFB4184D5
:10323000F397C9CE10194849D876969B371A123A97
:1032400005C1C9F9AD38A9EE061170EE9EF768BB4D
:1032500031731EDDE3CDCA188AC54AEA6E9D4A3035
:1032600066EC3AD86781A9DC2260C74354BFBCE64C
:103270001BE572423739ED755C6AF703F84110417E
:10328000D83A4BDA150166303731A25F2DB10ED82E
:10329000CD9867530BB8A28244051699188F56BC77
:1032A000E71A89AB9D8D6E5001B2E6D3F559D8ADC2
:1032B000531A17BF0E0F4C4BEB9EC45030D1849263
:1032C00057E89E982BE64AFA08D478697F02643959
:1032D00063779E5FEADC5633CD5FFB62ED0D076DD1
:1032E0009EDBA29B0E117D5EC6634EEF1AA67CCEBE
:1032F000BB9C287173E9F5CFD24EE9189259802012
:103300001A0755C977BA94C46C830724C8B697A125
:10331000D7F2DA0BDC6FD84225CB4F279CA04D7F2C
:1033200034ADBF59069A5097877DF7312DEECB8982
:10333000C47AB5193D19615879CBD78DF916FF9428
:10334000D1CA48584FBD27085CDA7A5DA59CA2A077
:103350009CD7C7EBAB7AEA8E733C3D7DEEB4239EDF
:103360007BB5E3679863D85D3E37AC51FD472429B0
:1033700058DF232441FD8E7CF97B99520936C86CB5
:103380008B1DCB77F8C1C1BA8C6A255FA89FC00896
:10339000E241BD0DB292803EA053D36C0AE9B9154B
:1033A0006EFD219889D3D29B4B3C903559FEB07865
:1033B000C8F98600A01997E226CA0A2EF041055FD7
:1033C000DBA4F6AC571E3AC9003FC060D85487F35F
:1033D0002E049F6FC4CED503110B0C8CBDBB85CCC6
:1033E00024E97BEC4E189E46B1D30184636616E651
:1033F0004D5B6F9C0806DF84184523347D42C9BAB3
:1034000022EF791BB088129A38B172E04AC3FD46A8
:103410003B5478F1E62FB209A021D8AC6F52041CBE
:1034200098C207BC41D38019579D9E0606D8D0DAB2
:10343000330B294B73C3F8249FC1F4C03FC805AABE
:103440005188587D75946E8D3AC60B6DE48E2A971F
:103450004B7926E8A9D380E7B65FD458D928C8AC01
:1034600023553B213D0BD6B6ED5B1DF05A79D7D0E5
:10347000A0557F6EBC78D2213C746E5B986A1BE8C5
:10348000A27CD54C0F17DB6832E6E56709D22C85A4
:10349000C56E645AC23ED4AFFC685BAA3AB0E3B4CE
:1034A000D52FFE089DBD4C6DE77D54314CC506FD02
:1034B000E0B8DA73F05049E540386E5A94F3234689
:1034C000012DAA9C8D27D957A17648F7BCC74DE49A
:1034D000796732A86FDF7C5C2AE2708049CD5DC3DA
:1034E000FE5E39EA7CCE1922CC6C98045671778541
:1034F000FD828F28BF79868DF82DA7172C48498C1F
:10350000A50397AEF7F0680B64333BD008E2F8569A
:1035100091200665E55855DFA1AEDE3CB3AD86DCF3
:103520000E121CE130CC9FBAD85471BA89D06923ED
:103530002DBEA117C2DB548364C833263C1322CAB4
:10354000CF52C40EADAC9C1B4D7CCA4905005B013B
:10355000716567F112F477C679175BF17B9914CD29
:10356000C71EADCBC92D9BC20FFB747003F2AC4FCD
:1035700005999B278EAEA7799FC0EA5BF1B25A7E70
:1035800021FF979442BE7BABEC3EC9DB57EF070FA0
:10359000B090EE96E0C2A92608F646C63401EE8247
:1035A0004D7B54288E06E3BF6A8A31920D6C2A63E4
:1035B000CE12B9AA175C92AEA62EBD15C22C3566E6
:1035C000D043C498B6A33F2EE363868C9C61B71F9B
:1035D00003B8DB03E378039C541DB3185566BE970C
:1035E000093980D19A2CEF360931963641A9F784F2
:1035F000E26EEE1CED677D90F221C65A784B37CC17
:103600007766EEFB4E1FA7958C6CE4426C1461DE6E
:103610004C2C82AAA3646BD2356684697EBB22726D
:103620009D33120A48CF1B169B4CF04E342343E0C7
:103630003B9E1D3F48588BC7292BEF550C63340622
:103640009FB4A68947C274CDE4B70293C6DE41B8E1
:103650000ECB6A042252FBB26448BCA79CFA09E76D
:103660005C68B38DD95AE022ED764DA1BF6966CC76
:10367000EBB423A2D56082946F61F4029E0DE0FE4C
:10368000B13413E0C480418A4FE25DB1B969CE8D97
:10369000C37444F5C6C4BB1858898A5825B641A0DE
:1036A000BA88E5B4094A45DEA88117E144AEC035C1
:1036B000C1A68EFCEFB12E68EE41E6859421573607
:1036C000AD27BE26090C10641143C4E637BDEF4D8B
:1036D0008EFC42DAFC0F3D21DFB8ED9600AE0755B7
:1036E000996901EA336C93B6E7FF75E4865CDD8780
:1036F00037BACCBD9C10FEBD917D88D79B7E09B8A2
:103700001E676FCB5A731D8296C16F63F182DF73A0
:10371000AE93D8662E77ACE813CEE64B942D5309C2
:10372000D67C40B142FF57607913E762195164417A
:10373000D665D94A403DE6CFF40E49EDC6A4B08522
:10374000D6D328A54417A53BE2FF5BC9807BCB25D8
:103750001700B17E258A0522AA23E1A69EFF3EC25C
:10376000D3C28B40850F3CBC6B765F6F9783A6C638
:103770005D060D2C1215F0B19D5C39630AD4E3FA95
:103780004C2C9037567EC5CC847F2ED3F013BF3699
:10379000C102889C6F9568BA091F17630035D180F4
:1037A000C13CC12A8DEF51797D029D7718A043E07D
:1037B0008C1C778F6E546C71B43F212F35C59FEAF6
:1037C0007F21C0E0F032B7914618ECDC092EE0C949
:1037D000EFD7C4EE26FBD47EE5F6AAC6372A2F2102
:1037E000534F1ED5588F584D751BEC98EB31894FB0
:1037F000F70807F006B26154E4BFB2035CC1D2E738
:103800003F07E45C4C90FB67087ACB093FA5FE0EAE
:10381000353308373A27FEAB10D8F2DD75562B1E2C
:10382000A5B88BF84F4D0BFDF57252B3A483341637
:103830006F6B3F10F52E705A8DE97B5D56E3F654A1
:1038400002E0B063A44392CBAF68E6BBD6D2CD8989
:10385000997F112BDEE8C1AC057EC96749B23306FA
:10386000D08849E1E0431DDE5083CBC5EAC3BCBD2F
:103870005FA50E83479834C53E9BD307658A0F7AB0
:103880002DA7B40E051D6A68BD163D5F5111CBB75B
:10389000EABD7752173BBD4FC9BBBA0D5E821153CB
:1038A000256A8229903C4722AC8CA6C3D60128D237
:1038B000595B51691B728C0AFE8DB755EB1DBEBE5C
:1038C000E5A35D9950F8081A39168DFD834EC23C68
:1038D0002319112B88462B33D74DA699AA7CF5B70F
:1038E000CB9C63C07F9102FD53764A85D6108F69C9
:1038F0008D947B329AD54BBE3E315D3D290667FCE7
:10390000209EFEDD6191DF7CA4E92C0C7020CDB1FE
:1039100038BC0C12938A223FD58BA496FE5707FB26
:103920004822C2137A54B8D5F220EC98DE9BB472C8
:10393000BB1C81670E3F08BC8663C5BAC5A3037074
:10394000A9CD33824C9915B99A9A85CB85C85C2448
:103950002A32083AFF80B5E6CB6A06EB4365375258
:103960007A647A094B2A2334C03C5F3B8ACD1B1F03
:10397000F2F1854155397D32F7594EEDA64666B9CB
:10398000085060DC17B594B1F307588638F428481E
:103990004FBB18BF3E314F77E47F364CD2B0633A0D
:1039A0008C2A06553460BD5B0934913535A1D43F6E
:1039B00085FD82A7204C7D89D8E746A80EF12FD13E
:1039C000631C2571583123417FA37E89EF8CAAF3B4
:1039D000B3730A48CA93E31CE2235AEDAEBB7FA13E
:1039E00079CFE979F4EC6489B2D6F4B8AFD763281B
:1039F00026C9C476C104973C34AFDAA1097B3BB435
:103A000078FE9D468625360CBAFF9AAA7BB949A650
:103A100006A43AF11F83C5D7752A40F65B52945D20
:103A2000FB5D0B358FCBC16FEAC4D268FD126675A2
:103A3000C656B378DC9F335DDAC9E3CD25DF0708CE
:103A4000F0F7DA70070ECF03B60B378494D2106FFD
:103A5000B6F97B99777D5E1AC4E2BB80C69F1AE4F3
:103A6000F4B13075DFC41962F2FDCBEDFDFF75389E
:103A700042B9B712B46BBF68D16824E13B4547BA7D
:103A8000241F28D2B2651837881C34CE1B98B397F0
:103A90005F12431A9FE40A0F9A86FB51A881C975E9
:103AA000957801D1EB4BB27285E61F6EA466633246
:103AB000D9512DD349FE28363ADD90DBF970416AA1
:103AC000092F374F5C8CF6E1AEE0C19A67E1626482
:103AD0002EE1393EE447134451C9E086369182F025
:103AE0009375B9176616BC0A5BC0D22720E7AA14E3
:103AF00072986025B067A91716B561869D543B6A18
:103B000031E8376A9077BE4DA44407CD986A2D37C7
:103B10001895CCE2E1C2A7D88959A472E6B1EF0D9D
:103B2000998910868F8CF589A96EFA7AEB080F6B4C
:103B30009ACB4D9F4D04663DCE5E245EBA06C10809
:103B4000F6A24FE43263C3E82E5F5878135964AE8F
:103B5000CDCE0042A72A06D4FAD37E1504711520D3
:103B60003733CFAECB23E0315DFC1FECB7D3EF6E24
:103B700039A9CB8BDCB0A68A66B71EB5372104BA4B
:103B80007B4E126A32B012F7A5FD43178A5CC08FD4
:103B9000B743377392B53CC13640F43284F76F9720
:103BA0004C621F25A198EEF5F64AAA0C428B7C0EBA
:103BB000F17BC0956A699E2C89E17D7E53C619927E
:103BC000F8D927B57FF8E0D2A7E0AC88FA47BC90D7
:103BD000EF1C41F2C6E1B42E8896182BB3616BE15D
:103BE000AA5FF4CC049835C44E246E05A5EF21C518
:103BF0005F612DDB26F367758451A7E31A8BCF4CE9
:103C000056D4B591C8A125C0E3BFDFB8971C858DF8
:103C1000B8D84C4791BB0D74045095D35123FC196F
:103C20001149D6C44B2497C95B1C8AA12E32E732B6
:103C3000FD7C5C0EDFA9E59FDD04C56D28E2C77D34
:103C400096C9B905AF9580D9F209E33CCBDB1CB529
:103C50008551A7B186753643113A1D1555644F62DB
:103C600013F7F8BA95C76B84026011EE51A791E47F
:103C700097C69FB79116D5C11EDF95F778B9491A37
:103C8000D26B74C7CA026B50CBC2634B2DD495E282
:103C900087B782EE533412AE779200BA1216732FA2
:103CA0004C5B56229911E143ED72643F2156E9497C
:103CB00053435E7D4FE8318BA4E28A978958B56300
:103CC000674316C9EEFF922204C6C726F964700640
:103CD0006C11ECC714F127B4C52BA2BEF219C44E67
:103CE0004ACA2E87F9ECA622899DFF2EBDF4663FB5
:103CF00000B2F9B2AA816770ABB737BD992DF69FB4
:103D0000959DF82C4A227AE830336D18FD60955A5B
:103D1000C0A3792DDBEB9AF5F892AFAE25EE4CCC33
:103D2000877582DD82687EF05053F3A4901F24755E
:103D3000F319B98123111872476138753C51063A5D
:103D400080DC607FEA9680E5F28A909A70E95E33C3
:103D500057BBF6FD5E2944494B3FA83A1DF7336631
:103D60007640721EAC2443DA62B48D95FBAD61D50A
:103D7000E9362026BAC4E761FEFD951A598E031272
:103D80000B168966A5F557355E77C9CD40C3374414
:103D90006295838BCBE7B9D0FCCBA4B4A67B63DA66
:103DA000509044CB43992A6A7B5AF840258F2F5A6A
:103DB00080F75574CC8FE2B564A19A448A7F9CF950
:103DC000513EFF292D8427DD8635063A0A67B75311
:103DD000580F365473BC6FA51E0A1E44723DA922AB
:103DE000FC1EAB9733EBAD5A9575FA239F4BD5D993
:103DF00033B3DCBFE5996DA227318DE0B67DA661B6
:103E00005298E2DE2FDFB0B8714866A005D5D040E9
:103E10003D2A30B53DFB39544841CC2CFFDC356799
:103E2000D929B330CBC74729B5FADB41225474C72F
:103E3000253C32B8822BA468D070781212A9AE56F5
:103E40001F6C717CA15860ACC16B817042BC3B4F50
:103E5000B70A31ABF02F81DFA2A8C51AEF7A6D82C5
:103E6000BDEBF9AEAC2F9B1488B8DC7C900D0F4BEA
:103E70004B701B8301F8296C84F210B40AF1EB9F9C
:103E8000C7547A7372C87D520969D0802319773A72
:103E9000217A5C611579B7FCBBF219DB9F56413280
:103EA000C60A38A10CD1FB34AD5BB6A938F0DFC827
:103EB0007D599CA7EAE0D2595B6439F10B2C17239A
:103EC000D2C26EEF93C67764A02150C84474689440
:103ED0005DB1986A6DF1F3843FD98E9AD5EDBA5CE5
:103EE000ABFDBE5482A2160DEC40AD8A1B09AAD0D0
:103EF0005C1214D07BC455A7EE27E57FC6EB0D936B
:103F0000C2C40D30A59A2A361A60FB0B7B3CC21D39
:103F100094E614AA66670D5CB656883E9C59C0B6F6
:103F20002E135E5FF3996732B12D6CD20B597498E2
:103F300005218DFC4736142F94FBC7CDCB3A749FD7
:103F4000D5B9F080C7A418249A04E4AAF14FA1CFF0
:103F5000F29354D77A518EA7051D8220F5ED9CB1BE
:103F60006ACC27C35EE72F20B5E7F9C438FEE468C2
:103F7000ABAA6F980AF58E03DBB2865FCBBF9B6658
:103F8000AE582CCCF0284B42E881ACD03C78A86DE0
:103F9000B938609008429FDD4FF6A890A64A945029
:103FA000CC06545EFC975CF8FFAF9616179FAF8364
:103FB0009BEBF879BD8D57056F8EB75B81743960C7
:103FC000EBBA1E31DA07152253D364F472DB85A3F2
:103FD000D22C207216B76CC6FDF93A3A801F3D26E6
:103FE000A08A7F3766F916488E140F0A6994FE8CF2
:103FF000B5C354579E25CB4BC8FC44D7EF16D4CF3E
:104000006C244A2EA3E83370B07C51F6A5A5497BF9
:104010008722E0D67D2B469997F48FBD042111337A
:10402000CAE3E504E0FE1FFB70B72311195AF73508
:104030007C5A9231409B5DA9F5CCBBE52090E6BB54
:104040003B64D763D44F9CD32E08E2AAC3CDE7E2EA
:104050008ED5A4E7327EF4BCA66D331B5F80296A3F
:104060000B06AC6FF43C385704A3780C268DCE9128
:1040700008483EF324A56B8F5F3EF8AD855375F17C
:104080004070DDBA4362CCF8452473A7BCDE4C1007
:104090003CE935079DC7A6A222BA1A2AC05F6ABEAC
:1040A000C625B53D682027ECC11B5227358BA727B5
:1040B000A039F83D7838D9A26A1F2D26EB644486D2
:1040C00032420C2E461FFE30F378177A3A5995A9E2
:1040D0004E2C241513DF363C924CDA19F16698B455
:1040E0003355291F4515A2272EE5D587F0425926BD
:1040F0003FFDABED2599AF61E8E224C846042E46AA
:10410000E9817E8ADD594930961FEF8F4F76F18025
:10411000BF32332310BA8064C4E9369DAA3BFC80C9
:104120008D066E89D9C6FB9F6A73533FC21528EA74
:1041300015FA232CE5FFDDED0AD70C0621F2EA2C57
:104140001F7689A0669938F26A692E004103EF67ED
:10415000B0B1C4053266627E4C520F5E7DCD7136C1
:10416000A0F99DFC63160B1C690B295EA9E76EE79D
:10417000B30188E3FF8A9A1131F7BB802F6B325F5E
:104180001500B61DAF642BF730F0F342284CCC2A53
:10419000A1877FB88860CCD9DC57361427CD914CE5
:1041A000AF3ABD827B79152B8CBCF9B2578528AC10
:1041B000F0BB35DABD4396B3A9C193EFD69C6977BE
:1041C000CBAF80DF35F160E3C90C037ED3CB92998E
:1041D0006C56792EF52E3ACB8AB06751CF88DB40EA
:1041E000E5DE8D900E2E1B63C3E5282FE8ABF9D7D3
:1041F000B9EE8947CCF55F97333D19E8B1DBA28B67
:104200000E17B24BE56D7728871B571D5E01B4FC76
:10421000469FF95379BCCBAC44233BC0B90DEDDECE
:104220002670AC0BBD486AF24E0B6B453A27105D09
:10423000AFBCD1467561DCADDE15B4BC3C1096DF79
:104240003A73C187010F0BABFED5FA3A0686F163CC
:104250007CC67BC637EFDFA6F47064073BA441C180
:10426000F3E4B595AF6D2B4D9961306A12A6B02479
:104270008249E94DD8FBD0645F7D3C5F00ECFBFDDB
:104280008241E37816B16444DD88D8FDAA331F0D5E
:10429000AE5B07349A9C14FE26AE60913EE7C8B22E
:1042A0000A857052E7835779F7968AD964EF8E04AE
:1042B000E16F4396B6E7616FED314F16B45997E65B
:1042C000376A7767D9D835F246B07E554D76672084
:1042D00014F69E8C5E8622FB9B37B60F14DD46C912
:1042E0000715289441320F9F78ABE3E3BFAAA96773
:1042F000451C28BFB672317CA26FDEDF9A195A6561
:1043000029F6586312256CDC9E58EBB6A08E9C22D1
:104310001D0A6DE2E7BC9F25C88A01ADB03FE0EC05
:10432000E4AC91C693DA33BE99097B6E676AEB6998
:10433000CA7FC27CF885B515E6D8B61D35F91309D4
:10434000B60D6B1F5B19249EFE2E2A5F38CF221FED
:10435000904A00B8BDCCCFCE1E4F6BFAD2F7AEC696
:10436000ACB27153F977D5BCE9282CD7367552D940
:1043700005700860CE51B7974B5E71BCC6447A6A2F
:1043800007480B2A9EBC4E50BDFC0524ACA1AE12C2
:10439000E45EDD5AC40F63979B59F9001C5A8D8F58
:1043A000E4800AF71449E8020D4DC4B28667D3D3FE
:1043B00070EEA1E31053F06A53C8C33D731CE3F5DC
:1043C00024E50D14BF878D0D5E5E62661FFA72557F
:1043D000205FF7E4F2B0D4A8A69DDA3143A1F04DF6
:1043E000ACA4D34B8C0E1DA789A803A1F880E24A88
:1043F000599FA8966CB6A2E5A95BC3A4E677BFF265
:1044000050EB9197FF8DD141038556C406DC3712DE
:10441000E432DEF8AD8A2C71B4A481E5A8DACBD5FC
:104420001EC63805F6E3616B13104EB648B86E3CF5
:1044300061813EA7AA937DAB063AC196DAB51F34D7
:104440000A088139DF2F8491EFDAE2B50160D603E3
:104450000FC3CDC86DBE6C64A31F58CEAC4722CF2E
:10446000272300CCB470E8294F17DE2B45E18235B5
:104470008C69B9902F2FCB99DB6679561DE6FAE649
:1044800020C3256FC3A8513EA04C278FC4B12C83F5
:104490001892E12DB91838486B672008D1C28C6397
:1044A00004B62D63875F6BAF1EF6EB450F85D87D95
:1044B000332729C4776208FEA79D71C0CF75F52EFA
:1044C000BF8961D2BA27BC2D00F388A332B2FEAAFD
:1044D0003E8B9D2FC3CC1EA449D30988AAE2645AFF
:1044E0004383C48D86D5569D4BD3B5795C1C1E8500
:1044F00066CBB25512CA8FA28C1D2D6F7DF6D80BDC
:10450000D7F08360999F1A871C88123C5B61EF1D6E
:104510007DF53CA11185FFB8523A896FB67DC22165
:10452000B015FB7343361D014B1A919D217FF2EFAD
:1045300025ED6B5ED957E2410FB1575B61DC70FE30
:10454000AFA5AE2BE0ADBB1EE006208C5773D45751
:10455000DDAA9F5A8599C72D5F91EF7053FDAA5030
:10456000BBE2EB99F740AFCEA0E4646C06B398874A
:10457000EE8B53C784A56707BFCBAFA3216361F55B
:104580003BDAD8156A0CB7430FFBAC0F8EB460F55D
:10459000A877F0B035AFC7A581C1A71E89A62A8329
:1045A00022391DA2774E4A43DA713DE327B611DC6A
:1045B0006AECF66BBB0376625A8AA7A16EA6AAE6DE
:1045C000F4F3AC460A8C941D41919EE57E76D77A31
:1045D0004CDBB7402246356289D3BD09742A5B4D56
:1045E000C5EBC7D9F7F8A85E01C78ABC2276D3EF1E
:1045F00059AF592CF09F7620E5688C54B7B2A7E0EC
:10460000381D34E8386DA55D950FAE2EEB0641A33D
:10461000B213B044B9AEA3F0E457DF9BCDF3D8E5B5
:104620001F072551D4E98EF03104F93E78D066E1B8
:10463000691E0E2EB03ABF32D1C1B329330354A93B
:10464000BFE083D6F65083609778F5DA4DA13EAD92
:104650006991F592019EFE3970A219285BC6EC653E
:10466000EA5A6F59F41DAAC379D31BF1DE36884785
:104670008F7A7DA64D0F7A1D693697CBFCB4B09E1C
:1046800073B99608C9422C9C20ECBD19F85218E663
:10469000FE8A27718B63FB3F2F452A553DC34D771B
:1046A00099FA39E112AF4E50DBEA2ADEBF63DF032D
:1046B00083C191298EFF2A84B8FFEC24521C82F416
:1046C0002A636D43022FE271B8808A01106D0FB02A
:1046D00094D0D4D3F37E1D70C40F6BBA301369CC61
:1046E000BD6A6723F19A8C80BFC491253FCF517D6D
:1046F000B655129E64FD8CB6A35199D821F6CB16FF
:10470000BF6AC5428E2ECFA8183A18EB247B70C61C
:10471000A391C751FD7D4C4A29A1568D8F5818DCB5
:10472000620466986E095F52C34EBDA70C8B74DE9F
:104730006631F418A640AC342FB7890101B1438A21
:104740001F9103418750C0F5051B3DAEF81464B5B9
:1047500035E42BFA013752D921870F9EBFC4012DB2
:1047600083AE37DAB3C20C31A9310547B57DB68DBA
:1047700059FE396005D60F096115F0FFA0A78DB667
:10478000E429DFDAF2D32ECD5EA1671335452D0083
:10479000D3B4770E0A6248278FB06F94A190EA5F76
:1047A000E7BAA0F26047A491202C561248917BB141
:1047B000B5DCE26D560634CE4C4A2507F135A12012
:1047C000E4925AC35EA6B1D80A6515C24E273DD2FF
:1047D0002B498F86802C1FDB54FAAF268BCF60EAE3
:1047E000D2C9C5A5BC528DFF28E05C87B2E1AF8875
:1047F0000F5B09BB1E714DCD204FCA04CBC8FAE236
:10480000D78960969974CF3D588DD72C44595C1246
:104810000C4638F576BC81BC61609A8182CC4AEB4B
:10482000B36A090BCA084E28778FA3BC63F30D48FF
:10483000A70B0052287DBB25B7E2A705B9693DF952
:104840002AA9EDED85D0AFEFB234B974D88DF1A4BB
:10485000971C1207D731381DF7ACF0D07AFA8AE2EC
:1048600053EBA69722BF7EDA4C43BC88E834CD6375
:10487000B102781702B3AA49F9BB95D79F7206A86F
:10488000C5F56D9FA421D3C362EAE48B55AAC6A4E3
:1048900099F0D067BBCE3FE3810EB39C1D79B03C4D
:1048A000E14DEB47DDB03882892D04B27CDC4B282A
:1048B0005ABC2547FC9C81A4ADA67A7C9F92BCD5AE
:1048C00080C4E209F0965B6EDC5EE7750964EB7903
:1048D000998C47DD65E6A625FFE37AC11D84AE4CC1
:1048E000B39EE71A894DEC61155415C9A2DC4BC083
:1048F000D7A2E0F6B9E145DB47008E74EAD9237808
:10490000848E15312F0C9EE0268A543F4BFF74187D
:104910009524039304499F08AAE21E6EC4E8AC4C98
:1049200001F6D2B5747E751307D11D9F60C4D25CA9
:10493000560E0A2B7B9683A03083E938335843B553
:10494000F0AAB667811D36A3758C18D06FFF2B3E79
:1049500067D731EFD202A092D1DD08F8306618E6B1
:10496000E7C913BF678F03555168AFF460EF315546
:104970000D0A5DEA4EC6A8DDC4F043280CD22A9287
:1049800040E12079B685E56FE9C7933BEB2A1B8AA6
:10499000A9E56B1D619928FD13DE11D4D587E3735A
:1049A000010673FE35D8B91CAE2430992AF2CBDF4C
:1049B0000DD3BDA7508F2D2012D6BF5B043A014CFA
:1049C000A25FF96400947E11ED3958A143588835EF
:1049D0003982C139C93BB016722BE1C3CD3890C0C2
:1049E000519DA9FBAAFA9D96D14E8CE635F0DC6F5D
:1049F000F828F9004D75BA212DBB2BB99C8FD90A27
:104A0000D501FC15329A110A8A0E9B0A1C5E44EEEF
:104A1000FC07F691A75928C4DE262AFEAE7E0B5667
:104A20005656A2E31DC118A0578F99D207CB7A51D1
:104A30000C7D96F5F81D90D4DCDB67E361D91D2170
:104A4000D35D272FE3918037C23FA2CF5D5732E37A
:104A5000EA5AA704C1BB5A53FBF4D0802F76FDADB0
:104A60008B5A1B79FB9D62D5DCA6CE6E5940C3B034
:104A7000740C8C9C34B5529AD54C4BC2F9D00E2391
:104A80004EDDE3CBF5AEE33CA39F28A7D960B0424F
:104A90009151ACE339428639302ECD4B35482EDD6D
:104AA000EDF48786AD242E2690AC944CC3E7BFE08E
:104AB0000F20D2FD5FB9EED366C9E2B3FFFC2BCC69
:104AC000556283EFB21AC5DAC6722A338F91AE1CD3
:104AD000133CCDC15DF624985A46C7F9A2D8119D62
:104AE000EAFD960C5D92B914CFFBEA1E62549EC695
:104AF0006D4F7E7B338D0FD20E6AD23298790B4781
:104B00003358420FC8B341D1ADFD80346FC9CB8D4E
:104B10000339B505F72DFE35B891656E2ACB54FDE6
:104B2000D5F503DB126F225035EDACC6946659A55E
:104B300062F30514379165F7D8411C30C6E844E8A4
:104B4000B7300CF2760545E3C739574AFB87B6DC28
:104B500096D704FBF9416D39A9BA43EB60D4F0CA8A
:104B6000195CA6A0F9A171BE1FEC584C4C970EBF62
:104B70009D96B5966D000BC93FC3A6D069927CC9BE
:104B80004AF8D688AEF8A017CA0544C6E844DCFF48
:104B9000C51FBD2A91F1DC7DD09E23158ECBCFECB5
:104BA000935FC32837B5E04A35BE95358DCC8C4F21
:104BB0007DF9FB81C1CF18C3CBDF5AC7F3975E11D4
:104BC00026968D8526BAB9C21D71EA9ED0ED0EDFFC
:104BD000E51FD0204F5C4E99826D492662141B4E12
:104BE000B69ABC84DB4A520D7386A9C960F37B4236
:104BF000F600E2A39247F5F5834826B34FBBD1BF39
:104C0000CF93D7992D6A33FC8B05DD6E4F13A86CBB
:104C1000EA6F7080F959547FC766FE1E906D9675D5
:104C2000F3B4C5B4E9D3C0C26DD289EB37E7E0383D
:104C30008C77DD29083FED549C60D413048E58E92D
:104C4000D4530C058CA180B26FD47768DDA9BFF274
:104C5000473E7482B39098938491E211427F767AB2
:104C600063F76DD7F3BA5178C2AF3ED06D6621D0ED
:104C700055E0FCE6C5B3852F8A133BF38D44BD8315
:104C800090D4C0BC33846B0716471E0C95E9EAD05C
:104C9000B99BA50A2A961DEBD7E64DB7EEC8E7BD2E
:104CA000B144D2D55E847DC10842515BF6BF2DB4BC
:104CB00050D7E7380469F7D9D7AD986D4F0B4A0143
:104CC000578381A0CC3B5491A79E4A6F68533D689F
:104CD0004E67EF7EC42D0F7C402CAC5DADDC0144F3
:104CE000E6F21D89401B745A70C3C171D1D338D804
:104CF000325571C63F8A5A76051CC401C328223931
:104D0000F477885DA76CFD74EB2A58E38DD16EAC07
:104D10009AFB767FEFC708975C372047A653677BDF
:104D20001F1CD91011F0111C7F4238A11C204F8B81
:104D3000CF7BCF60C4A18567EB56A3EC484AD80669
:104D40004096DDBDDB4288ED9B753FFF7E5F2FC245
:104D5000B4386D29CE2458D5E67E4804585EFFD875
:104D6000DF13662CE764BFF59B951D890B27B8CE32
:104D70006C1EB47DD43C2C956BB80A0A3BDC621FD8
:104D80003913AE8EF14F992E29CB6CEBA76AE3074E
:104D9000E8A42D526511EC82DF2391694E62FAEE90
:104DA0004562077E3B4F608A3060D36BF3FCEAA814
:104DB0007874C2BBAF42EDD32CC62D3079E3AF4936
:104DC00060529DE4610932874422D36162F2682314
:104DD000455261B9D8D979D8DC29039BBA7C458B77
:104DE0009EE1FEE8FD27E9924612EE8DA38E1C2C73
:104DF0004DF7D6625BAE375BCF79A96EDE2833E222
:104E00005A56571E63525166D01A2C9799B947D6F5
:104E10001CA54792413A6D55B8AA2C83D294A5FEA1
:104E2000633E0B310939FB8AB3A5F0D952DD84DC2E
:104E30007E313971E268BE77A9D5C6D5CD458136B8
:104E400050BF42221FF07A8C94559A5075925F7130
:104E50000A53EF901ED0055F198FEA254826E88790
:104E6000DBD03BCC4F79A425C65B2A2ABB2A5E2621
:104E700052022487E88DA3A473C076071F6FF5F351
:104E8000177D4EDAADC133357065D6E08FD2E45F61
:104E90005EC87567D1337BE1E5DE9BC46DA8DC9904
:104EA000BBAC44347CC942EBCF1A4E62CAF08809CD
:104EB000DA287F0CEF743BA18AF8947BD167410418
:104EC00021B976789FF2CFC704DF4C6F4E39664325
:104ED00006B1E1EAF8E95751EB6EFE721B318ECD57
:104EE00083EC73E615D8BE56E309BE83E8BB31C731
:104EF000429124B085C22C9DB8AFE42C5BEAFA53F2
:104F000023F6BA22EEA0579555EC2FE194E94B7A9F
:104F10005360FCECC6A9B9ECC3291E1333EC0AB0EC
:104F2000CF7F237C2554E8BEE5C74CA11601669AC5
:104F30005D96F792AA100D9490B268FD241224C9D0
:104F400018EF698AE2B5A21991D99D88BC002C514D
:104F50008159B490CDD5AA4D873A429D8EFB0275FA
:104F60003A3900675CB126962AAEA8D2E784384C5D
:104F7000A722779C9F08AEDF56A79008F1B58F1641
:104F8000D93B2C2F6535CB223D536EC20EBE522627
:104F90009FBDEA7023FC31A4DD778D5442F64B248B
:104FA000456A84BDCC84BDCD61A96D5000E5446CDB
:104FB00033E670B4F297EEC2AC470A151D7153F098
:104FC000EF14ED37EA93AA59D0C71FAD5C32DCA4C9
:104FD000DC66FCA136BB9788226243DCDEF67FAA42
:104FE0003F1DF183CFC5A3D932F23CCD677750D8AE
:104FF0005877966B7B2BE56C060043FD7250FBA443
:1050000060E9C37A3AA783B258FADEF5AD635977FF
:1050100028E8D17A792B3610821D9249681D62FBEF
:10502000AB125F5139C53E6D01471254F6DE210BBC
:1050300015BD672F8E654A3016DD013C4CEA95ABF5
:105040007AE859911A05EB070099DB0923129606B5
:105050007160795329F09408DF68CBCE146D729E8D
:1050600061FFA0BC5C5896935FD4592153FFCFCC0D
:105070001EA1F9D53D7C70ECC3E1189F202FCE52C4
:1050800031D1B59DFBE23AA0F2B348A6445D565F2C
:10509000F005E4AABB92FC2A3EFDA748916F1EBC16
:1050A00034D359658D66E588C72F70D3BE55B122BC
:1050B00025B698B70D4CC7E455C90B937AFD05A8E2
:1050C000ED09A8F02C67A935345C5DDD9B2ACF651E
:1050D000C329368CB61412DF5855A2CEE1FA383601
:1050E000D9D8E763AB5795B29B5A3B7B235E787563
:1050F000435EF8922CFDD78F538079E0247F0EAA6F
:10510000AC0CB6706BBA4A335BA16EFC51FA7A51A3
:1051100050AE0D268B936E561CD72C5B278CC99EE8
:105120007D8DA3EEE0B6ED12B94BAFA1A8F9A93A77
:10513000E6EB39B0F1A715117C5EC7C1899E93AA31
:10514000D54A1D1B295829066190C7743A3A0EC8E2
:10515000ECBE7C58C02BB1A0CAF57DD85EA37841C7
:10516000A67965808EAE210D8469E743A308C70F39
:10517000960AEC942109E310C2799788C8277C9697
:10518000FE9CDDEF7782C64B4C348B5A75A431DD23
:10519000B20F1EA38782791E9ED9B6C691346ADBF0
:1051A000BFFC005D574F296A8B5E7B96D02A17564D
:1051B000B455E38DF2D65BF364074021E8A47B117C
:1051C000CC91534F385DB3B4AFB53B821A7F76872D
:1051D00019CA6DC3C5818AE049D45B8E906A1F1DD0
:1051E0004D18E408220FDC339BDADD3C9DE0F5E04E
:1051F000A349DFAA0D6160E5352EA764473F628DA4
:105200002317462A1FA7C195E1D3FD0A8FE4BDEFFE
:105210008E645D2BFDC23D1CC1B0450D2CB23C34EB
:10522000C7414FCE2C13207CF196F419AA09F71927
:105230001E0A8737DC45EA2E3533984598A5CF3FBF
:10524000FC11ADAF723B61FD0D03F9658D53C2D604
:105250006D9FDA446DBF8EF730A498BD11BD9342A7
:10526000F88476E9214CBDF4BA68CF1D8AE800A81D
:10527000361F3572989967FD77C9B25673DBD50230
:10528000B0D36F07B79AA41F29BB4D2DD12809753C
:105290008DE8D04C300416E6B6035CEF91D27D1554
:1052A000063714F791650D882D2177ACBDDB0326F9
:1052B000F0239DEFECD626F93A3CB3CA67061309F2
:1052C0004BE6187DED43F138A28268370BB8F7DC66
:1052D00047E7C34C7D9F3F6963DCCA085D00976563
:1052E000AA5D4026F9C58F2E9D6CC38CEFFB252946
:1052F00053653F1CA05D016F2C018C882BE68F61EC
:105300009BD80BB0E039330EE54B2C87B6F9E50599
:10531000EFB7A08EF593E782462031AE98066F6F07
:10532000B4BB117845DAA646C554598DD1474A46D3
:105330001A6BA9C0EC760B685829364556D397CD21
:1053400075695FD20256C490789C36322CF72B7C5C
:1053500042D2A055E074EC97B52403C9B82E7AD098
:105360008C6CBCA41A0EFD9B193CDFBDF7B8E34B57
:10537000919E9067433236E2F0F63EA57365901A2F
:105380005DB706F21A751EA2F9706356B7942136FE
:105390005F487BA2E028F0C393640D0FE45167A936
:1053A0001518B97284051F2A7514B0D412AE67E5BA
:1053B000A610F5877DDDA8421C143C54A21B33EFD8
:1053C00040FBF7624B042D42472CFF76BE6669F91D
:1053D0009CFECCB5E350C850E7D7A5BD8EC5FC2BCD
:1053E000B9E7A64A43ABAC3732A8BE7B5C4FBF6778
:1053F000235CFCC3A1704CA96C24A5672E217B6E95
:10540000F26613339AEE038D828990BF3E09F78EC0
:10541000C6106C014669229A21609445DCDB3DD4BC
:1054200037332C0E85E7DD78F0ED783A8525538A01
:10543000F6DAF13BCB7972BA9476A3E14051B6A586
:10544000CF3215ADE6778B7DEDC3CE858EDD30187E
:10545000D95AFD40BC6D008BAF97C39F865C3F6BF4
:1054600020A446AD341BCF902010526DBCF74709E5
:105470008670BBAB64C13DAF4FEC63612E90750687
:10548000B11FBD2CAB0D8973639900321DCCCA7B53
:1054900040FF4E866B288874202B3B3358A7F92792
:1054A000B422277A53C54F5BF6A699722D72D5E2C6
:1054B0003B419C7C6E428222CB243D907C393F4212
:1054C0005C072A9B7B447FA6E2ED9073D52693F67A
:1054D000D0EC4281DF47F9D65C861D6F456B24EC2A
:1054E000645263D4030147CD65142C4C3BB455166C
:1054F00031BEC53CD457008150D7C27DCD86A78A26
:10550000AB8CFFD3850BF6A1BA02F8699A707D3C8B
:105510004525282EED9AE41CC317402C9E58E9928D
:10552000895DEBD2948000E31F1419A92062D5098C
:10553000186729DF1152B4FFDE57004E0D73FDEFDF
:10554000BEA9F3474F7CD3CBAF912A74B5181FA5E2
:105550004800355B48C3E4AF6B832BFA4BF295648C
:10556000DA265296577A25D7C33723F423BAC96768
:10557000DCB4B4879F5D44B3D98FE0FB46D424C428
:105580007BAB0F362683B4243E54DAD1E6FEC4F258
:1055900088FCDB20E73A8850FC81F921417297B5FD
:1055A00085FF158387D1469AA6508B172320384F45
:1055B0001DC3B138580E35A243480C429C90691067
:1055C0005D6B641DD8638202ACDE33E84F85F6A3C1
:1055D000A3210F2BE68725D3AFF9EA853B657DE54F
:1055E000160D923D49710B1B4F7D535176E070DBD8
:1055F000ABDF5EEFAA1CD829EF56810149C7296DA0
:1056000042EEEC356AC9BF55C4F49F7974C758BBE4
:10561000BAB5AF8DE0F1A1B62A5BE4867574E52DCD
:1056200005204882740CBEAD03C9C238C60E8C0773
:105630000BECC68AE50B71FA8CEBCD2720F7984B63
:10564000A72EC3D8B51CC15D4A9F974F4FC72BEA01
:1056500006F9DA4BB617DE87F1A1C1CFB25E4B393E
:10566000117757E795D27AA8FC781DD19277FBE0A5
:1056700064A9D891E019F698D2A8AD8402E1DD5270
:10568000E61E9CBD79B0C5D8F04E47A023F101BA03
:105690005016C8CB3945157F0833448941F6BC05FF
:1056A00009FC850F6AD6244DCD9F2D240C59611C11
:1056B000DEDC1C3B00861CE99C7FB9EC218CB89C8D
:1056C000F33EDCB5458C2AC1C085696511F79EFFA4
:1056D0002DA5D371302C4ECFAD5321FE0238FCA93D
:1056E00060E69CF6A3F76A91E45CA8EAE46DFB101F
:1056F000909173529A5F20211FDC093E5E36B66797
:10570000AF806AA16B5BE84F20D26C63E835C69B23
:10571000DA90414254E93A64CAB2BACEC915C89E79
:1057200047919D50E09FDF5928F57FF3452BE9E134
:1057300023D9AC8A0F7DA01402D0156CA1C2CAB4C3
:1057400003C6A67AB11FDEEEFAEAA2F2AB9298F790
:105750005F6A37D9CF9CB790392A519C2B8E02753E
:10576000F82B69E91ADB3740CF3CBA1029BE8A987A
:10577000089E81E439102A7CF80DBC7A76DD355E0E
:105780004C26FFBDBF1975140F19AF91C2E12CD57E
:1057900086B078BB872A7E27F8B0D803D7770FB8B2
:1057A000FAC6EBAEB3DD95DEB97D705C6517204BB4
:1057B0000D6E94286B553AB703BEFF44A831187D8F
:1057C0006AC65EC3C03B6CC15F04B2CDC89F8098FF
:1057D000AB84E00273A6EEB40C2FABFAC34B39DFF7
:1057E00088AF6B35EDCDDBEF97D5630E44D76E44B4
:1057F00065671662E243A56D1C2CC305E75F07D8F9
:1058000084A4143C510DA67B67B2CEC07C646F4D5E
:10581000FB706FE9CEE9C5E488664B08AC8235526F
:105820000ADE70D2F0E12F72F6F9B2F87C6A74A544
:10583000201443369B603FDAA02E608B73C90F386B
:105840006BB4BF9A59DFAEDAFDAE948CAE06C804D5
:1058500006B145BEA0F5CE8866821AD59CA6ED2974
:10586000323CC3409096BA33808CCD4695FE57317A
:105870006D81A3DB754A5C34D2807B82837818DD2E
:10588000843BDC8C6178ED1C749C024F5198D044B1
:105890003F666D42D16D2ED9E8CFF445AB7C9E6456
:1058A000F4C011FF680CB9D886206DFE61E0A1CD6F
:1058B0000F0C395C2AC03E2ED85819DB23BA157E4E
:1058C000A834ABCF907A20DAC394FC7379C705F083
:1058D000041B3509DA96BE0D0F05C81C8D742C38D3
:1058E000A5EDA8B5734DA7563065A63DA25A6D3AF1
:1058F000935189179B2C8F23B2C2B4E044B364F454
:105900004757478D5663F898F40249F8727C2DDDAD
:10591000F94AFCBD78EDAAC803C96A26E495BE7BA6
:105920003121BA41A0F41CA47B29050196E6A48B81
:1059300008B7BB1D0311E46A5718FA82C6E1E804F0
:1059400037B08EB1E9A458C2C9D747A97A58BE2F3B
:10595000DFD42B657DDE7215BB60E4CC8B9E492FB6
:105960002C15CC256C2EFF6FB94C306AB1BD3005BB
:1059700031412018AFE6E4C5F57A0B9FA223CF167C
:1059800058FFAE51932CF18ABFCBAE469BFBA75F6D
:1059900042DC4B2A16A20970987AA86DCC4A7D94F5
:1059A00060CBC1433107B720FE7F3D2C0DEB04C017
:1059B000B8FA9594CF84C8251CF719F9C8980AA29B
:1059C0002044D622BD3511BEE97FD45185CAD2C547
:1059D0006486AEA7A0D8BBBF26DA66BA4F35866705
:1059E00017E3AF4C5E6A57F2790250639B0BAAF93A
:1059F000928B77F811DB01E69159B7EC960438A346
:105A00009AF46731B3C90CBA8F228D0A8CD7637DA3
:105A1000EA8816518EBAFD7B7DB5A6545F58A6B6AE
:105A20002285D55A7368B9D25E39CFDC3576ACB0F1
:105A30004885F0F7EC1B1F67EC1CF45E4992E84BBD
:105A4000F91A30F38D5CEF645BD496EB704EE7B5DA
:105A500017FE6FF776098BDA7CC1D4C45516578DC3
:105A6000139DEACD47BED3680481AB294D39F8E4D4
:105A700090AAC9FBD631E194725FE5024E5C969420
:105A800008A52B31C42115C1D71D29465B3B18142D
:105A9000CA0C8DFA9284AB8B3D63D27BA634E0B8FE
:105AA0007163BB5D9E1A8E223CCA44BBC8A0240908
:105AB0000F7402CC6E7DFCF53CC14B7E1D947E3A8A
:105AC000B96ADAD24E7C03550AC6FA4F44E6447FDF
:105AD0009FEA2BD5BFA247D59D94A8AE22C7B01A86
