:1000000000800120CD970000F9970000F9970000CB
:10001000F9970000F9970000F9970000F9970000A0
:10002000F9970000F9970000F9970000F997000090
:10003000F9970000F8970000F9970000F997000081
:10004000F9970000F9970000F9970000F997000070
:10005000F9970000BD840000C1840000F9970000FA
:10006000F9970000F99700002D830000A994000083
:10007000F9970000F9970000F9970000F997000040
:10008000F9970000F9970000F9970000F997000030
:10009000F9970000857F0000F9970000F9970000AC
:1000A000F9970000858000005D800000F99700004E
:1000B000F9970000F9970000F9970000C1200100AE
:1000C0004D2001004920010089170100BD200100D9
:1000D0005120010071200100552001006903010039
:1000E00005210100F9970000F9970000F997000039
:1000F000F9970000F9970000F9970000F9970000C0
:10010000F9970000F9970000F9970000F9970000AF
:10011000F9970000F9970000F9970000F99700009F
:10012000F9970000F9970000F9970000F99700008F
:10013000F997000010B5054C237833B9044B13B17F
:10014000044800E000BF0123237010BDD813002035
:100150000000000034FD010008B5034B1BB103494A
:10016000034800E000BF08BD00000000DC130020D1
:1001700034FD0100154B002B08BF134B9D46A3F522
:10018000803A00218B460F461348144A121A12F087
:1001900088FE0F4B002B00D098470E4B002B00D051
:1001A00098470020002104000D000D48002802D0CF
:1001B0000C4800E000BF12F01DFE2000290006F0F0
:1001C000A5F812F0F1FD00BF00000800008001203A
:1001D0000000000000000000D81300206C42002046
:1001E000000000000000000070B501208EB00C4639
:1001F000096807F09DFA002843D0424A04AB106812
:1002000051680AAE03C390684FF42872ADF82220FB
:1002100040F202221860ADF82420ADF8262004AA8E
:1002200007CA86E807000B220023012566688DF8BF
:10023000342035490422304607938DF820508DF83C
:1002400035308DF8363012F0F9FD70B98DF8245044
:100250008DF82650A06807F015FE43F2C82580B23D
:10026000A84210D9294A212108E002222849304613
:1002700012F0E4FD0028EDD02021264A206809F084
:1002800007FC0EB070BDADF82C00ADF82800E0689A
:1002900007F0F8FD80B2A84202D91F4A2221EDE7FB
:1002A000ADF82E000A38ADF82A00206907F0EAFD03
:1002B000ADF82200052004F013FB184B07A91868BD
:1002C0000AF0B4FE014608B1154AD7E79DF82600AA
:1002D000246807F021FA05469DF8240007F01CFA6F
:1002E000BDF822300F4A0393BDF82E300E49029319
:1002F000BDF82C30CDE900032B46204609F070FBF9
:10030000BFE700BFD44A0100684B01008D4B0100DC
:10031000A37D01006D4B0100A24B01002042002093
:10032000BC4B0100F7CB0100EB4B0100F8B50746D1
:100330000D460120096807F0FBF9002836D005209A
:1003400004F0CEFA012F1A4C2CDD686807F09AFDF4
:10035000022F064624D0A86807F094FD0346D6B1C4
:10036000A8B120680AF09AFE044628B90122114B70
:100370000B201A7005F048FD0F4B104A2868002C1E
:1003800018BF1A46BDE8F8400D4909F029BB20689E
:100390000AF080FEE8E7206823B10AF083FEE3E775
:1003A0000028F4D120680AF071FEDDE7F8BD00BF37
:1003B0002042002000000020E04A0100F7CB0100AD
:1003C000E94A010038B501200C46096807F0B0F988
:1003D000C8B1052004F084FA0B4B18680AF066FED9
:1003E000054628B90222094B80201A7005F00CFD41
:1003F000074B084A2068002D08BF1A46BDE8384060
:10040000054909F0EDBA38BD204200200000002067
:10041000F7CB0100E04A0100E94A010038B50120AC
:100420000C46096807F084F9C8B1052004F058FAB1
:100430000B4B18680AF03CFE054628B90222094B0E
:10044000E0201A7005F0E0FC074B084A2068002DF8
:1004500008BF1A46BDE83840054909F0C1BA38BDA1
:100460002042002000000020F7CB0100E04A0100FC
:10047000E94A01002DE9F043814685B048680C4601
:1004800007F000FD0746A06807F0FCFC8046E06826
:1004900007F0F8FC0546206907F0F4FCB9F1050FF8
:1004A000064628DD606907F0EDFC10F1000918BF71
:1004B0004FF00109002F0CBF00210821B8F1000FF7
:1004C00001D041F004010DB141F002010EB141F043
:1004D0000101B9F1000F01D041F02001184B18685B
:1004E0000AF056FE50B12321164A206805B0BDE837
:1004F000F04309F0CDBA4FF00009DBE71249134A87
:100500002068B9F1000F14BF0B461346002D14BF2D
:100510000D461546002E14BF0E4616460095CDE931
:100520000163B8F1000F14BF0B461346002F18BF2C
:100530000A46074909F054FA05B0BDE8F08300BF48
:1005400020420020F54A0100F7CB0100E04A0100FB
:100550001B4B010038B548680C4607F093FC0D4B67
:10056000011C054618BF012118680AF0E7FD30B1EB
:100570002068094A2421BDE8384009F089BA074BB0
:10058000074A2068002D08BF1A46BDE838400549D3
:1005900009F026BA204200204D4D0100E04A01003A
:1005A000F7CB0100714D010038B548680C4607F0E3
:1005B00069FC0D4B011C054618BF012118680AF0A3
:1005C000AAFD30B12068094A2421BDE8384009F06D
:1005D0005FBA074B074A2068002D08BF1A46BDE8DE
:1005E0003840054909F0FCB920420020074D0100C0
:1005F000E04A0100F7CB01002A4D010070B5064624
:1006000048680C4607F03EFC022E85B212DDA06859
:1006100007F038FCC2B2084B294618680AF063FD9F
:10062000246802F005FA054902462046BDE87040FC
:1006300009F0D6B90022EEE7204200203C4D01002F
:1006400070B5064648680C4607F01CFC022E85B2C1
:1006500012DDA06807F016FCC2B2084B29461868E4
:100660000AF049FD246802F0E3F9054902462046F4
:10067000BDE8704009F0B4B90022EEE72042002046
:10068000844D0100F7B507460D460E46002456F886
:10069000040F07F0F7FB0DF804000134082CF6D125
:1006A000092F12DD686A07F0EDFBC2B2084B6946FC
:1006B00018680AF028FD2C6802F0BAF905490246CC
:1006C000204609F08DF903B0F0BD0022EEE700BF2F
:1006D00020420020F04C01002DE9F04789468AB005
:1006E00080461822002104A812F0DBFB4FF0FF33F4
:1006F00001AE4D4634464FF0010ACDE90133039374
:100700000DF10207D04533DD686807F0BBFB0AF145
:100710000103984527F8020F2ADDA86807F0B2FB0D
:100720000AF102039845F88022DD002255F80C0FEB
:10073000114612F0B7FFA31BC3F1200CA3F1200256
:10074000D84001FA0CFC40EA0C0021FA02F21043F6
:100750000AF1030AC0B2BAF10A0F20736073A073E2
:10076000E07320746074A074E07404F10804C9D1CB
:10077000084B314618680AF0B2FCD9F8004002F084
:1007800057F905490246204609F02AF90AB0BDE8A2
:10079000F08700BF20420020494C010010B5486896
:1007A0000C4607F06FFB044B0246186003492068B3
:1007B000BDE8104009F014B9F41300205E4C0100AC
:1007C00073B548680D4607F05DFB164B04460246BC
:1007D0004FF0FF3118680AF0C4FC38B11F21124AEB
:1007E000286802B0BDE8704009F052B90F4BC4F35D
:1007F00040021A700E490F4B14F0010F14BF0A4645
:100800001A4614F0040F04F0020614BF0C461C46EE
:100810002868002E18BF0B460094074909F0E0F83D
:1008200002B070BD20420020704C0100F81300207F
:10083000D17401006B740100814C010038B5486827
:100840000D4607F01FFB114B044602464FF0FF31E7
:1008500018680AF09BFC30B128680D4A1F21BDE8DA
:10086000384009F015B904F00104002C14BF02222D
:100870000122084B08491A70084B094A286808BF2A
:100880001A46BDE8384009F0ABB800BF204200204E
:10089000D04C010000000020E14C01006B7401000D
:1008A000D17401002DE9F04748680E4607F0EAFAD6
:1008B0008046B06807F0E6FA144D10F1000918BF41
:1008C0004FF0010918F10001074618BF01212868FF
:1008D0000AF071FCB0B90E4C0E4AB8F1000F08BF17
:1008E0001446494628680AF079FC68B9084B094A59
:1008F000002F08BF1346224630680749BDE8F0477D
:1009000009F06EB8054CECE7044BF4E720420020F8
:10091000F7CB0100E04A0100BB4C0100B06E0100C2
:100920002DE9F04F884B0746186897B008B10AF0D8
:10093000DEF8864B1D78002D00F03682844B0BA923
:100940001E78384609F0F4FFBDF82E30B41CA342DF
:1009500004D2804A936A01339362A1E1192B0AD928
:100960001923BDF83020ADF82E30182A82BFADF81B
:10097000303000230E93BDF830800D9942460FA809
:1009800012F06BFA0E9949B1BDF82E200FABA2EB15
:10099000080292B203EB080012F05FFA16AB711C6A
:1009A0001E4416F81C3CC9B203F00702052A40F0A9
:1009B00085801E0743BF16AA891811F81C2C9BB20C
:1009C00048BF43EA022364484FEA831200EA032047
:1009D00002F4406242EA00024FEA931000F402700F
:1009E00042EA00024FEAD31000F0100042EA00028F
:1009F0004FEA532000F020004FEA930342EA00023E
:100A000003F4A07342EA030292B248BFE1B242F497
:100A1000005312F44C4043F005030BD002F4484459
:100A2000B4F5084F06D0B0F5484F03D082F4015317
:100A300083F005039A0A580A00F0060002F0380213
:100A40000243C3F380100243444830F812204FF6AB
:100A5000FF7082423FF47DAF03F44054B4F5005F71
:100A600001D1D80532D416AE481CB4F5005F31442C
:100A7000C0B211F81CAC40F0708102F00F04BDF858
:100A80002EE0211871453FF764AF1CB316AE064443
:100A9000411C16F81C9C16AE56FA81F111F81C1C6C
:100AA0000230C0B20191C2F303118DF81410014459
:100AB0008E45FFF64EAF4FF0000816E016AA11441F
:100AC00011F81C2CE1B243EA0223B3E708464FF0C9
:100AD000000AD2E70194A146E5E70DF1580C614404
:100AE00011F81C1C664406F8441C5FFA88F14E1C81
:100AF0009DF814C0F6B20144B445C9B208F101082A
:100B0000EBD2C2F3032808EB01008645FFF621AFC4
:100B1000B8F1000F0DD016AE0E4416F81C6C481C30
:100B2000029616AE56FA80F010F81C0C0231C9B2CB
:100B30000390120B8DF820200A449645FFF609AF6A
:100B40004FF0000E13E000BFF4130020F813002054
:100B500000000020D021002000C0FFFF9C4D0100BC
:100B600016A80644024416F81C0C02F8380C5FFA6A
:100B70008EF28E189DF820000132D2B29042F6B269
:100B80000EF1010EECD2944A03F4A07102EA0312B2
:100B90000A43190901F440610A4392B242F4005138
:100BA00041F0020100287ED09DF82160AA2E7AD162
:100BB00042F4005141F01201884A0DF1580B1678A9
:100BC00016AA324406F1010E02F81C1C5BFA8EFED6
:100BD000B21C4FEA112BDB05D2B20EF81CBC06D4B6
:100BE0000DF1580E7244F31C02F81CACDAB24FEA55
:100BF000912E4B0A0EF0380E03F00603C1F380115C
:100C00004EEA03030B43764931F813304FF6FF7178
:100C10008B423FF49EAE190714D0B8F1000F44D0B8
:100C20000DF1580E9DF808A09644511C0EF81CAC0E
:100C30000DF1580E02325EFA81F19DF80CE0D2B24D
:100C400001F81CEC13F0F00F54D113F4706F0FD0B7
:100C5000002C53D016A81044511C00F81C9C16A858
:100C6000023250FA81F19DF80400D2B201F81C0C56
:100C700013F4704F63D1022E64D118238DF83C30E9
:100C800092FAA2F31B0E8DF83D300FA938460AF0F8
:100C9000BDFA00285AD11DB1524A136A01331362BA
:100CA00017B0BDE8F08F002586E7002C3FF451AE69
:100CB0000DF1580E9644511C0EF81C9C02320DF199
:100CC000580E5EFA81F1D2B29DF804E0B8E70DF15A
:100CD000580BDE4411F80AB00EF81CBC02EB010EF2
:100CE00001315FFA81FB58455FFA8EFEEFD2024474
:100CF000D2B2AAE700210DF1200AEFE7B8F1000F08
:100D00003FF427AE16A89DF808401044511C00F887
:100D10001C4C023216A850FA81F1D2B29DF80C0098
:100D2000A4E716A80144185D01F81C0CD118013382
:100D3000D8B28445C9B2F4D26244D2B29BE7002350
:100D400005ACF3E7531C8DF83C309EE7002DA7D08F
:100D5000244A536A01335362A2E7110B3FF4F9AD01
:100D600002F00F04C2F3031320441844C2F3032219
:100D700052FA80F2D2B28B18BDF82E108B423FF798
:100D8000E8AD16AB1A4412F81C3CA3F1AA02534278
:100D90005341002B84D038460AF033FA114BB8B9CE
:100DA0001A6A01321A627BE70FA938460AF02BFA59
:100DB00000287FF4CEAD9DF84430032B03D19DF87D
:100DC0003C30AA2B02D09DF83C30DEE70123E0E75F
:100DD0005A6A01325A6263E700C0FFFF0000002038
:100DE0009C4D0100D0210020084B10B518680C461E
:100DF00009F044FE064A074B0749002808BF1A4677
:100E00002068BDE8104008F0EBBD00BF2042002084
:100E1000F7CB0100E04A01003E4E010010B54868E2
:100E20000C4607F02FF8064B011C18BF012118686B
:100E300009F01CFE2146BDE810400120FFF7D4BF99
:100E4000204200200B462DE9F04F4FF0000887B0FC
:100E50002649186808F080FD4746254DDFF8A89020
:100E600000264FEA471B2B78002B38D00024214B5B
:100E7000A2460DE0204A1946524409EB040012F83C
:100E80000B20059312F086F9059B05340AF1010A3F
:100E90002A785245EEDC1CB100234C4404F8013C96
:100EA000164A1748324412F80840164A2978002C8E
:100EB00008BF02460091CDE9019215F8023C324686
:100EC00039460A48013608F06BFD042E0BF1080B79
:100ED000C9D108F10408013527B90127C0E789F80D
:100EE0000030DDE707B0BDE8F08F00BF524E0100D3
:100EF000761400208B4E010031140020F9130020DD
:100F0000E04A0100F7CB0100011400202DE9F8436D
:100F1000402204460F461E48002111F0C2FF002265
:100F20001C4B00251A605A60786806F0ABFF052C50
:100F3000C8BF0424184ED8BF023C706007F10409F2
:100F4000A5420BDB154B1449186809F093FDB8B99D
:100F50003946BDE8F8430120FFF774BFEB074FEABD
:100F6000650859F8040F05D406F08CFF06F8080050
:100F70000135E5E706F086FFB04488F80200F7E7A0
:100F80003868074A3021BDE8F84308F081BD00BF4A
:100F900031140020F9130020741400202042002096
:100FA000F34E01002DE9FF41804648680C4606F0EB
:100FB00069FFC7B2A06806F065FF012F02D8C5B26D
:100FC000032D07D931211D4A206808F061FD04B0C6
:100FD000BDE8F081B8F10B0F02DD194A3221F3E7C9
:100FE00000230326CDE9023346450FDB154BBE0037
:100FF00033445B5D144800932A4602AB39460068CF
:1010000009F026FD60B1114A3321DDE754F82600CE
:1010100006F038FF02AB334403F8030C0136E3E774
:101020000B4A354402EBC50602AB03CB42F8350050
:10103000716001202146FFF705FFC8E7934E0100CC
:10104000B84E0100F913002020420020D64E0100C6
:10105000311400202DE9FF4148680E4606F012FFCA
:101060000446B06806F00EFF0546F06806F00AFF79
:10107000C7B217F1000818BF4FF001081648EDB2CB
:10108000E4B22B4622464146006809F0EBFC38B139
:101090003421124A306804B0BDE8F04108F0F8BCD1
:1010A0000F4B306803EB840303F805800D4B0E4EA5
:1010B0001A5D234499780D4B0092002F08BF3346E8
:1010C00003930B4B2246CDE901132B46094908F047
:1010D00087FC04B0BDE8F081204200201C4E0100D6
:1010E000F913002074140020E04A0100F7CB01003E
:1010F00001140020524E0100F0B50126384C89B091
:101100000D4630460968267006F012FB30B36F6852
:1011100004223449384611F091FE80B92671A67137
:101120000026A868CDE90566079606F0ABFE43F2F7
:10113000C82780B2B84213D92B4A21210BE00222E2
:101140002A49384611F07AFE18B902232371A37197
:10115000E6E72021264A286808F09AFC09B0F0BD8D
:10116000ADF81800ADF81400E86806F08BFE80B208
:10117000B84202D91F4A2221EDE70A28ADF81A0029
:1011800084BF0A38ADF81600286998BFADF816601C
:1011900006F078FE184E608005A9306808F012FF4E
:1011A0000F49306809F084FB014608B1134AD2E7C1
:1011B00020792D6806F0B0FA0646A07906F0ACFA60
:1011C000638832460293BDF81A300D490193BDF889
:1011D000183000930346284608F002FCBEE700BF23
:1011E0007C140020684B01008D4B0100A37D0100A1
:1011F0006D4B0100A24B0100204200201C4F01005A
:10120000F74B0100F7B5114C0F46206809F054FB6D
:101210000546206809F068FB0646206809F06CFB6B
:101220000B490C4B3C68002814BF184608460A4A74
:10123000002E08BF0B4609490090002D08BF0A4642
:101240002046074908F0CCFB03B0F0BD2042002047
:10125000684F0100614F0100F7CB0100E04A010037
:10126000714F0100002313B58DF80030ADF8023046
:1012700040F20113ADF80430ADF80630084B0C46CF
:101280001868694609F014FB014618B1054A206840
:1012900008F0FEFB21460120FFF7B4FF02B010BDAD
:1012A00020420020494F010070B548680C4606F006
:1012B000E9FD0646A06806F0E5FD0546F1B20A4ED6
:1012C000003118BF0121306809F00AFBE9B2003192
:1012D000306818BF012109F00BFB2146BDE87040C2
:1012E0000120FFF78FBF00BF2042002070B5486883
:1012F0000C4606F0C7FDC5B2A06806F0C3FD291C68
:1013000018BF01210B4AC3B21170191C18BF01216B
:10131000094A206811700949094A002B14BF134675
:101320000B46002D08BF0A46BDE87040054908F08D
:1013300057BB00BFA4200020A52000206B74010033
:10134000D1740100A24F0100084B10B518680C467B
:1013500009F0A9FF064A074B0749002808BF1A46AB
:101360002068BDE8104008F03BBB00BF20420020D1
:10137000F7CB0100E04A01009950010038B54868F8
:101380000C4606F07FFD094D58B1032003F0A8FA82
:10139000286809F073FF2146BDE838400120FFF7B7
:1013A000D3BF286809F07BFFF5E700BF204200208B
:1013B000022838B50C460B4D10D1486806F062FD86
:1013C00060B1286809F078FF246801F031FB064914
:1013D00002462046BDE8384008F002BB286809F004
:1013E00071FFF1E720420020814E0100022838B54C
:1013F0000C460B4D10D1486806F044FD60B12868DA
:1014000009F066FF246801F013FB064902462046F6
:10141000BDE8384008F0E4BA286809F05FFFF1E75A
:1014200020420020814E010038B50F4D0C4628683F
:1014300009F039FF30B920680C4A3121BDE8384045
:1014400008F026BB606806F01DFDC1B2286809F0EF
:101450004BFF246801F0ECFA054902462046BDE83E
:10146000384008F0BDBA00BF20420020845001007F
:10147000814E01002DE9F347294D814628680C462D
:1014800009F011FFA84638B93121264A206802B078
:10149000BDE8F04708F0FCBAB9F1010F35DD60682E
:1014A00006F0F0FCB9F1020F5FFA80FA2FD0A068C5
:1014B00006F0E8FCB9F1030F07462CD0E06806F00F
:1014C000E1FCB9F1040F064623D0206906F0DAFCEE
:1014D000051C18BF0125009553463A463146D8F8F9
:1014E000000009F02EFFC0B90F4B104A2068002DF4
:1014F00014BF1D4615460E49CDE900653B465246D0
:1015000008F06EFA02B0BDE8F0874FF0250A094EE8
:10151000094F0025DFE7074EFBE7084A3221B5E710
:101520002042002084500100E04A0100F7CB010076
:101530001D50010055555500D6BE898E62500100E0
:1015400073B548680D4606F09DFC224E044630688F
:1015500009F0A9FE38B931211F4A286802B0BDE858
:10156000704008F095BAE4B2A4F12503022B02D929
:101570001A4A3021F1E70023194A009319492346FA
:10158000306809F0DEFE10B1174A3221E5E7252C5C
:101590001AD104F039FC22461449286808F020FAD0
:1015A000134B144A03F11C0153F8040B8B4242F80D
:1015B000040BF9D11C22294601200F4B1A8002B0DE
:1015C000BDE8704002F05CB8262C0CBF0C20272030
:1015D000DFE700BF2042002084500100BE4F010021
:1015E000D6BE898E5555550062500100DA4F010074
:1015F000F04F0100700F00206811002070B5064602
:1016000048680D4606F03EFC002814BF0123002365
:10161000264C237006D1264A28682649BDE870402A
:1016200008F0DEB94FF47A724FF414110023C4E9C4
:1016300001122148214A022EA370C4E903026370FB
:1016400031DDA86806F01EFC032EA07024D0E868E7
:1016500006F018FC042EA0601ED0286906F012FCCB
:10166000052EA08018D0686906F00CFC062EE080DC
:1016700012D0A86906F006FC072E20610CD0E8699C
:1016800006F000FC082EE06006D0286A06F0FAFB9F
:10169000003018BF012060702178094A044B0029EE
:1016A00008BF1A46B8E7064AB6E700BFF034002084
:1016B000E04A01000C50010055555500D6BE898EF8
:1016C000F7CB01002DE9F04F814685B00D46012092
:1016D000096806F02DF808B301244FF0000A2B4BDF
:1016E0002B4F1B68DFF8C0803B6026B2B9EB860F3A
:1016F00017DC284B013C26491868BC7109F0D3F966
:10170000254A26492D6800280CBF104608463B682C
:10171000224600902249284608F062F905B0BDE84B
:10172000F08F3601A6F10C0B55F80B0006F0AAFB62
:10173000B0F5803F07D316211A4A286805B0BDE8E6
:10174000F04F08F0A5B955F80B0006F09BFB631E9F
:101750001B0108EB030B28F80300AB1953F8080C26
:10176000039306F08FFB039B8BF8020053F8040CE5
:1017700006F088FBCBF80400A85906F083FB01347F
:10178000CBF808008BF80CA0E4B2AEE7A000002074
:101790000400002020420020D17401006B7401007D
:1017A000D4500100B45001000435002070B5012070
:1017B0000C46096805F0BCFF90B1606806F062FB5A
:1017C0000546A06806F05EFB0649EAB201EB02118D
:1017D0004873034604492068BDE8704008F000B92A
:1017E00070BD00BF04350020A050010070B5064652
:1017F0000C460120096805F09BFFF8B1606806F00F
:1018000041FB051C18BF0125022E15DDA06806F05E
:1018100039FB021C18BF0122094B2946186809F040
:1018200046F9084A084B0949002818BF1A4620689B
:10183000BDE8704008F0D4B80022EDE770BD00BFED
:1018400020420020D17401006B740100F4500100AB
:101850001FB548680C4606F015FB0F4BC1B218685F
:1018600009F029F910F5007F06D10C4A08212068FB
:1018700008F00EF904B010BD00EE100A0222BAEE14
:10188000CF0A0A2101A808F035F901AA0449206805
:1018900008F0A6F8EEE700BF204200202851010022
:1018A000ED51010010B5012086B00C46096805F025
:1018B0003FFF20B3606806F0E5FA8DF80800A068E5
:1018C00006F0E0FA0390E06806F0DCFA00238DF8F9
:1018D00014300C4B049002A9186809F0F0F8049A2F
:1018E00024680192039A08490092084A9DF808303A
:1018F000002808BF0A460649204608F071F806B0DD
:1019000010BD00BF20420020D17401006B740100A3
:10191000FF50010010B501200C46096805F008FFD2
:10192000A0B1606806F0AEFA094B011C18BF012196
:10193000186809F0C8F8074A074B0849002818BF7B
:101940001A462068BDE8104008F04AB810BD00BF34
:1019500020420020D17401006B740100F45001009A
:101960002DE9F04F2DED028B064689B00C46012083
:10197000096805F0DDFE00B30423022EADF80A303D
:1019800020DDA06806F07EFA032E87B21BD0E06847
:1019900006F078FA80B2824D00903B460DF10A02C3
:1019A0008049286808F0E2FDBDF80A3007466BB9A7
:1019B00001217D4A206808F06BF809B0BDEC028B6C
:1019C000BDE8F08F00274FF6FF70E4E7012E0CDD35
:1019D000606806F057FA10F1000A18BF4FF0010ACC
:1019E000022F05D1714A2021E4E74FF0000AF7E702
:1019F0000022BDF80A004FF0010E0428844642F28E
:101A0000107828BF4FF0040C1146694B654F96B211
:101A1000B44503F110034FD8664B67491B688871C2
:101A200028680B6009F03FF801222868114609F088
:101A30003EF800223988286808F023FA286808F060
:101A400069F90228FAD142F21070BDF80A304FF05D
:101A500000080533584309F04AF82068574907F051
:101A60007BFF47F6FF76B5EE008A554C0DF1140B5F
:101A7000BDF80A201FFA88F39A42286828D8012264
:101A8000032108F049F9BAF1000F96D00A2011F0AD
:101A900029FA4C4811F096FA4B4811F093FA49484C
:101AA00011F090FA1423A61B96FBF3FA0025DFF839
:101AB00024B14FF0000950E037F8326003F80EEC23
:101AC00023F8106C43E9038103F8041C01329EE7FC
:101AD0005FFA88F108F0EFFF8442B8BF04468642FF
:101AE000A8BF06461FFA88F908AB03EB490310F5B7
:101AF000007F23F8140C24B236B215D007EE900AFA
:101B0000B8EEE70A02220A2120EE080A584607F03A
:101B1000F1FF07EBC90337F83920CDF800B05B6857
:101B20004946264807F03CFF08F10108A0E7142DBC
:101B300030D04FF0040808AB03EB460636F9143CEE
:101B400008F1FF38A342ACBF23202E2011F0CAF9C0
:101B500018F0FF08F2D109F10109BDF80A305FFA67
:101B600089F69E42E3D300EE104A0222BAEECF0A73
:101B70000A2105A8013507F0BDFFEDB205A95846B9
:101B800011F098F9152DA4EB0A0492D10F4811F029
:101B900019FA12E737F836100D4811F08BF9DAE729
:101BA0002042002044350020705101008B5101007B
:101BB00004350020A000002004000020C5510100D1
:101BC0000080FFFFF5510100145201004152010055
:101BD000335201003852010007B5084BCDE900230C
:101BE0000B4602460649074807F0FAFE0120064A5E
:101BF00013680133136003B05DF804FBC6520100A3
:101C000064520100B8520100181A002070B54868EB
:101C10000C4606F037F921680546012005F088FDDD
:101C200000B3114E306808F04DFCC30713D52946A8
:101C3000306808F03CF930B92A4620680B49BDE805
:101C4000704007F0CDBE2B462068094A1421BDE83C
:101C5000704007F01DBF2068064A1321BDE87040A0
:101C600007F016BF70BD00BF20420020EA550100FA
:101C7000FA5501003356010030B1044B10F0010F4A
:101C8000034808BF1846704702487047567F010056
:101C900041540100E04A010070B548680C4606F066
:101CA000F1F80C4B05460146186808F0F7FB48B9F7
:101CB0002846FFF7E1FF084902462068BDE870406A
:101CC00007F08EBE2B462068044A1521BDE87040FF
:101CD00007F0DEBE204200209D540100AA540100FE
:101CE00070B5054648680E4606F0CCF8022D04464D
:101CF0000DDDB06806F0C6F80546A307306808D0C9
:101D00002346BDE870400B4AFF2107F0C1BE012504
:101D1000F3E7094907F020FE074E04EB8505AC42C6
:101D200000D170BD22682146304607F039FE0434E8
:101D3000F5E700BF80530100A45301002DE9FF41E6
:101D4000804648680D4606F09DF810F003040646EC
:101D50000FD12F1DA31C984514DC01AE22460D495E
:101D6000304611F017FAAE6029460320FFF7B8FF9E
:101D700005E00346084AFF21286807F089FE04B001
:101D8000BDE8F08157F8040F06F07CF846F824000F
:101D90000134DFE7656901008053010010B5486830
:101DA0000C4606F06FF8011C226818BF0121BDE83F
:101DB0001040092004F0F2BE70B5054648680C4694
:101DC00006F060F8061C18BF0126022D074D0ADD3B
:101DD000A06806F057F8286022683146BDE87040D8
:101DE000082004F0DBBE024B2B60F5E7100000205A
:101DF0008096980010B548680C4606F043F8002815
:101E00000CBF01220022064B20681A70054B064ABF
:101E1000064908BF1A46BDE8104007F0E1BD00BF03
:101E2000E4220020E04A0100F7CB01008D540100BC
:101E3000F8B5074648680C4606F028F8094B0A4EE4
:101E400018600023022F0546337003DDA06806F0FA
:101E500019F83070E9432268C90F0A20BDE8F8403C
:101E600004F09CBE6C0F0020F02200200B46024ABA
:101E7000FF21186807F00CBE76560100FFF7F6BF89
:101E800010B4094B08681C780849094B14F0010F7D
:101E900014BF0A461A4614F0020F18BF0B465DF82D
:101EA000044B044907F09CBDB80D0020F7CB01009E
:101EB000E04A01006053010038B548680D4605F05E
:101EC000E1FF0B4A0446137858B143F00103294659
:101ED00001201370FFF7D4FF34B1BDE8384003F0A0
:101EE00011BE03F0FE03F2E7BDE8384003F008BE80
:101EF000B80D002010B548680C4605F0C3FF074A2E
:101F0000137840B143F0020313702146BDE810403E
:101F10000120FFF7B5BF03F0FD03F5E7B80D002082
:101F200008B503F001FEBFF34F8F0549054BCA68A2
:101F300002F4E0621343CB60BFF34F8F00BFFDE7B5
:101F400000ED00E00400FA0570B5084C0D6820684B
:101F500008F02CF80646206808F030F832460346B0
:101F600003492846BDE8704007F03ABD20420020F2
:101F7000545401002DE9F14F044648680E4605F01F
:101F800081FF022C804685B212DDB06805F07AFF31
:101F9000041C18BF0124B5F5806F0BD94FF4806382
:101FA0001021204A306801B0BDE8F04F07F070BD45
:101FB0000024F0E71C4B2A461C49186807F0BFFEB6
:101FC0008542074604D01A4A1121306807F060FDA7
:101FD0001CBB2546DFF85490DFF858A0DFF860B04E
:101FE0001FFA88F3A3420DDDC5F5C9710AEB0500A0
:101FF000023519F804305A46ADB211F097F8B5F52C
:10200000C97F08D13A460B4B0B49306801B0BDE897
:10201000F04F07F0E5BC0134E2E7044B3A460749CC
:10202000F3E700BFCE5301002042002084140020BB
:10203000F8530100841800201654010028540100B0
:10204000AD7601002DE9F04F89B0824604A80C4618
:1020500007F0BCF9804605A807F0C0F9BAF1010FF6
:102060000746DDF8149013DDD4F804B079495846DA
:1020700011F0B0F860B1002635464E4544D1002D30
:1020800050D15B465021744A206807F001FD21E0E1
:10209000724D049E2B781BB12168714810F00AFF25
:1020A0002B7813B16F4810F005FF0024DFF8E4A18E
:1020B000DFF8E4B1A1452B780FD113B16A4810F0D5
:1020C00081FF2B7813B1694810F07CFF0024684F22
:1020D000A64210D109B0BDE8F08F1CB113B1504633
:1020E00010F0E8FE2B7823B157F83410584610F062
:1020F000E1FE0134DEE72B7823B158F8341038467E
:1021000010F0D8FE0134E3E707EBC60357F83600BA
:102110005946039311F05EF8039B0136002808BF6F
:102120001D46AAE7D4F80890524E4946304611F0B1
:1021300051F8074640BBBAF1040F05D051214E4A71
:10214000206807F0A5FCC5E77721E06805F0A2FE4E
:102150000028F3D0E06806968DF81C7005F092FE1A
:10216000ADF81E0006AE0023E9791A46A87906F0FC
:1021700091FD002F51D0287907F038F92A683F499E
:10218000206807F02DFCA5E73D4E4946304611F08A
:1021900021F8074600BBBAF1050F02D0394A532196
:1021A000CEE77521E06805F075FE0028F6D07521B0
:1021B000206905F06FFE0028F0D00123E0688DF85B
:1021C0001C30069605F05EFE8DF81F00206905F0B4
:1021D00059FE8DF81E00C5E749462B4810F0FAFF5E
:1021E000B0B100273E46DDF810B0BB4504D196B92A
:1021F0004B46264A542147E758F83700494610F025
:10220000E9FF08EBC70A002808BF56460137ECE78C
:1022100001270646A7E70027A5E7002E3FF45AAF9F
:1022200033794BB1B779EB79AA7969792879019734
:10223000F779009707F0E8F8E979A87900230422F4
:1022400006F028FD33682A681149206807F0C8FBAA
:1022500040E700BFC75401003E550100BA0D002001
:10226000CC540100E9540100F3540100FE54010074
:10227000385501007655010059550100C755010038
:102280009E55010081550100D5550100A955010059
:10229000D9550100F05401007FCC010038B54868E1
:1022A0000D4605F0EFFD044602460549286807F093
:1022B00097FB044B21461868BDE8384003F0BCBCCE
:1022C0004D5301002042002001282DE9F74F074619
:1022D0000E4631D130683A4907F03EFB0024394DB3
:1022E000394E3A4F2B78A34202D803B0BDE8F08FA5
:1022F0000123A4F12001C4F1200203FA01F923FA19
:1023000002F203FA04F849EA0209D7E9002302EAD3
:10231000080003EA09012E4A50EA01032D4B08BFC9
:102320001346CDE90083224656F824104B462A482E
:1023300007F036FB0134D5E7486805F0A3FD022F0E
:1023400082464FF0000B07DDB06805F09BFD0022D0
:102350004BEA000B4AEA020A042F06D1F06805F0A6
:1023600091FD80464FF0FF390CE025DD306905F026
:1023700089FD8146F0684FF0000805F083FD48EACA
:1023800000039846114FD7E900238AEA02048BEA3A
:10239000030508EA040009EA050180EA020481EA6B
:1023A00003052A4623460D493068C7E9004503B0B6
:1023B000BDE8F04F07F014BB4FF0FF38D2E700BF85
:1023C000CB520100B90D0020180D0020782200200A
:1023D0006B740100D1740100F85201003253010006
:1023E00010B548680C4605F04DFD002814BF0122C9
:1023F0000022064B20681A70054B064A064908BFA2
:102400001A46BDE8104007F0EBBA00BFBD2200201D
:102410006B740100D17401007E54010010B548684E
:102420000C4605F02FFD002814BF01220022064BA8
:1024300020681A70054B064A064908BF1A46BDE8CF
:10244000104007F0CDBA00BFBC2200206B74010021
:10245000D17401006D54010038B548680C4605F090
:1024600011FD003018BF0120074D287007F05AFAFF
:102470002978064B064A2068002908BF1A46BDE89D
:102480003840044907F0ACBABA0D00206B74010063
:10249000D17401006356010010B50C6804F078FB9C
:1024A00004F0BEFB034902462046BDE8104007F099
:1024B00097BA00BF55530100074B10B518680C6858
:1024C00007F028FC05F028F9044902462046BDE83B
:1024D000104007F085BA00BF20420020C053010021
:1024E0002DE9F74348680C4605F0CCFC0746A06888
:1024F00005F0C8FC0646E06805F0C4FC10F10009D0
:102500008046206918BF4FF0010905F0BBFC2F4B36
:10251000021C93F800C0054618BF01222C482D4923
:10252000BCF1000F07D190F800C0CC4503D191F861
:1025300000C094451DD04FF0000C80F8009083F847
:1025400000C00A70B8F1000F09D0012222211A70D0
:102550002068214A03B0BDE8F04307F099BA1F484C
:10256000002D1F4B424608BF00231E49006807F09C
:10257000D1FC16B100221C4B1A6008F0B4FA321CD0
:1025800018BF012280463946164807F0CFFC0646A0
:1025900008F0A9FA0346042E96BF144A144A52F8CA
:1025A00026202068A3EB08035DB10F49096800915C
:1025B000104907F015FA0EB90B4B1E6003B0BDE8C9
:1025C000F0830D4907F00CFAF5E700BF1400002076
:1025D0001D1A00201C1A0020EF5601002042002086
:1025E000D91B0000C0210020181A00205052010001
:1025F000DF560100195701004E5701002DE9F04147
:10260000074648680D4605F03DFC0646A86805F0FB
:1026100039FC311C044618BF01212A680C2004F043
:10262000E3FF88B12946384600F070FC074B61088B
:102630001E60074B19603EB1BDE8F0410548064BEE
:102640000122006807F0A4BBBDE8F08168350020D6
:102650006435002020420020755B000007EE900AE0
:102660000B68B8EEE77A0133012B0B6006D100232B
:10267000C1E9010081ED037A0B617047D1ED035A86
:1026800007EE903A37EE656AF8EE677AC6EE276A8B
:1026900076EEA57A37EE677AC1ED037AD1ED047A4A
:1026A000E7EE067A4A68C1ED047A8242D4BF4A60F6
:1026B00048608A688242ACBF8A60886070470000C8
:1026C0002DE9F041254C2DED028B94ED280AB5EE55
:1026D000008A90B0884620EE080A00220A2104A849
:1026E00007F008FAD4ED267AB8EEE70A07AD20EE37
:1026F000080A02220A21284607F0FCF9D4ED277ABD
:10270000B8EEE70A0AAE20EE080A02220A21304695
:1027100007F0F0F9D4F8943094ED297A013B07EEF4
:10272000903AF8EE677A87EE270ADFED0D7A0DAF63
:1027300020EE270A00220A21384607F0DBF9CDE90E
:102740000167009504AB226E0649D8F8000007F037
:1027500047F910B0BDEC028BBDE8F081D02100201C
:102760000000803D625801000022064B411EC3E973
:102770000122DA60044A914288BF6FF0604018601D
:10278000704700BF241A0020FEFFFF1F012238B54A
:102790001A4C0D462068114607F0BEFA0122206847
:1027A000114608F02EF90023154920680B704B7074
:1027B00001238B70CB7008F0A3F8014618B1114AC1
:1027C000286807F065F96421206808F006F90021FF
:1027D000206807F0B6FE0021206808F053F9686809
:1027E00005F050FB0446084B1860FFF7BDFF22467A
:1027F00028680649BDE8384007F0F2B820420020BA
:10280000BE22002070570100201A002091570100BD
:1028100070B5064648680C4605F034FB011C0546B9
:1028200018BF012122680D2004F0DEFE10B32146FE
:10283000304600F06BFB01220F4C1146206807F078
:102840006BFA01222068114608F0DBF895B10021EF
:10285000206808F017F9094B1868FFF785FF012277
:10286000074B20681A70074B0022BDE8704019889A
:1028700007F007BB70BD00BF20420020201A0020D7
:10288000341A00209C0000202DE9F04F8DB00E4638
:1028900006F07CF9344BD3E90045D3F808A093F94E
:1028A0000C7006F077F9002C3CD028460FF0E8FDBC
:1028B0008046204689460FF0E3FD02460B4640461F
:1028C00049460FF081FF0022284B0FF053FE10F015
:1028D0008BF800EE100A45B350468DED050A0FF057
:1028E000CFFD8046E80089460FF0CAFD02460B4640
:1028F000404649460FF068FF00221C4B0FF03AFE9D
:1029000010F072F89DED050A8346194BE4009B6CAC
:1029100073B13B4622461749306807F061F80DB0A5
:10292000BDE8F08F9FED140AD5E74FF0000BECE700
:102930000DF118080DF1240902220A21404607F082
:10294000D9F8022200EE10BA0A21484607F0D2F860
:10295000CDE902A9CDE90087EB002246074930689E
:1029600007F03EF8DBE700BF241A002000005940C2
:10297000D02100209D570100000000000F580100E9
:1029800003282DE9F0410D4605DC25492868BDE8FE
:10299000F04107F025B84A681478A3B2A3F16101A9
:1029A00003291AD8613CE4B244B3012C28D0022C8C
:1029B00028D0032C0CBF1F260026A86805F062FA59
:1029C000C7B246FA07F3DB071ED433466A682868A5
:1029D0001449BDE8F04107F003B8A3F14101032910
:1029E00001D8413CDFE7303B032B01D8303CDAE72C
:1029F00028680D49BDE8F04106F0F2BF7F26DCE70C
:102A00000326DAE73F26D8E7E86805F03BFA3946BF
:102A1000C3B20422204606F03DF90449B6E700BFE0
:102A2000A3580100DA580100BC58010050590100B8
:102A300003289ABF024B53F820000248704700BF9A
:102A400060590100795C01002DE9F041364C8AB0F3
:102A5000086806F06DFFE36D21680893A36D3348A5
:102A60000793A36B00260693636BDFF8E080059362
:102A7000E3692F4F0493A369039363690293236966
:102A80000193E3680093D4E9012306F0C9FFA36A28
:102A9000616E00932748D4E9082306F0C1FF264B56
:102AA000186807F037F9054604F036FE014623485A
:102AB00006F0B6FF05F0010258F826103846013638
:102AC00006F0AEFF032E4FEA5505F3D11C4B1D88CF
:102AD00004F05EF804F0A4F8236D02460593E36C5D
:102AE00029460493A36C17480393E36F0293636C26
:102AF0000193D4F884300093D4F8803006F090FF2E
:102B0000D4E92312E36A10480493E36E0393236F1E
:102B10000293A36E0193236B0093636D06F09CFFF9
:102B20000AB0BDE8F08100BFD0210020915A010019
:102B3000915B0100485B010020420020865B0100A0
:102B40009C000020975B01000D5C01001800002034
:102B50002DE9F041154C88B020680D4607F049FF7B
:102B60000646206807F049FF074620682D6807F0F1
:102B700038FF8046206807F038FF0D493246CB69A0
:102B800007938B6906938B6C0593CB6F04938B6FC4
:102B900003934B6FCDF80080CDE9010305493B4617
:102BA000284606F01DFF08B0BDE8F0812042002055
:102BB000D02100207059010070B58AB00C4607A8DA
:102BC000002107F057FC0D4D9DF825600C49206849
:102BD000002E08BF29469DF822409DF820209DF830
:102BE0002130084DCDE90234CDE90415CDE900428C
:102BF000054906F0F5FE0AB070BD00BF6B74010018
:102C0000D17401001E730100815C010038B50A4BCC
:102C100048681D680C4605F035F9C1B2284607F032
:102C20009DF9064B064A0749002808BF1A46206846
:102C3000BDE8384006F0D4BE204200202B660100DB
:102C4000C9620100CF62010010B50C468AB007A826
:102C5000012107F00FFC9DF822109DF820209DF81F
:102C600021309DF82300CDE90123CDE90310009127
:102C70002068064906F0B4FE9DF82430079A0449FE
:102C8000206806F0ADFE0AB010BD00BFB65C0100C2
:102C9000D45C010010B548680C4605F0F7F800F167
:102CA000FF03B3F5FF7F024606D92068064A0821D4
:102CB000BDE8104006F0ECBE044B054918802068C2
:102CC000BDE8104006F08CBEED5C0100A82200209B
:102CD0001A5D010002287FB50D4614D1486805F041
:102CE000D1F8011C18BF0121184E306807F0D1F847
:102CF00010F5007F044608D1154A0821286806F01F
:102D0000C7FE04B070BD0021EEE700EE100A0222FB
:102D1000BAEECF0A0A2101A806F0ECFE306808F0EE
:102D2000DAF960B1042094FBF0F040B208F072FAD6
:102D300001AA03460749286806F052FEE1E701AA06
:102D40000549286806F04CFEDBE700BF2042002062
:102D5000565A0100805A0100ED510100F8B50746AE
:102D600048680C4605F08EF80F4B032F06461D7879
:102D700003D1A06805F086F8C5B20021012004F057
:102D8000D7FC30B9094A20680821BDE8F84006F0B0
:102D90007FBE0748002332462946006807F07DF8C9
:102DA00008B1044AEFE7F8BD9C0000203B63010036
:102DB00020420020676301001FB50F4B0C461868C6
:102DC00007F065FE10F5007F06D10C4A0821206847
:102DD00006F05EFE04B010BD00EE100A0222BAEE4C
:102DE000CF0A0A2101A806F085FE01AA044920683D
:102DF00006F0F6FDEEE700BF204200201F5A01005A
:102E0000ED51010038B548680C4605F03FF80B4D10
:102E100041B2286807F03FFE28B120680849BDE8A4
:102E2000384006F0DDBD286807F039FE0549024646
:102E30002068BDE8384006F0D3BD00BF2042002026
:102E4000D6620100F3620100064B10B518680C460B
:102E500007F025FE044902462068BDE8104006F050
:102E6000BFBD00BF20420020F36201002DE9F843FE
:102E700048680C4605F006F88046A06805F002F8A0
:102E80008146E06804F0FEFF022590FBF5F507F0AF
:102E90002AFE1B4E1B4C1C4F064407F024FEB0427A
:102EA000206803D3BDE8F84306F0E6BF06F0E4FF70
:102EB00000222068012106F02FFF5FFA88F12068C8
:102EC00007F09DFB39880022206806F0D2FF2846D3
:102ED00002F01EFE206806F0CFFF002220680121CC
:102EE00006F01AFF5FFA89F1206807F088FB0022DC
:102EF0003988206806F0BDFF284602F009FECCE7BD
:102F0000404B4C00204200209C00002010B50C4695
:102F1000A822002104480FF0C4FF2146BDE810405C
:102F20000120FFF791BD00BFD021002010B50C6833
:102F300007F0D9FD034902462046BDE8104006F0DF
:102F40004FBD00BF64CC010010B548680C4604F0CA
:102F500099FF07F0CAFD246840B907F0C4FD024696
:102F600005492046BDE8104006F03ABD07F0BBFD1C
:102F700002490246F5E700BF016301001F6301003B
:102F80000B4673B5AE4CAF49186806F0E5FC2068F7
:102F900007F015FEAC4EAD4D3246002814BF2B464F
:102FA0003346AB49A74806F0FBFC206807F009FE52
:102FB0002A46002814BF2B463346A649A14806F0EE
:102FC000EFFC206807F0FFFD3246002814BF2B46B7
:102FD0003346A1499B4806F0E3FC206807F0F5FD65
:102FE0003246002814BF2B4633469C49954806F0CC
:102FF000D7FC206807F0EBFD2A46002814BF2B46BB
:10300000334697498F4806F0CBFC206807F0E1FD76
:103010002A46002814BF2B4633469249894806F0B9
:10302000BFFC206807F0D7FD2A46002814BF2B46B6
:1030300033468D49834806F0B3FC206807F0CDFD88
:103040003246002814BF2B46334688497D4806F097
:10305000A7FC206807F0C3FD3246002814BF2B46AA
:1030600033468349774806F09BFC206807F0B9FD9A
:103070002A46002814BF2B4633467E49714806F085
:103080008FFC206807F0AFFD3246002814BF2B46A6
:10309000334679496B4806F083FC0DF107020321A2
:1030A000206807F0A2FD002800F0C1819DF80730DC
:1030B000FF2B00F0BC812A467049714806F070FC75
:1030C0000DF107020021206807F08FFD002800F0B5
:1030D000B3819DF80730FF2B00F0AE815B4A694950
:1030E000674806F05DFC0DF107020121206807F03A
:1030F0007CFD002800F0A5819DF80730FF2B00F033
:10310000A081524A60495E4806F04AFC0DF1070270
:103110000221206807F069FD002800F097819DF8E2
:103120000730FF2B00F09281484A5849544806F076
:1031300037FC574B57491A46424806F031FC206885
:1031400007F057FD414E404D3246002814BF33462C
:103150002B4651493B4806F023FC206807F04BFD05
:103160002A46002814BF33462B464C49354806F002
:1031700017FC206807F041FD3246002814BF334693
:103180002B4647492F4806F00BFC2668304607F0CF
:1031900032FD002800F05F812C4B2C4A4149294820
:1031A00006F0FEFB206807F02AFD284E264D3E491A
:1031B000002814BF33462B462A46224806F0F0FB6F
:1031C000206807F01EFD3246002814BF33462B4608
:1031D00036491C4806F0E4FB2668304607F00FFD30
:1031E000002800F04081194B184A3149154806F073
:1031F000D7FB206807F007FD134D144E2A46002820
:1032000014BF33462B462B490E4806F0C9FB2068F5
:1032100007F0FBFC3246002814BF33462B462649F4
:10322000084806F0BDFB206807F0F1FC2A4600289C
:1032300014BF33462B462149024806F0B1FB3FE05C
:10324000204200202E5D01002B5D0100275D010062
:10325000535D01006B5D0100855D01009F5D010014
:10326000C05D0100E05D0100FE5D01001C5E01002B
:103270003E5E01005C5E0100785E01009C5E010024
:10328000BE5E0100E35E0100005F01001D5F010002
:103290003A5F01003E5F0100585F0100735F01006B
:1032A000975F0100B75F0100CF5F0100F35F01008E
:1032B000136001002B6001004F6001006B60010092
:1032C000206807F0A6FC2A46002814BF33462B4688
:1032D00069496A4806F064FB206807F09CFC3246A6
:1032E000002814BF33462B466549644806F058FB56
:1032F000206807F092FC3246002814BF33462B4664
:1033000060495E4806F04CFB206807F088FC2A46BE
:10331000002814BF33462B465B49584806F040FB53
:10332000206807F07EFC3246002814BF33462B4647
:103330005649524806F034FB206807F074FC544CA0
:10334000002814BF33462B46324652494B4806F0FC
:1033500027FB206807F06BFC2A46002814BF334681
:103360002B464D49454806F01BFB206807F061FCE1
:103370002A46002814BF33462B4648493F4806F0EA
:103380000FFB206807F057FC2A46002814BF33467D
:103390002B464349394806F003FB206807F04DFCF3
:1033A0002A46002814BF33462B463E49334806F0D0
:1033B000F7FA206807F043FC3246002814BF334672
:1033C0002B4639492D4806F0EBFA206807F039FC06
:1033D0003246002814BF33462B463449274806F0AE
:1033E000DFFA206807F021FC3246002814BF33467C
:1033F0002B462F49214806F0D3FA206807F023FC1A
:103400002A46002814BF33462B462A491B4806F09B
:10341000C7FA206807F019FC2A46002814BF334673
:103420002B462549154806F0BBFA02B070BD234B68
:10343000234A2449114841E6204B214A22490F489A
:103440004FE61E4B1E4A21490C485DE61B4B1C4AA9
:103450001F490A486BE6304607F0CFFB00287FF48F
:103460009BAE2B4699E6304607F0CBFB00287FF455
:10347000BAAE2B46B8E600BF816001002E5D0100A8
:103480009F600100C2600100E4600100066101006C
:10349000204200202E610100566101007E61010082
:1034A000A7610100D0610100F56101002A620100FD
:1034B0005E6201008D620100AA6201002B5D0100C5
:1034C000275D01009C5E0100E35E0100005F0100DA
:1034D0001D5F0100012838B50C4608DD4D68032248
:1034E0001B4928460FF0AAFC50B91A4B1870194B0B
:1034F0001B7823BB18492068BDE8384006F070BA35
:103500000422164928460FF099FC30B90122114BCC
:103510001A70134B134A1A60E9E70322124928462E
:103520000FF08CFC20B902220A4B1A700F4BF1E706
:1035300020680F4A7021BDE8384006F0A9BA012B77
:1035400001D10C49D7E7022B01D10B49D3E738BD94
:103550004F640100401A0020476401002664010006
:10356000381A002024000020B7A501003C1A0020D2
:103570002B6401005364010060640100084610B52B
:103580000A4986B08C684B780A780494CC880394F6
:103590008C88029491F90340019489780091006825
:1035A000034906F01DFA06B010BD00BF240000203C
:1035B000DC63010038B548680C4604F063FC104D2C
:1035C0002870A06804F05EFC6870E06804F05AFCA3
:1035D000A870206904F05AFCE870606904F052FC9D
:1035E000A880A06904F04EFCE880E06904F04AFC81
:1035F0002146A8600120BDE83840FFF7BFBF00BFEB
:10360000240000202DE9F843074648680D4604F0E1
:1036100039FC022486B2DFF86090A6F10208BC42B1
:103620000CDB124B9B783BB9114A124801231288DC
:103630001149006807F068F901200FE055F82400EF
:1036400004F020FC08EB0403B3F5FC7FC0B207D301
:103650000A4A0521286806F01BFA0020BDE8F88315
:1036600033194B4403F8020C0134D8E7BE22002082
:103670006811002020420020700F0020B966010070
:103680000846034A002312880249006802F040BD40
:1036900068110020700F002010B50C46FFF7B2FF34
:1036A00028B12146BDE810400120FFF7E9BF10BD59
:1036B00070B504460D46FFF7A5FF58B1686804F0E1
:1036C000E1FB82B213192868023B0349BDE8704050
:1036D00006F086B970BD00BFD6660100022838B575
:1036E0000C461EDD486804F0CDFB0546A06804F0DA
:1036F000C9FB0F4B02469B783BB123680D4A184625
:10370000BDE838400C4906F06BB90C4BE9B21868BB
:1037100006F00FFB0A4A07492368002818BF0A462B
:10372000EDE72068074A0521BDE8384006F0B0B94A
:10373000BE220020276601002F66010020420020E3
:103740002B6601004266010070B548680D4604F022
:1037500099FBB0F5FC7F034606D928680C4A062180
:10376000BDE8704006F094B90A490B4C897882B2E2
:10377000228029B9094801230949006807F0C4F8E3
:10378000228828680749BDE8704006F029B900BFC3
:103790009B660100BE22002068110020204200200C
:1037A000700F0020AD6601000846034A002312781E
:1037B0000249006802F0ACBC9700002057000020CE
:1037C0002DE9F843074648680D4604F05BFB0224E8
:1037D00086B2DFF85490A6F10208BC420CDB114B14
:1037E00011491A78114B186807F06AF82946BDE8A4
:1037F000F8430120FFF7D8BF55F8240004F042FB3E
:1038000008EB04033F2BC0B206D92868084A0521FB
:10381000BDE8F84306F03CB933194B4403F8020CF9
:103820000134DAE7970000205700002020420020F2
:10383000FA65010070B548680C4604F023FB402887
:10384000034606D920680A4A0621BDE8704006F002
:103850001FB9084B084DC2B2084918682A7007F012
:103860002FF82A7820680649BDE8704006F0B8B8FD
:103870009B66010020420020970000205700002096
:10388000AD66010038B500200C46096803F084FEDF
:10389000B0B12168012003F04BFF88B1606804F0EB
:1038A000F1FA084B81B2186806F04BFE054603F0AA
:1038B0009DFB2A4620680449BDE8384006F090B8D0
:1038C00038BD00BF204200201866010070B50020FE
:1038D0000C46096803F060FE00284DD021680120E5
:1038E00003F026FF002847D000236668234D0322FB
:1038F000234930462B706B700FF0A0FAB0B9A87056
:10390000A66803221E4930460FF098FAE8B9E8701D
:103910001C4B1A49186806F0F3FF034620B32068D1
:10392000194A5021BDE8704006F0B2B80422174988
:1039300030460FF083FA10B90123AB70E0E7144A68
:103940005021206806F0A4F8DAE704220F49304637
:103950000FF074FA10B90123EB70D9E70C4A50212B
:10396000206806F095F8D3E7D4E9012320680949D7
:10397000BDE8704006F034B870BD00BFBE22002024
:103980009064010020420020B3640100D897010038
:1039900094640100E364010013B50C46012009683A
:1039A00003F0C6FE78B1606804F06CFA80B2B0F53E
:1039B000007FADF8060008D94FF400730D4A54217A
:1039C000206806F065F802B010BD0B4B0DF1060241
:1039D0000A49186806F0A0FF28B1094A5521206855
:1039E00006F056F8EFE7BDF806200649206805F016
:1039F000F7FFE8E75166010020420020411A00204D
:103A0000766601008D6601004FF4007307B502AAC7
:103A100022F8023D044906F07FFF022808BF00207B
:103A200003B05DF804FB00BF411A002037B5134B0B
:103A300048680093124B0C46019304F023FA0030BF
:103A400018BF01200F4D2870A06804F01BFA003049
:103A500018BF01200C4B2A78187002AB03EB8000D2
:103A600003EB820252F8082C50F8083C0749206802
:103A700003B0BDE8304005F0B3BF00BFE04A01002D
:103A8000F7CB01003925002028250020FB64010028
:103A90002DE9F04F644B95B01B7804460E463BB9B8
:103AA000624A5121306805F0F3FF15B0BDE8F08F90
:103AB000486804F0E7F98346B06804F0E3F9032CA2
:103AC000074619DDF06804F0DDF910F1000818BFB1
:103AD0004FF00108B8B2283003F026FF824603F009
:103AE00043FF534D044650B90121286806F06EFF8C
:103AF000504603F051FFD8E74FF00008EAE70146CF
:103B00004FF0010901F8289B4162BAB2286806F01B
:103B100007FFE083BBF1000F00F0818049460AAA4D
:103B2000286806F001FF9DF8283004F10807814657
:103B30002377B8F1000F63D040F20243ADF818309C
:103B400006234FF000088DF81A303A4B0DF1380B70
:103B500093E8070007AB83E80700E38BE36006AB5D
:103B600018F803204946227428683A46059306F05F
:103B7000E6FEA268059B4BF8282008F10108B8F181
:103B8000030FEDD13A464946286806F0DCFE4FF0B7
:103B900000080DF1400BA36828684BF8043F07AB01
:103BA00053F828305A46E18B08F101089847B8F1DC
:103BB000030FF0D1139B20490393129B30680293AB
:103BC000119B4FF000080193109B0093DDE90E2339
:103BD00005F006FF4946286806F0F8FEB8F1000F28
:103BE0001DD01422002138460FF05BF98023A37505
:103BF000E38BA3B9114A5221306805F049FF77E7FA
:103C000001463A46286806F09EFE80460028E1D12B
:103C10003A46E18B286806F0ADFE8046DAE7514669
:103C2000074803F000FF40E72825002073650100E6
:103C3000204200206C640100A9650100DE650100DE
:103C40006C35002073B5134B48680093124B0E4639
:103C5000019304F017F9041CB06818BF012404F0A4
:103C600011F9051C18BF01250C4B2A46214618687E
:103C700006F0C7FE02AB03EB840403EB850555F8A1
:103C8000083C54F8082C0649306802B0BDE8704082
:103C900005F0A6BEE6660100AC97010020420020B8
:103CA0001B6501000E4B10B51B780C4633B920681C
:103CB0000C4A5121BDE8104005F0EABE01210A4836
:103CC00003F070F9094B0A481988013989B203F0E9
:103CD00069F920680749BDE8104005F081BE00BFC2
:103CE00039250020F0660100700F002068110020C7
:103CF000710F00202667010010B548680C4604F0DB
:103D0000C1F8044B0246186003492068BDE8104022
:103D100005F066BE082500207864010070B50646EF
:103D200086B048680C4604F0ADF885B20A2D06D975
:103D30005221114A206805F0ABFE06B070BD022E7C
:103D400010DDA06804F09EF880B200900B482B466E
:103D500003AA0121006806F066FEA84204D0084AC2
:103D60005321E7E70020F0E700232A4603A9206853
:103D700002F0CEF9E1E700BF2F65010020420020EC
:103D80004D65010070B5002304240225012650F87A
:103D900023201278542A15D007D8492A0BD0522A4A
:103DA0000ED001200BE00123F1E7722A08D0742A1B
:103DB00008D0692AF5D1CE54002BF4D0002070BD74
:103DC000CD54F9E7CC54F7E70B4B10B518680C4607
:103DD00006F078FBC30706D52068084A1221BDE823
:103DE000104005F055BE064B20681A880549BDE80D
:103DF000104005F0F5BD00BF20420020966701008D
:103E00009C000020BB67010070B548680D4604F0B7
:103E100039F80C4B044681B2186806F0D7F8A3B203
:103E200030B12868084A1121BDE8704005F030BE65
:103E3000184601F0E9FF2946BDE870400120FFF770
:103E4000C3BF00BF2042002078680100012837B5B9
:103E50000C4626DD486804F019F843F6FF7347F670
:103E6000FE7205B2184480B290420AD90193124BF7
:103E7000124A009301212B46206805F009FE03B089
:103E800030BD0F4B2946186806F069FB014630B17A
:103E90000C4A206803B0BDE8304005F0F9BD0A4B7C
:103EA0001D80094B0949B3F90020206803B0BDE823
:103EB000304005F095BD00BF01C0FFFFC1680100A3
:103EC00020420020E5680100421C00200469010036
:103ED0001FB50C460D4B02A9186806F0C0FBBDF8D3
:103EE0000C3024680193BDF80A309DF80820009337
:103EF000074B084953F82230074A002808BF0A46F2
:103F00000649204605F06CFD04B010BD204200209B
:103F100064680100C6520100EA670100F067010011
:103F200070B548680C4603F0ADFFC5B2032D07D944
:103F30002B462068124A1321BDE8704005F0A8BD49
:103F4000A06803F09FFF0646E06803F09BFF0D4961
:103F50000D4B888018680D704E8006F069FB38B9EB
:103F60000A4B21461D700120BDE87040FFF7B0BF2D
:103F70002068074A2621BDE8704005F089BD00BFD2
:103F8000456901004800002020420020441C002018
:103F90006869010070B5084C0D68206806F044FBA4
:103FA0000646206806F084FB32460346034928464D
:103FB000BDE8704005F014BD20420020D367010029
:103FC00073B504460D460120096803F0B1FB0028D3
:103FD0003DD0022C6E681F4C1DDD1F49A8680FF0F4
:103FE00024F9C0B9304603F04DFFC6B2314620680F
:103FF00006F005FB30BB194B1E70206806F014FB61
:104000000646206806F054FB3246034614492868E9
:1040100005F0E6FC1BE0304603F038FF06B23146FF
:10402000206806F020FB68B96946206806F017FB97
:1040300040B932469DF80010206805F019FB074B87
:104040001870DAE7074A2321286805F021FD02B03D
:1040500070BD00BF204200202C690100300000200C
:10406000D3670100306901002DE9F7430F46284C62
:104070002849386805F0B4FC6946206806F0EFFA74
:104080009DF80030012B0AD02FD3022B2FD02121F5
:10409000214A386805F0FCFC03B0BDE8F0835A26DD
:1040A0000125DFF88090DFF880802A46494638688D
:1040B00005F096FC01220321206805F02DFEE9B2EF
:1040C000206806F09CFA0022B8F80010206805F07D
:1040D000D0FE0EF07DFEC0B20A280AD00D2808D00E
:1040E0007128F6D10D4A2021D3E7B426D8E740261F
:1040F000D6E7012203212068013505F00DFEEBB261
:104100009E42D2D20649386805F06AFCC4E700BF77
:1041100020420020676A0100A96A0100CA6A010002
:10412000D96A0100BC6A01009C000020064B10B552
:1041300018680C4606F071FB044902462068BDE889
:10414000104005F04DBC00BF20420020C6670100B2
:1041500038B501200C46096803F0EAFA70B1084B43
:1041600060681D6803F08EFE0146284606F051FB8C
:104170002146BDE838400120FFF7D8BF38BD00BF59
:104180002042002070B548680C4603F07BFE0546CF
:10419000A06803F077FE0C4BC6B2EDB2294632465A
:1041A000186806F03EFB014638B933462A462068B7
:1041B0000649BDE8704005F013BC2068044ABDE81C
:1041C000704005F065BC00BF20420020126901006C
:1041D000C962010038B548680C4603F053FEC5B209
:1041E000281C18BF012006F08FFA054B054A2068ED
:1041F000002D08BF1A46BDE83840034905F0F0BB62
:10420000E04A0100F7CB01008D67010013B50C46B1
:104210006946201DFFF7B6FD30B10F4A1621206810
:1042200005F036FC02B010BD9DF8003001A98DF8F4
:1042300004309DF801308DF80530084B186806F001
:104240005CF9074B074A0849002808BF1A4620684E
:1042500005F0C6FBE6E700BF2F6A01002042002000
:104260002B660100C96201003E6A010013B50C46CD
:104270000120096803F05CFA48B16946201DFFF788
:1042800081FD30B1114A1621206805F001FC02B011
:1042900010BD9DF8003001A98DF804309DF8013063
:1042A0008DF805300A4B186806F043F918B99DF8E7
:1042B0000020084B1A70084B084A0949002808BF1B
:1042C0001A46206805F08CFBE1E700BF2F6A010069
:1042D00020420020680F00202B660100C962010007
:1042E0009669010037B50F4B0C46186801A906F016
:1042F00024F980B99DF8040003F00EFA05469DF8F4
:10430000050003F009FA2A4603460749206805F02C
:1043100067FB03B030BD054A2821206805F0B8FBD3
:10432000F7E700BF204200201A6801002E68010054
:1043300037B50F4B0C46186801A906F0F6F880B99E
:104340009DF8040003F0E8F905469DF8050003F028
:10435000E3F92A4603460749206805F041FB03B00C
:1043600030BD054A2721206805F092FBF7E700BF22
:10437000204200201A68010048680100002370B53F
:1043800006460D4601248AB0CDE904330693B442B3
:1043900033DBBDF8103007A9ADF81C30BDF8123082
:1043A000ADF81E30BDF81430ADF82030BDF8163031
:1043B000ADF82230BDF81830ADF82430BDF81A3011
:1043C000ADF82630154B186805F0FCFD00BBBDF8B4
:1043D0002610BDF822300391BDF82410BDF81C2032
:1043E0000291BDF81E1028680191BDF820100091BF
:1043F0000B4905F0F5FA0AB070BD55F8240003F03A
:1044000041FD04AB03EB440323F8020C0134BEE787
:10441000044A1821286805F03BFBECE72042002005
:10442000A7690100EE69010010B50D4B0C469B78A1
:10443000012B06D020680B4A1921BDE8104005F079
:1044400027BB486803F01EFD074B81B2186806F0D1
:10445000C0FA064902462068BDE8104005F0C0BA1F
:10446000BE220020056A0100204200201C6A0100D3
:1044700010B548680C4603F005FD064B81B218687C
:1044800006F0ABFA044902462068BDE8104005F08A
:10449000A7BA00BF20420020836901002DE9F74F31
:1044A000054648680C4603F0EDFC0646A06803F09C
:1044B000E9FC042D4FF0000780464FF000090EDDA7
:1044C000E06803F0DFFC074320694FF0000A03F0C7
:1044D000D9FC46EA0A0648EA0A0849EA0009CDE991
:1044E00000890E4932463B46086806F02EF8042D36
:1044F0000ADDCDE9009833463A460949206805F0BF
:104500006FFA03B0BDE8F08F434632460549206894
:1045100003B0BDE8F04F05F063BA00BF20420020B1
:104520008D680100AB6801002DE9F04148680D4637
:1045300003F0A8FC064604F029FB074606F0D3FA70
:104540000446304606F0D3FA064606F0CCFA041BC1
:10455000384604F01FFB0649064A2346002E18BFC2
:104560000A4628680449BDE8F04105F039BA00BFA1
:104570006B740100D17401003A6701000B46024AD6
:104580000121186805F084BA54670100FFF7F6BFEF
:104590002DE9F34704460E4606F0D6F8002850D120
:1045A000334B7268334D9A4294BF4FF00408324B3C
:1045B000297888BF93F80080414542D02F4B0429C9
:1045C00008BF41461A78204605F0B0F82949074649
:1045D000204685F8008006F02BF8DFF89C80DFF895
:1045E000BC90DFF8BCA040B398F80030022B06D98D
:1045F000024673682249234805F0F2F921E00133AD
:10460000DBB288F800302B705A1E59F8233051461F
:10461000009359F8222003461A4805F0E1F915499C
:10462000204606F005F8DEE7174AD2F88830013355
:10463000C2F8883002B0BDE8F0873946204606F05F
:1046400012F8002311491A46204605F063FC104B6E
:104650001B78002BE8D001224FF0FF310B4805F00A
:1046600065FC0228E0D10B490B4805F0B9F9FEE7DB
:10467000FFC99A3B48000020441C00203000002065
:104680006D6B0100356B0100D0210020C02100209E
:10469000451C0020416B0100616B010034000020CB
:1046A000036B010007B50DF1060105F0A8FC20B968
:1046B000BDF8060003B05DF804FB0020FAE7000037
:1046C0001FB504460C4A01AB1068516803C39068DB
:1046D0001860204606F0D2FD204606F0EDFDFC21D4
:1046E000204605F08CFF01A9204605F06BFC204612
:1046F000FFF7D8FF04B010BDEC6A01002DE9F043CC
:10470000002589B0894608A941F8205D044617466E
:1047100006F0F6F84FF42873ADF80A3040F20223A1
:10472000ADF80C30ADF80E306423ADF81030ADF8B4
:104730001430C023B6224FF00108ADF816300B2319
:1047400001AE31462046ADF812208DF81C3001959F
:104750008DF80880ADF81850ADF81A508DF81D503E
:104760008DF81E5006F062FC4146204606F0E6FC3D
:104770002046B9F1000F32D077B306F08FFC0B2240
:104780001A4F1B4DB9782A8021B9012319492046B7
:1047900006F0BAF83346184A5168106803C3118905
:1047A000927A19809A700023124AF15C995401336D
:1047B0000B2BFAD1BB782BB901232A880D4920464F
:1047C00006F0A2F8FC21204605F019FF2046FFF76D
:1047D00069FF09B0BDE8F08306F05CFCCFE717B1D4
:1047E00006F060FCCBE706F051FCC8E7BE220020D3
:1047F00068110020700F0020F86A01000B46024A81
:104800002221186805F044B9EF560100FFF7F6BF02
:1048100030B50D4685B02E4A0021044605F016FE3F
:10482000092D0ED8DFE805F0050D0D112A39454890
:104830004E51284A2221284805F02AF9002005B0C7
:1048400030BD2046FFF73CFFF9E7244A01AB106872
:10485000516803C390681860204606F00FFD20469B
:1048600006F036FDFC21204605F0C9FE01A92046D0
:1048700005F0A8FB2046FFF715FFE0E7174A01AB5C
:104880001068516803C390681860204606F0F6FC73
:104890000021204606F028FDE4E7104A01AB10682D
:1048A000516803C390681860204606F0E7FC0221B7
:1048B000EFE70022114601E0002201212046FFF728
:1048C0001DFFBCE701220021F8E70122F2E700BF4B
:1048D00091450000EF560100AB6B0100EC6A01004E
:1048E000032838B505460F4C09D1206806F0F3FBC4
:1048F00010B1206806F0DEFB062D09D138BD206816
:1049000006F0D1FC10B1206806F0C9FC052DECD1F1
:10491000206806F031FD0028F0D02068BDE838405E
:1049200006F028BD2042002010B501200C46096881
:1049300002F0FEFE70B1084B186805F0F6F9074A60
:10494000074B0849002808BF1A462068BDE81040F8
:1049500005F046B810BD00BF20420020E04A01002B
:10496000F7CB0100BF6B0100012873B50D46124E55
:10497000124C12DC34602378114A002B0F4B08BF15
:104980001346104A009328680F4B104918BF13466E
:104990000F4A05F025F802B070BD486803F072FABE
:1049A00034600028E7D012210A4A286802B0BDE826
:1049B000704005F06DB800BF50000020461C00207C
:1049C000FF6B01007C630100F76B0100246C0100A8
:1049D000206C0100066C010001282DE9F74F0F46FD
:1049E0000BDD486803F04EFA38B11221334A3868BB
:1049F00003B0BDE8F04F05F04BB800244FF48062DF
:104A0000A3462F4B2F4DDFF8DC80DFF8DC901A80B7
:104A10002C7040F2FE3AD34504D900232B7038683D
:104A2000294B38E00EF0D4F9C6B2731EDBB2FD2B71
:104A3000F1D898F800300BF1010405F80B60A4B22E
:104A4000002B38D030460EF04DFA0D2E0AD198F8D2
:104A5000003013B10A200EF045FA0A232B550BF152
:104A60000204A4B2082C24D9A4F109060922A91928
:104A700048460EF0ECFBE0B998F8003013B113484B
:104A80000EF0A0FA00230F48AB550EF0D8FB104BE8
:104A9000188038680F4B2C780F490A4A002C08BF41
:104AA0000A460E4900920E4A04F09AFF03B0BDE890
:104AB000F08FA346ADE70D2ED4D1CEE7066C0100F2
:104AC00048200020461C0020F76B0100F56B010018
:104AD000462000207C630100FF6B0100246C010074
:104AE000206C0100BA0D0020EB6B0100012810B50D
:104AF0000C460ADD486803F0C5F930B12068094A60
:104B00001221BDE8104004F0C3BF0023064A074944
:104B10001370074A20681380BDE81040054B064A11
:104B200004F05EBF066C0100461C0020D56B01003E
:104B3000462000207C630100206C0100012870B534
:104B40000C46154E154D17DC35602A780AB313480C
:104B50000EF075FB124B01221880002311492068CA
:104B60000B801149114BBDE87040002A18BF0B465D
:104B70000F4A104904F034BF486803F083F93560E8
:104B80000028E2D020680C4A1221BDE8704004F0F1
:104B90007FBF4FF48063E1E750000020461C0020F7
:104BA0004620002048200020446C0100F76B0100E3
:104BB000206C0100D56B0100066C010070470000FD
:104BC000012330B5022885B00D468DF80F300CDD7D
:104BD0000DF10F01A86800F005FE30B90F4A03215E
:104BE000286804F055FF05B030BD05F07CFF0C4C83
:104BF0002060686803F046F90A4B9DF80F201860A2
:104C000012B92268801A18601B6822682868D118B7
:104C10000091054904F0E4FEE5E700BF4C6C01009B
:104C2000502000204C2000205E6C0100F8B50646A4
:104C30002820174602F078FE054602F095FE04464D
:104C400020B90B4A136801331360F8BD03230761D1
:104C5000037005F048FF0021A060304605F0E9F838
:104C60002946E0600348BDE8F84002F0DCBE00BF22
:104C7000802200206C3500202DE9F341124D88463A
:104C8000286805F0A8F80446286805F09DF807464E
:104C9000286805F08BF8064605F025FF0B490C4AFD
:104CA000D8F80050002C14BF14460C46002F08BF43
:104CB0000A463346CDE9004206490246284604F03A
:104CC0008FFE02B0BDE8F081204200206B7401002D
:104CD000D17401006F6D0100F8B500200C46096821
:104CE00002F05AFC10B3606803F0CCF81049064695
:104CF000A0680EF09AFA07460E4D286805F05DF898
:104D00003A1C18BF01220C4B3146286805F040F8C8
:104D100030B12068094A4021BDE8F84004F0B8BE2F
:104D20002146BDE8F8400120FFF7A6BFF8BD00BF4F
:104D3000BA6D010020420020755B0000BE6D0100CD
:104D400010B500200C46096802F026FC48B1054B5E
:104D5000186805F032F82146BDE810400120FFF741
:104D60008BBF10BD204200202DE9F043486885B07C
:104D70000F4603F087F8C6B2022E08D9032310218C
:104D8000184A386805B0BDE8F04304F081BE182425
:104D9000154B04FB0634204605F039F8054620463D
:104DA00005F03EF800218146204605F042F8804695
:104DB00005F099FE0D490E4A3C68002D0CBF1546C2
:104DC0000D46B9F1000F18BF0A460095CDE901263E
:104DD000434602460749204604F002FE05B0BDE8FE
:104DE000F08300BFE16C010054200020D174010069
:104DF0006B740100266D010070B500200C46096837
:104E000002F0CAFBE0B1606803F03CF805460030F0
:104E100018BF012004F098FF58B10A490A4A2068D7
:104E2000002D08BF0A46BDE870400323074904F07F
:104E3000D7BD2068064A1021BDE8704004F028BEA6
:104E400070BD00BFECAC0100DE830100846C01008A
:104E5000A06C0100F7B50C460020096802F09CFB2D
:104E6000002837D0606803F00DF8C5B2022D08D9CC
:104E700003231021184A206803B0BDE8F04004F075
:104E800007BEA06802F0FEFF14490646E0680EF077
:104E9000CCF9134B0746186804F08FFF31461826EB
:104EA00010483A1C18BF012200950F4B06FB050065
:104EB00004F098FF38B140210C4A206803B0BDE8E7
:104EC000F04004F0E5BD2146012003B0BDE8F0400C
:104ED000FFF74ABF03B0F0BDE16C0100BA6D0100FD
:104EE00020420020542000202D4C0000A56D010020
:104EF00010B500200C46096802F04EFB08B360684C
:104F000002F0C0FFC3B2022B07D920680323BDE81B
:104F100010400C4A102104F0BBBD18200A4A00FBC7
:104F2000032004F06BFF28B12146BDE810400120AA
:104F3000FFF71ABF2068054A1021BDE8104004F0B1
:104F4000A7BD10BDE16C010054200020C46C01001D
:104F500010B50C46486802F095FF2168BDE8104086
:104F600002F092BBFFF7F4BFF0B5012887B00D4601
:104F70001C4C03DD486802F085FF206021681A4B55
:104F80001A4C11F0010F0CBF22461A4611F0020F05
:104F900008BF234601F01804082C2868C1F38007D5
:104FA0001ED0134D134E102C18BF35460E4C0F4E0D
:104FB00011F0200F14BFA446B44611F0400F14BFE7
:104FC000A646B64611F0800F08BF3446CDE9015C15
:104FD000CDE903E40097084904F002FD07B0F0BDF5
:104FE000064DE3E7F8240020D17401006B74010042
:104FF000DB6D0100CE6D0100E46D0100D26D01009A
:1050000010B548680C4602F03DFF054B011C1860C6
:10501000226818BF0121BDE81040072001F0BEBD85
:10502000EC2200200B46034A03491268186804F07A
:10503000D7BC00BF140D0020796E010010B5486880
:105040000C4602F01FFF044B2146BDE810401860DB
:105050000120FFF7E7BF00BF140D002038B54868F6
:105060000D4602F00FFF0B4C011C18BF01212068F8
:1050700005F04CFB20682D6805F04CFB064B074AF9
:105080000749002808BF1A462846BDE8384004F002
:10509000A7BC00BF20420020E04A0100F7CB01007E
:1050A000B270010010B548680C4602F0EBFE084BE8
:1050B00081B2186805F032FB064A074B0749002801
:1050C00018BF1A462068BDE8104004F089BC00BF34
:1050D000204200207C630100F76B0100A8700100F2
:1050E0000C4B10B518680C4605F022FB236860B124
:1050F00003280CD0084A0949022818BF0A46BDE80F
:1051000010400749184604F06BBC064AF7E7064A08
:10511000F5E700BF2042002019720100F76B010083
:10512000A87001007C6301000C720100002310B51F
:105130000C4686B0CDE9033305930B4B03A91868E1
:1051400005F0FAFA059A24680192049A0749009238
:10515000074A9DF80C30002808BF0A46054920463A
:1051600004F03EFC06B010BD204200207C6301002C
:10517000F76B0100466E010030B5054685B00C4660
:105180000120096802F0D4FA00B300236068CDE979
:105190000133039302F076FE8DF80400A06802F05C
:1051A00071FE032D029002DDE06802F06BFE084BF9
:1051B000039001A9186805F0C3FA064A064B07498F
:1051C000002818BF1A46206804F00AFC05B030BD5C
:1051D000204200207C630100F76B0100A8700100F1
:1051E000F7B548680C4602F04DFE054601F0D0FCCC
:1051F0000E2808D13DB11D212A4A206803B0BDE820
:10520000F04004F045BC01F0C3FC04280AD1264E4E
:10521000306804F07FFD8DB90128244F20D8002389
:105220003B702BE001F0B4FC0E28F0D02168002088
:1052300002F0B2F90028EAD103B0F0BD10F002028A
:1052400029D11B4B3068198804F01BFE034610B3AC
:105250002821184A206803B0BDE8F04004F018BCCB
:105260002A460121306804F057FD01F091FC0E2818
:10527000D5D12A46294602F0B7F93D7026680E4D71
:105280000E4C05F030FC234600902A460C4930466F
:1052900004F0A6FBD0E70122044B26681A70074DE4
:1052A000054CEEE7E86E010020420020CD220020F0
:1052B0009C000020286F0100E04A0100F7CB0100AC
:1052C000126F01002DE9F047012886B00C4615DD6C
:1052D000486802F0D7FD254B054602464FF0FF31E6
:1052E000186805F04DF938B11F21214A206806B031
:1052F000BDE8F04704F0CCBB1E4B1D60DFF874A086
:105300001D49DAF8000025681C4C10F0010F0CBF95
:105310000E46264610F0020F0CBF0F46274610F02F
:10532000040F0CBF8846A04610F0080F0CBF89463A
:10533000A14610F0100F08BF0C4602F037FADAF859
:1053400000300F4913F0800F0E4BCDE9019408BFD8
:105350001946CDF80080CDE903013B4632460A49A3
:10536000284604F03DFB06B0BDE8F087204200204F
:105370001A700100D82200206B740100D174010062
:1053800041910100177001002B700100F8B507462C
:1053900048680C4602F076FD00230C4A0C4D022FA3
:1053A000C6B213702B6008DDA06802F06BFDC0B2BE
:1053B00001280CBF102308232B60311C226818BF62
:1053C0000121BDE8F840012001F0E8BB6B1100208D
:1053D00000250020F8B5074648680C4602F052FD4B
:1053E0000023144D032FC6B22B6015DDE06802F0D8
:1053F00049FDC0B201280CBF102308232B60A06810
:1054000002F040FDC0B2022808D920680A4A0121F2
:10541000BDE8F84004F03CBBF1D00120074B311C43
:105420001870226818BF0121BDE8F840012001F082
:10543000B5BB00BF00250020BF7001006B1100202C
:1054400010B548680C4602F01DFDC1B2003122685B
:1054500018BF0121BDE81040042001F09FBB0000EF
:1054600070B548680C4602F00DFD054601F090FB52
:10547000042806D02068194A0721BDE8704004F0CE
:1054800007BB174E00220121306804F045FC15F0DF
:10549000FF020FD0002313491A460988306804F030
:1054A000D1FCC0B10346104A20680821BDE8704015
:1054B00004F0EEBA0D4B1B7833B10A4B30681988F3
:1054C00004F0DFFC0028EDD12068094A0949BDE855
:1054D000704004F085BA2068074AF7E7D26F0100F0
:1054E000204200209C000020F56F0100CD2200200A
:1054F000E04A0100E96F0100F7CB01002DE9F04F10
:10550000064685B048680D4602F0BCFC00F07F04FA
:10551000042C00F2F8800CBFDFF85C82DFF85C82BC
:10552000042E07DD7E4A1521286805B0BDE8F04F3E
:1055300004F0AEBA022E01DD7A4AF4E700227A4E78
:10554000012C32700ED900F0DBFA4FF04022D36EFE
:1055500003F03003202B1FBFD36E23F0300343F042
:105560001003D366714B724A7249042C08BF1A4665
:105570003378C3F3401051F8201003F00303029175
:105580006D49286851F823306C49CDE90023434622
:10559000224604F025FA00F0C7FA03F0F7FA012CCE
:1055A000814605D9002201230421104603F072FB35
:1055B00001F0EEFA0B2803D10022114601F0EEFAB9
:1055C000002301201A461946CDE9000003F01CFB18
:1055D0005B4B00229B465B4EDFF88CA132701A7049
:1055E000631E032B09D8DFE803F0027E8286564A49
:1055F000136923F00403136130BF484603F0CAFA6D
:1056000003F0C4FA8146DAF8000004F096FB07467E
:1056100028B933781BB99BF80030002BE0D04846FE
:1056200003F0B8FA01F0B4FA0B2803D100221146B6
:1056300001F0B4FA4FF000094FF0010A4B46CDE9F2
:1056400000A94A464946504603F0DEFA544505D9BA
:10565000042253461146484603F01CFB32783B496E
:105660009BF800003A4B002A14BF1A460A46002F46
:1056700014BF1F460F46002808BF0B460021CDE986
:105680000027CDE90231224643463249324804F030
:10569000A7F9337863B1012C30D9304800F038FADB
:1056A0000DF096FB0DF094FB0DF092FB0DF090FBCE
:1056B0002B4B1B7863B12B4B002219882A4B18689F
:1056C00004F0DFFB20B1294A0121286804F0E0F949
:1056D000012C21D9264B1B78DB071DD505B0BDE871
:1056E000F04F00F00FBA012003F060FA85E70120C7
:1056F00003F070FA81E703F06FFA7EE70DF068FBC4
:105700000028FBDBD4E7234601211A4A286805B0AC
:10571000BDE8F04F04F0BCB905B0BDE8F08F00BFA4
:10572000057101002C7101009C20002041910100B5
:1057300017700100E06E0100986E010053710100C6
:10574000382500209D20002000ED00E02B5D0100A9
:10575000275D010087710100BF71010090D0030037
:10576000CD2200209C00002020420020C9710100B1
:10577000B80D0020ED71010080CC0100E85401005B
:105780000B46024A1521186804F082B9A86E010080
:1057900010B501F0FDF90B28044617D10C4B186821
:1057A00004F0CBFA90B100222046114601F0F6F940
:1057B000BDE81040074B08491A78084802F0030278
:1057C00051F822200023064904F00AB910BD00BF99
:1057D000204200209C200020986E0100D06E010025
:1057E000BC6E010038B505460C4601460D480DF06B
:1057F000F1FC18B902232370012006E029460A486B
:105800000DF0E8FC10B90120207038BD294607488A
:105810000DF0E0FC08B92070EEE7022300202370B1
:10582000F3E700BF8E6E0100926E0100BA6D0100B9
:10583000002337B5054648680C46CDE9003302F031
:1058400021FB022D009012DD01A9A068FFF7CAFF1D
:1058500030B90D4A1C21206804F01AF903B030BD9C
:10586000032D04D0E16809480DF0B4FC50B10023C9
:1058700068468DF8053001F045FD2168062001F0ED
:10588000ABFEEBE70123F3E74C6C0100B8720100BB
:105890002DE9F0410C46002186B00646084601F08D
:1058A0007BFE014658B90E2001F076FE38B91E2164
:1058B000344A206804F0ECF806B0BDE8F081606876
:1058C00002F0E0FA8046E06802F0DCFA0DF1060131
:1058D0000746A068FFF786FF10B92B4A1921E8E7B1
:1058E0000DF107012069FFF77DFF10B9274A1A2142
:1058F000DFE7052E43DD606902F0C4FA051C18BF1E
:105900000125062E3CD0A06902F0BCFA003018BF79
:1059100001209DF806308DF816008DF80C309DF8AA
:10592000073000218DF81430194B0E208DF81550DA
:105930001D70CDF80880049701F02EFE054630B9A1
:10594000226801210E2001F04FFE0028B4D0114939
:105950001148002302AA0988006804F096FA034659
:105960000028A9D00D4A1B21206804F091F8002DD1
:10597000A2D1226829460E2001F036FE9CE70025C0
:105980000020C6E74C6F0100776F0100936F0100A4
:10599000DD2200209C00002020420020AD6F01008D
:1059A00013B548680C4602F06DFA072803460BD879
:1059B0000A4A0B4910700B4A52F82020206802B0A6
:1059C000BDE8104004F00CB80722012100922068C5
:1059D000054A04F05DF802B010BD00BF550000207C
:1059E000D370010098720100E070010013B548689F
:1059F0000C4602F047FA072803460BD80A4A0B491F
:105A000010700B4A52F82020206802B0BDE8104008
:105A100003F0E6BF0722012100922068054A04F046
:105A200037F802B010BD00BF540000209B70010089
:105A300098720100E070010010B548680C4602F051
:105A400021FA002814BF01220022094B20681A7095
:105A500008BF0122BDE8104018BF0022054B0649CF
:105A60001A70064B064A08BF1A4603F0B9BF00BFBA
:105A7000D5220020DC220020846E0100E04A0100D3
:105A8000F7CB01000B46024A5621186804F000B813
:105A9000BE720100FFF7F6BFFFF7F4BFFFF7F2BFDA
:105AA000FFF7F0BFFFF7EEBFFFF7ECBFFFF7EABF6E
:105AB000FFF7E8BFFFF7E6BFFFF7E4BFFFF7E2BF7E
:105AC000FFF7E0BF10B90122014B1A70704700BF09
:105AD0009D20002008B503F04DFC012003F00CFDD3
